:100000000C9426010C944E010C944E010C944E015C
:100010000C944E010C944E010C944E010C944E0124
:100020000C944E010C944E010C944E010C944E0114
:100030000C944E010C944E010C944E010C944E0104
:100040000C9481130C944E010C948C160C94BE16D7
:100050000C944E010C944E010C944E010C944E01E4
:100060000C948F060C944E0107634236B79BD8A7B9
:100070001A39685618AEBAAB558C1D3CB7CC5763CD
:10008000BD6DEDFD753EF6177231BF000000803F7B
:1000900008000000BE922449123EABAAAA2ABECD97
:1000A000CCCC4C3E00000080BEABAAAAAA3E000009
:1000B0000000BF000000803F000000000008417801
:1000C000D3BB4387D1133D190E3CC3BD4282AD2B38
:1000D0003E68EC8276BED98FE1A93E4C80EFFFBE30
:1000E00001C4FF7F3F0000000000005EBCE2613FF2
:1000F000DD83C29C7E20A3FD1F419DC3217FFCA206
:10010000401E5F01E3BD3E6082DC237D9FC1421C37
:10011000FEA0E1BF5D0380DE3C62BEE0025CDF81E9
:10012000633D7C22C09E1D43A1FF4618FAA4277997
:100130009BC584DA3866E5BB5907DB856739BAE4C5
:1001400006581947A5FB7826C49A653BD987045AF7
:10015000B8E6A7F91B45C6987A24F8A6441A99C7A9
:10016000257B3A6486D85B05E7B98CD2306EEDB357
:10017000510F4E10F2AC2F7193CD114FADF3702E85
:10018000CC92D38D6F31B2EC0E50AFF1134DCE90B7
:10019000722C6D33D18F0C52B0EE326C8ED0530D69
:1001A000EFB1F0AE4C1291CF2D73CA947628ABF517
:1001B00017490856B4EA6937D58B5709EBB5366845
:1001C0008AD495CB2977F4AA4816E9B7550B88D677
:1001D000346A2B7597C94A14F6A8742AC896154B29
:1001E000A9F7B6E80A54D7896B3500000008000269
:1001F00001000003040700000000000000000102ED
:1002000004081020408001020408102001020408A4
:100210001020040404040404040402020202020282
:10022000030303030303000000002300260029004A
:1002300000000000250028002B0000000000240022
:1002400027002A002904AD05EE166E0411241FBEF6
:10025000CFEFD8E0DEBFCDBF12E0A0E0B1E0E6E135
:10026000F2E402C005900D92A433B107D9F724E05F
:10027000A4E3B2E001C01D92A030B207E1F712E0A2
:10028000CAE4D2E004C02297FE010E948320C43455
:10029000D107C9F70E9432170C94FE200C9400007D
:1002A000FC01CB01408151816281738122E030E009
:1002B0000C94601967E171E08FE593E00E947F176D
:1002C0004AE050E061E070E08FE593E00E946D1835
:1002D00062E371E08FE593E00C947F17AF92BF92D9
:1002E000CF92DF92EF92FF920F931F93CF93DF9302
:1002F000CDB7DEB7C854D1090FB6F894DEBF0FBE34
:10030000CDBFCE0109969C838B8388E090E09E83CD
:100310008D8318861F8283ED91E09A8389830091F3
:1003200084021091850269E371E0CE0101960E947A
:10033000B80F29E13FE0FC0135832483118300835A
:10034000C0903402D0903502E0903602F09037022F
:100350006CE371E0CE0101960E94B80F0BEE1FE036
:10036000FC0115830483C082D182E282F382609112
:10037000450270914602882777FD8095982F0E944C
:100380008D1D20E030E048EC52E40E94F21C6B012D
:100390007C0166E471E0CE0101960E94B80F20E571
:1003A000A22E21E0B22EFC01B582A482C082D182AD
:1003B000E282F3826091430270914402882777FDC4
:1003C0008095982F0E948D1D20E030E048EC52E48B
:1003D0000E94F21C6B017C016FE471E0CE0101967A
:1003E0000E94B80FFC01B582A482C082D182E28251
:1003F000F382609141027091420280E090E00E949D
:100400008B1D20E030E048EC52E40E94F21C6B01AE
:100410007C016CE571E0CE0101960E94B80FFC01F1
:10042000B582A482C082D182E282F382C0903F0270
:10043000D0904002E12CF12C65E671E0CE010196EE
:100440000E94B80FFC0115830483C082D182E2822E
:10045000F382C0903D02D0903E02E12CF12C61E786
:1004600071E0CE0101960E94B80FFC011583048350
:10047000C082D182E282F3826DE771E0CE01019603
:100480000E94B80FFC01158304831082118212822E
:10049000138263E28FE593E00E948117BE016F5FD4
:1004A0007F4F8FE593E00E94881764E28FE593E029
:1004B0000E94B817C85BDF4F0FB6F894DEBF0FBEBF
:1004C000CDBFDF91CF911F910F91FF90EF90DF9003
:1004D000CF90BF90AF9008950F931F93CF93DF936A
:1004E000CDB7DEB768970FB6F894DEBF0FBECDBFAD
:1004F000CE0109969C838B8382E090E09E838D835E
:1005000018861F8289ED91E09A8389830091840285
:100510001091850269E371E0CE0101960E94B80F47
:1005200029E13FE0FC0135832483118300836DE7DB
:1005300071E0CE0101960E94B80F2BEE3FE0FC0166
:100540003583248341E050E060E070E040835183D4
:100550006283738363E28FE593E00E948117BE019B
:100560006F5F7F4F8FE593E00E94881764E28FE50D
:1005700093E00E94B81768960FB6F894DEBF0FBEDE
:10058000CDBFDF91CF911F910F91089564E871E085
:100590008FE593E00C94A6176BEA71E08FE593E08A
:1005A0000C947F176FEA71E08FE593E00C94A61727
:1005B00083E692E00E94B8096CE083E692E00C9436
:1005C000460985E592E00C94A90D87E492E00C942D
:1005D000C411CF93DF9360E087E00E94AD140E94C6
:1005E000C602CAE0D0E00E94CC0268EE73E080E070
:1005F00090E00E94FA132197B1F70E94D20262E3C1
:1006000070E080E090E0DF91CF910C94FA1360E00D
:100610008EE00C94AD140E94D8020E94E1020E9468
:10062000E5020E94E9020C94070326E040E051EE47
:1006300060E070E08FE593E00E942A160E945A0164
:100640000C940B038F929F92AF92BF92CF92DF9246
:10065000EF92FF920F931F93CF93DF9300D000D0C0
:10066000CDB7DEB78C010E94CB134B015C0120E0BB
:1006700030E0A901C12CD12C7601C801AA2797FD31
:10068000A095BA2F880E991EAA1EBB1E29833A83F5
:100690004B835C830E94CB1329813A814B815C811F
:1006A000681579058A059B05B8F410161106A4F49F
:1006B0008EE00E946714AA2797FDA095BA2FC80E56
:1006C000D91EEA1EFB1E29813A814B815C812F5F76
:1006D0003F4F4F4F5F4FDACFC701B6010E94432013
:1006E000C9010F900F900F900F90DF91CF911F9144
:1006F0000F91FF90EF90DF90CF90BF90AF909F90C1
:100700008F9008950F931F930E94CB13009138028E
:100710001091390220913A0230913B02601B710B1B
:10072000820B930B61367A4E8F4F9F4FC0F087E05C
:100730000E941C15019789F481E080933C020E947D
:10074000CB13609338027093390280933A029093EE
:100750003B021F910F910C946C0210923C021F916E
:100760000F910895F894A89529E288E190E00FB6DA
:10077000F894A895809360000FBE20936000789451
:100780000895F894A89588E10FB6F89480936000D6
:10079000109260000FBE78940895CF92DF92EF928E
:1007A000FF926B017C01CA010197049790F4BA0192
:1007B000882777FD8095982F0E948D1D9B01AC01A5
:1007C00060E070E080E291E40E94A41E0E945A1D45
:1007D00004C061E070E080E090E00E948D1D9B010C
:1007E000AC01C701B6010E94411E0E945A1DCB01F7
:1007F000FF90EF90DF90CF90089583E692E00E9403
:100800008A0A60E083E692E00E947E0B42E050E0BC
:100810000E94CD03909346028093450261E083E6F7
:1008200092E00E947E0B42E050E00E94CD03909344
:10083000440280934302089585E592E00E94690E88
:1008400042E050E00E94CD03909342028093410227
:100850000895CF93DF9300D000D000D0CDB7DEB79E
:1008600068EC71E08AE892E00E94D0196AE872E0D0
:10087000CE0101960E94FD1961E070E0CE01019663
:100880000E94641ABC0184E892E00E94FD19CE0126
:1008900001960E94621964E086E792E00E94DB0CF8
:1008A00066E772E083E692E00E94BD0726E046E13B
:1008B00068E085E592E00E94A20D2FEF3FEFA901CD
:1008C00069E387E492E00E94411026960FB6F894FF
:1008D000DEBF0FBECDBFDF91CF91089584E892E0D7
:1008E0000E9462198AE892E00C946219CF93DF9318
:1008F000CDB7DEB7A4970FB6F894DEBF0FBECDBF5D
:10090000BE016F5F7F4F87E492E00E942C136D89D8
:100910007E898F89988D0E945F1D7093400260933D
:100920003F02A4960FB6F894DEBF0FBECDBFDF9195
:10093000CF9108950F931F930E94CB13009134021F
:10094000109135022091360230913702601B710BF5
:10095000820B930B61367A4E81059105D0F00E948F
:10096000FD030E941C040E94760488EC90E00E9423
:10097000220390933E0280933D020E94CB1360932A
:1009800034027093350280933602909337020E94AE
:100990006E011F910F910C9482030E94B2030E947A
:1009A0009A04A89564EF71E080E090E00E94FA1349
:1009B0000C94C1038091C00290E02091C102821B7F
:1009C000910908952091C1028091C002281750F426
:1009D000E22FF0E0EE53FD4F808190E02F5F2093F7
:1009E000C10208958FEF9FEF0895E091C1028091B9
:1009F000C002E81730F4F0E0EE53FD4F808190E044
:100A000008958FEF9FEF08950895CF92DF92EF92B0
:100A1000FF920F931F93CF93DF937C01CB018A0149
:100A200020919C02222389F0EB016B01C40ED51E9C
:100A3000CC15DD0569F06991D701ED91FC9101902C
:100A4000F081E02DC7010995F3CF642F0E9466065F
:100A5000C801DF91CF911F910F91FF90EF90DF9030
:100A6000CF900895CF93DF931F92CDB7DEB7698300
:100A700020919C022223D1F020919D02203240F04F
:100A800021E030E0FC013383228380E090E015C058
:100A900080919E02E82FF0E0E156FD4F998190830E
:100AA0008F5F80939E0280939D0205C061E0CE011E
:100AB00001960E94660681E090E00F90DF91CF9151
:100AC0000895FC011382128248EE53E060E070E06A
:100AD00044835583668377838FED91E09183808390
:100AE00008951092C1021092C00210929E021092BC
:100AF0009D020C94B105862F413208F040E262EC71
:100B000072E00E94CF051092C1028093C002089546
:100B100021E00C947B0581E080939C026093BF02EE
:100B200010929E0210929D0208950C948B050F93D3
:100B3000062F21E040919D026FE972E08091BF0293
:100B40000E94130610929E0210929D0210929C0227
:100B50000F91089561E00C94970580E992E00C9460
:100B6000610510924F0381E080934D0310924C0376
:100B700061E082E10E94E61461E083E10E94E614F4
:100B8000E9EBF0E080818E7F808380818D7F8083A0
:100B900088E48093B80085E48093BC0008954132D6
:100BA00008F03FC090914F039111FCCF91E09093DA
:100BB0004F0320934D032FEF2093E202109227035F
:100BC000240F2093260390934E0390914E03880F99
:100BD000892B80934E0380914C03813041F4109215
:100BE0004C0380914E038093BB0085EC01C085EEE1
:100BF0008093BC0080914F038130E1F38091270303
:100C0000841710F44091270328E233E0FB01D90157
:100C10008A2F821B841718F48D918193F9CF842F2A
:100C2000089580E008950F93413208F046C09091F6
:100C30004F039111FCCF92E090934F0300934D032B
:100C40009FEF9093E2021092270340932603FB014B
:100C500068E273E0DB019A2F961B941718F49191C8
:100C60009D93F9CF10924E0390914E03880F892BDC
:100C700080934E0380914C03813041F410924C03D9
:100C800080914E038093BB0085EC01C085EE80937C
:100C9000BC00222321F080914F038230E1F3809148
:100CA000E2028F3F61F08091E202803251F0809148
:100CB000E202803341F483E007C081E005C080E0B8
:100CC00003C082E001C084E00F910895613298F47E
:100CD00020914F03243089F460930403FC0186E0E3
:100CE00093E0DC012A2F281B261718F421912D935D
:100CF000F9CF80E0089581E0089582E0089585EDC0
:100D00008093BC008091BC0084FDFCCF10924F0307
:100D1000089585EC8093BC0010924F0308951F92B4
:100D20000F920FB60F9211242F933F934F935F931F
:100D30006F937F938F939F93AF93BF93EF93FF93A3
:100D40008091B900887F803609F49CC068F58832AC
:100D500009F45BC090F4803109F454C038F488235E
:100D600009F4F5C0883009F44DC0F5C0883109F4A4
:100D70004CC0803209F45DC0EEC0803409F468C014
:100D800048F4803309F455C0883309F0E4C08093F7
:100D9000E202A8C0803509F44FC0883509F45DC06F
:100DA000883409F0D8C0D5C0883909F4C6C0A8F481
:100DB000883709F467C038F4883609F463C080378F
:100DC00009F460C0C8C0883809F4B7C0803909F494
:100DD0005FC0803809F0BFC05BC0803B09F485C0AC
:100DE00038F4803A09F466C0883A09F47EC0B3C08A
:100DF000803C09F4A6C0883C09F4A3C0883B09F4F0
:100E000089C0A9C080914E0310C0909127038091A2
:100E10002603981770F5E091270381E08E0F8093E9
:100E20002703F0E0E85DFC4F80818093BB0085ECF8
:100E300085C08093E2028DC0E091270381E08E0F90
:100E4000809327038091BB00F0E0E85DFC4F808336
:100E500090912703809126036DC0E091270381E0E4
:100E60008E0F809327038091BB00F0E0E85DFC4F7C
:100E7000808380914D0381116CC081E080934C038D
:100E800084EA60C083E080934F031092E302CFCFE7
:100E90008091E302803208F050C0E091E30281E0EB
:100EA0008E0F8093E3028091BB00F0E0EC51FD4F88
:100EB0008083BDCF8091E302803230F4E091E30281
:100EC000F0E0EC51FD4F10820E947F066091E3023A
:100ED00070E0E0914803F091490384EE92E00995B7
:100EE0001092E3020E94890636C084E080934F038B
:100EF0001092050310920403E0914A03F0914B0312
:100F0000099580910403811105C081E08093040359
:100F100010920603E091050381E08E0F8093050394
:100F2000F0E0EA5FFC4F80818093BB009091050365
:100F300080910403981708F47ACF85E88093BC0069
:100F40000AC085EC8093BC0010924F0304C010923D
:100F5000E2020E947F06FF91EF91BF91AF919F91B6
:100F60008F917F916F915F914F913F912F910F9052
:100F70000FBE0F901F9018950895FC018CEB97E021
:100F8000928B818B768365831482108289E08183C2
:100F900081E0828383830895CF93DF93EB0167E041
:100FA000CE010E94960D91E02F81821390E0892F4F
:100FB000DF91CF910895EF92FF920F931F93CF93FC
:100FC000DF93EC018B01E42E8D819E810E94C90C80
:100FD000F12CB8018D819E810E94FE0C882359F06E
:100FE000FE1006C0B801CE010E94CC07811104C0DA
:100FF000F394EF1470F780E0DF91CF911F910F9180
:10100000FF90EF900895EF92FF920F931F93CF936D
:10101000DF9300D0CDB7DEB77C018A01FC0185816A
:10102000968169837A830E94A20B69817A81F70194
:10103000858196810E949D0C40E06EEBF7018581D1
:1010400096810E943F0CF701858196810E94810C58
:10105000F8018083F701858196810E94810CF80157
:101060008183F701858196810E94810CF80182833A
:10107000F701858196810E94810CF8018383F70135
:10108000858196810E94810CF8018483F701858116
:1010900096810E94810CF8018583F70185819681F4
:1010A0000E94810CF8018683F701858196810E9458
:1010B000810CF8018783F701858196810E94810C5C
:1010C000F8018087F701858196810F900F90DF915D
:1010D000CF911F910F91FF90EF900C94A20BCF93A3
:1010E000DF93EA010E94030868E0CE010E94960D9A
:1010F00091E02885821390E0892FDF91CF910895A8
:10110000EF92FF920F931F93CF93DF93EC017B013C
:101110008A018D819E810E94A20BB7018D819E81E3
:101120000E949D0C40E06EE48D819E810E943F0CE8
:1011300040E0F80162818D819E810E943F0C40E079
:10114000F80163818D819E810E943F0CF7018081AF
:10115000803139F040E0F80164818D819E810E94E8
:101160003F0C8D819E810E94A20B488168E48D8195
:101170009E810E943F0C8881882331F06AE070E0F4
:1011800080E090E00E94FA138D819E81DF91CF91E3
:101190001F910F91FF90EF900C94A20BEF92FF9292
:1011A0001F93CF93DF9300D0CDB7DEB77C01FC0156
:1011B0008581968169837A830E94A20B69817A81F5
:1011C000F701858196810E949D0C40E064EBF70158
:1011D000858196810E943F0CF701858196810E944E
:1011E000140C182FF701858196810E94A20B81E0D3
:1011F000111180E00F900F90DF91CF911F91FF9020
:10120000EF900895EF92FF920F931F93CF93DF9388
:10121000CDB7DEB72A970FB6F894DEBF0FBECDBFAD
:101220007C018B01242FAE014F5F5F4F2A870E9404
:101230006F082A858823D1F0F80180818031C1F0C0
:101240002B3041F02C3021F02A3031F48FE305C0EF
:101250008FE703C08FE501C08FE18D83AE014F5F43
:101260005F4FB801C7010E94800802C080E001C042
:1012700081E02A960FB6F894DEBF0FBECDBFDF9196
:10128000CF911F910F91FF90EF900895EF92FF92F1
:101290000F931F93CF93DF93CDB7DEB728970FB689
:1012A000F894DEBF0FBECDBF8C01693020F06D30E9
:1012B00018F06CE001C069E0F8016183E12CF12CC9
:1012C000F801848190E0E816F9069CF44E2DBE01E9
:1012D0006F5F7F4FC8010E94DB07F8014181BE01AB
:1012E0006F5F7F4FC8010E940209FFEFEF1AFF0AEC
:1012F000E7CF28960FB6F894DEBF0FBECDBFDF91C3
:10130000CF911F910F91FF90EF900895CF93DF93AE
:10131000CDB7DEB729970FB6F894DEBF0FBECDBFAD
:10132000FB0120812031D1F0AE014F5F5F4F0E9461
:101330006F08882379F08D818F3351F018F48F3145
:1013400069F008C08F3541F08F3721F48CE007C079
:101350008AE005C080E003C08BE001C089E02996E7
:101360000FB6F894DEBF0FBECDBFDF91CF910895C9
:10137000EF92FF920F931F93CF93DF93CDB7DEB71A
:1013800061970FB6F894DEBF0FBECDBF8C01FC0194
:10139000858196810E94C90CF8011482FF24F39480
:1013A000BE01665F7F4FF801858196810E94FE0C29
:1013B0008823C9F1BE01665F7F4FC8010E94CC0738
:1013C000882371F3F8018081811108C0BE01665F36
:1013D0007F4FC8010E94CE08811122C0AE014F5F2D
:1013E0005F4FBE01665F7F4FC8010E940308F8018E
:1013F000E180BE01665F7F4FC8010E9486098E159D
:1014000018F4F801818106C0BE01665F7F4FC801F4
:101410000E948609F801818384818F5F8483C0CF15
:10142000F801F082DBCF61960FB6F894DEBF0FBEF5
:10143000CDBFDF91CF911F910F91FF90EF90089555
:10144000CF93DF93CDB7DEB729970FB6F894DEBF01
:101450000FBECDBFAE014F5F5F4F0E94030881E01A
:101460009981911101C080E029960FB6F894DEBFF2
:101470000FBECDBFDF91CF910895CF92DF92EF9253
:10148000FF920F931F93CF93DF93EC018B01452BBA
:10149000E1F08B818823C9F08881811116C00E94F8
:1014A000CB136B017C0160E070E0CE010E94200A4A
:1014B00081110BC00E94CB136C197D098E099F0905
:1014C0006E3E72408105910570F3F80180818A308B
:1014D00049F08B3061F0893079F46EE570E080E09E
:1014E00090E00EC06CEB70E080E090E009C067E730
:1014F00071E080E090E004C06EEE72E080E090E089
:10150000DF91CF911F910F91FF90EF90DF90CF90DF
:101510000C94FA13CF93DF93EC018D819E810E948E
:10152000A20B8D819E810E94C50C488164E48D814F
:101530009E810E943F0C8A81882351F0BE016F5F1B
:101540007F4F40E050E0CE01DF91CF910C943D0AF7
:10155000DF91CF9108958F929F92AF92BF92CF92D9
:10156000DF92EF92FF921F93CF93DF93FB01EA018B
:10157000698170E0762F66278881682B80818232AE
:10158000B1F18832A1F1803109F078C01F817595E1
:101590006795882777FD8095982F0E948D1D20E004
:1015A00030E040E85EE30E94891C6B017C01612F02
:1015B00070E08E81681B7109882777FD8095982FD0
:1015C0000E948D1D4B015C01612F70E080E090E076
:1015D0000E948B1D9B01AC01C501B4010E94F21C4D
:1015E0009B01AC01C701B6010E948A1C43C08C81DB
:1015F0008F3381F198F48F3109F040C093E07595F5
:1016000067959A95E1F7882777FD8095982F0E9436
:101610008D1D20E030E040E05FE32AC08F3569F0A7
:101620008F3761F5882777FD8095982F0E948D1D53
:1016300020E030E040E85DE31BC0759567958827A2
:1016400077FD8095982F0E948D1D20E030E040E0CE
:101650005EE30EC07595679575956795882777FD4C
:101660008095982F0E948D1D20E030E040E85EE3D9
:101670000E94411E562F472F382F292F652F742F78
:10168000832F922FDF91CF911F91FF90EF90DF90EA
:10169000CF90BF90AF909F908F900895EF92FF9260
:1016A0000F931F93CF93DF93CDB7DEB729970FB674
:1016B000F894DEBF0FBECDBF8C017B01AE014F5F42
:1016C0005F4F0E946F08882341F0AE014F5F5F4F6C
:1016D000B701C8010E94AB0A04C060E070E08EEF61
:1016E00092EC29960FB6F894DEBF0FBECDBFDF9106
:1016F000CF911F910F91FF90EF9008950F931F933B
:10170000CF93DF93CDB7DEB728970FB6F894DEBF3F
:101710000FBECDBF8C01462FBE016F5F7F4F0E9471
:10172000DB07BE016F5F7F4FC8010E944E0B2896FA
:101730000FB6F894DEBF0FBECDBFDF91CF911F91E2
:101740000F910895FF920F931F93CF93DF93FC01A6
:101750000081C181D281F8948981F02EF0948F218B
:10176000898378941DE7115029F182E090E00E946E
:10177000221488818023B9F3F8948A818F218A8387
:101780008981802B8983789480EE91E00E942214D5
:10179000F89489818F21898386E490E00E94221445
:1017A0008881802311E009F010E078948AE991E0C3
:1017B0000E942214812FDF91CF911F910F91FF90F2
:1017C00008951F93CF93DF93FC011081C181D281D3
:1017D000912F909560FF12C0F8948A8189238A83A3
:1017E0008981812B89838AE090E00E9422148A817A
:1017F000812B8A83789487E390E011C0F8948A81E2
:1018000089238A838981812B898381E490E00E94E6
:1018100022148A81812B8A83789485E090E0DF917D
:10182000CF911F910C9422140F931F93CF93DF93AA
:10183000FC011081C181D281F8948981812B898337
:101840008A81012F009580238A8383E090E00E94A3
:1018500022148981802389838AE090E00E942214E7
:10186000C881789485E390E00E9422141C2381E0D3
:1018700009F480E0DF91CF911F910F910895CF92ED
:10188000DF92EF92FF920F931F93CF93DF931F92FC
:10189000CDB7DEB76C01E62E08E010E0FF24F3942C
:1018A00061E09F2D9E2109F460E0C60149830E94FA
:1018B000E10BFF0C0150110949810115110581F758
:1018C000411115C0F894D6011196ED91FC91129733
:1018D00091818C918095892381831196ED91FC9162
:1018E000129792818C9180958923828378940F90AE
:1018F000DF91CF911F910F91FF90EF90DF90CF90EC
:101900000895EF92FF920F931F93CF93DF938C0173
:10191000C8E0D0E0F12CEE24E394C8010E94140C3E
:101920008111FE28EE0C2197C1F78F2DDF91CF9109
:101930001F910F91FF90EF900895CF92DF92FF9249
:101940000F931F93CF93DF931F92CDB7DEB78C0118
:10195000F62E40E065E579830E943F0CCF2C79811B
:10196000D72E88E0F82EF60161916F0140E0C801A2
:101970000E943F0CFA94B9F70F90DF91CF911F911D
:101980000F91FF90DF90CF90089540E06CEC0C94A5
:101990003F0CFC0113861586148627E030E0DF013A
:1019A000A20FB31F13961C922115310519F0215077
:1019B0003109F5CF08951F93CF93DF93EC01162FD4
:1019C00060E0812F0E94AD14612F70E0FB01E250B6
:1019D000FE4FE491E883FB01EE5EFD4FE491F0E001
:1019E000EE0FFF1FEA5DFD4F859194919A838983E5
:1019F000CE01DF91CF911F910C94C90CAF92BF9291
:101A0000CF92DF92EF92FF920F931F93CF93DF93CA
:101A10001F92CDB7DEB75C01E62ED72EFC0185857F
:101A200081115DC0C5010E94A20B811105C0F501A5
:101A30001386158614866EC040E060EFC5010E94D3
:101A40003F0C01E0F12CC12C11E0C5010E94140CE7
:101A5000682FC50169830E94140C6981613019F4F3
:101A60008130B9F433C02F2D30E068131BC0F5016D
:101A70008385181730F4E20FF31F8381802349F424
:101A800002C0181731F060E0193058F4F5011487DE
:101A900008C0F501EF0DF11D8381802B838361E088
:101AA00009C0C12EF501E20FF31F8381902F90959D
:101AB00089238383C5010E94E10B1F5F000F11F48E
:101AC000F39401E0F7E0FF1508F0BFCF113438F0D0
:101AD000F501C386C11018C081E0858715C0F501E6
:101AE00013861586148680E0EE2DFD2D20E030E073
:101AF000D501A20FB31F13969C9191932F5F3F4F77
:101B000028303105A9F706C0F5018381882339F310
:101B100081E0EACF0F90DF91CF911F910F91FF905D
:101B2000EF90DF90CF90BF90AF900895DC0180E000
:101B3000615038F0ED91E827F0E0E651FF4F8491D5
:101B4000F7CF0895FC0166834783208781E085876E
:101B50000895CF93DF93EC0160E08E810E94AD1475
:101B600061E08E810E94E61419861A861B861C8607
:101B7000DF91CF910895DF92EF92FF920F931F9321
:101B8000CF93DF93EC0161E08E810E94E6146AEF4F
:101B900070E080E090E00E94FA130E94CB13098568
:101BA0001A852B853C85601771078207930720F4FF
:101BB00019861A861B861C862D85211111C0098560
:101BC0001A852B853C85DC01CB01801B910BA20B78
:101BD000B30B803D9740A105B10510F481E071C0C1
:101BE0001D860E94CB1369877A878B879C871C820E
:101BF0001B821A821982188261E08E810E94AD14C4
:101C000060E08E810E94E61464E170E080E090E084
:101C10000E94FA13F89461E08E810E94E61488E233
:101C200090E00E94221460E08E810E94AD14F12C9D
:101C3000D12C81E0E12C082F10E08E810E941C1530
:101C40008017910741F4E39481E090E00E94221410
:101C50008FEFE812F2CF8E810E941C159FEFE916DC
:101C6000C9F023E02F1590F4F0FC10C09D2D96953F
:101C700096959695FE01E90FF11D9081990F90833D
:101C800028852E1510F491609083D394F39495E5F4
:101C9000F912D0CF789427E22D1590F42C8130E002
:101CA0004881898190E0840F911D4A81840F911DA4
:101CB0004B81840F911D99272817390709F48ECF7E
:101CC00080E0DF91CF911F910F91FF90EF90DF9017
:101CD0000895CF92DF92EF92FF92CF93DF93EC01C2
:101CE0000E94BB0D882379F18F818B3029F158F147
:101CF0008551823040F5688170E080E090E00E947C
:101D00008B1D20E030E040E853E40E94411E6B014F
:101D10007C01698170E080E090E00E948D1D9B0154
:101D2000AC01C701B6010E948A1C20E030E040E20D
:101D300051E40E94F21C11C0688170E080E090E0E4
:101D40000E948B1D0AC06BEE71E08FE593E00E944C
:101D50007F1760E070E080EC9FE7DF91CF91FF900C
:101D6000EF90DF90CF900895BF92CF92DF92EF92E5
:101D7000FF920F931F93CF93DF937C01EB010097AA
:101D800071F465EF71E0CE01DF91CF911F910F915A
:101D9000FF90EF90DF90CF90BF900C947F17E88179
:101DA000F9810190F081E02D62E2CE0109958C016C
:101DB000F70161917F01662341F1E7E0F1E0908155
:101DC000911117C0B180E881F981BB20B1F0019079
:101DD000F081E02D6CE5CE0109956C01E881F98177
:101DE0000190F081E02D6B2DCE0109958C0D9D1D8C
:101DF00009C0961739F33296E2CF0190F081E02DB9
:101E0000CE010995080F191FD3CFE881F981019000
:101E1000F081E02D62E2CE010995800F911FDF91E4
:101E2000CF911F910F91FF90EF90DF90CF90BF90D7
:101E30000895FC01808191810C94B40E6F927F9281
:101E40008F929F92AF92BF92CF92DF92EF92FF92CA
:101E50000F931F93CF93DF937C01EB01E881F9810E
:101E60000190F081E02D6BE7CE0109958C01F7011F
:101E7000A280B380C680D78075014501F2E08F0E45
:101E8000911C1C141D04B4F5BE01F70180819181E1
:101E90000E94B40E3C01E881F9810190F081E02DAF
:101EA0006AE3CE010995860D971D080F191FF701EA
:101EB000EA19FB09E80DF91D0480F581E02DBE014A
:101EC000C70102960995080F191FF8E0EF0EF11CE3
:101ED00081E0C816D10451F0E881F9810190F081C8
:101EE000E02D6CE2CE010995080F191FE1E0CE1A32
:101EF000D108C7CFE881F9810190F081E02D6DE72D
:101F0000CE010995800F911FDF91CF911F910F9105
:101F1000FF90EF90DF90CF90BF90AF909F908F9009
:101F20007F906F900895EF92FF920F931F93CF933E
:101F3000DF937B01FC01C281D381068117811016DA
:101F400011065CF4B701888199810E949F20892B3A
:101F500039F0289601501109F2CF80E090E001C0DD
:101F6000CE01DF91CF911F910F91FF90EF900895D7
:101F70000F931F93CF93DF93EC018B010E94930F7C
:101F8000009711F0029622C08E819F812C813D81A5
:101F90008217930784F49C0143E0220F331F4A9574
:101FA000E1F7EA81FB81E20FF31F019311930196A0
:101FB0009F838E8302C0E0E5F3E0108211821282DB
:101FC000138289E19FE095838483CF01DF91CF91D4
:101FD0001F910F910895FC01CB01408151816281D5
:101FE00073812AE030E00C942318FC016583089586
:101FF0000F931F93CF93DF938C01EB0188E2FB01DA
:1020000011928A95E9F74BE050E065E072E0CE016D
:102010000E94AF201B8641E050E060E070E04C87FA
:102020005D876E877F87F801428553856485758556
:10203000488B598B6A8B7B8B45E050E060E070E009
:102040004C8B5D8B6E8B7F8B1CA21DA21EA21FA2D0
:1020500040E050ED64E876E4488F598F6A8F7B8FBB
:102060001C8E1D8E1E8E1F8E40E050E060E87FE3C8
:1020700048A359A36AA37BA3DF91CF911F910F912E
:102080000895FC0181E192E091838083638314824F
:10209000158217821682118610862287338744871D
:1020A000558708954F925F926F927F928F929F9281
:1020B000AF92BF92CF92DF92EF92FF92FA01DC01D2
:1020C00016962D913C9117972115310531F021304D
:1020D000310531F048EE5DEF05C044E253E102C046
:1020E00048E850E94617570708F4CCC04E175F0779
:1020F00008F4C8C02115310549F02130310569F0D7
:10210000C12C24E0D22EE12CF12C0DC037E1C32EDE
:1021100035E7D32EE12CF12C06C0B7EECB2EBFE075
:10212000DB2EE12CF12CDC0118968D919C911997F6
:10213000892B39F4A4E0CC0CDD1CEE1CFF1CAA9505
:10214000D1F7DB01A70196010E9462204B015C01DF
:102150006AE0B694A794979487946A95D1F7DF01C3
:102160000E9462202B013C017AE076946794579498
:1021700047947A95D1F781149104A104B10471F0C8
:10218000C301B2013AE0660F771F881F991F3A9585
:10219000D1F7A50194010E94212003C020E030E086
:1021A000A901DA01C9010196A11DB11DB695A79536
:1021B0009795879581349105A105B10530F1813856
:1021C0009105A105B10530F1813C9105A105B1054D
:1021D00030F1813021E09207A105B10528F1893362
:1021E00021E09207A105B10520F18B3921E092078A
:1021F000A105B10518F18B399240A105B10518F57B
:10220000E2E1F0E0A8E1B0E022C0EEEBF1E0A2EF05
:10221000B1E01DC0E1EDF2E0A4E1B2E018C0EBE7EF
:10222000F3E0AFE3B2E013C0EEEFF3E0A0E7B2E01B
:102230000EC0ECEFF1E0AFE6B1E009C0EBEFF0E08B
:10224000A2EDB0E004C0E0E0F0E0A0E0B0E0A50165
:1022500094010E9462206B017C0180E2D80EE11C97
:10226000F11CDF01A30192010E946220C61AD70A65
:10227000E80AF90A8EE0F694E794D794C7948A9511
:10228000D1F703C0C12CD12C7601C701B601FF9054
:10229000EF90DF90CF90BF90AF909F908F907F9006
:1022A0006F905F904F9008951F93CF93DF9300D06E
:1022B00000D0CDB7DEB7162FDC0113968C91682FB6
:1022C000772767FD709580E992E029833A834B83F5
:1022D0005C830E949505612F80E992E00E9432059F
:1022E000E0919002F091910229813A814B815C81C9
:1022F000CA01B9017727882799270190F081E02D3D
:1023000080E992E0099580E992E00F900F900F909C
:102310000F90DF91CF911F910C94AA0523E030E03C
:1023200040E050E060E80C94541120E030E0A90156
:1023300060E80C9454111F93CF93DF93EC01162F98
:102340008B81682F772767FD709580E992E00E9466
:102350009505612F80E992E00E94320580E992E0C4
:102360000E94AA056B81772767FD709541E050E0D8
:1023700080E992E00E94880580E992E00E94E204F0
:10238000DF91CF911F910895CF93DF93EC0180E906
:1023900092E00E9471056AE0CE010E949B118A7052
:1023A00089F081E08C836E817F81CE010E94E611ED
:1023B00068857985CE010E940A12CE010E9495118E
:1023C00081E001C080E0DF91CF9108950F931F93CA
:1023D000CF93DF93EC018B018C81811103C0CE017F
:1023E0000E94C411CE010E948E1128853985202BB0
:1023F000312B442737FD4095542F61E8CE010E94D0
:1024000054111F830E83CE01DF91CF911F910F9145
:102410000C9495110F931F93CF93DF93EC018B01D5
:102420008C81811103C0CE010E94C411CE010E9493
:102430008E112E813F81202B312B442737FD409573
:10244000542F61E8CE010E94541119870887CE01EC
:10245000DF91CF911F910F910C9495111F93CF9302
:10246000DF93EC01162F8B81682F772767FD70951E
:1024700080E992E00E949505612F80E992E00E9438
:10248000320580E992E00E94AA056B81772767FDFB
:10249000709542E050E080E992E00E94880580E972
:1024A00092E00E94E204EC0180E992E00E94E204E2
:1024B00020E030E0382FC9018C2B9D2BDF91CF918C
:1024C0001F910895EF92FF920F931F93CF93DF9385
:1024D000EC017B018A010E948E118E819F81009701
:1024E00039F0019751F466E670E080E090E009C0B1
:1024F0006EE070E080E090E004C063E971E080E0AD
:1025000090E00E94FA136CEACE010E942E12F701AD
:10251000918380836EEACE010E942E12F80191838E
:102520008083CE01DF91CF911F910F91FF90EF90AB
:102530000C9495118F929F92AF92BF92CF92DF929F
:10254000EF92FF920F931F93CF93DF9300D000D0B1
:102550001F92CDB7DEB78C016B017A01FC0184813B
:10256000811103C0C8010E94C411F8018581811145
:1025700006C0A701B601C8010E9462125BC020E03C
:10258000F80186819781009759F0019789F064EFEF
:10259000862E9924939478E1A72E76EFB72E0FC05C
:1025A000E4E68E2E912CF2EFAF2EF2E1BF2E07C0A3
:1025B00048EC842E912C50EAA52E5CE8B52EAE0195
:1025C0004F5F5F4FBE016D5F7F4FC8012D830E943B
:1025D00062128B819C812D81211124C0881599055F
:1025E00040F4F80120853185232BE1F460E170E0AF
:1025F0000BC0A816B906B0F4F8012085318520314A
:10260000310581F460E070E0C8010E940A12AE0159
:102610004F5F5F4FBE016D5F7F4FC8010E94621226
:1026200021E0AECFF6019183808389819A81F70101
:10263000918380830F900F900F900F900F90DF91F8
:10264000CF911F910F91FF90EF90DF90CF90BF90AF
:10265000AF909F908F900895EF92FF920F931F93EA
:10266000CF93DF9300D000D0CDB7DEB77C018B01D4
:1026700084E2FB0111928A95E9F784E290E0A0E000
:10268000B0E0FB0180839183A283B383F70182854D
:102690009385A485B585FB0184839583A683B78341
:1026A00085E090E0A0E0B0E080879187A287B387C3
:1026B0000E94CB13F801608B718B828B938BAE01E0
:1026C0004F5F5F4FBE016D5F7F4FC7010E949A123F
:1026D00049815A816B817C81C7010E9452100E94FE
:1026E0008B1DF801648B758B868B978B0F900F90E9
:1026F0000F900F90DF91CF911F910F91FF90EF906E
:1027000008951F920F920FB60F9211242F933F93AB
:102710008F939F93AF93BF938091570390915803EA
:10272000A0915903B0915A033091560323E0230F2F
:102730002D3720F40196A11DB11D05C026E8230FF9
:102740000296A11DB11D20935603809357039093C9
:102750005803A0935903B0935A0380915B0390915F
:102760005C03A0915D03B0915E030196A11DB11DB4
:1027700080935B0390935C03A0935D03B0935E032F
:10278000BF91AF919F918F913F912F910F900FBE6D
:102790000F901F9018952FB7F89460915703709180
:1027A00058038091590390915A032FBF08953FB762
:1027B000F89480915B0390915C03A0915D03B091CC
:1027C0005E0326B5A89B05C02F3F19F00196A11DF9
:1027D000B11D3FBF6627782F892F9A2F620F711D79
:1027E000811D911D42E0660F771F881F991F4A9532
:1027F000D1F70895CF92DF92EF92FF92CF93DF93BC
:102800006B017C010E94D713EB01C114D104E104D8
:10281000F10489F00E94721A0E94D7136C1B7D0B81
:10282000683E734090F381E0C81AD108E108F108CE
:10283000C851DC4FEACFDF91CF91FF90EF90DF904E
:10284000CF900895019739F0880F991F880F991F2D
:1028500002970197F1F70895789484B5826084BD5A
:1028600084B5816084BD85B5826085BD85B5816094
:1028700085BDEEE6F0E0808181608083E1E8F0E0F4
:102880001082808182608083808181608083E0E823
:10289000F0E0808181608083E1EBF0E08081846002
:1028A0008083E0EBF0E0808181608083EAE7F0E004
:1028B0008081846080838081826080838081816068
:1028C00080838081806880831092C10008958E305B
:1028D00008F08E5087702091000190E4299F9001AC
:1028E0001124822B80937C0080917A0080648093F5
:1028F0007A0080917A0086FDFCCF8091780020914B
:10290000790090E0922B0895833081F028F4813093
:1029100099F08230A1F008958730A9F08830B9F09D
:102920008430D1F4809180008F7D03C0809180003D
:102930008F7780938000089584B58F7702C084B527
:102940008F7D84BD08958091B0008F7703C0809102
:10295000B0008F7D8093B0000895CF93DF9390E017
:10296000FC01E250FE4F2491FC01EE5EFD4F84918C
:10297000882349F190E0880F991FFC01E65CFD4F28
:10298000A591B491805D9D4FFC01C591D4919FB7F5
:10299000611108C0F8948C91209582238C938881D2
:1029A00082230AC0623051F4F8948C91322F309512
:1029B00083238C938881822B888304C0F8948C9124
:1029C000822B8C939FBFDF91CF9108950F931F931C
:1029D000CF93DF931F92CDB7DEB7282F30E0F901F8
:1029E000E651FE4F8491F901E250FE4F1491F90136
:1029F000EE5EFD4F04910023C9F0882321F0698326
:102A00000E9484146981E02FF0E0EE0FFF1FE05D6B
:102A1000FD4FA591B4919FB7F8948C91611103C0BB
:102A20001095812301C0812B8C939FBF0F90DF9164
:102A3000CF911F910F910895CF93DF93282F30E00E
:102A4000F901E651FE4F8491F901E250FE4FD49115
:102A5000F901EE5EFD4FC491CC2391F081110E94EB
:102A60008414EC2FF0E0EE0FFF1FEA5DFD4FA591FF
:102A7000B4912C912D2381E090E021F480E002C0FC
:102A800080E090E0DF91CF910895FC01818D228D4F
:102A900090E0805C9F4F821B910960E470E00E948F
:102AA0000D200895FC01918D828D981731F0828D53
:102AB000E80FF11D858D90E008958FEF9FEF089549
:102AC000FC01918D828D981761F0828DDF01A80F36
:102AD000B11D5D968C91928D9F5F9F73928F90E058
:102AE00008958FEF9FEF089584EE96E1892B49F0CA
:102AF00080E090E0892B29F00E94E41681110C946B
:102B000000000895FC01848DDF01A80FB11DA35AB8
:102B1000BF4F2C91848D90E001968F739927848FFD
:102B2000A689B7892C93A089B1898C9180648C93F4
:102B3000938D848D981306C00288F389E02D8081DF
:102B40008F7D80830895CF93DF93EC01888D882358
:102B5000C9F0EA89FB89808185FD05C0A889B9890A
:102B60008C9186FD0FC00FB607FCF5CF808185FFE5
:102B7000F2CFA889B9898C9185FFEDCFCE010E9453
:102B80008215E7CFDF91CF910895CF92DF92FF9228
:102B90000F931F93CF93DF931F92CDB7DEB76C01D6
:102BA000DC015B969C915B975C968C915C9798138B
:102BB00007C05096ED91FC915197808185FD32C000
:102BC000F601038D10E00F5F1F4F0F731127F02EDA
:102BD000F601848DF81211C00FB607FCF9CFD601AB
:102BE0005096ED91FC915197808185FFF1CFC60100
:102BF00069830E9482156981EBCF838DE80FF11DF7
:102C0000E35AFF4F6083D6015B960C935B97529615
:102C1000ED91FC91539780818062808381E058968A
:102C20008C930DC0D6015696ED91FC915797608319
:102C30005096ED91FC91519780818064808381E072
:102C400090E00F90DF91CF911F910F91FF90DF9057
:102C5000CF900895BF92CF92DF92EF92FF92CF93E1
:102C6000DF93EC016A017B01B22EE889F98982E0E9
:102C70008083411581EE580761057105A1F060E080
:102C800079E08DE390E0A70196010E942120215078
:102C900031094109510956954795379527952115D1
:102CA00080E1380798F0E889F989108260E874E8D3
:102CB0008EE190E0A70196010E9421202150310968
:102CC000410951095695479537952795EC85FD851E
:102CD0003083EE85FF852083188EEC89FD89B082D4
:102CE000EA89FB89808180618083EA89FB89808110
:102CF00088608083EA89FB89808180688083EA8993
:102D0000FB8980818F7D8083DF91CF91FF90EF9051
:102D1000DF90CF90BF9008951F920F920FB60F9241
:102D200011242F938F939F93EF93FF93E0916F0361
:102D3000F09170038081E0917503F091760382FD3C
:102D400012C09081809178038F5F8F7320917903F7
:102D5000821751F0E0917803F0E0E15AFC4F958F33
:102D60008093780301C08081FF91EF919F918F91B3
:102D70002F910F900FBE0F901F9018951F920F92DA
:102D80000FB60F9211242F933F934F935F936F933E
:102D90007F938F939F93AF93BF93EF93FF938FE5B1
:102DA00093E00E948215FF91EF91BF91AF919F91A7
:102DB0008F917F916F915F914F913F912F910F90E4
:102DC0000FBE0F901F9018958FE593E00E94451558
:102DD00021E0892B09F420E0822F089510926203EC
:102DE0001092610388EE93E0A0E0B0E0809363036B
:102DF00090936403A0936503B09366038BE192E024
:102E00009093600380935F0385EC90E090936C0354
:102E100080936B0384EC90E090936E0380936D033A
:102E200080EC90E09093700380936F0381EC90E0CE
:102E3000909372038093710382EC90E090937403FB
:102E40008093730386EC90E09093760380937503F0
:102E5000109278031092790310927A0310927B03F8
:102E6000089508950E942C140E9431170E941503A2
:102E7000C4E7D5E10E94CD042097E1F30E947415C8
:102E8000F9CFCF92DF92EF92FF920F931F93CF93E0
:102E9000DF936C017A01EB01E60EF71E00E010E013
:102EA000CE15DF0561F06991D601ED91FC9101909D
:102EB000F081E02DC6010995080F191FF1CFC80157
:102EC000DF91CF911F910F91FF90EF90DF90CF9006
:102ED00008956115710581F0DB010D900020E9F77F
:102EE000AD0141505109461B570BDC01ED91FC919E
:102EF0000280F381E02D099480E090E008950C9425
:102F00006917DC01ED91FC910190F081E02D0994AD
:102F1000DB01ED91FC9111970190F081E02DBC0156
:102F2000CD0109940F931F93CF93DF93EC016DE0D4
:102F30000E9481178C016AE0CE010E948117800FE8
:102F4000911FDF91CF911F910F9108950F931F93C0
:102F5000CF93DF93EC010E9469178C01CE010E9490
:102F60009217800F911FDF91CF911F910F910895BC
:102F70000F931F93CF93DF93EC010E9481178C0175
:102F8000CE010E949217800F911FDF91CF911F9168
:102F90000F9108958F929F92AF92BF92CF92DF923E
:102FA000EF92FF920F931F93CF93DF93CDB7DEB7CE
:102FB000A1970FB6F894DEBF0FBECDBF7C01C42E23
:102FC000E52FCB01D22E19A221E02D1510F02AE019
:102FD000D22E8E010F5D1F4F8D2C912CA12CB12C68
:102FE0006C2D7E2FA50194010E9421208C2DD29E54
:102FF00080191124015011098A3014F4805D01C038
:10300000895CF8018083211531054105510521F0C6
:10301000C22EE32FCA01E4CFB801C7010E9469178D
:10302000A1960FB6F894DEBF0FBECDBFDF91CF9152
:103030001F910F91FF90EF90DF90CF90BF90AF90D6
:103040009F908F900895CF92DF92EF92FF920F930F
:103050001F93CF93DF93EC016A017B0121153105AA
:1030600079F4E881F9810190F081E02D642FDF91FE
:10307000CF911F910F91FF90EF90DF90CF90099427
:103080002A303105E9F477FF1AC06DE20E948117FA
:103090008C0144275527BA014C195D096E097F0937
:1030A0002AE0CE010E94CA17800F911FDF91CF91B5
:1030B0001F910F91FF90EF90DF90CF9008952AE03D
:1030C000B701A601CE01DF91CF911F910F91FF9023
:1030D000EF90DF90CF900C94CA179A01AB0166274E
:1030E00057FD6095762F0C9423184F925F926F9244
:1030F0007F928F929F92AF92BF92CF92DF92EF9288
:10310000FF920F931F93CF93DF93EC016A017B0132
:10311000B22E9A01AB01C701B6010E94F01E8823AE
:1031200019F067E272E027C026013701E89477F8CA
:103130002FEF3FEF4FE75FE7C301B2010E94F01EA0
:1031400081110DC02FEF3FEF4FE75FE7C301B201E1
:103150000E94EE1C18161CF46BE272E00CC02FEFFC
:103160003FEF4FE75FE4C701B6010E943D1E18160E
:10317000ACF46FE272E0CE01DF91CF911F910F911D
:10318000FF90EF90DF90CF90BF90AF909F908F9087
:103190007F906F905F904F900C9469172FEF3FEFE7
:1031A0004FE75FECC701B6010E94EE1C87FDE1CF3F
:1031B00020E030E0A901C701B6010E94EE1C87FFA4
:1031C0000AC06DE2CE010E9481178C01F7FAF094DB
:1031D000F7F8F09402C000E010E0A12C60E070E08D
:1031E00080E09FE3AB1441F020E030E040E251E4A6
:1031F0000E94F21CA394F6CF9B01AC01C701B6015B
:103200000E948A1C6B017C010E945F1D2B013C0106
:103210000E948B1D9B01AC01C701B6010E94891C55
:103220006B017C012AE0B301A201CE010E94CA1702
:10323000080F191FBB2039F06DEA71E0CE010E9422
:103240006917080F191F7B2C772041F120E030E02F
:1032500040E251E4C701B6010E94411E6B017C01AE
:103260000E945A1D4B01AA2497FCA094BA2C2AE074
:1032700030E0B501A401CE010E942318080F191FE8
:10328000C501B4010E948D1D9B01AC01C701B601AF
:103290000E94891C6B017C017A94D6CFC801DF9112
:1032A000CF911F910F91FF90EF90DF90CF90BF9043
:1032B000AF909F908F907F906F905F904F90089508
:1032C0000C947518FC01808191810C94101BCF9394
:1032D000DF93EC0188819981009711F00E94101B07
:1032E000198218821D821C821B821A82DF91CF9163
:1032F00008950F931F93CF93DF93EC018B016F5FC2
:103300007F4F888199810E94A81B009731F0998393
:1033100088831B830A8381E001C080E0DF91CF9125
:103320001F910F910895CF93DF93EC0188819981CC
:10333000892B29F08A819B818617970760F4CE013B
:103340000E947919882341F08C819D81892B19F481
:10335000E881F981108281E0DF91CF910895EF92A9
:10336000FF920F931F93CF93DF93EC017B018A01B0
:10337000BA010E949319811104C0CE010E946719FD
:1033800007C01D830C83B701888199810E94A82002
:10339000CE01DF91CF911F910F91FF90EF90089593
:1033A000FC0111821082138212821582148261152F
:1033B000710559F0FB0101900020E9F7AF01415080
:1033C0005109461B570B0C94AF190895CF93DF9307
:1033D000EC01FB018617970761F06081718161152F
:1033E000710529F0448155810E94AF1902C00E94E5
:1033F0006719CE01DF91CF910895FC0111821082EF
:1034000013821282158214820C94E619EF92FF92B5
:103410000F931F93CF93DF93EC017B010C811D81F0
:103420006115710511F480E016C04115510591F048
:10343000040F151FB8010E9493198823A1F3288156
:1034400039818C819D81B701820F931F0E94A82032
:103450001D830C8381E0DF91CF911F910F91FF902D
:10346000EF900895EF92FF920F931F93CF93DF9306
:10347000CDB7DEB728970FB6F894DEBF0FBECDBF2D
:103480007C01CB014AE050E08E010F5F1F4FB80175
:103490000E94BE20F80101900020E9F7AF014150E1
:1034A0005109401B510BB801C7010E94061A28960A
:1034B0000FB6F894DEBF0FBECDBFDF91CF911F9145
:1034C0000F91FF90EF900895CF93DF93EC010E944E
:1034D000321A811103C0CE010E946719CE01DF911B
:1034E000CF91089508950F931F93CF93DF93BC015D
:1034F0008230910510F462E070E0E091FE03F091FB
:10350000FF0340E050E0A0E0B0E024C08081918162
:1035100086179707D0F08617970771F482819381F9
:10352000109729F013969C938E9312972CC090932A
:10353000FF038093FE0327C04115510519F084173E
:10354000950718F48D01AC01EF01DF0182819381B1
:103550009C01F9013097D1F641155105F9F0CA01E6
:10356000861B970B8430910580F48A819B8101151D
:10357000110521F0F8019383828304C09093FF0327
:103580008093FE03FE01329645C0FE01E80FF91F4D
:10359000619371930297998388833CC08091FC0367
:1035A0009091FD03892B41F48091030190910401D6
:1035B0009093FD038093FC03409105015091060117
:1035C0004115510541F44DB75EB7809101019091CD
:1035D0000201481B590B2091FC033091FD03241775
:1035E0003507B0F4CA01821B930B8617970780F04A
:1035F000AB014E5F5F4F8417950750F0420F531F8A
:103600005093FD034093FC03F9016193719302C051
:10361000E0E0F0E0CF01DF91CF911F910F9108958D
:10362000CF93DF939C01009709F48FC0EC012297A0
:103630001B821A826091FE037091FF036115710570
:1036400081F488819981820F931F2091FC0330912E
:10365000FD032817390739F5D093FD03C093FC0308
:1036600074C0DB0140E050E0AC17BD0708F1BB833C
:10367000AA83FE0121913191E20FF31FAE17BF071C
:1036800079F48D919C911197280F391F2E5F3F4F30
:103690003983288312968D919C9113979B838A83FB
:1036A0004115510571F4D093FF03C093FE034DC043
:1036B00012968D919C911397AD01009711F0DC014A
:1036C000D3CFDA011396DC93CE931297FA012191AE
:1036D0003191E20FF31FCE17DF0769F488819981DA
:1036E000280F391F2E5F3F4FFA01318320838A81D3
:1036F0009B8193838283E0E0F0E0DB0112968D9161
:103700009C911397009719F0BC01FD01F6CFAB0116
:103710004E5F5F4FDB018D919C91840F951F20912F
:10372000FC033091FD032817390779F4309729F409
:103730001092FF031092FE0302C0138212824250C5
:1037400050405093FD034093FC03DF91CF910895C7
:103750006F927F928F929F92AF92BF92CF92DF92A1
:10376000EF92FF920F931F93CF93DF938C010097FB
:1037700029F4CB010E94731A8C01BBC08EEFE82E96
:103780008FEFF82EE00EF11E4801860E971E8E1464
:103790009F0408F4ACC0D7014D915C911197461776
:1037A0005707B8F04530510508F4A3C0CA01049783
:1037B0008617970708F49DC042505040461B570B90
:1037C000F401419351936D937C93CF010E94101BA0
:1037D00090C05B01A41AB50A3801640E751EA09151
:1037E000FE03B091FF03E0E0F0E0CC24DD2447C00D
:1037F000A615B705A9F5CD91DC911197CE010296DA
:103800008A159B0568F1CE018A199B0902961296CA
:103810002C91129713963C91059758F0F40122834E
:103820003383CA19DB09D183C083D7016D937C939D
:1038300009C04E5F5F4F4C0F5D1FF70151834083FE
:10384000C901FC01C114D10431F0D6011396FC93D7
:10385000EE9312974EC0F093FF03E093FE0349C02E
:103860008D919C911197E817F90708F4FC016D01FF
:1038700012968C91129713969C919C01D9011097E6
:1038800009F0B6CF8091FC039091FD038615970552
:10389000E9F4E617F707D0F420910501309106010D
:1038A0002115310541F42DB73EB78091010190916A
:1038B0000201281B390B82169306C8F49092FD036F
:1038C0008092FC03F7017183608313C0CB010E94D7
:1038D000731AEC01009759F0D7014D915C91B80132
:1038E0000E949620C8010E94101B8E0102C000E0B9
:1038F00010E0C801DF91CF911F910F91FF90EF90E1
:10390000DF90CF90BF90AF909F908F907F906F90FF
:1039100008955058BB27AA270ED075C166D130F044
:103920006BD120F031F49F3F11F41EF45BC10EF413
:10393000E095E7FB51C1E92F77D180F3BA17620711
:1039400073078407950718F071F49EF58FC10EF484
:10395000E0950B2EBA2FA02D0B01B90190010C019F
:10396000CA01A0011124FF27591B99F0593F50F4B7
:10397000503E68F11A16F040A22F232F342F44270F
:10398000585FF3CF469537952795A795F040539507
:10399000C9F77EF41F16BA0B620B730B840BBAF0D7
:1039A0009150A1F0FF0FBB1F661F771F881FC2F742
:1039B0000EC0BA0F621F731F841F48F48795779556
:1039C0006795B795F7959E3F08F0B3CF9395880F0D
:1039D00008F09927EE0F979587950895D9D008F4A8
:1039E00081E008950CD00FC107D140F0FED030F037
:1039F00021F45F3F19F0F0C0511139C1F3C014D167
:103A000098F39923C9F35523B1F3951B550BBB27A5
:103A1000AA2762177307840738F09F5F5F4F220F52
:103A2000331F441FAA1FA9F333D00E2E3AF0E0E84B
:103A300030D091505040E695001CCAF729D0FE2F97
:103A400027D0660F771F881FBB1F26173707480729
:103A5000AB07B0E809F0BB0B802DBF01FF279358DF
:103A60005F4F2AF09E3F510568F0B6C000C15F3F2E
:103A7000ECF3983EDCF3869577956795B795F795C7
:103A80009F5FC9F7880F911D9695879597F90895BF
:103A9000E1E0660F771F881FBB1F6217730784075B
:103AA000BA0720F0621B730B840BBA0BEE1F88F76A
:103AB000E095089504D06894B111D9C00895BCD0A0
:103AC00088F09F5790F0B92F9927B751A0F0D1F007
:103AD000660F771F881F991F1AF0BA95C9F712C091
:103AE000B13081F0C3D0B1E00895C0C0672F782F06
:103AF0008827B85F39F0B93FCCF3869577956795FD
:103B0000B395D9F73EF490958095709561957F4F68
:103B10008F4F9F4F0895E89409C097FB3EF490950E
:103B20008095709561957F4F8F4F9F4F9923A9F096
:103B3000F92F96E9BB279395F69587957795679525
:103B4000B795F111F8CFFAF4BB0F11F460FF1BC069
:103B50006F5F7F4F8F4F9F4F16C0882311F096E9FC
:103B600011C0772321F09EE8872F762F05C06623AA
:103B700071F096E8862F70E060E02AF09A95660F63
:103B8000771F881FDAF7880F9695879597F908951C
:103B9000990F0008550FAA0BE0E8FEEF161617065E
:103BA000E807F907C0F012161306E407F50798F0C6
:103BB000621B730B840B950B39F40A2661F0232BDF
:103BC000242B252B21F408950A2609F4A140A6955B
:103BD0008FEF811D811D089597F99F6780E870E040
:103BE00060E008959FEF80EC089500240A94161673
:103BF000170618060906089500240A9412161306DB
:103C0000140605060895092E0394000C11F4882368
:103C100052F0BB0F40F4BF2B11F460FF04C06F5F84
:103C20007F4F8F4F9F4F089557FD9058440F551F5A
:103C300059F05F3F71F04795880F97FB991F61F02E
:103C40009F3F79F087950895121613061406551FA5
:103C5000F2CF4695F1DF08C0161617061806991F11
:103C6000F1CF86957105610508940895E894BB2706
:103C700066277727CB0197F908958ADF08F48FEF3D
:103C800008950BD0C0CFB1DF28F0B6DF18F0952330
:103C900009F0A2CFA7CF1124EACFC6DFA0F3959FEA
:103CA000D1F3950F50E0551F629FF001729FBB2723
:103CB000F00DB11D639FAA27F00DB11DAA1F649FCF
:103CC0006627B00DA11D661F829F2227B00DA11D82
:103CD000621F739FB00DA11D621F839FA00D611D08
:103CE000221F749F3327A00D611D231F849F600D29
:103CF000211D822F762F6A2F11249F5750408AF062
:103D0000E1F088234AF0EE0FFF1FBB1F661F771FED
:103D1000881F91505040A9F79E3F510570F05CCF2D
:103D2000A6CF5F3FECF3983EDCF3869577956795D9
:103D3000B795F795E7959F5FC1F7FE2B880F911D0B
:103D40009695879597F90895FA01EE0FFF1F309623
:103D50002105310599F16115710561F48038BFE3E2
:103D60009B0749F168949038810561F08038BFEF76
:103D70009B0741F0992342F5FF3FE10531052105FD
:103D800011F1E8940894E795D901AA2329F4AB2FFF
:103D9000BE2FF85FD0F310C0FF5F70F4A695E0F778
:103DA000F73950F019F0FF3A38F49F779F930CD011
:103DB0000F9007FC905808953EF014CF60E070E03B
:103DC00080E89FE308954FE79F775F934F933F937A
:103DD0002F93A2D02F913F914F915F9152DF09C055
:103DE000D7DE880B990B089519F40EF0F5CE3ECF6F
:103DF000F9CE22DFC8F39638C0F707F80F92E8949F
:103E00002BE33AEA48EB5FE74ADF0F920F920F92FB
:103E10004DB75EB70F92C0D0E8E6F0E016D04F91F4
:103E20005F91EF91FF91E595EE1FFF1F49F0FE575F
:103E3000E0684427EE0F441FFA95E1F74195550BD2
:103E400032D00F9007FE26C00895DF93CF931F93C3
:103E50000F93FF92EF92DF927B018C01689405C073
:103E6000DA2EEF011ADFFE01E894A5912591359134
:103E700045915591AEF3EF015EDDFE019701A8017A
:103E8000DA9479F7DF90EF90FF900F911F91CF9127
:103E9000DF9108959B01AC0160E070E080E89FE352
:103EA000A1CD9ACEACC0C8DEE8F39923D9F3940F24
:103EB000511DBBF39150504094F059F0882332F0DB
:103EC000660F771F881F91505040C1F79E3F5105E4
:103ED00044F7880F911D9695879597F908955F3F50
:103EE000ACF0983E9CF0BB27869577956795B79583
:103EF00008F4B1609395C1F7BB0F58F711F460FF58
:103F0000E8CF6F5F7F4F8F4F9F4FE3CFB0CE0EF064
:103F100076C068CE689460CE8FDEC8F39923D1F363
:103F2000C6F3DF93CF931F930F93FF92C92FDD2723
:103F300088232AF02197660F771F881FDAF720E081
:103F400030E040E85FEB9FE3883920F0803E30F0BE
:103F500021968F77DFDCE0E9F0E003C0DBDCEDEBFE
:103F6000F0E073DF8B01BE01EC01FB2E6F5771098E
:103F70007595771F880B990BD0DD28E132E741E377
:103F80005FE38BDEAF2D9801AE01FF900F911F9183
:103F9000CF91DF91D0DC37CEFA01DC01AA0FBB1F35
:103FA0009B01AC01BF5728F42227332744275078C0
:103FB0001FC0B75188F4AB2F00244695379527953D
:103FC000011CA395D2F3002069F0220F331F441F78
:103FD000B395DAF30DD09DCC61307105A0E88A0766
:103FE000B94630F49B01AC01662777278827907883
:103FF000309621F0208331834283538308959F3F7D
:1040000031F0915020F4879577956795B795880F93
:10401000911D9695879597F9089597FB072E16F4AD
:10402000009407D077FD09D00E946D2007FC05D0D1
:104030003EF4909581959F4F0895709561957F4FBF
:104040000895A1E21A2EAA1BBB1BFD010DC0AA1FD9
:10405000BB1FEE1FFF1FA217B307E407F50720F0F1
:10406000A21BB30BE40BF50B661F771F881F991F6C
:104070001A9469F760957095809590959B01AC01B5
:10408000BD01CF010895052E97FB1EF400940E94F8
:104090005A2057FD07D00E94212007FC03D04EF480
:1040A0000C945A2050954095309521953F4F4F4F95
:1040B0005F4F089590958095709561957F4F8F4FD4
:1040C0009F4F08950E948720A59F900DB49F900D4B
:1040D000A49F800D911D11240895AA1BBB1B51E1C3
:1040E00007C0AA1FBB1FA617B70710F0A61BB70B68
:1040F000881F991F5A95A9F780959095BC01CD010D
:104100000895EE0FFF1F0590F491E02D0994A29FF2
:10411000B001B39FC001A39F700D811D1124911D9B
:10412000B29F700D811D1124911D0895FB01DC01CA
:1041300002C001900D9241505040D8F70895FB0104
:10414000DC018D91019080190110D9F3990B08952C
:10415000FB01DC0101900D920020E1F70895FB01C5
:10416000DC014150504048F001900D920020C9F709
:1041700001C01D9241505040E0F70895453251056D
:1041800020F4423010F00C94C920FB011082CB01C6
:104190000895BB274A3031F4992322F4BDE290956B
:1041A00081959F4F0C94D520BB27FB015527AA274B
:1041B000880F991FAA1FA41710F0A41B83955051B4
:1041C000B9F7A05DAA3308F0A95DA193009779F72C
:1041D000B111B1931192CB010C94EE20DC01FC01E2
:1041E000672F71917723E1F7329704C07C916D932B
:1041F00070836291AE17BF07C8F3089512E0CAE456
:10420000D2E004C0FE010E9483202296CC34D10764
:06421000C9F7F894FFCF8E
:104216000180000004000022225C5C08620C660A31
:104226006E0D72097400003D3D3D3D204F66666986
:104236006365204C75726B6572202D204E6F646528
:104246002000203D3D3D3D0A0069640074696D65AE
:104256007374616D70006169725F74656D7000736F
:104266007572666163655F74656D700068756D690A
:104276006469747900696C6C756D696E616E6365ED
:10428600006E6F6973655F6C6576656C006D6F7443
:10429600696F6E0043616C6962726174696E672052
:1042A6006D6F74696F6E2073656E736F722E20501A
:1042B6006C656173652077616974002E2E2E00642B
:1042C6006F6E652E2053656E736F722063616C6925
:1042D6006272617465642E006C75726B65720000A3
:1042E6000000001E0F000000001E0F00000000323C
:1042F600050505DA04E204F5040405526561642047
:104306006661696C006E756C6C007472756500662A
:10431600616C73650054534C323536310000000031
:1043260000F50F2C13F80F00000000C515411745C6
:104336001560155215A3156E616E00696E66006FE5
:044346007666000097
:00000001FF
