:100000000C9425010C944D010C944D010C944D0160
:100010000C944D010C944D010C944D010C944D0128
:100020000C944D010C944D010C944D010C944D0118
:100030000C944D010C944D010C944D010C944D0108
:100040000C9440130C944D010C944B160C947D169B
:100050000C944D010C944D010C944D010C944D01E8
:100060000C944E060C944D0107634236B79BD8A7FB
:100070001A39685618AEBAAB558C1D3CB7CC5763CD
:10008000BD6DEDFD753EF6177231BF000000803F7B
:1000900008000000BE922449123EABAAAA2ABECD97
:1000A000CCCC4C3E00000080BEABAAAAAA3E000009
:1000B0000000BF000000803F000000000008417801
:1000C000D3BB4387D1133D190E3CC3BD4282AD2B38
:1000D0003E68EC8276BED98FE1A93E4C80EFFFBE30
:1000E00001C4FF7F3F0000000000005EBCE2613FF2
:1000F000DD83C29C7E20A3FD1F419DC3217FFCA206
:10010000401E5F01E3BD3E6082DC237D9FC1421C37
:10011000FEA0E1BF5D0380DE3C62BEE0025CDF81E9
:10012000633D7C22C09E1D43A1FF4618FAA4277997
:100130009BC584DA3866E5BB5907DB856739BAE4C5
:1001400006581947A5FB7826C49A653BD987045AF7
:10015000B8E6A7F91B45C6987A24F8A6441A99C7A9
:10016000257B3A6486D85B05E7B98CD2306EEDB357
:10017000510F4E10F2AC2F7193CD114FADF3702E85
:10018000CC92D38D6F31B2EC0E50AFF1134DCE90B7
:10019000722C6D33D18F0C52B0EE326C8ED0530D69
:1001A000EFB1F0AE4C1291CF2D73CA947628ABF517
:1001B00017490856B4EA6937D58B5709EBB5366845
:1001C0008AD495CB2977F4AA4816E9B7550B88D677
:1001D000346A2B7597C94A14F6A8742AC896154B29
:1001E000A9F7B6E80A54D7896B3500000008000269
:1001F00001000003040700000000000000000102ED
:1002000004081020408001020408102001020408A4
:100210001020040404040404040402020202020282
:10022000030303030303000000002300260029004A
:1002300000000000250028002B0000000000240022
:1002400027002A001B046C05AD1611241FBECFEF3A
:10025000D8E0DEBFCDBF12E0A0E0B1E0E2E9FAE312
:1002600002C005900D92AE32B107D9F723E0AEE29D
:10027000B2E001C01D92AA3EB207E1F712E0CAE463
:10028000D2E004C02297FE010E941C1DC434D10795
:10029000C9F70E94F1160C94471D0C940000FC0154
:1002A000CB01408151816281738122E030E00C9466
:1002B0001F1961E171E08DE493E00E943E174AE06E
:1002C00050E062E070E08DE493E00E942C186CE254
:1002D00071E08DE493E00C943E17AF92BF92CF9201
:1002E000DF92EF92FF920F931F93CF93DF93CDB7DF
:1002F000DEB7C054D1090FB6F894DEBF0FBECDBF34
:10030000CE0109969C838B8387E090E09E838D834A
:1003100018861F828EEC91E09A83898363E371E0F3
:10032000CE0101960E94770F28ED3EE0FC01358357
:10033000248326E331E031832083C0902E02D090C5
:100340002F02E0903002F09031026EE371E0CE01B6
:1003500001960E94770F0AEA1FE0FC0115830483CF
:10036000C082D182E282F38260913F0270914002AA
:10037000882777FD8095982F0E94261A20E030E08C
:1003800048EC52E40E948B196B017C0168E471E037
:10039000CE0101960E94770F2FE4A22E21E0B22E0B
:1003A000FC01B582A482C082D182E282F382609194
:1003B0003D0270913E02882777FD8095982F0E941C
:1003C000261A20E030E048EC52E40E948B196B01C1
:1003D0007C0161E571E0CE0101960E94770FFC017E
:1003E000B582A482C082D182E282F38260913B0214
:1003F00070913C02882777FD8095982F0E94261ADD
:1004000020E030E048EC52E40E948B196B017C0143
:100410006EE571E0CE0101960E94770FFC01B58276
:10042000A482C082D182E282F382E0903902F0900D
:100430003A0267E671E0CE0101960E94770FFC0157
:1004400015830483A701662757FD6095762F4083A7
:10045000518362837383E0903702F090380263E740
:1004600071E0CE0101960E94770FFC011583048391
:10047000A701662757FD6095762F408351836283DD
:10048000738363E28DE493E00E944017BE016F5FC7
:100490007F4F8DE493E00E94471764E28DE493E080
:1004A0000E947717C05CDF4F0FB6F894DEBF0FBE17
:1004B000CDBFDF91CF911F910F91FF90EF90DF9013
:1004C000CF90BF90AF900895CF93DF93CDB7DEB7B5
:1004D00068970FB6F894DEBF0FBECDBFCE01099668
:1004E0009C838B8382E090E09E838D8318861F829D
:1004F00084ED91E09A83898363E371E0CE010196F4
:100500000E94770F28ED3EE0FC013583248326E32B
:1005100031E0318320836FE771E0CE0101960E94C4
:10052000770F2AEA3FE0FC013583248341E050E065
:1005300060E070E0408351836283738363E28DE403
:1005400093E00E944017BE016F5F7F4F8DE493E000
:100550000E94471764E28DE493E00E947717689643
:100560000FB6F894DEBF0FBECDBFDF91CF910895D7
:1005700066E871E08DE493E00C9465176DEA71E034
:100580008DE493E00C943E1761EB71E08DE493E011
:100590000C9465178DE592E00E9477096CE08DE57B
:1005A00092E00C9405098FE492E00C94680D81E4CC
:1005B00092E00C948311CF93DF9360E087E00E9478
:1005C0006C140E94B802CAE0D0E00E94BE0268EE3D
:1005D00073E080E090E00E94B9132197B1F70E9488
:1005E000C40262E370E080E090E0DF91CF910C9470
:1005F000B91360E08EE00C946C140E94CA020E9451
:10060000D3020E94D7020E94DB020C94F90226E07A
:1006100040E051EE60E070E08DE493E00E94E91567
:100620000E9459010C94FD028F929F92AF92BF924B
:10063000CF92DF92EF92FF920F931F93CF93DF93AE
:1006400000D000D0CDB7DEB78C010E948A134B01D9
:100650005C0120E030E0A901C12CD12C7601C80159
:10066000AA2797FDA095BA2F880E991EAA1EBB1E19
:1006700029833A834B835C830E948A1329813A81C0
:100680004B815C81681579058A059B05B8F41016C5
:100690001106A4F48EE00E942614AA2797FDA095C7
:1006A000BA2FC80ED91EEA1EFB1E29813A814B8142
:1006B0005C812F5F3F4F4F4F5F4FDACFC701B601CD
:1006C0000E94DC1CC9010F900F900F900F90DF91DA
:1006D000CF911F910F91FF90EF90DF90CF90BF903F
:1006E000AF909F908F9008950F931F930E948A134D
:1006F0000091320210913302209134023091350280
:10070000601B710B820B930B613177428105910560
:10071000C0F087E00E94DB14019789F481E08093A8
:1007200036020E948A1360933202709333028093E0
:100730003402909335021F910F910C946402109231
:1007400036021F910F910895F894A89529E288E147
:1007500090E00FB6F894A895809360000FBE2093A8
:10076000600078940895F894A89588E10FB6F894FD
:1007700080936000109260000FBE78940895CF922D
:10078000DF92EF92FF926B017C01CA0101970497FF
:1007900090F4BA01882777FD8095982F0E94261A39
:1007A0009B01AC0160E070E080E291E40E943D1B9F
:1007B0000E94F31904C061E070E080E090E00E94C4
:1007C000261A9B01AC01C701B6010E94DA1A0E94E9
:1007D000F319CB01FF90EF90DF90CF9008958DE556
:1007E00092E00E94490A60E08DE592E00E943D0B94
:1007F00042E050E00E94BF039093400280933F028A
:1008000061E08DE592E00E943D0B42E050E00E94E5
:10081000BF0390933E0280933D0208958FE492E0DF
:100820000E94280E42E050E00E94BF0390933C02D9
:1008300080933B02089564E080E792E00E949A0C66
:1008400060E772E08DE592E00E947C0726E046E1D9
:1008500068E08FE492E00E94610D2FEF3FEFA90165
:1008600069E381E492E00C940010CF93DF93CDB75D
:10087000DEB7A4970FB6F894DEBF0FBECDBFBE01A2
:100880006F5F7F4F81E492E00E94EB126D897E8959
:100890008F89988D0E94F31970933A026093390200
:1008A000A4960FB6F894DEBF0FBECDBFDF91CF91F7
:1008B00008950F931F930E948A1300912E021091A6
:1008C0002F022091300230913102601B710B820B9C
:1008D000930B6137774181059105D0F00E94EF03BA
:1008E0000E940E040E94350488EC90E00E941403DC
:1008F00090933802809337020E948A1360932E02ED
:1009000070932F0280933002909331020E946D0108
:100910001F910F910C9474030E94A4030E94590428
:10092000A89564EF71E080E090E00E94B9130C9408
:10093000B3038091AE0290E02091AF02821B910937
:1009400008952091AF028091AE02281750F4E22F53
:10095000F0E0E055FD4F808190E02F5F2093AF02E3
:1009600008958FEF9FEF0895E091AF028091AE025E
:10097000E81730F4F0E0E055FD4F808190E00895F5
:100980008FEF9FEF08950895CF92DF92EF92FF923D
:100990000F931F93CF93DF937C01CB018A012091AA
:1009A0008A02222389F0EB016B01C40ED51ECC15FF
:1009B000DD0569F06991D701ED91FC910190F0811D
:1009C000E02DC7010995F3CF642F0E942506C801C9
:1009D000DF91CF911F910F91FF90EF90DF90CF901B
:1009E0000895CF93DF931F92CDB7DEB7698320912F
:1009F0008A022223D1F020918B02203240F021E0A4
:100A000030E0FC013383228380E090E015C08091C8
:100A10008C02E82FF0E0E357FD4F998190838F5FC0
:100A200080938C0280938B0205C061E0CE01019619
:100A30000E94250681E090E00F90DF91CF9108950C
:100A4000FC011382128248EE53E060E070E04483C0
:100A50005583668377838AED91E09183808308953F
:100A60001092AF021092AE0210928C0210928B0282
:100A70000C947005862F413208F040E260EB72E082
:100A80000E948E051092AF028093AE02089521E07D
:100A90000C943A0581E080938A026093AD02109233
:100AA0008C0210928B0208950C944A050F93062F26
:100AB00021E040918B026DE872E08091AD020E94CE
:100AC000D20510928C0210928B0210928A020F9122
:100AD000089561E00C9456058EE792E00C94200591
:100AE00010923D0381E080933B0310923A0361E052
:100AF00082E10E94A51461E083E10E94A514E9EB64
:100B0000F0E080818E7F808380818D7F808388E488
:100B10008093B80085E48093BC000895413208F0CA
:100B20003FC090913D039111FCCF91E090933D0324
:100B300020933B032FEF2093D00210921503240F34
:100B40002093140390933C0390913C03880F892BCE
:100B500080933C0380913A03813041F410923A0330
:100B600080913C038093BB0085EC01C085EE8093AF
:100B7000BC0080913D038130E1F38091150384171F
:100B800010F44091150326E133E0FB01D9018A2FCF
:100B9000821B841718F48D918193F9CF842F0895C7
:100BA00080E008950F93413208F046C090913D03D4
:100BB0009111FCCF92E090933D0300933B039FEF94
:100BC0009093D0021092150340931403FB0166E149
:100BD00073E0DB019A2F961B941718F491919D9363
:100BE000F9CF10923C0390913C03880F892B80939E
:100BF0003C0380913A03813041F410923A03809192
:100C00003C038093BB0085EC01C085EE8093BC0063
:100C1000222321F080913D038230E1F38091D002C4
:100C20008F3F61F08091D002803251F08091D002EC
:100C3000803341F483E007C081E005C080E003C059
:100C400082E001C084E00F910895613298F4209110
:100C50003D03243089F46093F202FC0184EF92E0BA
:100C6000DC012A2F281B261718F421912D93F9CF88
:100C700080E0089581E0089582E0089585ED8093F5
:100C8000BC008091BC0084FDFCCF10923D03089510
:100C900085EC8093BC0010923D0308951F920F9243
:100CA0000FB60F9211242F933F934F935F936F933F
:100CB0007F938F939F93AF93BF93EF93FF93809115
:100CC000B900887F803609F49CC068F5883209F441
:100CD0005BC090F4803109F454C038F4882309F4DF
:100CE000F5C0883009F44DC0F5C0883109F44CC016
:100CF000803209F45DC0EEC0803409F468C048F465
:100D0000803309F455C0883309F0E4C08093D002E1
:100D1000A8C0803509F44FC0883509F45DC0883417
:100D200009F0D8C0D5C0883909F4C6C0A8F48837FE
:100D300009F467C038F4883609F463C0803709F4D1
:100D400060C0C8C0883809F4B7C0803909F45FC0F2
:100D5000803809F0BFC05BC0803B09F485C038F41F
:100D6000803A09F466C0883A09F47EC0B3C0803C7A
:100D700009F4A6C0883C09F4A3C0883B09F489C0E3
:100D8000A9C080913C0310C0909115038091140379
:100D9000981770F5E091150381E08E0F809315038D
:100DA000F0E0EA5EFC4F80818093BB0085EC85C05B
:100DB0008093D0028DC0E091150381E08E0F809367
:100DC00015038091BB00F0E0EA5EFC4F80839091B8
:100DD0001503809114036DC0E091150381E08E0F1F
:100DE000809315038091BB00F0E0EA5EFC4F8083A6
:100DF00080913B0381116CC081E080933A0384EAC7
:100E000060C083E080933D031092D102CFCF8091E8
:100E1000D102803208F050C0E091D10281E08E0F03
:100E20008093D1028091BB00F0E0EE52FD4F8083B1
:100E3000BDCF8091D102803230F4E091D102F0E058
:100E4000EE52FD4F10820E943E066091D10270E08A
:100E5000E0913603F091370382ED92E0099510920C
:100E6000D1020E94480636C084E080933D03109270
:100E7000F3021092F202E0913803F09139030995E0
:100E80008091F202811105C081E08093F2021092FC
:100E9000F402E091F30281E08E0F8093F302F0E020
:100EA000EC50FD4F80818093BB009091F3028091C4
:100EB000F202981708F47ACF85E88093BC000AC044
:100EC00085EC8093BC0010923D0304C01092D002C8
:100ED0000E943E06FF91EF91BF91AF919F918F913C
:100EE0007F916F915F914F913F912F910F900FBE26
:100EF0000F901F9018950895FC018BE797E0928B57
:100F0000818B768365831482108289E0818381E0FE
:100F1000828383830895CF93DF93EB0167E0CE0153
:100F20000E94550D91E02F81821390E0892FDF916F
:100F3000CF910895EF92FF920F931F93CF93DF937A
:100F4000EC018B01E42E8D819E810E94880CF12C96
:100F5000B8018D819E810E94BD0C882359F0FE103E
:100F600006C0B801CE010E948B07811104C0F39422
:100F7000EF1470F780E0DF91CF911F910F91FF90F8
:100F8000EF900895EF92FF920F931F93CF93DF930B
:100F900000D0CDB7DEB77C018A01FC018581968146
:100FA00069837A830E94610B69817A81F701858167
:100FB00096810E945C0C40E06EEBF7018581968182
:100FC0000E94FE0BF701858196810E94400CF8017A
:100FD0008083F701858196810E94400CF80181830E
:100FE000F701858196810E94400CF8018283F70108
:100FF000858196810E94400CF8018383F7018581E9
:1010000096810E94400CF8018483F70185819681C6
:101010000E94400CF8018583F701858196810E942A
:10102000400CF8018683F701858196810E94400C6F
:10103000F8018783F701858196810E94400CF801B1
:101040008087F701858196810F900F90DF91CF9176
:101050001F910F91FF90EF900C94610BCF93DF9352
:10106000EA010E94C20768E0CE010E94550D91E09E
:101070002885821390E0892FDF91CF910895EF9218
:10108000FF920F931F93CF93DF93EC017B018A01B3
:101090008D819E810E94610BB7018D819E810E948E
:1010A0005C0C40E06EE48D819E810E94FE0B40E06E
:1010B000F80162818D819E810E94FE0B40E0F80163
:1010C00063818D819E810E94FE0BF70180818031BA
:1010D00039F040E0F80164818D819E810E94FE0B11
:1010E0008D819E810E94610B488168E48D819E8183
:1010F0000E94FE0B8881882331F06AE070E080E076
:1011000090E00E94B9138D819E81DF91CF911F9154
:101110000F91FF90EF900C94610BEF92FF921F9351
:10112000CF93DF9300D0CDB7DEB77C01FC01858182
:10113000968169837A830E94610B69817A81F701C4
:10114000858196810E945C0C40E064EBF70185810B
:1011500096810E94FE0BF701858196810E94D30B38
:10116000182FF701858196810E94610B81E0111192
:1011700080E00F900F90DF91CF911F91FF90EF9043
:101180000895EF92FF920F931F93CF93DF93CDB704
:10119000DEB72A970FB6F894DEBF0FBECDBF7C0135
:1011A0008B01242FAE014F5F5F4F2A870E942E08CC
:1011B0002A858823D1F0F80180818031C1F02B305D
:1011C00041F02C3021F02A3031F48FE305C08FE755
:1011D00003C08FE501C08FE18D83AE014F5F5F4F8C
:1011E000B801C7010E943F0802C080E001C081E051
:1011F0002A960FB6F894DEBF0FBECDBFDF91CF9118
:101200001F910F91FF90EF900895EF92FF920F932F
:101210001F93CF93DF93CDB7DEB728970FB6F8941F
:10122000DEBF0FBECDBF8C01693020F06D3018F0ED
:101230006CE001C069E0F8016183E12CF12CF80158
:10124000848190E0E816F9069CF44E2DBE016F5F94
:101250007F4FC8010E949A07F8014181BE016F5F6C
:101260007F4FC8010E94C108FFEFEF1AFF0AE7CFC6
:1012700028960FB6F894DEBF0FBECDBFDF91CF9199
:101280001F910F91FF90EF900895CF93DF93CDB70B
:10129000DEB729970FB6F894DEBF0FBECDBFFB01B6
:1012A00020812031D1F0AE014F5F5F4F0E942E08A8
:1012B000882379F08D818F3351F018F48F3169F0E4
:1012C00008C08F3541F08F3721F48CE007C08AE0E9
:1012D00005C080E003C08BE001C089E029960FB60D
:1012E000F894DEBF0FBECDBFDF91CF910895EF928E
:1012F000FF920F931F93CF93DF93CDB7DEB7619724
:101300000FB6F894DEBF0FBECDBF8C01FC01858106
:1013100096810E94880CF8011482FF24F394BE0188
:10132000665F7F4FF801858196810E94BD0C8823FE
:10133000C9F1BE01665F7F4FC8010E948B078823F9
:1013400071F3F8018081811108C0BE01665F7F4F93
:10135000C8010E948D08811122C0AE014F5F5F4F0E
:10136000BE01665F7F4FC8010E94C207F801E1809D
:10137000BE01665F7F4FC8010E9445098E1518F4B3
:10138000F801818106C0BE01665F7F4FC8010E94DF
:101390004509F801818384818F5F8483C0CFF80180
:1013A000F082DBCF61960FB6F894DEBF0FBECDBFE3
:1013B000DF91CF911F910F91FF90EF900895CF9300
:1013C000DF93CDB7DEB729970FB6F894DEBF0FBE17
:1013D000CDBFAE014F5F5F4F0E94C20781E0998190
:1013E000911101C080E029960FB6F894DEBF0FBEC0
:1013F000CDBFDF91CF910895CF92DF92EF92FF9210
:101400000F931F93CF93DF93EC018B01452BE1F0FA
:101410008B818823C9F08881811116C00E948A13AC
:101420006B017C0160E070E0CE010E94DF09811158
:101430000BC00E948A136C197D098E099F096E3EAC
:1014400072408105910570F3F80180818A3049F07E
:101450008B3061F0893079F46EE570E080E090E0E7
:101460000EC06CEB70E080E090E009C067E771E0CF
:1014700080E090E004C06EEE72E080E090E0DF91EA
:10148000CF911F910F91FF90EF90DF90CF900C9430
:10149000B913CF93DF93EC018D819E810E94610B84
:1014A0008D819E810E94840C488164E48D819E819F
:1014B0000E94FE0B8A81882351F0BE016F5F7F4F2F
:1014C00040E050E0CE01DF91CF910C94FC09DF9118
:1014D000CF9108958F929F92AF92BF92CF92DF9259
:1014E000EF92FF921F93CF93DF93FB01EA01698193
:1014F00070E0762F66278881682B80818232B1F177
:101500008832A1F1803109F078C01F817595679507
:10151000882777FD8095982F0E94261A20E030E0DA
:1015200040E85EE30E9422196B017C01612F70E0AC
:101530008E81681B7109882777FD8095982F0E94FE
:10154000261A4B015C01612F70E080E090E00E9460
:10155000241A9B01AC01C501B4010E948B199B01A7
:10156000AC01C701B6010E94231943C08C818F339F
:1015700081F198F48F3109F040C093E0759567953B
:101580009A95E1F7882777FD8095982F0E94261A73
:1015900020E030E040E05FE32AC08F3569F08F370C
:1015A00061F5882777FD8095982F0E94261A20E004
:1015B00030E040E85DE31BC075956795882777FDAF
:1015C0008095982F0E94261A20E030E040E05EE3EC
:1015D0000EC07595679575956795882777FD8095F9
:1015E000982F0E94261A20E030E040E85EE30E9437
:1015F000DA1A562F472F382F292F652F742F832F54
:10160000922FDF91CF911F91FF90EF90DF90CF90BD
:10161000BF90AF909F908F900895EF92FF920F939D
:101620001F93CF93DF93CDB7DEB729970FB6F8940A
:10163000DEBF0FBECDBF8C017B01AE014F5F5F4FA0
:101640000E942E08882341F0AE014F5F5F4FB70123
:10165000C8010E946A0A04C060E070E08EEF92EC5C
:1016600029960FB6F894DEBF0FBECDBFDF91CF91A4
:101670001F910F91FF90EF9008950F931F93CF93B9
:10168000DF93CDB7DEB728970FB6F894DEBF0FBE55
:10169000CDBF8C01462FBE016F5F7F4F0E949A071E
:1016A000BE016F5F7F4FC8010E940D0B28960FB6D9
:1016B000F894DEBF0FBECDBFDF91CF911F910F9188
:1016C0000895FF920F931F93CF93DF93FC01008146
:1016D000C181D281F8948981F02EF0948F21898381
:1016E00078941DE7115029F182E090E00E94E11307
:1016F00088818023B9F3F8948A818F218A83898134
:10170000802B8983789480EE91E00E94E113F89415
:1017100089818F21898386E490E00E94E11388818A
:10172000802311E009F010E078948AE991E00E94AA
:10173000E113812FDF91CF911F910F91FF900895B9
:101740001F93CF93DF93FC011081C181D281912F30
:10175000909560FF12C0F8948A8189238A838981D9
:10176000812B89838AE090E00E94E1138A81812B9A
:101770008A83789487E390E011C0F8948A81892362
:101780008A838981812B898381E490E00E94E1131F
:101790008A81812B8A83789485E090E0DF91CF91D4
:1017A0001F910C94E1130F931F93CF93DF93FC01D0
:1017B0001081C181D281F8948981812B89838A81AA
:1017C000012F009580238A8383E090E00E94E1133B
:1017D0008981802389838AE090E00E94E113C88197
:1017E000789485E390E00E94E1131C2381E009F4E2
:1017F00080E0DF91CF911F910F910895CF92DF92FA
:10180000EF92FF920F931F93CF93DF931F92CDB769
:10181000DEB76C01E62E08E010E0FF24F39461E0EF
:101820009F2D9E2109F460E0C60149830E94A00B10
:10183000FF0C0150110949810115110581F7411172
:1018400015C0F894D6011196ED91FC9112979181F3
:101850008C918095892381831196ED91FC9112974B
:1018600092818C9180958923828378940F90DF9167
:10187000CF911F910F91FF90EF90DF90CF9008953F
:10188000EF92FF920F931F93CF93DF938C01C8E0E9
:10189000D0E0F12CEE24E394C8010E94D30B811117
:1018A000FE28EE0C2197C1F78F2DDF91CF911F916C
:1018B0000F91FF90EF900895CF92DF92FF920F93D8
:1018C0001F93CF93DF931F92CDB7DEB78C01F62E17
:1018D00040E065E579830E94FE0BCF2C7981D72EFD
:1018E00088E0F82EF60161916F0140E0C8010E9486
:1018F000FE0BFA94B9F70F90DF91CF911F910F91E2
:10190000FF90DF90CF90089540E06CEC0C94FE0BBC
:10191000FC0113861586148627E030E0DF01A20F54
:10192000B31F13961C922115310519F0215031096E
:10193000F5CF08951F93CF93DF93EC01162F60E04E
:10194000812F0E946C14612F70E0FB01E250FE4F6A
:10195000E491E883FB01EE5EFD4FE491F0E0EE0FD1
:10196000FF1FEA5DFD4F859194919A838983CE0193
:10197000DF91CF911F910C94880CAF92BF92CF92C0
:10198000DF92EF92FF920F931F93CF93DF931F92FB
:10199000CDB7DEB75C01E62ED72EFC01858581111F
:1019A0005DC0C5010E94610B811105C0F501138660
:1019B000158614866EC040E060EFC5010E94FE0BE4
:1019C00001E0F12CC12C11E0C5010E94D30B682F5E
:1019D000C50169830E94D30B6981613019F481309C
:1019E000B9F433C02F2D30E068131BC0F501838597
:1019F000181730F4E20FF31F8381802349F402C0EB
:101A0000181731F060E0193058F4F501148708C058
:101A1000F501EF0DF11D8381802B838361E009C007
:101A2000C12EF501E20FF31F8381902F909589233A
:101A30008383C5010E94A00B1F5F000F11F4F39474
:101A400001E0F7E0FF1508F0BFCF113438F0F501E1
:101A5000C386C11018C081E0858715C0F5011386C3
:101A60001586148680E0EE2DFD2D20E030E0D501B6
:101A7000A20FB31F13969C9191932F5F3F4F283075
:101A80003105A9F706C0F5018381882339F381E088
:101A9000EACF0F90DF91CF911F910F91FF90EF90C0
:101AA000DF90CF90BF90AF900895DC0180E061504F
:101AB00038F0ED91E827F0E0E651FF4F8491F7CF41
:101AC0000895FC0166834783208781E08587089518
:101AD000CF93DF93EC0160E08E810E946C1461E093
:101AE0008E810E94A51419861A861B861C86DF919A
:101AF000CF910895DF92EF92FF920F931F93CF93B0
:101B0000DF93EC0161E08E810E94A5146AEF70E022
:101B100080E090E00E94B9130E948A1309851A851B
:101B20002B853C85601771078207930720F419867F
:101B30001A861B861C862D85211111C009851A85E0
:101B40002B853C85DC01CB01801B910BA20BB30BD9
:101B5000803D9740A105B10510F481E071C01D865C
:101B60000E948A1369877A878B879C871C821B82D5
:101B70001A821982188261E08E810E946C1460E0E2
:101B80008E810E94A51464E170E080E090E00E94E4
:101B9000B913F89461E08E810E94A51488E290E068
:101BA0000E94E11360E08E810E946C14F12CD12C14
:101BB00081E0E12C082F10E08E810E94DB14801759
:101BC000910741F4E39481E090E00E94E1138FEFEC
:101BD000E812F2CF8E810E94DB149FEFE916C9F064
:101BE00023E02F1590F4F0FC10C09D2D969596954E
:101BF0009695FE01E90FF11D9081990F908328853C
:101C00002E1510F491609083D394F39495E5F91216
:101C1000D0CF789427E22D1590F42C8130E04881C4
:101C2000898190E0840F911D4A81840F911D4B8121
:101C3000840F911D99272817390709F48ECF80E06A
:101C4000DF91CF911F910F91FF90EF90DF9008955A
:101C5000CF92DF92EF92FF92CF93DF93EC010E943D
:101C60007A0D882379F18F818B3029F158F18551D4
:101C7000823040F5688170E080E090E00E94241A94
:101C800020E030E040E853E40E94DA1A6B017C0166
:101C9000698170E080E090E00E94261A9B01AC010F
:101CA000C701B6010E94231920E030E040E251E470
:101CB0000E948B1911C0688170E080E090E00E9462
:101CC000241A0AC066EE71E08DE493E00E943E178C
:101CD00060E070E080EC9FE7DF91CF91FF90EF90A4
:101CE000DF90CF900895BF92CF92DF92EF92FF9254
:101CF0000F931F93CF93DF937C01EB01009771F457
:101D000060EF71E0CE01DF91CF911F910F91FF90B5
:101D1000EF90DF90CF90BF900C943E17E881F9814F
:101D20000190F081E02D62E2CE0109958C01F7016E
:101D300061917F01662341F1E1E0F1E09081911131
:101D400017C0B180E881F981BB20B1F00190F0812A
:101D5000E02D6CE5CE0109956C01E881F9810190D7
:101D6000F081E02D6B2DCE0109958C0D9D1D09C0D4
:101D7000961739F33296E2CF0190F081E02DCE0133
:101D80000995080F191FD3CFE881F9810190F081DF
:101D9000E02D62E2CE010995800F911FDF91CF9176
:101DA0001F910F91FF90EF90DF90CF90BF9008951B
:101DB000FC01808191810C94730E6F927F928F92BF
:101DC0009F92AF92BF92CF92DF92EF92FF920F93CA
:101DD0001F93CF93DF937C01EB01E881F9810190A0
:101DE000F081E02D6BE7CE0109958C01F701A2800F
:101DF000B380C680D78075014501F2E08F0E911C3B
:101E00001C141D04B4F5BE01F701808191810E946C
:101E1000730E3C01E881F9810190F081E02D6AE3C5
:101E2000CE010995860D971D080F191FF701EA19B4
:101E3000FB09E80DF91D0480F581E02DBE01C70105
:101E400002960995080F191FF8E0EF0EF11C81E0CA
:101E5000C816D10451F0E881F9810190F081E02D9C
:101E60006CE2CE010995080F191FE1E0CE1AD108E6
:101E7000C7CFE881F9810190F081E02D6DE7CE01B7
:101E80000995800F911FDF91CF911F910F91FF90C6
:101E9000EF90DF90CF90BF90AF909F908F907F900A
:101EA0006F900895EF92FF920F931F93CF93DF935C
:101EB0007B01FC01C281D3810681178110161106B6
:101EC0005CF4B701888199810E942F1D892B39F01C
:101ED000289601501109F2CF80E090E001C0CE01B8
:101EE000DF91CF911F910F91FF90EF9008950F9385
:101EF0001F93CF93DF93EC018B010E94520F009749
:101F000011F0029622C08E819F812C813D81821723
:101F1000930784F49C0143E0220F331F4A95E1F7B5
:101F2000EA81FB81E20FF31F0193119301969F83D6
:101F30008E8302C0EEE3F3E01082118212821382DC
:101F400088ED9EE095838483CF01DF91CF911F912F
:101F50000F910895FC01CB01408151816281738111
:101F60002AE030E00C94E217FC01658308950F939A
:101F70001F93CF93DF938C01EB0188E2FB01119259
:101F80008A95E9F74BE050E060E072E0CE010E94F4
:101F9000381D1B8641E050E060E070E04C875D87B3
:101FA0006E877F87F8014285538564857585488BE8
:101FB000598B6A8B7B8B45E050E060E070E04C8B86
:101FC0005D8B6E8B7F8B1CA21DA21EA21FA240E008
:101FD00050ED64E876E4488F598F6A8F7B8F1C8EB2
:101FE0001D8E1E8E1F8E40E050E060E87FE348A308
:101FF00059A36AA37BA3DF91CF911F910F910895FD
:10200000FC018CE092E091838083638314821582CB
:102010001782168211861086228733874487558758
:1020200008954F925F926F927F928F929F92AF929C
:10203000BF92CF92DF92EF92FF92FA01DC011696E7
:102040002D913C9117972115310531F02130310543
:1020500031F048EE5DEF05C044E253E102C048E8CC
:1020600050E94617570708F4CCC04E175F0708F42D
:10207000C8C02115310549F02130310569F0C12C66
:1020800024E0D22EE12CF12C0DC037E1C32E35E730
:10209000D32EE12CF12C06C0B7EECB2EBFE0DB2E09
:1020A000E12CF12CDC0118968D919C911997892BCC
:1020B00039F4A4E0CC0CDD1CEE1CFF1CAA95D1F772
:1020C000DB01A70196010E94FB1C4B015C016AE049
:1020D000B694A794979487946A95D1F7DF010E94EC
:1020E000FB1C2B013C017AE076946794579447944B
:1020F0007A95D1F781149104A104B10471F0C30160
:10210000B2013AE0660F771F881F991F3A95D1F701
:10211000A50194010E94BA1C03C020E030E0A9018F
:10212000DA01C9010196A11DB11DB695A795979534
:10213000879581349105A105B10530F1813891056C
:10214000A105B10530F1813C9105A105B10530F142
:10215000813021E09207A105B10528F1893321E002
:102160009207A105B10520F18B3921E09207A10565
:10217000B10518F18B399240A105B10518F5E2E1DE
:10218000F0E0A8E1B0E022C0EEEBF1E0A2EFB1E0B8
:102190001DC0E1EDF2E0A4E1B2E018C0EBE7F3E02E
:1021A000AFE3B2E013C0EEEFF3E0A0E7B2E00EC0A1
:1021B000ECEFF1E0AFE6B1E009C0EBEFF0E0A2ED4B
:1021C000B0E004C0E0E0F0E0A0E0B0E0A5019401E0
:1021D0000E94FB1C6B017C0180E2D80EE11CF11C0B
:1021E000DF01A30192010E94FB1CC61AD70AE80A6C
:1021F000F90A8EE0F694E794D794C7948A95D1F7BC
:1022000003C0C12CD12C7601C701B601FF90EF901D
:10221000DF90CF90BF90AF909F908F907F906F9006
:102220005F904F9008951F93CF93DF9300D000D01D
:10223000CDB7DEB7162FDC0113968C91682F772768
:1022400067FD70958EE792E029833A834B835C8328
:102250000E945405612F8EE792E00E94F104E09104
:102260007E02F0917F0229813A814B815C81CA0113
:10227000B9017727882799270190F081E02D8EE713
:1022800092E009958EE792E00F900F900F900F90DB
:10229000DF91CF911F910C94690523E030E040E07D
:1022A00050E060E80C94131120E030E0A90160E8F0
:1022B0000C9413111F93CF93DF93EC01162F8B8196
:1022C000682F772767FD70958EE792E00E9454058E
:1022D000612F8EE792E00E94F1048EE792E00E9467
:1022E00069056B81772767FD709541E050E08EE7C7
:1022F00092E00E9447058EE792E00E94A104DF91E0
:10230000CF911F910895CF93DF93EC018EE792E078
:102310000E9430056AE0CE010E945A118A7089F04D
:1023200081E08C836E817F81CE010E94A51168853A
:102330007985CE010E94C911CE010E94541181E01D
:1023400001C080E0DF91CF9108950F931F93CF9349
:10235000DF93EC018B018C81811103C0CE010E94BF
:102360008311CE010E944D1128853985202B312BF8
:10237000442737FD4095542F61E8CE010E94131188
:102380001F830E83CE01DF91CF911F910F910C948B
:1023900054110F931F93CF93DF93EC018B018C812A
:1023A000811103C0CE010E948311CE010E944D1104
:1023B0002E813F81202B312B442737FD4095542F10
:1023C00061E8CE010E94131119870887CE01DF91C1
:1023D000CF911F910F910C9454111F93CF93DF93C2
:1023E000EC01162F8B81682F772767FD70958EE79C
:1023F00092E00E945405612F8EE792E00E94F10462
:102400008EE792E00E9469056B81772767FD7095E2
:1024100042E050E08EE792E00E9447058EE792E0AE
:102420000E94A104EC018EE792E00E94A10420E04A
:1024300030E0382FC9018C2B9D2BDF91CF911F915C
:102440000895EF92FF920F931F93CF93DF93EC01C8
:102450007B018A010E944D118E819F81009739F086
:10246000019751F466E670E080E090E009C06EE00C
:1024700070E080E090E004C063E971E080E090E00B
:102480000E94B9136CEACE010E94ED11F70191830D
:1024900080836EEACE010E94ED11F8019183808362
:1024A000CE01DF91CF911F910F91FF90EF900C948F
:1024B00054118F929F92AF92BF92CF92DF92EF9280
:1024C000FF920F931F93CF93DF9300D000D01F9202
:1024D000CDB7DEB78C016B017A01FC0184818111DB
:1024E00003C0C8010E948311F8018581811106C0D3
:1024F000A701B601C8010E9421125BC020E0F801CB
:1025000086819781009759F0019789F064EF862EB4
:102510009924939478E1A72E76EFB72E0FC0E4E6C6
:102520008E2E912CF2EFAF2EF2E1BF2E07C048ECB9
:10253000842E912C50EAA52E5CE8B52EAE014F5F9B
:102540005F4FBE016D5F7F4FC8012D830E94211236
:102550008B819C812D81211124C08815990540F41F
:10256000F80120853185232BE1F460E170E00BC098
:10257000A816B906B0F4F80120853185203131055F
:1025800081F460E070E0C8010E94C911AE014F5FA4
:102590005F4FBE016D5F7F4FC8010E94211221E095
:1025A000AECFF6019183808389819A81F70191836F
:1025B00080830F900F900F900F900F90DF91CF912D
:1025C0001F910F91FF90EF90DF90CF90BF90AF9051
:1025D0009F908F900895EF92FF920F931F93CF9348
:1025E000DF9300D000D0CDB7DEB77C018B0184E251
:1025F000FB0111928A95E9F784E290E0A0E0B0E057
:10260000FB0180839183A283B383F7018285938545
:10261000A485B585FB0184839583A683B78385E074
:1026200090E0A0E0B0E080879187A287B3870E9406
:102630008A13F801608B718B828B938BAE014F5F95
:102640005F4FBE016D5F7F4FC7010E9459124981E4
:102650005A816B817C81C7010E9411100E94241A4B
:10266000F801648B758B868B978B0F900F900F9072
:102670000F90DF91CF911F910F91FF90EF900895F0
:102680001F920F920FB60F9211242F933F938F93A7
:102690009F93AF93BF938091450390914603A09180
:1026A0004703B09148033091440323E0230F2D37B3
:1026B00020F40196A11DB11D05C026E8230F029646
:1026C000A11DB11D209344038093450390934603BD
:1026D000A0934703B09348038091490390914A0324
:1026E000A0914B03B0914C030196A11DB11D8093A5
:1026F000490390934A03A0934B03B0934C03BF91BB
:10270000AF919F918F913F912F910F900FBE0F909E
:102710001F9018952FB7F894609145037091460368
:1027200080914703909148032FBF08953FB7F894D5
:102730008091490390914A03A0914B03B0914C03BF
:1027400026B5A89B05C02F3F19F00196A11DB11D0C
:102750003FBF6627782F892F9A2F620F711D811D29
:10276000911D42E0660F771F881F991F4A95D1F788
:102770000895CF92DF92EF92FF92CF93DF936B0198
:102780007C010E949613EB01C114D104E104F10411
:1027900089F00E9421190E9496136C1B7D0B683EE4
:1027A000734090F381E0C81AD108E108F108C851DC
:1027B000DC4FEACFDF91CF91FF90EF90DF90CF9089
:1027C0000895019739F0880F991F880F991F029774
:1027D0000197F1F70895789484B5826084BD84B53B
:1027E000816084BD85B5826085BD85B5816085BD0C
:1027F000EEE6F0E0808181608083E1E8F0E0108225
:10280000808182608083808181608083E0E8F0E065
:10281000808181608083E1EBF0E08081846080834F
:10282000E0EBF0E0808181608083EAE7F0E0808186
:1028300084608083808182608083808181608083E6
:102840008081806880831092C10008958E3008F0E6
:102850008E5087702091000190E4299F90011124EF
:10286000822B80937C0080917A00806480937A0030
:1028700080917A0086FDFCCF8091780020917900CC
:1028800090E0922B0895833081F028F4813099F004
:102890008230A1F008958730A9F08830B9F08430F3
:1028A000D1F4809180008F7D03C0809180008F776C
:1028B00080938000089584B58F7702C084B58F7DA2
:1028C00084BD08958091B0008F7703C08091B000DF
:1028D0008F7D8093B0000895CF93DF9390E0FC014B
:1028E000E250FE4F2491FC01EE5EFD4F849188235F
:1028F00049F190E0880F991FFC01E65CFD4FA5911E
:10290000B491805D9D4FFC01C591D4919FB7611139
:1029100008C0F8948C91209582238C93888182231F
:102920000AC0623051F4F8948C91322F3095832391
:102930008C938881822B888304C0F8948C91822B9D
:102940008C939FBFDF91CF9108950F931F93CF93E7
:10295000DF931F92CDB7DEB7282F30E0F901E651A3
:10296000FE4F8491F901E250FE4F1491F901EE5EA1
:10297000FD4F04910023C9F0882321F069830E9450
:1029800043146981E02FF0E0EE0FFF1FE05DFD4F83
:10299000A591B4919FB7F8948C91611103C01095E3
:1029A000812301C0812B8C939FBF0F90DF91CF912A
:1029B0001F910F910895CF93DF93282F30E0F901F5
:1029C000E651FE4F8491F901E250FE4FD491F90196
:1029D000EE5EFD4FC491CC2391F081110E9443140F
:1029E000EC2FF0E0EE0FFF1FEA5DFD4FA591B491D3
:1029F0002C912D2381E090E021F480E002C080E062
:102A000090E0DF91CF910895FC01818D228D90E0BF
:102A1000805C9F4F821B910960E470E00E94A61CBD
:102A20000895FC01918D828D981731F0828DE80F09
:102A3000F11D858D90E008958FEF9FEF0895FC01C3
:102A4000918D828D981761F0828DDF01A80FB11DE5
:102A50005D968C91928D9F5F9F73928F90E0089509
:102A60008FEF9FEF089583EA96E1892B49F080E08C
:102A700090E0892B29F00E94A31681110C9400008C
:102A80000895FC01848DDF01A80FB11DA35ABF4F2B
:102A90002C91848D90E001968F739927848FA6895D
:102AA000B7892C93A089B1898C9180648C93938D84
:102AB000848D981306C00288F389E02D80818F7D74
:102AC00080830895CF93DF93EC01888D8823C9F02C
:102AD000EA89FB89808185FD05C0A889B9898C9127
:102AE00086FD0FC00FB607FCF5CF808185FFF2CFC2
:102AF000A889B9898C9185FFEDCFCE010E9441153F
:102B0000E7CFDF91CF910895CF92DF92FF920F939D
:102B10001F93CF93DF931F92CDB7DEB76C01DC011B
:102B20005B969C915B975C968C915C97981307C021
:102B30005096ED91FC915197808185FD32C0F60150
:102B4000038D10E00F5F1F4F0F731127F02EF6015A
:102B5000848DF81211C00FB607FCF9CFD60150963C
:102B6000ED91FC915197808185FFF1CFC60169837A
:102B70000E9441156981EBCF838DE80FF11DE35A67
:102B8000FF4F6083D6015B960C935B975296ED9155
:102B9000FC91539780818062808381E058968C936A
:102BA0000DC0D6015696ED91FC91579760835096D3
:102BB000ED91FC91519780818064808381E090E069
:102BC0000F90DF91CF911F910F91FF90DF90CF90E9
:102BD0000895BF92CF92DF92EF92FF92CF93DF934F
:102BE000EC016A017B01B22EE889F98982E08083D9
:102BF000411581EE580761057105A1F060E079E0AB
:102C00008DE390E0A70196010E94BA1C2150310982
:102C1000410951095695479537952795211580E12A
:102C2000380798F0E889F989108260E874E88EE145
:102C300090E0A70196010E94BA1C21503109410978
:102C400051095695479537952795EC85FD85308335
:102C5000EE85FF852083188EEC89FD89B082EA8994
:102C6000FB89808180618083EA89FB89808188601B
:102C70008083EA89FB89808180688083EA89FB8977
:102C800080818F7D8083DF91CF91FF90EF90DF90E7
:102C9000CF90BF9008951F920F920FB60F921124FC
:102CA0002F938F939F93EF93FF93E0915D03F091A8
:102CB0005E038081E0916303F091640382FD12C0A2
:102CC0009081809166038F5F8F73209167038217D5
:102CD00051F0E0916603F0E0E35BFC4F958F809349
:102CE000660301C08081FF91EF919F918F912F9199
:102CF0000F900FBE0F901F9018951F920F920FB656
:102D00000F9211242F933F934F935F936F937F9371
:102D10008F939F93AF93BF93EF93FF938DE493E0D3
:102D20000E944115FF91EF91BF91AF919F918F91BB
:102D30007F916F915F914F913F912F910F900FBEB7
:102D40000F901F9018958DE493E00E94041521E0E8
:102D5000892B09F420E0822F0895109250031092DD
:102D60004F0388EE93E0A0E0B0E08093510390938E
:102D70005203A0935303B093540386E192E09093DF
:102D80004E0380934D0385EC90E090935A0380931B
:102D9000590384EC90E090935C0380935B0380EC98
:102DA00090E090935E0380935D0381EC90E09093BC
:102DB000600380935F0382EC90E0909362038093C2
:102DC000610386EC90E09093640380936303109218
:102DD00066031092670310926803109269030895C6
:102DE00008950E94EB130E94F0160E940703C3E3AC
:102DF000D5E10E948C042097E1F30E943315F9CFAE
:102E0000CF92DF92EF92FF920F931F93CF93DF93B6
:102E10006C017A01EB01E60EF71E00E010E0CE1522
:102E2000DF0561F06991D601ED91FC910190F0818F
:102E3000E02DC6010995080F191FF1CFC801DF91D8
:102E4000CF911F910F91FF90EF90DF90CF90089559
:102E50006115710581F0DB010D900020E9F7AD01EE
:102E600041505109461B570BDC01ED91FC9102804A
:102E7000F381E02D099480E090E008950C942817E8
:102E8000DC01ED91FC910190F081E02D0994DB01D2
:102E9000ED91FC9111970190F081E02DBC01CD01E5
:102EA00009940F931F93CF93DF93EC016DE00E9481
:102EB00040178C016AE0CE010E944017800F911FDD
:102EC000DF91CF911F910F9108950F931F93CF938F
:102ED000DF93EC010E9428178C01CE010E9451174C
:102EE000800F911FDF91CF911F910F9108950F9344
:102EF0001F93CF93DF93EC010E9440178C01CE010A
:102F00000E945117800F911FDF91CF911F910F9158
:102F100008958F929F92AF92BF92CF92DF92EF92DD
:102F2000FF920F931F93CF93DF93CDB7DEB7A19797
:102F30000FB6F894DEBF0FBECDBF7C01C42EE52FC7
:102F4000CB01D22E19A221E02D1510F02AE0D22EAD
:102F50008E010F5D1F4F8D2C912CA12CB12C6C2D4F
:102F60007E2FA50194010E94BA1C8C2DD29E80193F
:102F70001124015011098A3014F4805D01C0895C6C
:102F8000F8018083211531054105510521F0C22E3C
:102F9000E32FCA01E4CFB801C7010E942817A19608
:102FA0000FB6F894DEBF0FBECDBFDF91CF911F915A
:102FB0000F91FF90EF90DF90CF90BF90AF909F90D8
:102FC0008F900895CF92DF92EF92FF920F931F930D
:102FD000CF93DF93EC016A017B012115310579F470
:102FE000E881F9810190F081E02D642FDF91CF918C
:102FF0001F910F91FF90EF90DF90CF9009942A30AE
:103000003105E9F477FF1AC06DE20E9440178C0188
:1030100044275527BA014C195D096E097F092AE03A
:10302000CE010E948917800F911FDF91CF911F91D0
:103030000F91FF90EF90DF90CF9008952AE0B701B5
:10304000A601CE01DF91CF911F910F91FF90EF90DC
:10305000DF90CF900C9489179A01AB01662757FD3A
:103060006095762F0C94E2174F925F926F927F9249
:103070008F929F92AF92BF92CF92DF92EF92FF9288
:103080000F931F93CF93DF93EC016A017B01B22E64
:103090009A01AB01C701B6010E94891B882319F070
:1030A00062E272E027C026013701E89477F82FEF3B
:1030B0003FEF4FE75FE7C301B2010E94891B811117
:1030C0000DC02FEF3FEF4FE75FE7C301B2010E9452
:1030D000871918161CF466E272E00CC02FEF3FEF60
:1030E0004FE75FE4C701B6010E94D61A1816ACF488
:1030F0006AE272E0CE01DF91CF911F910F91FF90B4
:10310000EF90DF90CF90BF90AF909F908F907F9087
:103110006F905F904F900C9428172FEF3FEF4FE781
:103120005FECC701B6010E94871987FDE1CF20E05F
:1031300030E0A901C701B6010E94871987FF0AC0C4
:103140006DE2CE010E9440178C01F7FAF094F7F877
:10315000F09402C000E010E0A12C60E070E080E09C
:103160009FE3AB1441F020E030E040E251E40E94E4
:103170008B19A394F6CF9B01AC01C701B6010E9445
:1031800023196B017C010E94F8192B013C010E945C
:10319000241A9B01AC01C701B6010E9422196B01E0
:1031A0007C012AE0B301A201CE010E948917080F19
:1031B000191FBB2039F06FEA71E0CE010E94281779
:1031C000080F191F7B2C772041F120E030E040E20E
:1031D00051E4C701B6010E94DA1A6B017C010E941A
:1031E000F3194B01AA2497FCA094BA2C2AE030E0F2
:1031F000B501A401CE010E94E217080F191FC501F5
:10320000B4010E94261A9B01AC01C701B6010E94BD
:1032100022196B017C017A94D6CFC801DF91CF913E
:103220001F910F91FF90EF90DF90CF90BF90AF90E4
:103230009F908F907F906F905F904F9008950C9427
:10324000341808955058BB27AA270ED075C166D1EF
:1032500030F06BD120F031F49F3F11F41EF45BC1CC
:103260000EF4E095E7FB51C1E92F77D180F3BA174F
:10327000620773078407950718F071F49EF58FC1F4
:103280000EF4E0950B2EBA2FA02D0B01B901900181
:103290000C01CA01A0011124FF27591B99F0593FC5
:1032A00050F4503E68F11A16F040A22F232F342F0D
:1032B0004427585FF3CF469537952795A795F0405B
:1032C0005395C9F77EF41F16BA0B620B730B840B70
:1032D000BAF09150A1F0FF0FBB1F661F771F881F28
:1032E000C2F70EC0BA0F621F731F841F48F4879580
:1032F00077956795B795F7959E3F08F0B3CF93956F
:10330000880F08F09927EE0F979587950895D9D0E3
:1033100008F481E008950CD00FC107D140F0FED031
:1033200030F021F45F3F19F0F0C0511139C1F3C002
:1033300014D198F39923C9F35523B1F3951B550B79
:10334000BB27AA2762177307840738F09F5F5F4F78
:10335000220F331F441FAA1FA9F333D00E2E3AF0B9
:10336000E0E830D091505040E695001CCAF729D0D3
:10337000FE2F27D0660F771F881FBB1F2617370722
:103380004807AB07B0E809F0BB0B802DBF01FF2752
:1033900093585F4F2AF09E3F510568F0B6C000C1B8
:1033A0005F3FECF3983EDCF3869577956795B7958C
:1033B000F7959F5FC9F7880F911D9695879597F9A7
:1033C0000895E1E0660F771F881FBB1F6217730720
:1033D0008407BA0720F0621B730B840BBA0BEE1F35
:1033E00088F7E095089504D06894B111D9C0089584
:1033F000BCD088F09F5790F0B92F9927B751A0F013
:10340000D1F0660F771F881F991F1AF0BA95C9F778
:1034100012C0B13081F0C3D0B1E00895C0C0672FB1
:10342000782F8827B85F39F0B93FCCF38695779528
:103430006795B395D9F73EF4909580957095619511
:103440007F4F8F4F9F4F0895E89409C097FB3EF43C
:1034500090958095709561957F4F8F4F9F4F9923E1
:10346000A9F0F92F96E9BB279395F695879577955F
:103470006795B795F111F8CFFAF4BB0F11F460FF1F
:103480001BC06F5F7F4F8F4F9F4F16C0882311F077
:1034900096E911C0772321F09EE8872F762F05C08B
:1034A000662371F096E8862F70E060E02AF09A9526
:1034B000660F771F881FDAF7880F9695879597F91B
:1034C0000895990F0008550FAA0BE0E8FEEF1616B5
:1034D0001706E807F907C0F012161306E407F50708
:1034E00098F0621B730B840B950B39F40A2661F07C
:1034F000232B242B252B21F408950A2609F4A1401F
:10350000A6958FEF811D811D089597F99F6780E82B
:1035100070E060E008959FEF80EC089500240A9425
:103520001616170618060906089500240A9412169E
:103530001306140605060895092E0394000C11F4D1
:10354000882352F0BB0F40F4BF2B11F460FF04C07E
:103550006F5F7F4F8F4F9F4F089557FD9058440FD7
:10356000551F59F05F3F71F04795880F97FB991FE2
:1035700061F09F3F79F0879508951216130614069F
:10358000551FF2CF4695F1DF08C01616170618062C
:10359000991FF1CF86957105610508940895E89407
:1035A000BB2766277727CB0197F908958ADF08F4B0
:1035B0008FEF08950BD0C0CFB1DF28F0B6DF18F041
:1035C000952309F0A2CFA7CF1124EACFC6DFA0F33D
:1035D000959FD1F3950F50E0551F629FF001729FA8
:1035E000BB27F00DB11D639FAA27F00DB11DAA1FC7
:1035F000649F6627B00DA11D661F829F2227B00D14
:10360000A11D621F739FB00DA11D621F839FA00D9E
:10361000611D221F749F3327A00D611D231F849FEE
:10362000600D211D822F762F6A2F11249F57504045
:103630008AF0E1F088234AF0EE0FFF1FBB1F661FE0
:10364000771F881F91505040A9F79E3F510570F099
:103650005CCFA6CF5F3FECF3983EDCF38695779581
:103660006795B795F795E7959F5FC1F7FE2B880F94
:10367000911D9695879597F90895FA01EE0FFF1F12
:1036800030962105310599F16115710561F4803895
:10369000BFE39B0749F168949038810561F0803859
:1036A000BFEF9B0741F0992342F5FF3FE10531054C
:1036B000210511F1E8940894E795D901AA2329F48A
:1036C000AB2FBE2FF85FD0F310C0FF5F70F4A6954C
:1036D000E0F7F73950F019F0FF3A38F49F779F93ED
:1036E0000CD00F9007FC905808953EF014CF60E086
:1036F00070E080E89FE308954FE79F775F934F93D3
:103700003F932F93A2D02F913F914F915F9152DF22
:1037100009C0D7DE880B990B089519F40EF0F5CE89
:103720003ECFF9CE22DFC8F39638C0F707F80F92E4
:10373000E8942BE33AEA48EB5FE74ADF0F920F92F7
:103740000F924DB75EB70F92C0D0E8E6F0E016D00A
:103750004F915F91EF91FF91E595EE1FFF1F49F0AB
:10376000FE57E0684427EE0F441FFA95E1F74195B4
:10377000550B32D00F9007FE26C00895DF93CF93EC
:103780001F930F93FF92EF92DF927B018C0168945D
:1037900005C0DA2EEF011ADFFE01E894A59125910C
:1037A000359145915591AEF3EF015EDDFE01970134
:1037B000A801DA9479F7DF90EF90FF900F911F91B5
:1037C000CF91DF9108959B01AC0160E070E080E84B
:1037D0009FE3A1CD9ACEACC0C8DEE8F39923D9F31C
:1037E000940F511DBBF39150504094F059F0882331
:1037F00032F0660F771F881F91505040C1F79E3FEF
:10380000510544F7880F911D9695879597F908956E
:103810005F3FACF0983E9CF0BB2786957795679507
:10382000B79508F4B1609395C1F7BB0F58F711F441
:1038300060FFE8CF6F5F7F4F8F4F9F4FE3CFB0CEDA
:103840000EF076C068CE689460CE8FDEC8F3992300
:10385000D1F3C6F3DF93CF931F930F93FF92C92F3A
:10386000DD2788232AF02197660F771F881FDAF754
:1038700020E030E040E85FEB9FE3883920F0803EB5
:1038800030F021968F77DFDCE0E9F0E003C0DBDC8D
:10389000EDEBF0E073DF8B01BE01EC01FB2E6F5707
:1038A00071097595771F880B990BD0DD28E132E7F8
:1038B00041E35FE38BDEAF2D9801AE01FF900F91E6
:1038C0001F91CF91DF91D0DC37CEFA01DC01AA0F36
:1038D000BB1F9B01AC01BF5728F422273327442785
:1038E00050781FC0B75188F4AB2F00244695379508
:1038F0002795011CA395D2F3002069F0220F331FF6
:10390000441FB395DAF30DD09DCC61307105A0E86A
:103910008A07B94630F49B01AC01662777278827D0
:103920009078309621F02083318342835383089529
:103930009F3F31F0915020F4879577956795B79523
:10394000880F911D9695879597F9089597FB072EF7
:1039500016F4009407D077FD09D00E94061D07FCDD
:1039600005D03EF4909581959F4F0895709561958F
:103970007F4F0895A1E21A2EAA1BBB1BFD010DC0AB
:10398000AA1FBB1FEE1FFF1FA217B307E407F5070F
:1039900020F0A21BB30BE40BF50B661F771F881FEB
:1039A000991F1A9469F760957095809590959B0181
:1039B000AC01BD01CF010895052E97FB1EF40094C4
:1039C0000E94F31C57FD07D00E94BA1C07FC03D0CD
:1039D0004EF40C94F31C50954095309521953F4F33
:1039E0004F4F5F4F089590958095709561957F4FEB
:1039F0008F4F9F4F08950E94201DA59F900DB49F4B
:103A0000900DA49F800D911D11240895AA1BBB1B2E
:103A100051E107C0AA1FBB1FA617B70710F0A61BCE
:103A2000B70B881F991F5A95A9F780959095BC01EF
:103A3000CD010895EE0FFF1F0590F491E02D09943C
:103A4000A29FB001B39FC001A39F700D811D1124DF
:103A5000911DB29F700D811D1124911D0895FB01D0
:103A6000DC018D91019080190110D9F3990B089513
:103A7000FB01DC014150504048F001900D920020C4
:103A8000C9F701C01D9241505040E0F70895F894E5
:023A9000FFCF66
:103A92000122225C5C08620C660A6E0D72097400D7
:103AA200003D3D3D3D204F6666696365204C757261
:103AB2006B6572202D204E6F64652000203D3D3DD8
:103AC2003D0A006964006C75726B6572320074693C
:103AD2006D657374616D70006169725F74656D709C
:103AE20000737572666163655F74656D70006875F9
:103AF2006D696469747900696C6C756D696E616E6B
:103B02006365006E6F6973655F6C6576656C006DE9
:103B12006F74696F6E0043616C6962726174696E81
:103B220067206D6F74696F6E2073656E736F722E8E
:103B320020506C656173652077616974002E2E2EAA
:103B420000646F6E652E2053656E736F7220636121
:103B52006C696272617465642E0000000000DD0E03
:103B620000000000DD0E00000000F104C40499040E
:103B7200A104B404C30452656164206661696C00E7
:103B82006E756C6C00747275650066616C736500AD
:103B920054534C323536310000000000B40FEB12A2
:103BA200B70F000000008415001704151F1511152A
:0E3BB20062156E616E00696E66006F766600C9
:00000001FF
