:100000000C9425010C944D010C944D010C944D0160
:100010000C944D010C944D010C944D010C944D0128
:100020000C944D010C944D010C944D010C944D0118
:100030000C944D010C944D010C944D010C944D0108
:100040000C9448120C944D010C9493150C941616B4
:100050000C944D010C944D010C944D010C944D01E8
:100060000C949E050C944D0107634236B79BD8A7AC
:100070001A39685618AEBAAB558C1D3CB7CC5763CD
:10008000BD6DEDFD753EF6177231BF000000803F7B
:1000900008000000BE922449123EABAAAA2ABECD97
:1000A000CCCC4C3E00000080BEABAAAAAA3E000009
:1000B0000000BF000000803F000000000008417801
:1000C000D3BB4387D1133D190E3CC3BD4282AD2B38
:1000D0003E68EC8276BED98FE1A93E4C80EFFFBE30
:1000E00001C4FF7F3F0000000000005EBCE2613FF2
:1000F000DD83C29C7E20A3FD1F419DC3217FFCA206
:10010000401E5F01E3BD3E6082DC237D9FC1421C37
:10011000FEA0E1BF5D0380DE3C62BEE0025CDF81E9
:10012000633D7C22C09E1D43A1FF4618FAA4277997
:100130009BC584DA3866E5BB5907DB856739BAE4C5
:1001400006581947A5FB7826C49A653BD987045AF7
:10015000B8E6A7F91B45C6987A24F8A6441A99C7A9
:10016000257B3A6486D85B05E7B98CD2306EEDB357
:10017000510F4E10F2AC2F7193CD114FADF3702E85
:10018000CC92D38D6F31B2EC0E50AFF1134DCE90B7
:10019000722C6D33D18F0C52B0EE326C8ED0530D69
:1001A000EFB1F0AE4C1291CF2D73CA947628ABF517
:1001B00017490856B4EA6937D58B5709EBB5366845
:1001C0008AD495CB2977F4AA4816E9B7550B88D677
:1001D000346A2B7597C94A14F6A8742AC896154B29
:1001E000A9F7B6E80A54D7896B350000000024004F
:1001F00027002A0000000000250028002B00000036
:10020000000023002600290004040404040404045C
:1002100002020202020203030303030301020408B1
:100220001020408001020408102001020408102060
:1002300000000007000201000003040600000000A7
:10024000000000005E013A04C91511241FBECFEF63
:10025000D8E0DEBFCDBF12E0A0E0B1E0E6EEF8E30B
:1002600002C005900D92AE34B107D9F714E0AEE4A8
:10027000B2E001C01D92A430B107E1F712E0CAE478
:10028000D2E004C02297FE010E946D1CC434D10745
:10029000C9F70E943C160C94711C0C940000FB01E1
:1002A000DC014150504048F001900D920020C9F708
:1002B00001C01D9241505040E0F708950F931F93E5
:1002C0000EE412E0C80164E00E943B0D8CE592E070
:1002D000B8010E944D078FE692E068E046E126E013
:1002E0000E94710D8DE792E069E32FEF3FEF4FEF32
:1002F0005FEF0E949B0E1F910F910895EF92FF9266
:100300000F931F937B018C01CA010197049728F07A
:1003100061E070E080E090E015C0BA01882777FDC9
:100320008095982F0E948D199B01AC0160E070E0D0
:1003300080E291E40E94A41A9B01AC01CA01B901B8
:100340000E945A190E948D199B01AC01C801B70186
:100350000E94411A0E945A19CB011F910F91FF90E0
:10036000EF9008956F927F928F929F92AF92BF927B
:10037000CF92DF92EF92FF920F931F93CF93DF9371
:10038000EC010E949012662477244301AA24BB2426
:1003900065017E010027F7FC0095102FE60EF71E81
:1003A000081F191F0E9490126E157F058007910784
:1003B000A0F41C161D068CF48EE00E944B13AA2795
:1003C00097FDA095BA2F680E791E8A1E9B1E089471
:1003D000A11CB11CC11CD11CE5CFC401B301A601F5
:1003E00095010E94501CC901DF91CF911F910F917F
:1003F000FF90EF90DF90CF90BF90AF909F908F9045
:100400007F906F900895DF93CF93CDB7DEB7A49719
:100410000FB6F894DEBF0FBECDBF8DE792E0BE01F0
:100420006F5F7F4F0E94CE116D897E898F89988D75
:100430000E945A197093920260939102A4960FB68B
:10044000F894DEBF0FBECDBFCF91DF9108958FE648
:1004500092E00E94440E42E050E00E947E019093A0
:10046000900280938F0208950F931F930CE512E082
:10047000C8010E946109C80160E00E947E0A42E052
:1004800050E00E947E0190938C0280938B02C80101
:1004900061E00E947E0A42E050E00E947E0190935B
:1004A0008E0280938D021F910F9108958EE060E07F
:1004B0000E946D1308958DE792E00E94EF10089559
:1004C0008FE692E00E94780D08950F931F930CE53C
:1004D00012E0C8010E94E80AC8016CE00E94A50A67
:1004E0001F910F91089587E693E060E071E00E940C
:1004F0007518089587E693E069E171E00E94751828
:10050000089587E693E060E471E00E948B170895F8
:10051000CF93DF9387E060E00E946D130E947A0220
:10052000C0E0D0E00E94810268EE73E080E090E0DD
:100530000E94E3122196CA30D105A1F70E947302EE
:1005400062E370E080E090E00E94E312DF91CF91DF
:1005500008950E9465020E9460020E945B020E9450
:1005600088020E94560208950F931F9307E613E036
:10057000C80164E471E00E948B170E949012AB01E5
:10058000BC01C8012AE030E00E9424171F910F919E
:1005900008950E9490122091960230919702409106
:1005A000980250919902621B730B840B950B615159
:1005B000774280409040B8F087E00E940014019795
:1005C00081F481E0809395020E94901260939602DC
:1005D0007093970280939802909399020E94B402BC
:1005E00008951092950208950F931F9307E613E064
:1005F000C80167E571E00E948B17C80160E771E0F0
:100600000E948B1740919A0250919B0260919C022C
:1006100070919D02C8012AE030E00E943817C8019D
:100620006DE771E00E948B1760918B0270918C02D4
:10063000882777FD8095982F0E948D1920E030E063
:1006400048EC52E40E94F218AB01BC01C80122E060
:1006500030E00E947218C80160E971E00E948B17B7
:1006600060918D0270918E02882777FD8095982F7A
:100670000E948D1920E030E048EC52E40E94F2180C
:10068000AB01BC01C80122E030E00E947218C80131
:1006900069EA71E00E948B1760918F02709190025D
:1006A000882777FD8095982F0E948D1920E030E0F3
:1006B00048EC52E40E94F218AB01BC01C80122E0F0
:1006C00030E00E947218C80167EB71E00E948B173E
:1006D0006091910270919202C8014AE050E00E943C
:1006E0007817C80163EC71E00E948B176091930248
:1006F00070919402C8014AE050E00E947817C80146
:1007000066ED71E00E948B171F910F9108950E9472
:10071000901220919A0230919B0240919C0250913C
:100720009D02621B730B840B950B615777418040D0
:100730009040D0F00E9434020E9427020E940302DF
:1007400088EC90E00E94B20190939402809393020F
:100750000E94901260939A0270939B0280939C0275
:1007600090939D020E94F4020E94C9020895F89499
:10077000A89589E228E130E00FB6F894A895209377
:1007800060000FBE8093600078940E948703A89554
:1007900064EF71E080E090E00E94E312F894A89585
:1007A00088E10FB6F89480936000109260000FBE4D
:1007B000789408950F931F9307E613E0C8016FED37
:1007C00071E00E948B17C80161E070E04AE050E0E0
:1007D0000E947817C8016BEF71E00E948B171F9180
:1007E0000F91089587E693E040E051EE60E070E0FD
:1007F00026E00E9483140E94DA030E94A902089551
:1008000081E08093E3026093C0021092E1021092B3
:10081000E20208952091BF0230E08091BE02281BC1
:100820003109C90108954091BE028091BF02481765
:1008300018F02FEF3FEF0AC0E42FF0E0E256FD4F33
:100840008081282F30E04F5F4093BE02C901089598
:10085000E091BE028091BF02E81718F0EFEFFFEFC2
:1008600006C0F0E0E256FD4F8081E82FF0E0CF01B6
:10087000089508951092E7021092E60288EE93E040
:10088000A0E0B0E08093E8029093E902A093EA022E
:10089000B093EB0287E292E09093E5028093E4024A
:1008A0000895CF92DF92EF92FF920F931F93CF9311
:1008B000DF937C016B018A018091E3028823A1F020
:1008C000C0E0D0E00DC0D701ED91FC91D601AC0F96
:1008D000BD1F0190F081E02DC7016C910995219613
:1008E000C017D10780F304C0CB01642F0E94830599
:1008F000C801DF91CF911F910F91FF90EF90DF9092
:10090000CF900895DF93CF930F92CDB7DEB7FC0160
:1009100069838091E3028823C9F08091E2028032EA
:1009200038F081E090E09383828320E030E015C0CE
:100930008091E102E82FF0E0EF53FD4F9981908321
:100940008F5F8093E1028093E20205C0CE010196A1
:1009500061E00E94830521E030E0C9010F90CF9152
:10096000DF9108950F93062F8091C00261EC72E031
:100970004091E20221E00E942E051092E1021092C5
:10098000E2021092E3020F91089561E00E94B20426
:100990000895413208F040E2862F6EE972E00E942D
:1009A000E5041092BE028093BF02089521E00E94E8
:1009B000C90408951092BE021092BF021092E10283
:1009C0001092E2020E942F070895382F413210F052
:1009D00040E042C08091F0028823E1F791E09093DB
:1009E000F0022093F2028FEF80935D0310921803C0
:1009F0004150409319034F5F9093F1028091F102AF
:100A0000330F832B8093F1028091F302813041F404
:100A10001092F3028091F1028093BB0085EC01C03B
:100A200085EE8093BC008091F0028130E1F38091EB
:100A30001803841710F44091180320E030E00AC036
:100A4000FB01E20FF31FD901A850BD4F8C918083A9
:100A50002F5F3F4F2417A0F3842F08950F931F9308
:100A6000582F122F413210F081E04AC08091F002DD
:100A70008823E1F782E08093F0020093F2028FEF87
:100A800080935D031092180340931903A8EFB2E01E
:100A9000FB0102C081918D938E2F861B8417D0F3AA
:100AA0001092F1028091F102550F852B8093F10293
:100AB0008091F302813041F41092F3028091F102AF
:100AC0008093BB0085EC01C085EE8093BC001123B0
:100AD00021F08091F0028230E1F380915D038F3F3D
:100AE00011F480E00DC080915D03803211F482E04A
:100AF00007C080915D03803311F084E001C083E082
:100B00001F910F910895482F613210F081E00895F0
:100B10008091F002843011F082E0089560933B03ED
:100B2000AAE1B3E0842F9C01F90102C081918D9369
:100B30008E2F841B8617D0F380E008951F920F92AA
:100B40000FB60F9211242F933F934F935F936F93A0
:100B50007F938F939F93AF93BF93EF93FF93809176
:100B6000B90090E0887F90708036910509F4F2C05A
:100B700081369105CCF58832910509F47BC0893224
:100B80009105B4F48031910509F46FC0813191056C
:100B90003CF4009709F447C1089709F04FC165C0BC
:100BA0008831910509F466C0809709F047C182C079
:100BB0008034910509F4A4C08134910544F4803354
:100BC000910509F482C0C89709F038C189C0803501
:100BD000910509F489C08835910509F496C08834D7
:100BE000910509F02BC1AEC08839910509F413C1F4
:100BF00089399105ECF48837910509F4ABC0893740
:100C000091054CF48836910509F4A4C0803791050C
:100C100009F014C19FC08838910509F4FCC08039DF
:100C2000910509F49DC08038910509F007C198C06D
:100C3000803B910509F4C6C0813B91054CF4803A94
:100C4000910509F49FC0883A910509F0F7C0BAC030
:100C5000803C910509F4E3C0883C910509F4DFC0AC
:100C6000883B910509F0EAC0C2C08091F1028093EF
:100C7000BB00CFC09091180380911903981768F4B6
:100C800090911803E92FF0E0E850FD4F80818093A8
:100C9000BB009F5F90931803BCC08091F202882331
:100CA00009F44BC085ED8093BC008091BC0084FDAD
:100CB000FCCFC2C080E280935D0385ED8093BC00D1
:100CC0008091BC0084FDFCCFB7C080E380935D03BE
:100CD00085ED8093BC008091BC0084FDFCCFACC04E
:100CE00088E380935D039BC0809118039091BB00C3
:100CF000E82FF0E0E850FD4F90838F5F809318035A
:100D0000909118038091190382C0809118039091EB
:100D1000BB00E82FF0E0E850FD4F90838F5F809399
:100D200018038091F202882341F085ED8093BC0086
:100D30008091BC0084FDFCCF7FC081E08093F302F2
:100D400084EA6EC085ED8093BC008091BC0084FD78
:100D5000FCCF72C083E08093F00210925C0359C014
:100D600080915C03803208F056C080915C039091C2
:100D7000BB00E82FF0E0E45CFC4F90838F5F809332
:100D80005C0347C080915C03803230F4E0915C03E7
:100D9000F0E0E45CFC4F108285ED8093BC00809114
:100DA000BC0084FDFCCF1092F00260915C03E091E6
:100DB000F602F091F7028CE393E070E0099510924F
:100DC0005C032DC084E08093F00210923A031092ED
:100DD0003B03E091F402F091F502099580913B0309
:100DE000882329F481E080933B0310921A039091A9
:100DF0003A03E92FF0E0E65EFC4F80818093BB0070
:100E00009F5F90933A0390913A0380913B03981728
:100E100010F485EC01C085E88093BC000FC085EC20
:100E20008093BC0009C010925D0385ED8093BC00E7
:100E30008091BC0084FDFCCF1092F002FF91EF91F5
:100E4000BF91AF919F918F917F916F915F914F91E2
:100E50003F912F910F900FBE0F901F9018951092F9
:100E6000F00281E08093F2021092F30282E161E0ED
:100E70000E94AC1383E161E00E94AC13E9EBF0E067
:100E800080818E7F808380818D7F808388E48093C2
:100E9000B80085E48093BC000895FC0183E198E0EC
:100EA000928B818B768365831482108289E08183A3
:100EB00081E08283838308956F927F928F929F92C5
:100EC000AF92BF92CF92DF92EF92FF920F931F9358
:100ED000CF93DF93FB01EA01998180E0288130E024
:100EE000282B392BE081E23231F0E83221F0E03179
:100EF00009F084C04BC04C814F3329F1403420F4B9
:100F00004F3109F07BC02FC04F3579F04F3709F0D2
:100F100075C0B901882777FD8095982F0E948D199B
:100F200020E030E040E85DE32EC035952795B9011B
:100F3000882777FD8095982F0E948D1920E030E05A
:100F400040E05EE320C03595279535952795B9019A
:100F5000882777FD8095982F0E948D1920E030E03A
:100F600040E85EE310C093E0359527959A95E1F748
:100F7000B901882777FD8095982F0E948D1920E070
:100F800030E040E05FE30E94411A32C0EF803595C7
:100F90002795B901882777FD8095982F0E948D1994
:100FA00020E030E040E85EE30E9489183B014C01FC
:100FB0006E2D70E02E81621B7109882777FD809568
:100FC000982F0E948D195B016C01FF2400E010E056
:100FD000C801B7010E948B199B01AC01C601B50184
:100FE0000E94F2189B01AC01C401B3010E948A184F
:100FF0009B01AC01832F942F752F00C0262F382F13
:10100000492F572FB901CA01DF91CF911F910F913D
:10101000FF90EF90DF90CF90BF90AF909F908F9018
:101020007F906F9008950895EF92FF920F931F9312
:101030008C017B01FC01858196810E945A0CF8018C
:1010400085819681B7010E94390CF80185819681CE
:1010500064EB40E00E94F40BF801858196810E94C8
:101060006F0BF82EF801858196810E945A0C80E062
:10107000FF2009F481E01F910F91FF90EF900895F8
:10108000EF92FF920F931F93CF93DF93EC018B01AD
:101090007A018D819E810E945A0C8D819E81B801BA
:1010A0000E94390C8D819E816EE440E00E94F40B19
:1010B0008D819E81F701628140E00E94F40B8D8159
:1010C0009E81F701638140E00E94F40BF80180816A
:1010D000803139F08D819E81F701648140E00E946A
:1010E000F40B8D819E810E945A0C8D819E8168E453
:1010F00048810E94F40B8881882331F06AE070E017
:1011000080E090E00E94E3128D819E810E945A0C43
:10111000DF91CF911F910F91FF90EF900895CF92A3
:10112000DF92EF92FF920F931F938C016B017A0174
:10113000FC01858196810E945A0CF8018581968177
:10114000B6010E94390CF801858196816EEB40E072
:101150000E94F40BF801858196810E94A30BF70190
:101160008083F801858196810E94A30BF70181831A
:10117000F801858196810E94A30BF7018283F80113
:10118000858196810E94A30BF7018383F8018581F5
:1011900096810E94A30BF7018483F80185819681D3
:1011A0000E94A30BF7018583F801858196810E9437
:1011B000A30BF7018683F801858196810E94A30B1A
:1011C000F7018783F801858196810E94A30BF701BF
:1011D0008087F801858196810E945A0C1F910F919A
:1011E000FF90EF90DF90CF900895DF93CF93CDB72E
:1011F000DEB729970FB6F894DEBF0FBECDBFAE01A4
:101200004F5F5F4F0E948F088981811181E029968D
:101210000FB6F894DEBF0FBECDBFCF91DF9108951A
:10122000CF92DF92EF92FF920F931F93CF93DF93B2
:10123000EC016B01452BE1F08B818823C9F088819B
:101240008823B1F40E9490127B018C01CE0160E0F2
:1012500070E00E94F508882359F40E9490126E19DC
:101260007F09800B910B6E5E72408040904070F35E
:10127000F6016081693039F06930A0F06A3041F0E0
:101280006B3081F40AC06EE570E080E090E00EC043
:101290006CEB70E080E090E009C067E771E080E00F
:1012A00090E004C06EEE72E080E090E00E94E312F5
:1012B000DF91CF911F910F91FF90EF90DF90CF9032
:1012C0000895CF93DF93EC018D819E810E945A0C8B
:1012D0008D819E810E94340C8D819E8164E44881C1
:1012E0000E94F40B8A81882339F0CE012196BE0139
:1012F00040E050E00E941009DF91CF9108950F93D4
:101300001F938A010E948F08C80168E00E945E0B4B
:1013100020E0F8019085891709F421E0822F1F91C0
:101320000F910895CF92DF92EF92FF920F931F9348
:10133000DF93CF93CDB7DEB729970FB6F894DEBF12
:101340000FBECDBF8C017B016E010894C11CD11C66
:10135000A6010E947F09882329F460E070E08EEFE7
:1013600092EC05C0C801B701A6010E945C0729964E
:101370000FB6F894DEBF0FBECDBFCF91DF911F91A6
:101380000F91FF90EF90DF90CF900895DF93CF9370
:10139000CDB7DEB729970FB6F894DEBF0FBECDBF2D
:1013A0009C01FB0180818031D9F0C901AE014F5F02
:1013B0005F4F0E947F098823A9F08D818F3371F0E0
:1013C000803418F48F3171F40BC08F3519F08F37DA
:1013D00049F402C08BE007C08CE005C08AE003C07E
:1013E00089E001C080E029960FB6F894DEBF0FBEF9
:1013F000CDBFCF91DF910895CF92DF92EF92FF9210
:101400001F93DF93CF93CDB7DEB729970FB6F8942C
:10141000DEBF0FBECDBF6C017B01142FAE014F5F4D
:101420005F4F0E947F098823E1F0F70180818031BE
:10143000B9F01A3051F01A3050F01B3021F01C3046
:1014400031F48FE705C08FE503C08FE301C08FE162
:101450008D83C601B701AE014F5F5F4F0E94400808
:1014600081E029960FB6F894DEBF0FBECDBFCF91B5
:10147000DF911F91FF90EF90DF90CF9008950F9331
:101480001F938B01CB0167E00E945E0B20E0F80107
:101490009781891709F421E0822F1F910F910895F8
:1014A000EF92FF920F931F93CF93DF93EC017B0199
:1014B000042F8D819E810E94510B10E007C0CE0148
:1014C000B7010E943F0A8823A9F00AC08D819E813E
:1014D000B7010E94A50C882329F0101759F4EFCF0B
:1014E00081E001C080E0DF91CF911F910F91FF90CB
:1014F000EF9008951F5F0117A8F3E8CFEF92FF92D6
:101500000F931F93DF93CF93CDB7DEB728970FB616
:10151000F894DEBF0FBECDBF7C01462F8E010F5F5A
:101520001F4FB8010E94500AC701B8010E949209DA
:1015300028960FB6F894DEBF0FBECDBFCF91DF91D6
:101540001F910F91FF90EF900895CF92DF92EF924D
:10155000FF920F931F93DF93CF93CDB7DEB72897FA
:101560000FB6F894DEBF0FBECDBF7C01693010F41A
:1015700069E003C06D3008F06CE0F701618300E0C2
:1015800010E06E010894C11CD11C0DC0C701B6014A
:10159000402F0E94500AC701B601F70141810E9405
:1015A000FC090F5F1F4FF701848190E008171907AE
:1015B0006CF328960FB6F894DEBF0FBECDBFCF9167
:1015C000DF911F910F91FF90EF90DF90CF900895E2
:1015D000AF92BF92CF92DF92EF92FF920F931F9341
:1015E000DF93CF93CDB7DEB761970FB6F894DEBF28
:1015F0000FBECDBF7C01FC01858196810E94510BFD
:10160000F70114826E010894C11CD11C79E0A72E49
:10161000B12CAC0EBD1E01E02BC0C701B6010E946B
:101620003F0A882329F1F7018081882341F4C7010B
:10163000B6010E941408882311F0F7010083C70146
:10164000B601A5010E948F08F7011181C701B601FB
:101650000E94C609811718F4F701818104C0C701EF
:10166000B6010E94C609F701818384818F5F84835C
:10167000F70185819681B6010E94A50C882369F641
:1016800061960FB6F894DEBF0FBECDBFCF91DF914C
:101690001F910F91FF90EF90DF90CF90BF90AF9090
:1016A0000895FC0113861586148687E090E0128663
:1016B0003197009711F00197FACF0895DC0180E08F
:1016C0000BC0E82FF0E08D9190E0E827F927E65174
:1016D000FF4FE49161508E2F662399F70895DF92B2
:1016E000EF92FF920F931F93FC01E0800181128122
:1016F000F894F80181818E2981838281DE2CD09437
:101700008D21828383E090E00E949E12F801818106
:101710008D2181838AE090E00E949E12F801008171
:10172000789485E390E00E949E1280E010E0FF2410
:101730000E211F21012B09F081E01F910F91FF90D5
:10174000EF90DF900895EF92FF920F931F93CF9346
:10175000DF937C0101E010E0C0E0D0E0C7010E940F
:101760006F0B8111102B000F2196C830D105B1F7F6
:10177000812FDF91CF911F910F91FF90EF900895EE
:101780001F93CF93DF93FC011081C181D281912FF0
:10179000909560FF12C0F8948A8189238A83898199
:1017A000812B89838AE090E00E949E128A81812B9E
:1017B0008A83789487E390E011C0F8948A81892322
:1017C0008A838981812B898381E490E00E949E1223
:1017D0008A81812B8A83789485E090E00E949E1212
:1017E000DF91CF911F910895CF92DF92EF92FF92F8
:1017F0000F931F93CF93DF938C01E42EFF24F39478
:10180000C0E0D0E0C62EDD2460E08F2D90E08C217A
:101810009D21892B09F061E0C8010E94C00BFF0CDB
:101820002196C830D10581F7EE20A9F4F894D801AB
:101830001196ED91FC91129791818C91809598234E
:1018400091831196ED91FC91129792818C918095E4
:10185000982392837894DF91CF911F910F91FF90FD
:10186000EF90DF90CF9008956CEC40E00E94F40B75
:101870000895EF92FF920F931F93CF93DF938C0104
:101880007B0165E540E00E94F40BC0E0D0E0F70189
:10189000EC0FFD1FC801608140E00E94F40B21960F
:1018A000C830D105A1F7DF91CF911F910F91FF9023
:1018B000EF900895DF92EF92FF920F931F93CF93D3
:1018C000DF93FC010081C181D281F8948981D02EFF
:1018D000D0948D21898378941DE7E02EFF24115048
:1018E00059F182E090E00E949E12888190E08E2162
:1018F0009F21892BA1F3F8948A818D218A83898184
:10190000802B8983789480EE91E00E949E12F89457
:1019100089818D21898386E490E00E949E128881CE
:1019200010E090E0E822F922EF2809F411E0789421
:101930008AE991E00E949E12812FDF91CF911F9141
:101940000F91FF90EF90DF900895AF92BF92DF92DA
:10195000EF92FF920F931F93CF93DF93EC015B0104
:101960008D85882309F061C0CE010E945A0C88231E
:1019700029F41B861D861C8690E06BC0CE0160EFAB
:1019800040E00E94F40B01E0DD24EE24FF24F394F8
:10199000CE010E946F0B182FCE010E946F0B1130E9
:1019A00019F48130E1F439C0181709F58B8508174F
:1019B00070F460E0FE01EE0DF11D838190E02F2DAB
:1019C00030E082239323181619064CF003C060E020
:1019D000081729F0093008F04CC00C874AC0FE01F6
:1019E000EE0DF11D83818F29838361E009C0612F92
:1019F000FE01EE0DF11D9F2D909583818923838338
:101A0000CE010E94C00B0F5FFF0C19F4E394FF247A
:101A1000F39487E08E1508F0BBCF013430F0DB86FD
:101A2000DD2011F581E08D871FC01B861D861C8679
:101A300090E0DE0120E030E0F501E20FF31F1396A5
:101A40008C91139780832F5F3F4F1196283031057B
:101A500099F7892FDF91CF911F910F91FF90EF9010
:101A6000DF90BF90AF9008958B818823F1F291E0D1
:101A7000E0CFD02EBDCFFF920F931F938C01F62E97
:101A8000862F60E00E946D138F2D90E0FC01E45ED4
:101A9000FD4FE491D801EC93885F9D4FFC01649168
:101AA000E62FF0E0EE0FFF1FE250FE4F859194917C
:101AB00012969C938E9311971B961C921B971D96C2
:101AC0001C921D971C961C92F80187E090E01286EC
:101AD0003197009711F00197FACF1F910F91FF9066
:101AE0000895FC0166834783208781E085870895F8
:101AF0000F931F938C01FC01868160E00E946D139F
:101B0000F801868161E00E94AC13F801118612860B
:101B1000138614861F910F910895CF92DF92EF9252
:101B2000FF920F931F93CF93DF93EC018E8161E0BF
:101B30000E94AC136AEF70E080E090E00E94E31234
:101B40000E9490129B01AC0189859A85AB85BC856A
:101B5000281739074A075B0720F419861A861B865F
:101B60001C868D85882371F489859A85AB85BC8513
:101B7000281B390B4A0B5B0B205D3740404050401F
:101B800008F477C01D860E94901269877A878B8738
:101B90009C871C821B821A82198218828E8161E0C6
:101BA0000E946D138E8160E00E94AC1364E170E0CE
:101BB00080E090E00E94E312F8948E8161E00E9440
:101BC000AC1388E290E00E949E128E8160E00E9439
:101BD0006D1381E0EE2400E010E00AC0F39481E090
:101BE00090E00E949E128FEFF81629F40AC0822F0F
:101BF000FF24C82EDD248E810E9400148C159D05C3
:101C000069F38E810E940014282F8FEFF816C9F017
:101C1000043090F000FD10C08E2D86958695869537
:101C2000FE01E80FF11D9081990F908388858F1533
:101C300010F491609083E3940F5F1F4F05351105F9
:101C4000B1F6789487E28E1510F030E013C030E0E2
:101C50004C8150E02981888190E0820F911D2A817A
:101C6000820F911D2B81820F911D9070481759078B
:101C700009F431E0832FDF91CF911F910F91FF90F5
:101C8000EF90DF90CF900895EF92FF920F931F9304
:101C9000CF93DF93EC010E948D0D8823A9F18F81F2
:101CA0008B3031F08B3080F18551823068F507C080
:101CB000688170E080E090E00E948B1922C068810A
:101CC00070E080E090E00E948B1920E030E040E876
:101CD00053E40E94411A7B018C01698170E08827DE
:101CE00077FD8095982F0E948D199B01AC01C8014A
:101CF000B7010E948A1820E030E040E251E40E94DF
:101D0000F218E62F692F0AC087E693E062E072E0DE
:101D10000E948B17E0E070E080EC6FE72E2F372FEA
:101D2000482F562FB901CA01DF91CF911F910F9112
:101D3000FF90EF900895FC0187E392E09183808308
:101D40006383148215821782168211861086228779
:101D50003387448755870895FC01658308956F9202
:101D60007F928F929F92AF92BF92CF92DF92EF922B
:101D7000FF920F931F93CF93DF93FC01EA014681FB
:101D800057814115510531F04130510531F488E852
:101D900090E905C084E293E102C088EE9DEF8617CA
:101DA000970708F4DEC08C179D0708F4DAC04115C8
:101DB000510551F04130510571F417EEE12E1FE04D
:101DC000F12E012D112D0CC0B7E1EB2EB5E7FB2E46
:101DD000012D112D05C0E12CA4E0FA2E012D112DAD
:101DE00080859185892B39F4E4E0EE0CFF1C001FFF
:101DF000111FEA95D1F79B0140E050E0C801B701FF
:101E00000E940F1C5B016C015AE0D694C794B794F2
:101E1000A7945A95D1F79E0140E050E0C801B70160
:101E20000E940F1C3B014C014AE0969487947794E2
:101E300067944A95D1F7A114B104C104D10429F4DF
:101E400080E090E0A0E0B0E00FC0C401B3013AE050
:101E5000660F771F881F991F3A95D1F7A601950144
:101E60000E942E1CC901DA010196A11DB11DB69573
:101E7000A7959795879581349105A105B10528F41B
:101E800062EF71E0CEEBD1E049C081389105A10548
:101E9000B10528F464E172E0C1EDD2E03FC0813CBD
:101EA0009105A105B10528F46FE372E0CBE7D3E01B
:101EB00035C0813021E0920720E0A20720E0B20780
:101EC00028F460E772E0CEEFD3E028C0893321E048
:101ED000920720E0A20720E0B20728F46FE671E045
:101EE000CCEFD1E01BC08B3921E0920720E0A207A4
:101EF00020E0B20728F462ED70E0CBEFD0E00EC036
:101F00008B599240A040B04028F060E070E0C0E003
:101F1000D0E004C068E170E0C2E1D0E080E090E091
:101F2000A60195010E940F1C7B018C0180E090E2CC
:101F3000A0E0B0E0E80EF91E0A1F1B1FBE0180E002
:101F400090E0A40193010E940F1CE61AF70A080B07
:101F5000190B8EE016950795F794E7948A95D1F7BB
:101F600003C0EE24FF248701B701C801DF91CF91A0
:101F70001F910F91FF90EF90DF90CF90BF90AF90A7
:101F80009F908F907F906F900895EF92FF920F93A4
:101F90001F937C018B0188E2FB0111928A95E9F77E
:101FA000CB016CE072E04BE050E00E944F01F80181
:101FB000138681E090E0A0E0B0E084879587A68753
:101FC000B787F70182859385A485B585F801808B55
:101FD000918BA28BB38B85E090E0A0E0B0E0848B86
:101FE000958BA68BB78B14A215A216A217A280E020
:101FF00090EDA4E8B6E4808F918FA28FB38F80E03C
:1020000090E0A0E0B0E0848F958FA68FB78F80E03E
:1020100090E0A0E8BFE380A391A3A2A3B3A31F9184
:102020000F91FF90EF900895BF92CF92DF92EF92C1
:10203000FF920F931F93B62E79018A0124EEC22ED0
:1020400022E0D22EDC0113966C91772767FD709504
:10205000C6010E940004C6016B2D0E9482048FEF0E
:1020600090E0A0E0B0E0E822F9220A231B23C60199
:102070006E2D0E948204C6010E94C5041F910F911B
:10208000FF90EF90DF90CF90BF90089560E820E040
:1020900030E040E050E00E941410089560E823E032
:1020A00030E040E050E00E9414100895DF92EF927B
:1020B000FF920F931F937C01D62E04EE12E0FC01D9
:1020C0006381772767FD7095C8010E940004C801ED
:1020D0006D2D0E948204C8010E94C504F70163812E
:1020E000772767FD7095C80142E050E00E94D60452
:1020F000C8010E9413047C01C8010E941304382FF8
:1021000020E02E293F29C9011F910F91FF90EF90E8
:10211000DF900895EF92FF920F931F93CF93DF9379
:10212000EC018B017A010E944E108E819F810097F5
:1021300019F0019759F405C06EE070E080E090E07E
:1021400009C066E670E080E090E004C063E971E0F9
:1021500080E090E00E94E312CE016CEA0E945610EB
:10216000F80191838083CE016EEA0E945610F70138
:1021700091838083CE010E944610DF91CF911F9101
:102180000F91FF90EF900895DF92EF92FF920F93DF
:102190001F937C01D62E04EE12E0FC0163817727A9
:1021A00067FD7095C8010E940004C8016D2D0E9452
:1021B0008204C8010E94C504F7016381772767FD87
:1021C0007095C80141E050E00E94D604C8010E9409
:1021D00013041F910F91FF90EF90DF900895CF931C
:1021E000DF93EC0184EE92E00E94DA04CE016AE013
:1021F0000E94C4108A7081F081E08C836E817F819F
:10220000CE010E94231268857985CE010E940F11AC
:10221000CE010E94461081E0DF91CF9108950F9387
:102220001F93CF93DF93EC018B018C81882319F4EA
:10223000CE010E94EF10CE010E944E102E813F81F0
:10224000202B312B442737FD4095542FCE0161E8D8
:102250000E94141019870887CE010E944610DF9152
:10226000CF911F910F9108953F924F925F926F927D
:102270007F928F929F92AF92BF92CF92DF92EF9216
:10228000FF920F931F93DF93CF9300D000D0CDB771
:10229000DEB78C015B014A01FC018481882319F4BB
:1022A000C8010E94EF10F8018581882331F4C8012C
:1022B000B501A4010E948A105BC03324F3E04F2EC5
:1022C000512C4C0E5D1E3E010894611C711CF801DE
:1022D00086819781009751F0019781F4E0EACE2E34
:1022E000ECE8DE2E78ECE72EF12C10C062EFC62E63
:1022F00062E1D62E54E6E52EF12C08C048E1C42E4A
:1023000046EFD42E34EFE32E31E0F32EC801B301B3
:10231000A2010E948A1029813A81332009F52E15E5
:102320003F0548F4F80180859185892B21F4C80187
:1023300060E170E00BC0C216D30690F4F80180850E
:102340009185409769F4C80160E070E00E940F1128
:10235000C801B301A2010E948A1033243394B7CF7D
:10236000F501318320838B819C81F40191838083EB
:102370000F900F900F900F90CF91DF911F910F91C1
:10238000FF90EF90DF90CF90BF90AF909F908F9095
:102390007F906F905F904F903F900895EF92FF92E3
:1023A0000F931F93DF93CF9300D000D0CDB7DEB74C
:1023B0007C018B0184E2FB0111928A95E9F784E2AA
:1023C00090E0A0E0B0E0FB0180839183A283B3831F
:1023D000F70182859385A485B585FB018483958368
:1023E000A683B78385E090E0A0E0B0E08087918786
:1023F000A287B3870E949012F801608B718B828B49
:10240000938BC701BE016F5F7F4FAE014D5F5F4F82
:102410000E94341169817A814B815C81C7010E94DD
:10242000AF0E0E948B19F801648B758B868B978B8E
:102430000F900F900F900F90CF91DF911F910F9100
:10244000FF90EF9008950F931F93CF93DF93EC01CC
:102450008B018C81882319F4CE010E94EF10CE01EC
:102460000E944E1028853985202B312B442737FDBB
:102470004095542FCE0161E80E9414101F830E83F3
:10248000CE010E944610DF91CF911F910F910895C8
:102490001F920F920FB60F9211242F933F938F9399
:1024A0009F93AF93BF938091620390916303A09138
:1024B0006403B0916503309166030196A11DB11DBF
:1024C000232F2D5F2D3720F02D570196A11DB11D13
:1024D000209366038093620390936303A093640345
:1024E000B093650380915E0390915F03A0916003B8
:1024F000B09161030196A11DB11D80935E0390937D
:102500005F03A0936003B0936103BF91AF919F916C
:102510008F913F912F910F900FBE0F901F901895A4
:102520008FB7F89420916203309163034091640364
:10253000509165038FBFB901CA010895019739F021
:10254000880F991F880F991F02970197F1F7089537
:10255000789484B5826084BD84B5816084BD85B57E
:10256000826085BD85B5816085BDEEE6F0E0808145
:1025700081608083E1E8F0E0108280818260808366
:10258000808181608083E0E8F0E0808181608083E9
:10259000E1EBF0E0808184608083E0EBF0E080811B
:1025A00081608083EAE7F0E08081846080838081BD
:1025B0008260808380818160808380818068808365
:1025C0001092C1000895EF92FF920F931F93CF9343
:1025D000DF937B018C013FB7F89480915E0390916B
:1025E0005F03A0916003B091610326B5A89B05C06D
:1025F0002F3F19F00196A11DB11D3FBFBA2FA92F82
:10260000982F8827820F911DA11DB11D52E0880FC0
:10261000991FAA1FBB1F5A95D1F7EC0130C00E9429
:1026200088183FB7F89480915E0390915F03A09162
:102630006003B091610326B5A89B05C02F3F19F038
:102640000196A11DB11D3FBFBA2FA92F982F882732
:10265000820F911DA11DB11D32E0880F991FAA1F85
:10266000BB1F3A95D1F78C1B9D0B885E9340B8F247
:102670000894E108F10801091109C851DC4FE1147F
:10268000F1040105110559F6DF91CF911F910F91CA
:10269000FF90EF900895982F8E3008F09E5097701D
:1026A000809122028295880F880F807C892B8093ED
:1026B0007C0080917A00806480937A0080917A0017
:1026C00086FDFCCF2091780040917900942F80E026
:1026D00030E0282B392BC9010895CF93DF93482F81
:1026E00050E0CA01845E9D4FFC013491485F5D4F0C
:1026F000FA018491882369F190E0880F991FFC0109
:10270000E651FE4FA591B491FC01EC50FE4FC591EE
:10271000D491662351F42FB7F8948C91932F909510
:1027200089238C93888189230BC0623061F42FB791
:10273000F8948C91932F909589238C938881832B87
:1027400088832FBF06C09FB7F8948C91832B8C93FE
:102750009FBFDF91CF910895482F50E0CA01805D5F
:102760009D4FFC012491CA01845E9D4FFC01949110
:10277000485F5D4FFA013491332309F440C02223AE
:1027800051F1233071F0243028F42130A1F02230AF
:1027900011F514C02630B1F02730C1F02430D9F43F
:1027A00004C0809180008F7703C0809180008F7D6E
:1027B0008093800010C084B58F7702C084B58F7D70
:1027C00084BD09C08091B0008F7703C08091B000B4
:1027D0008F7D8093B000E32FF0E0EE0FFF1FEC50F1
:1027E000FE4FA591B4912FB7F894662321F48C91F4
:1027F0009095892302C08C91892B8C932FBF0895CB
:10280000682F70E0CB01805D9D4FFC012491CB01CE
:10281000845E9D4FFC014491685F7D4FFB01949164
:10282000992319F420E030E03CC0222351F12330F9
:1028300071F0243028F42130A1F0223011F514C0B9
:102840002630B1F02730C1F02430D9F404C0809193
:1028500080008F7703C0809180008F7D80938000FF
:1028600010C084B58F7702C084B58F7D84BD09C048
:102870008091B0008F7703C08091B0008F7D8093EE
:10288000B000892F90E0880F991F82509E4FFC0165
:10289000A591B4918C9120E030E0842311F021E0E7
:1028A00030E0C9010895DC015C968C915C97FD01D4
:1028B000E80FF11DE35AFF4F20815C968C915C97E5
:1028C00090E001968F7390705C968C935C9756960F
:1028D000ED91FC91579720835096ED91FC91519783
:1028E0008081806480835B969C915B975C968C91E1
:1028F0005C97981739F45296ED91FC91539780812B
:102900008F7D80830895DF92EF92FF920F931F9344
:10291000CF93DF93EC017A018B01D22EE889F989FC
:1029200082E08083403081EE580780E0680780E0D5
:102930007807A1F060E079E08DE390E0A8019701CD
:102940000E942E1C215030404040504056954795E3
:102950003795279580E12030380798F0E889F98984
:10296000108260E874E88EE190E0A80197010E946F
:102970002E1C215030404040504056954795379589
:102980002795EC85FD853083EE85FF852083188EA5
:10299000EC89FD89D082EA89FB898081806180830E
:1029A000EA89FB89808188608083EA89FB8980814C
:1029B00080688083EA89FB8980818F7D8083DF91B5
:1029C000CF911F910F91FF90EF90DF900895FC0140
:1029D000218D828D30E0205C3F4F281B31092F7301
:1029E0003070C9010895FC01918D828D981719F4FA
:1029F0002FEF3FEF06C0828DE80FF11D858D282F48
:102A000030E0C9010895DC0159969C9159975A9676
:102A10008C915A97981719F42FEF3FEF10C05A96E0
:102A20008C915A97FD01E80FF11D958D5A968C9166
:102A30005A978F5F8F735A968C93292F30E0C90174
:102A40000895CF93DF93EC01888D882361F419C03A
:102A50008C9185FF0AC0E889F989808185FF05C0CE
:102A6000CE010E945314AA89BB898C9185FD05C0B3
:102A7000E889F989808186FD04C00FB607FEE8CF9A
:102A8000F4CFDF91CF9108950F931F93CF93DF93EE
:102A9000EC01062F9B8D8C8D981791F5E889F989AB
:102AA000808185FF2DC0EE89FF896083E889F989DF
:102AB0008081806480831DC00FB607FC08C0E88950
:102AC000F989808185FF03C0CE010E9453148C8D4B
:102AD000181791F38B8DFE01E80FF11DE35AFF4F9C
:102AE00000831B8FEA89FB8980818062808381E07B
:102AF000888F81E090E0DF91CF911F910F91089531
:102B00001B8D1F5F1F73E3CF8CE096E1892B51F083
:102B100080E090E0892B31F00E940C16882311F0A0
:102B20000E94000008951F920F920FB60F92112479
:102B30002F938F939F93EF93FF93E0917703F091FF
:102B40007803808182FD16C0E0917D03F0917E03C1
:102B50002081909180039F5F9F73809181039817DC
:102B600071F0E0918003F0E0E959FC4F258F9093DC
:102B7000800305C0E0917D03F0917E03E081FF9129
:102B8000EF919F918F912F910F900FBE0F901F90FB
:102B9000189510926A031092690388EE93E0A0E002
:102BA000B0E080936B0390936C03A0936D03B0939C
:102BB0006E0381E492E0909368038093670385EC51
:102BC00090E0909374038093730384EC90E090936F
:102BD00076038093750380EC90E090937803809364
:102BE000770381EC90E090937A038093790382ECF1
:102BF00090E090937C0380937B0386EC90E090932D
:102C00007E0380937D0310928003109281031092C3
:102C1000820310928303089587E693E00E94E714ED
:102C200020E0892B09F021E0822F08951F920F9256
:102C30000FB60F9211242F933F934F935F936F938F
:102C40007F938F939F93AF93BF93EF93FF9387E609
:102C500093E00E945314FF91EF91BF91AF919F9128
:102C60008F917F916F915F914F913F912F910F9035
:102C70000FBE0F901F901895CF93DF930E94A8125C
:102C80000E94F203C4E8D5E10E94B7032097E1F364
:102C90000E948415F9CFCF92DF92EF92FF920F93AB
:102CA0001F93CF93DF937C016B018A01C0E0D0E0DA
:102CB0000FC0D6016D916D01D701ED91FC9101908E
:102CC000F081E02DC7010995C80FD91F01501040B0
:102CD0000115110571F7CE01DF91CF911F910F9171
:102CE000FF90EF90DF90CF900895EF92FF920F93B7
:102CF0001F938C01DC01ED91FC910190F081E02D9E
:102D00006DE009957C01D801ED91FC910190F08175
:102D1000E02DC8016AE009959C012E0D3F1DC901F7
:102D20001F910F91FF90EF900895CF93DF93EC01E7
:102D30006115710519F420E030E00FC0DB010D9042
:102D40000020E9F71197A61BB70BE881F9810280F3
:102D5000F381E02DAD0109959C01C901DF91CF916F
:102D600008954F925F927F928F929F92AF92BF92FF
:102D7000CF92DF92EF92FF920F931F93DF93CF9347
:102D8000CDB7DEB7A1970FB6F894DEBF0FBECDBFAB
:102D90002C01742ECB01223008F42AE019A231E272
:102DA000C32ED12CCC0EDD1E822E9924AA24BB2446
:102DB000672D752FA50194010E942E1C79018A01AF
:102DC000C801B701A50194010E940F1C472D461BA5
:102DD0000894C108D1084A3014F4405D01C0495C30
:102DE000F6014083E114F1040105110521F07E2C68
:102DF0005F2DC801DDCFC201B6010E949516A196D4
:102E00000FB6F894DEBF0FBECDBFCF91DF911F91FB
:102E10000F91FF90EF90DF90CF90BF90AF909F9079
:102E20008F907F905F904F900895DC0121153105C0
:102E300041F4ED91FC910190F081E02D642F099512
:102E400008950E94B1160895EF92FF920F931F9379
:102E50007C010E9415178C01C7010E9475169C0108
:102E6000200F311FC9011F910F91FF90EF9008951E
:102E7000CF92DF92EF92FF920F931F93CF93DF9346
:102E8000EC016A017B012115310541F4E881F981EA
:102E90000190F081E02D642F09951FC02A30310583
:102EA000D1F477FF17C0E881F9810190F081E02D1E
:102EB0006DE209958C0144275527BA014C195D092B
:102EC0006E097F09CE012AE00E94B1169801280FF1
:102ED000391F04C02AE00E94B1169C01C901DF918C
:102EE000CF911F910F91FF90EF90DF90CF900895B9
:102EF000EF92FF920F931F937B019A010027F7FC3B
:102F00000095102FB801A7010E9438171F910F914B
:102F1000FF90EF9008950E94951608957F928F92EA
:102F20009F92AF92BF92CF92DF92EF92FF920F9358
:102F30001F93CF93DF934C017A018B01722ECB014B
:102F4000BA01A80197010E94F01A882321F0C40158
:102F500064E172E021C0C0E0D0E057016801E8946C
:102F6000D7F8C601B5012FEF3FEF4FE75FE70E94AB
:102F7000F01A882351F4C601B5012FEF3FEF4FE758
:102F80005FE70E94EE18181614F0C1E0D0E0219718
:102F900039F0C40168E172E00E949516EC0193C01B
:102FA000C801B7012FEF3FEF4FE75FE40E943D1AE2
:102FB000181654F0C801B7012FEF3FEF4FE75FEC51
:102FC0000E94EE18882324F4C4016CE172E0E4CF7F
:102FD000C801B70120E030E040E050E00E94EE1868
:102FE00087FD03C0C0E0D0E00EC0D401ED91FC919C
:102FF0000190F081E02DC4016DE20995EC0117FB11
:10300000109517F9109520E030E040E05FE3DD24F3
:103010000BC0CA01B90120E030E040E251E40E9457
:10302000F2189B01AC01D394D71498F3C801B701EF
:103030000E948A185B016C010E945F197B018C0160
:10304000C401B801A7012AE030E00E941517C80F9B
:10305000D91F772039F0C40160E272E00E94951612
:10306000C80FD91FC801B7010E948B199B01AC0181
:10307000C601B5010E94891824C020E030E040E27A
:1030800051E40E94411A7B018C010E945A195B0194
:103090006C01CC24B7FCC094DC2CC401B601A501A2
:1030A0002AE030E00E943817C80FD91FC601B501C9
:1030B0000E948D199B01AC01C801B7010E948918BB
:1030C0007A947720D1F6CE01DF91CF911F910F91A5
:1030D000FF90EF90DF90CF90BF90AF909F908F9038
:1030E0007F9008950E948E170895EF92FF920F939C
:1030F0001F937C010E9495168C01C7010E947516D2
:10310000080F191FC8011F910F91FF90EF900895AC
:1031100008955058BB27AA270ED075C166D130F04C
:103120006BD120F031F49F3F11F41EF45BC10EF41B
:10313000E095E7FB51C1E92F77D180F3BA17620719
:1031400073078407950718F071F49EF58FC10EF48C
:10315000E0950B2EBA2FA02D0B01B90190010C01A7
:10316000CA01A0011124FF27591B99F0593F50F4BF
:10317000503E68F11A16F040A22F232F342F442717
:10318000585FF3CF469537952795A795F04053950F
:10319000C9F77EF41F16BA0B620B730B840BBAF0DF
:1031A0009150A1F0FF0FBB1F661F771F881FC2F74A
:1031B0000EC0BA0F621F731F841F48F4879577955E
:1031C0006795B795F7959E3F08F0B3CF9395880F15
:1031D00008F09927EE0F979587950895D9D008F4B0
:1031E00081E008950CD00FC107D140F0FED030F03F
:1031F00021F45F3F19F0F0C0511139C1F3C014D16F
:1032000098F39923C9F35523B1F3951B550BBB27AD
:10321000AA2762177307840738F09F5F5F4F220F5A
:10322000331F441FAA1FA9F333D00E2E3AF0E0E853
:1032300030D091505040E695001CCAF729D0FE2F9F
:1032400027D0660F771F881FBB1F26173707480731
:10325000AB07B0E809F0BB0B802DBF01FF279358E7
:103260005F4F2AF09E3F510568F0B6C000C15F3F36
:10327000ECF3983EDCF3869577956795B795F795CF
:103280009F5FC9F7880F911D9695879597F90895C7
:10329000E1E0660F771F881FBB1F62177307840763
:1032A000BA0720F0621B730B840BBA0BEE1F88F772
:1032B000E095089504D06894B111D9C00895BCD0A8
:1032C00088F09F5790F0B92F9927B751A0F0D1F00F
:1032D000660F771F881F991F1AF0BA95C9F712C099
:1032E000B13081F0C3D0B1E00895C0C0672F782F0E
:1032F0008827B85F39F0B93FCCF386957795679505
:10330000B395D9F73EF490958095709561957F4F70
:103310008F4F9F4F0895E89409C097FB3EF4909516
:103320008095709561957F4F8F4F9F4F9923A9F09E
:10333000F92F96E9BB279395F6958795779567952D
:10334000B795F111F8CFFAF4BB0F11F460FF1BC071
:103350006F5F7F4F8F4F9F4F16C0882311F096E904
:1033600011C0772321F09EE8872F762F05C06623B2
:1033700071F096E8862F70E060E02AF09A95660F6B
:10338000771F881FDAF7880F9695879597F9089524
:10339000990F0008550FAA0BE0E8FEEF1616170666
:1033A000E807F907C0F012161306E407F50798F0CE
:1033B000621B730B840B950B39F40A2661F0232BE7
:1033C000242B252B21F408950A2609F4A140A69563
:1033D0008FEF811D811D089597F99F6780E870E048
:1033E00060E008959FEF80EC089500240A9416167B
:1033F000170618060906089500240A9412161306E3
:10340000140605060895092E0394000C11F4882370
:1034100052F0BB0F40F4BF2B11F460FF04C06F5F8C
:103420007F4F8F4F9F4F089557FD9058440F551F62
:1034300059F05F3F71F04795880F97FB991F61F036
:103440009F3F79F087950895121613061406551FAD
:10345000F2CF4695F1DF08C0161617061806991F19
:10346000F1CF86957105610508940895E894BB270E
:1034700066277727CB0197F908958ADF08F48FEF45
:1034800008950BD0C0CFB1DF28F0B6DF18F0952338
:1034900009F0A2CFA7CF1124EACFC6DFA0F3959FF2
:1034A000D1F3950F50E0551F629FF001729FBB272B
:1034B000F00DB11D639FAA27F00DB11DAA1F649FD7
:1034C0006627B00DA11D661F829F2227B00DA11D8A
:1034D000621F739FB00DA11D621F839FA00D611D10
:1034E000221F749F3327A00D611D231F849F600D31
:1034F000211D822F762F6A2F11249F5750408AF06A
:10350000E1F088234AF0EE0FFF1FBB1F661F771FF5
:10351000881F91505040A9F79E3F510570F05CCF35
:10352000A6CF5F3FECF3983EDCF3869577956795E1
:10353000B795F795E7959F5FC1F7FE2B880F911D13
:103540009695879597F90895FA01EE0FFF1F30962B
:103550002105310599F16115710561F48038BFE3EA
:103560009B0749F168949038810561F08038BFEF7E
:103570009B0741F0992342F5FF3FE1053105210505
:1035800011F1E8940894E795D901AA2329F4AB2F07
:10359000BE2FF85FD0F310C0FF5F70F4A695E0F780
:1035A000F73950F019F0FF3A38F49F779F930CD019
:1035B0000F9007FC905808953EF014CF60E070E043
:1035C00080E89FE308954FE79F775F934F933F9382
:1035D0002F93A2D02F913F914F915F9152DF09C05D
:1035E000D7DE880B990B089519F40EF0F5CE3ECF77
:1035F000F9CE22DFC8F39638C0F707F80F92E894A7
:103600002BE33AEA48EB5FE74ADF0F920F920F9203
:103610004DB75EB70F92C0D0E8E6F0E016D04F91FC
:103620005F91EF91FF91E595EE1FFF1F49F0FE5767
:10363000E0684427EE0F441FFA95E1F74195550BDA
:1036400032D00F9007FE26C00895DF93CF931F93CB
:103650000F93FF92EF92DF927B018C01689405C07B
:10366000DA2EEF011ADFFE01E894A591259135913C
:1036700045915591AEF3EF015EDDFE019701A80182
:10368000DA9479F7DF90EF90FF900F911F91CF912F
:10369000DF9108959B01AC0160E070E080E89FE35A
:1036A000A1CD9ACEACC0C8DEE8F39923D9F3940F2C
:1036B000511DBBF39150504094F059F0882332F0E3
:1036C000660F771F881F91505040C1F79E3F5105EC
:1036D00044F7880F911D9695879597F908955F3F58
:1036E000ACF0983E9CF0BB27869577956795B7958B
:1036F00008F4B1609395C1F7BB0F58F711F460FF60
:10370000E8CF6F5F7F4F8F4F9F4FE3CFB0CE0EF06C
:1037100076C068CE689460CE8FDEC8F39923D1F36B
:10372000C6F3DF93CF931F930F93FF92C92FDD272B
:1037300088232AF02197660F771F881FDAF720E089
:1037400030E040E85FEB9FE3883920F0803E30F0C6
:1037500021968F77DFDCE0E9F0E003C0DBDCEDEB06
:10376000F0E073DF8B01BE01EC01FB2E6F57710996
:103770007595771F880B990BD0DD28E132E741E37F
:103780005FE38BDEAF2D9801AE01FF900F911F918B
:10379000CF91DF91D0DC37CEFA01DC01AA0FBB1F3D
:1037A0009B01AC01BF5728F42227332744275078C8
:1037B0001FC0B75188F4AB2F002446953795279545
:1037C000011CA395D2F3002069F0220F331F441F80
:1037D000B395DAF30DD09DCC61307105A0E88A076E
:1037E000B94630F49B01AC0166277727882790788B
:1037F000309621F0208331834283538308959F3F85
:1038000049F0915028F4869577956795B7959F5F15
:1038100080389F4F880F9695879597F90895629FF6
:10382000D001739FF001829FE00DF11D649FE00DB8
:10383000F11D929FF00D839FF00D749FF00D659F19
:10384000F00D9927729FB00DE11DF91F639FB00D18
:10385000E11DF91FBD01CF0111240895A1E21A2E27
:10386000AA1BBB1BFD010DC0AA1FBB1FEE1FFF1F24
:10387000A217B307E407F50720F0A21BB30BE40B74
:10388000F50B661F771F881F991F1A9469F76095BB
:103890007095809590959B01AC01BD01CF01089575
:1038A00097FB092E05260ED057FD04D0D7DF0AD08E
:1038B000001C38F450954095309521953F4F4F4F5F
:1038C0005F4F0895F6F790958095709561957F4FBD
:1038D0008F4F9F4F0895EE0FFF1F0590F491E02D3D
:0638E0000994F894FFCFEB
:1038E600646F6E652E2053656E736F722063616C14
:1038F600696272617465642E0043616C696272610B
:1039060074696E67206D6F74696F6E2073656E7370
:103916006F722E20506C6561736520776169740043
:103926002E2E2E004D6F74696F6E2064657465636C
:10393600746564202D20000A3D3D3D3D3D205365C4
:103946006E736F722044617461203D3D3D3D3D00C4
:103956000A54696D657374616D703A09000A4169AC
:10396600722054656D70657261747572653A0900EE
:1039760020430A537572666163652054656D7065F0
:103986007261747572653A090020430A48756D695B
:10399600646974793A090020250A4C696768743AA3
:1039A600090900206C75780A536F756E64204C65A2
:1039B60076656C3A090020636F756E740A0A003DDD
:1039C6003D3D3D204F6666696365204C75726B65AB
:1039D60072202D204E6F6465202300203D3D3D3D25
:1039E6000A0052656164206661696C0054534C326A
:1039F600353631006E616E00696E66006F76660060
:103A06002E000100000000820451040A0413042859
:103A160004390400000000AC0ECE11C50F000000F2
:0E3A26000044154B16E7140315F31421150088
:00000001FF
