:100000000C940B030C9433030C9433030C943303C0
:100010000C9433030C9433030C9433030C94330388
:100020000C9433030C9433030C944D1B0C94D41B8D
:100030000C9433030C9433030C9433030C94330368
:100040000C9433030C9433030C9433030C94330358
:100050000C9433030C9433030C9433030C94C115A8
:100060000C9433030C9433030C9433030C94330338
:100070000C9433030C9433030C9433030C94330328
:100080000C9433030C9433030C9433030C94330318
:100090000C9473080C9433030C9433030C943303C3
:1000A0000C9433030C94F3050C943303076342362A
:1000B000B79BD8A71A39685618AEBAAB558C1D3CF9
:1000C000B7CC5763BD6DEDFD753EF6177231BF00BD
:1000D0000000803F08000000BE922449123EABAAF7
:1000E000AA2ABECDCCCC4C3E00000080BEABAAAA52
:1000F000AA3E00000000BF000000803F000000009A
:1001000000084178D3BB4387D1133D190E3CC3BDD2
:100110004282AD2B3E68EC8276BED98FE1A93E4C7F
:1001200080EFFFBE01C4FF7F3F00000000000A0B0C
:100130000C0D0E0F11121314151600010203040505
:1001400095029B02A102A902B202BC02C502CC0226
:10015000D402DB02E202E902504120506F7765725F
:1001600009203D2025530D0A00435243204C656E63
:1001700067746809203D2025530D0A004D6F6465A2
:100180006C0909203D2025530D0A0044617461204B
:100190005261746509203D2025530D0A0044594ED3
:1001A00050442F4645415455524500434F4E464911
:1001B000470052465F53455455500052465F4348EE
:1001C00000454E5F52584144445200454E5F414104
:1001D0000052585F50575F50302D360054585F41E1
:1001E0004444520052585F414444525F50322D35CE
:1001F0000052585F414444525F50302D31000D0A87
:1002000000253032780020307800255309256320FE
:100210003D000D0A00203078253032780025530942
:100220002563203D004F4253455256455F54583D8B
:10023000253032783A20504F4C535F434E543D2581
:1002400078204152435F434E543D25780D0A0053B8
:1002500054415455530909203D20307825303278D7
:100260002052585F44523D25782054585F44533DF6
:100270002578204D41585F52543D25782052585FD3
:10028000505F4E4F3D25782054585F46554C4C3DAD
:1002900025780D0A00314D42505300324D425053E3
:1002A000003235304B425053006E524632344C309F
:1002B00031006E524632344C30312B004469736148
:1002C000626C6564003820626974730031362062A4
:1002D0006974730050415F4D494E0050415F4C4F6F
:1002E00057004C415F4D45440050415F48494748E5
:1002F00000005EBCE2613FDD83C29C7E20A3FD1F47
:10030000419DC3217FFCA2401E5F01E3BD3E608290
:10031000DC237D9FC1421CFEA0E1BF5D0380DE3C6B
:1003200062BEE0025CDF81633D7C22C09E1D43A172
:10033000FF4618FAA427799BC584DA3866E5BB59CD
:1003400007DB856739BAE406581947A5FB7826C448
:100350009A653BD987045AB8E6A7F91B45C6987A2F
:1003600024F8A6441A99C7257B3A6486D85B05E72A
:10037000B98CD2306EEDB3510F4E10F2AC2F719399
:10038000CD114FADF3702ECC92D38D6F31B2EC0EF8
:1003900050AFF1134DCE90722C6D33D18F0C52B003
:1003A000EE326C8ED0530DEFB1F0AE4C1291CF2DDA
:1003B00073CA947628ABF517490856B4EA6937D55D
:1003C0008B5709EBB536688AD495CB2977F4AA48C0
:1003D00016E9B7550B88D6346A2B7597C94A14F6B7
:1003E000A8742AC896154BA9F7B6E80A54D7896BA2
:1003F0003500000000240027002A002D00300000F6
:10040000000000250028002B002E00310000000015
:10041000002300260029002C002F000404040404FB
:100420000304050202020204030202020206060697
:1004300006060604040202020404080201104080B9
:1004400040102040804080080204018040201002BB
:10045000011080102040400000000200080E000043
:10046000030401000B000000000000000000000079
:100470000000000000070605040100080A0B0C0D2F
:1004800009080B0002020201000904000001020237
:1004900000000524001001052401010104240206C6
:1004A000052406000107058103100040090401002E
:1004B000020A00000007050202400000070583024F
:1004C0004000000403090441726475696E6F204C9A
:1004D000656F6E6172646F0041726475696E6F2042
:1004E0004C4C4300120100020000004041233680C2
:1004F000000101020001120100020200004041233C
:10050000368000010102000100C18081C10501099E
:1005100002A1010901A1008501050919012903159D
:10052000002501950375018102950175058103057B
:10053000010930093109381581257F750895038136
:1005400006C0C005010906A1018502050719E029B9
:10055000E71500250175019508810295017508814F
:10056000039506750815002565050719002965819D
:1005700000C009040200010300000009210101007C
:10058000012265000705840340000100000000000F
:100590000000002A2B2800000000000000000000DE
:1005A00000000000000000000000002C9EB4A0A18C
:1005B000A2A434A6A7A5AE362D3738271E1F2021AA
:1005C0002223242526B333B62EB7B89F8485868789
:1005D00088898A8B8C8D8E8F909192939495969723
:1005E00098999A9B9C9D2F3130A3AD350405060741
:1005F00008090A0B0C0D0E0F101112131415161703
:1006000018191A1B1C1DAFB1B0B50000CC030F07A1
:100610000918891A5D1D11241FBECFEFDAE0DEBF75
:10062000CDBF11E0A0E0B1E0E8E8F3E402C005903E
:100630000D92A434B107D9F713E0A4E4B1E001C0EE
:100640001D92A93DB107E1F716E0C6E1D6E004C06E
:100650002297FE010E94BE21CC30D107C9F70E942B
:10066000D5180C94C2210C9400009091D8019032BE
:1006700048F4E92FF0E0E856FE4F81E080839F5F69
:100680009093D8019091D801903248F4E92FF0E08E
:10069000E856FE4F84E680839F5F9093D801409197
:1006A0008601509187012091D801203260F4E22F19
:1006B000F0E0E856FE4F852F992787FD9A958083B5
:1006C0002F5F2093D8018091D801803240F4E82F29
:1006D000F0E0E856FE4F40838F5F8093D801409151
:1006E0008801509189012091D801203260F4E22FD5
:1006F000F0E0E856FE4F852F992787FD9A95808375
:100700002F5F2093D8018091D801803240F4E82FE8
:10071000F0E0E856FE4F40838F5F8093D801409110
:100720008A0150918B012091D801203260F4E22F90
:10073000F0E0E856FE4F852F992787FD9A95808334
:100740002F5F2093D8018091D801803240F4E82FA8
:10075000F0E0E856FE4F40838F5F8093D801909180
:100760008F018091D801803240F4E82FF0E0E85604
:10077000FE4F90838F5F8093D80190918E0180917E
:10078000D801803240F4E82FF0E0E856FE4F908325
:100790008F5F8093D80108950F931F9384E491E0B5
:1007A00069E04AE00E94510D05E511E0C80164E0EE
:1007B0000E94CD1383E691E0B8010E94220A86E7E9
:1007C00091E068E04BE026E00E94971484E891E015
:1007D0000E9403141F910F910895FF920F931F938E
:1007E000F82E80915401882301F184E491E00E9465
:1007F000E10D84E491E000E010E920E930E940E90E
:1008000050E060E070E00E943E0FF092980181E0BD
:100810008093D80184E491E068E971E041E00E94AE
:100820008A1184E491E00E94D4101F910F91FF90EF
:1008300008958DE60E94ED03089583E70E94ED037D
:10084000089588E70E94ED030895EF92FF920F93B9
:100850001F937B018C01CA010197049728F061E086
:1008600070E080E090E015C0BA01882777FD8095A0
:10087000982F0E94661F9B01AC0160E070E080E24F
:1008800091E40E9455209B01AC01CA01B9010E946C
:10089000331F0E94661F9B01AC01C801B7010E9473
:1008A000F21F0E94331FCB011F910F91FF90EF9019
:1008B00008950E9409162091900130919101409174
:1008C000920150919301621B730B840B950B61563F
:1008D0007A4E80409040B8F087E00E949F170197C1
:1008E00081F481E080938F010E940916609390014A
:1008F0007093910180939201909393010E94190447
:10090000089510928F0108950E9409162091940174
:10091000309195014091960150919701621B730BA4
:10092000840B950B61567A4E80409040B8F086E07B
:100930000E949F17019781F481E080938E010E94AD
:10094000091660939401709395018093960190939A
:1009500097010E941D04089510928E01089584E865
:1009600091E00E941A1490938B0180938A0108955C
:1009700086E791E00E946A1542E050E00E9425045B
:10098000909389018093880108950F931F9303E644
:1009900011E0C8010E94E70BC80160E00E94C10C91
:1009A00042E050E00E9425049093870180938601E5
:1009B0001F910F9108950E9409162091DA0130913C
:1009C000DB014091DC015091DD01621B730B840B54
:1009D000950B61567A4E8040904030F00E94C504DD
:1009E0000E94B8040E94AF040E9484040E9459042B
:1009F0000895EF92FF920F931F930E9421040E948B
:100A000009167B018C011CC084E491E00E94040F54
:100A1000882349F084E491E068EB71E040E20E94B1
:100A200089100E9429050E9409166E197F09800B02
:100A3000910B615D77408040904010F00E9421044E
:100A400080915401882301F31F910F91FF90EF9043
:100A500008958091D901E82FF0E0E854FE4FE0813D
:100A6000803218F48F5F8093D901EE23D9F48091FE
:100A7000D901E82FF0E0E854FE4FE081803218F40D
:100A80008F5F8093D901EA3451F0E83529F0E434DE
:100A900049F40E94350308950E94F904089581E005
:100AA00080935401089584E491E00E94040F882308
:100AB00049F084E491E068EB71E040E20E94891023
:100AC0000E94290508950F931F9383E691E00E94E9
:100AD000E80C86E791E00E949E1404E811E0C8014A
:100AE0000E948114C80160E10E946E141092870177
:100AF00010928601109289011092880110928B0148
:100B000010928A0110928D0110928C0110928E0128
:100B100010928F011F910F910895CF92DF92EF9263
:100B2000FF920F931F93E4E4CE2EE1E0DE2EC60188
:100B30000E940E11C6016AE50E94090FC60162E01B
:100B400070E00E94E40FC60161E0EE24E39470E9D6
:100B5000F72E00E910E92FEF3FEF4FEF5FEF0E9414
:100B60000A10C60162E0EE24EA9420E930E040E099
:100B700050E00E940A10C6010E94D4101F910F91EC
:100B8000FF90EF90DF90CF9008950E948D050E9416
:100B9000630508950E9453050E9409162091DA0109
:100BA0003091DB014091DC015091DD01621B730B40
:100BB000840B950B61567A4E8040904068F00E94FD
:100BC000DB040E9409166093DA017093DB018093C5
:100BD000DC019093DD01089562E370E080E090E035
:100BE0000E94771608951F920F920FB60F9211244C
:100BF0002F933F934F935F936F937F938F939F9325
:100C0000AF93BF93EF93FF938091DE010E949F17F4
:100C1000482F8091E1019091E20101969093E201C9
:100C20008093E1018091AB02843618F085E08093D7
:100C3000DF018091DF018330D1F0843020F48230F5
:100C400009F059C006C0843071F1853009F053C0F5
:100C50004CC0442309F04FC08091E1019091E20122
:100C60008436910508F443C01092AB021EC0413097
:100C700009F041C08091AB02E82FF0E02091E10142
:100C80003091E201EE0FFF1FE252FE4F36832583C3
:100C90008F5F8093AB021092E2011092E10184E039
:100CA0008093DF0128C04423B9F48091AB02E82F80
:100CB000F0E02091E1013091E201EE0FFF1FE252DE
:100CC000FE4F368325838F5F8093AB021092E20143
:100CD0001092E10183E0E4CF8091E1019091E20183
:100CE0008536910540F085E0DBCF442321F4109256
:100CF000E2011092E1018091E001882329F0442370
:100D000011F42D9A01C02D98FF91EF91BF91AF91F1
:100D10009F918F917F916F915F914F913F912F9113
:100D20000F900FBE0F901F901895882319F48CB563
:100D3000806202C08CB58F7D8CBD08959CB5937F79
:100D4000982B9CBD08952CB5382F33702C7F322BF7
:100D50003CBD2DB590E095958795959587958170CB
:100D60002E7F822B8DBD089581E161E00E946C177A
:100D700081E161E00E94DF168CB580618CBD8CB58D
:100D800080648CBD8FE061E00E94DF1680E161E04D
:100D90000E94DF16089581E08093F1026093CE02F5
:100DA0001092EF021092F002089581E08093F10218
:100DB0006093CE021092EF021092F00208952091FB
:100DC000CD0230E08091CC02281B3109C901089581
:100DD0004091CC028091CD02481718F02FEF3FEFE1
:100DE0000AC0E42FF0E0E455FD4F8081282F30E069
:100DF0004F5F4093CC02C9010895E091CC028091ED
:100E0000CD02E81718F0EFEFFFEF06C0F0E0E45571
:100E1000FD4F8081E82FF0E0CF01089508951092F2
:100E2000F5021092F40288EE93E0A0E0B0E0809327
:100E3000F6029093F702A093F802B093F90288E1CA
:100E400091E09093F3028093F2020895CF92DF92A3
:100E5000EF92FF920F931F93CF93DF937C016B016F
:100E60008A018091F1028823A1F0C0E0D0E00DC09A
:100E7000D701ED91FC91D601AC0FBD1F0190F0811F
:100E8000E02DC7016C9109952196C017D10780F319
:100E900004C0CB01642F0E945808C801DF91CF9194
:100EA0001F910F91FF90EF90DF90CF900895DF9307
:100EB000CF930F92CDB7DEB7FC0169838091F10229
:100EC0008823C9F08091F002803238F081E090E010
:100ED0009383828320E030E015C08091EF02E82FF9
:100EE000F0E0E153FD4F998190838F5F8093EF0293
:100EF0008093F00205C0CE01019661E00E9458087F
:100F000021E030E0C9010F90CF91DF9108950F9358
:100F1000062F8091CE026FEC72E04091F00221E04A
:100F20000E9403081092EF021092F0021092F10258
:100F30000F91089561E00E9487070895413208F0FB
:100F400040E2862F6CEA72E00E94BA071092CC024F
:100F50008093CD02089521E00E949E07089510928B
:100F6000CC021092CD021092EF021092F0020E9479
:100F7000040A0895382F413210F040E042C08091B9
:100F8000FE028823E1F791E09093FE022093000394
:100F90008FEF80936B0310922603415040932703F9
:100FA0004F5F9093FF028091FF02330F832B80935A
:100FB000FF0280910103813041F41092010380917E
:100FC000FF028093BB0085EC01C085EE8093BC00DE
:100FD0008091FE028130E1F380912603841710F4A2
:100FE0004091260320E030E00AC0FB01E20FF31F2E
:100FF000D901AA5FBC4F8C9180832F5F3F4F24178C
:10100000A0F3842F08950F931F93582F122F41326E
:1010100010F081E04AC08091FE028823E1F782E06F
:101020008093FE02009300038FEF80936B03109276
:10103000260340932703A6E0B3E0FB0102C08191A1
:101040008D938E2F861B8417D0F31092FF02809110
:10105000FF02550F852B8093FF02809101038130A1
:1010600041F4109201038091FF028093BB0085EC54
:1010700001C085EE8093BC00112321F08091FE0217
:101080008230E1F380916B038F3F11F480E00DC05B
:1010900080916B03803211F482E007C080916B0372
:1010A000803311F084E001C083E01F910F91089517
:1010B000482F613210F081E008958091FE02843063
:1010C00011F082E0089560934903A8E2B3E0842F11
:1010D0009C01F90102C081918D938E2F841B86178C
:1010E000D0F380E008951F920F920FB60F92112453
:1010F0002F933F934F935F936F937F938F939F9320
:10110000AF93BF93EF93FF938091B90090E0887FF6
:1011100090708036910509F4F2C081369105CCF5C6
:101120008832910509F47BC089329105B4F480318D
:10113000910509F46FC0813191053CF4009709F4E1
:1011400047C1089709F04FC165C08831910509F47E
:1011500066C0809709F047C182C08034910509F4C8
:10116000A4C08134910544F48033910509F482C010
:10117000C89709F038C189C08035910509F489C044
:101180008835910509F496C08834910509F02BC182
:10119000AEC08839910509F413C189399105ECF481
:1011A0008837910509F4ABC0893791054CF488362E
:1011B000910509F4A4C08037910509F014C19FC0BE
:1011C0008838910509F4FCC08039910509F49DC067
:1011D0008038910509F007C198C0803B910509F45A
:1011E000C6C0813B91054CF4803A910509F49FC03B
:1011F000883A910509F0F7C0BAC0803C910509F41E
:10120000E3C0883C910509F4DFC0883B910509F0F3
:10121000EAC0C2C08091FF028093BB00CFC0909112
:10122000260380912703981768F490912603E92FED
:10123000F0E0EA5FFC4F80818093BB009F5F90935A
:101240002603BCC080910003882309F44BC085EDC0
:101250008093BC008091BC0084FDFCCFC2C080E2C2
:1012600080936B0385ED8093BC008091BC0084FD6E
:10127000FCCFB7C080E380936B0385ED8093BC0007
:101280008091BC0084FDFCCFACC088E380936B03ED
:101290009BC0809126039091BB00E82FF0E0EA5FAD
:1012A000FC4F90838F5F809326039091260380915B
:1012B000270382C0809126039091BB00E82FF0E0C5
:1012C000EA5FFC4F90838F5F809326038091000339
:1012D000882341F085ED8093BC008091BC0084FDA3
:1012E000FCCF7FC081E08093010384EA6EC085ED6E
:1012F0008093BC008091BC0084FDFCCF72C083E071
:101300008093FE0210926A0359C080916A03803272
:1013100008F056C080916A039091BB00E82FF0E07E
:10132000E65BFC4F90838F5F80936A0347C0809198
:101330006A03803230F4E0916A03F0E0E65BFC4F30
:10134000108285ED8093BC008091BC0084FDFCCFB1
:101350001092FE0260916A03E0910403F09105038C
:101360008AE493E070E0099510926A032DC084E04E
:101370008093FE021092480310924903E091020309
:10138000F0910303099580914903882329F481E0B2
:10139000809349031092280390914803E92FF0E0CD
:1013A000E85DFC4F80818093BB009F5F9093480372
:1013B0009091480380914903981710F485EC01C07F
:1013C00085E88093BC000FC085EC8093BC0009C009
:1013D00010926B0385ED8093BC008091BC0084FD6E
:1013E000FCCF1092FE02FF91EF91BF91AF919F91C0
:1013F0008F917F916F915F914F913F912F910F90BE
:101400000FBE0F901F9018951092FE0281E08093FE
:1014100000031092010382E061E00E946C1783E0F8
:1014200061E00E946C17E9EBF0E080818E7F8083A1
:1014300080818D7F808388E48093B80085E48093E9
:10144000BC000895FC0188EE9AE0928B818B768334
:1014500065831482108289E0818381E082838383A3
:1014600008956F927F928F929F92AF92BF92CF9288
:10147000DF92EF92FF920F931F93CF93DF93FB01C5
:10148000EA01998180E0288130E0282B392BE08126
:10149000E23231F0E83221F0E03109F084C04BC093
:1014A0004C814F3329F1403420F44F3109F07BC097
:1014B0002FC04F3579F04F3709F075C0B901882733
:1014C00077FD8095982F0E94661F20E030E040E86D
:1014D0005DE32EC035952795B901882777FD809566
:1014E000982F0E94661F20E030E040E05EE320C0BD
:1014F0003595279535952795B901882777FD8095EE
:10150000982F0E94661F20E030E040E85EE310C0A4
:1015100093E0359527959A95E1F7B901882777FDEE
:101520008095982F0E94661F20E030E040E05FE346
:101530000E94F21F32C0EF8035952795B9018827A8
:1015400077FD8095982F0E94661F20E030E040E8EC
:101550005EE30E94661E3B014C016E2D70E02E8101
:10156000621B7109882777FD8095982F0E94661F5E
:101570005B016C01FF2400E010E0C801B7010E948C
:10158000641F9B01AC01C601B5010E94CB1E9B01EB
:10159000AC01C401B3010E94671E9B01AC01832F03
:1015A000942F752F00C0262F382F492F572FB901A0
:1015B000CA01DF91CF911F910F91FF90EF90DF90C3
:1015C000CF90BF90AF909F908F907F906F90089535
:1015D0000895EF92FF920F931F938C017B01FC0102
:1015E000858196810E94EC12F80185819681B70170
:1015F0000E94CB12F8018581968164EB40E00E9445
:101600008612F801858196810E940112F82EF80158
:10161000858196810E94EC1280E0FF2009F481E030
:101620001F910F91FF90EF900895CF92DF92EF926C
:10163000FF920F931F938C016B017A01FC0185814E
:1016400096810E94EC12F80185819681B6010E9474
:10165000CB12F801858196816EEB40E00E948612E4
:10166000F801858196810E943512F7018083F80187
:10167000858196810E943512F7018183F801858169
:1016800096810E943512F7018283F8018581968147
:101690000E943512F7018383F801858196810E94AB
:1016A0003512F7018483F801858196810E943512F5
:1016B000F7018583F801858196810E943512F70133
:1016C0008683F801858196810E943512F701878310
:1016D000F801858196810E943512F7018087F80113
:1016E000858196810E94EC121F910F91FF90EF90DF
:1016F000DF90CF900895DF93CF93CDB7DEB72997D2
:101700000FB6F894DEBF0FBECDBFAE014F5F5F4F87
:101710000E94150B8981811181E029960FB6F894FA
:10172000DEBF0FBECDBFCF91DF910895CF92DF9284
:10173000EF92FF920F931F93CF93DF93EC016B0116
:10174000452BE1F08B818823C9F088818823B1F48F
:101750000E9409167B018C01CE0160E070E00E94BE
:101760007B0B882359F40E9409166E197F09800BA0
:10177000910B6E5E72408040904070F3F601608184
:10178000693039F06930A0F06A3041F06B3081F493
:101790000AC06EE570E080E090E00EC06CEB70E097
:1017A00080E090E009C067E771E080E090E004C06D
:1017B0006EEE72E080E090E00E947716DF91CF91AC
:1017C0001F910F91FF90EF90DF90CF900895CF93EE
:1017D000DF93EC018D819E810E94EC128D819E81B0
:1017E0000E94C6128D819E8164E448810E94861207
:1017F0008A81882339F0CE012196BE0140E050E075
:101800000E94960BDF91CF9108950F931F938A0149
:101810000E94150BC80168E00E94F01120E0F80159
:101820009085891709F421E0822F1F910F91089567
:10183000CF92DF92EF92FF920F931F93DF93CF939C
:10184000CDB7DEB729970FB6F894DEBF0FBECDBF78
:101850008C017B016E010894C11CD11CA6010E9461
:10186000050C882329F460E070E08EEF92EC05C04F
:10187000C801B701A6010E94310A29960FB6F89453
:10188000DEBF0FBECDBFCF91DF911F910F91FF90B3
:10189000EF90DF90CF900895DF93CF93CDB7DEB771
:1018A00029970FB6F894DEBF0FBECDBF9C01FB0198
:1018B00080818031D9F0C901AE014F5F5F4F0E9436
:1018C000050C8823A9F08D818F3371F0803418F4D2
:1018D0008F3171F40BC08F3519F08F3749F402C086
:1018E0008BE007C08CE005C08AE003C089E001C03E
:1018F00080E029960FB6F894DEBF0FBECDBFCF9122
:10190000DF9108950F931F938B01CB0167E00E9435
:10191000F01120E0F8019781891709F421E0822F66
:101920001F910F910895EF92FF920F931F93CF9302
:10193000DF93EC017B01042F8D819E810E94E311D6
:1019400010E007C0CE01B7010E94820C8823A9F0E5
:101950000AC08D819E81B7010E943713882329F028
:10196000101759F4EFCF81E001C080E0DF91CF91F3
:101970001F910F91FF90EF9008951F5F0117A8F33B
:10198000E8CFEF92FF920F931F93DF93CF93CDB7E2
:10199000DEB728970FB6F894DEBF0FBECDBF7C012F
:1019A000462F8E010F5F1F4FB8010E94930CC70195
:1019B000B8010E94180C28960FB6F894DEBF0FBE2F
:1019C000CDBFCF91DF911F910F91FF90EF900895C0
:1019D000AF92BF92CF92DF92EF92FF920F931F933D
:1019E000DF93CF93CDB7DEB761970FB6F894DEBF24
:1019F0000FBECDBF7C01FC01858196810E94E31161
:101A0000F70114826E010894C11CD11C79E0A72E45
:101A1000B12CAC0EBD1E01E02BC0C701B6010E9467
:101A2000820C882329F1F7018081882341F4C701C2
:101A3000B6010E94E90A882311F0F7010083C7016B
:101A4000B601A5010E94150BF7011181C701B6016E
:101A50000E944C0C811718F4F701818104C0C70162
:101A6000B6010E944C0CF701818384818F5F8483CF
:101A7000F70185819681B6010E943713882369F6A4
:101A800061960FB6F894DEBF0FBECDBFCF91DF9148
:101A90001F910F91FF90EF90DF90CF90BF90AF908C
:101AA0000895FC016083418381E08283138280E298
:101AB00084831582168210861186128613861486F8
:101AC0001586168617860895FF920F931F938C0133
:101AD000F62E81E00E94950680E00E949E0680E03E
:101AE0000E94A306F80181816F2D0E946C171F913F
:101AF0000F91FF9008951F93CF93DF93EC0160E067
:101B000070E00E94640D80E68EBD0DB407FEFDCF2F
:101B10008EB58FEF8EBD0DB407FEFDCF1EB5CE0185
:101B200061E070E00E94640D812FDF91CF911F91E1
:101B300008951F93CF93DF93EC0160E070E00E9463
:101B4000640D8FEF8EBD0DB407FEFDCF1EB5CE0127
:101B500061E070E00E94640D812FDF91CF911F91B1
:101B600008951F93CF93DF93EC0160E070E00E9433
:101B7000640D81EE8EBD0DB407FEFDCF1EB5CE0106
:101B800061E070E00E94640D812FDF91CF911F9181
:101B900008951F93CF93DF93EC0160E070E00E9403
:101BA000640D82EE8EBD0DB407FEFDCF1EB5CE01D5
:101BB00061E070E00E94640D812FDF91CF911F9151
:101BC00008950F931F938C01FC01808160E00E94B7
:101BD0006C17C8010E94B10DC8010E94C90D1F9168
:101BE0000F910895EF92FF920F931F93CF93DF937E
:101BF000EC01F62EE72E9C81142F941708F4192F70
:101C00008E81882311F000E002C0092F011BCE0154
:101C100060E070E00E94640D81E68EBD0DB407FEA9
:101C2000FDCF8F2D9E2D9C01F901FEB49FEF07C0C3
:101C30009EBD0DB407FEFDCF8EB5819311501123CB
:101C4000B9F707C08EBD0DB407FEFDCF9EB501509C
:101C500001C08FEF0023B1F7CE0161E070E00E9478
:101C6000640D8F2DDF91CF911F910F91FF90EF9019
:101C70000895EF92FF920F931F93CF93DF93EC01A0
:101C8000F62EE72E9C81142F941708F4192F8E81BD
:101C9000882311F000E002C0092F011BCE0160E093
:101CA00070E00E94640D80EA8EBD0DB407FEFDCF8A
:101CB0008F2D9E2D9C01F901FEB408C080818EBD40
:101CC0000DB407FEFDCF31968EB511501123B1F73B
:101CD00006C01EBC0DB407FEFDCF8EB5015000231B
:101CE000C1F7CE0161E070E00E94640D8F2DDF919D
:101CF000CF911F910F91FF90EF9008950F931F9335
:101D0000CF93DF93EC01162F042F60E070E00E9468
:101D1000640D1F7110621EBD0DB407FEFDCF1EB510
:101D20000EBD0DB407FEFDCF8EB5CE0161E070E0B3
:101D30000E94640D812FDF91CF911F910F91089523
:101D4000CF92DF92EF92FF920F931F938B017A0154
:101D5000690167E040E70E947E0E90E09C01E5E0AB
:101D600036952795EA95E1F72170F801208374E014
:101D7000969587957A95E1F7282F2170F7012083B2
:101D800096958795969587958170F60180831F912A
:101D90000F91FF90EF90DF90CF900895DF92EF9238
:101DA000FF920F931F93CF93DF938C017B010E94CF
:101DB000990DC82FD0E0CE01A6E096958795AA95FB
:101DC000E1F7DD24D394D82280FF15C0E114F1049B
:101DD00031F0CE01959587958770F7018083C80112
:101DE00067E040E40E947E0EC5FF05C0C80167E0C1
:101DF00040E20E947E0E8D2DDF91CF911F910F91B9
:101E0000FF90EF90DF90089560E070E00E94CE0EAA
:101E10000895462F603808F04FE765E00E947E0E77
:101E20000895EF92FF920F931F93CF93DF937C015E
:101E3000162FEA01022F60E070E00E94640D1F710E
:101E400010621EBD0DB407FEFDCF1EB508C088810F
:101E50008EBD0DB407FEFDCF21968EB50150002337
:101E6000B1F7C70161E070E00E94640D812FDF913E
:101E7000CF911F910F91FF90EF900895EF92FF92F5
:101E80000F931F93DF93CF93CDB7DEB728970FB68D
:101E9000F894DEBF0FBECDBF7C0109831A832B836C
:101EA0003C834D835E836F8378878E010F5F1F4F66
:101EB0006AE0A80125E00E94110FC70160E1A801B6
:101EC00025E00E94110FF7014481413208F040E201
:101ED000C70161E10E947E0E28960FB6F894DEBF1E
:101EE0000FBECDBFCF91DF911F910F91FF90EF906B
:101EF00008951F93CF93DF93EC01162F60E070E0FD
:101F00000E94640D1F711EBD0DB407FEFDCF8EB57E
:101F10008FEF8EBD0DB407FEFDCF1EB5CE0161E083
:101F200070E00E94640D812FDF91CF911F91089581
:101F30000F931F93CF93DF938C01EB0160E00E941E
:101F4000790F482F437F209729F0219711F448609B
:101F500001C04C60C80160E00E947E0EDF91CF910D
:101F60001F910F910895FF920F931F93CF93DF93CB
:101F7000EC018B0166E00E94790F1A82B7EDFB2E0F
:101F8000F8220230110511F480E206C0013011057B
:101F900029F481E08A8388E0F82A01C01A82CE0100
:101FA00066E04F2D0E947E0ECE0166E00E94790F02
:101FB0008F1511F481E002C01A8280E0DF91CF9189
:101FC0001F910F91FF9008950F931F93CF93DF936D
:101FD0008C01EB0166E00E94790F482F497FC330E6
:101FE000D10571F0C230D10511F444600AC0C1308E
:101FF000D10511F4426005C0209719F0249709F427
:102000004660C80166E00E947E0EDF91CF911F916D
:102010000F910895BF92CF92DF92EF92FF920F93AC
:102020001F93DF93CF93CDB7DEB728970FB6F89401
:10203000DEBF0FBECDBF6C01B62EE982FA820B83E4
:102040001C832D833E834F835887662389F4F601D2
:10205000E0868A8181878B8182878C8183878D81CD
:1020600084878E8185878F8186878885878707C04B
:10207000F6E0F61708F43DC081E0681761F4EB2D37
:10208000F0E0E25DFE4FE491C6016E2FAE014F5FBE
:102090005F4F25E00BC0E62FF0E0E25DFE4FE491DC
:1020A000C6016E2FAE014F5F5F4F21E00E94110FFE
:1020B0000B2D10E0F801EC5CFE4FE491C6016E2F91
:1020C000F60144810E947E0EC60162E00E94790FF3
:1020D000065C1E4FF801649121E030E002C0220F3F
:1020E000331F6A95E2F7482F422BC60162E00E9437
:1020F0007E0E28960FB6F894DEBF0FBECDBFCF91EF
:10210000DF911F910F91FF90EF90DF90CF90BF90E4
:1021100008950F931F938C010E94F20DC80167E18F
:102120000E94790F81701F910F910895DF92EF92B5
:10213000FF920F931F938C017B01D42E60E00E94CD
:10214000790F482F4C7F4260C80160E00E947E0EEC
:1021500086E990E00E941716C801B7014D2D0E9434
:10216000390EF801808161E00E946C178FE090E0E9
:102170000E941716F801808160E00E946C171F9181
:102180000F91FF90EF90DF9008950F931F938C01B4
:1021900060E00E94790F482F4D7FC80160E00E94E7
:1021A0007E0E1F910F910895CF93DF93EC0160E0B5
:1021B0000E94790F482F4360CE0160E00E947E0E9E
:1021C000CE0167E040E70E947E0E88859985892BC5
:1021D0009A85892B9B85892B9C85892B9D85892BAD
:1021E0009E85892B9F85892B41F0AE01485F5F4F0B
:1021F000CE016AE025E00E94110FCE010E94C90DB8
:10220000CE010E94B10D888161E00E946C1782E8C6
:1022100090E00E941716DF91CF910895CF93DF933E
:10222000EC01888161E00E94DF16898161E00E94F3
:10223000DF160E94B406888160E00E946C17CE0110
:1022400061E070E00E94640D65E070E080E090E085
:102250000E947716CE0164E04FE40E947E0ECE010C
:1022600063E070E00E94E40FCE0162E070E00E9443
:10227000B30F882311F081E08B83CE0160E070E022
:102280000E94B30FCE0162E070E00E94980FCE0171
:102290006CE140E00E947E0ECE0167E040E70E94C4
:1022A0007E0ECE016CE40E94090FCE010E94C90D82
:1022B000CE010E94B10DDF91CF910895EF92FF9270
:1022C0000F931F93CF93DF937C01162FEA01022F08
:1022D00060E070E00E94640D1F711EBD0DB407FE2A
:1022E000FDCF1EB59FEF07C09EBD0DB407FEFDCF0D
:1022F0008EB5899301500023B9F7C70161E070E002
:102300000E94640D812FDF91CF911F910F91FF905B
:10231000EF900895AF92BF92CF92DF92EF92FF922B
:102320000F931F93DF93CF9300D00F92CDB7DEB7FB
:102330008C010E9496100E9409166B017C015E01BF
:102340000894A11CB11CC80168E0A50121E00E940D
:102350005E11807331F50E9409166C197D098E0992
:102360009F09645F714080409040D8F4ECCFC80171
:102370000E947B0DF8018783C8010E94C510C80127
:102380000E94B10D8F2D0F900F900F90CF91DF9184
:102390001F910F91FF90EF90DF90CF90BF90AF9083
:1023A000089598012B5F3F4FC801BE016E5F7F4FBC
:1023B000AE014D5F5F4F0E94A00EFA80F80185814B
:1023C0008823D1F2D4CFFC0113861586148687E0CA
:1023D00090E012863197009711F00197FACF089597
:1023E000DC0180E00BC0E82FF0E08D9190E0E82761
:1023F000F927EF50FD4FE49161508E2F662399F736
:102400000895DF92EF92FF920F931F93FC01E080FB
:1024100001811281F894F80181818E298183828162
:10242000DE2CD0948D21828383E090E00E941716E9
:10243000F80181818D2181838AE090E00E94171646
:10244000F8010081789485E390E00E94171680E0FF
:1024500010E0FF240E211F21012B09F081E01F91C4
:102460000F91FF90EF90DF900895EF92FF920F93FE
:102470001F93CF93DF937C0101E010E0C0E0D0E038
:10248000C7010E9401128111102B000F2196C83044
:10249000D105B1F7812FDF91CF911F910F91FF905F
:1024A000EF9008951F93CF93DF93FC011081C181BA
:1024B000D281912F909560FF12C0F8948A81892370
:1024C0008A838981812B89838AE090E00E94171694
:1024D0008A81812B8A83789487E390E011C0F894F5
:1024E0008A8189238A838981812B898381E490E091
:1024F0000E9417168A81812B8A83789485E090E068
:102500000E941716DF91CF911F910895CF92DF920D
:10251000EF92FF920F931F93CF93DF938C01E42EE2
:10252000FF24F394C0E0D0E0C62EDD2460E08F2DC0
:1025300090E08C219D21892B09F061E0C8010E9467
:102540005212FF0C2196C830D10581F7EE20A9F474
:10255000F894D8011196ED91FC91129791818C918C
:102560008095982391831196ED91FC911297928119
:102570008C918095982392837894DF91CF911F91CD
:102580000F91FF90EF90DF90CF9008956CEC40E0BA
:102590000E9486120895EF92FF920F931F93CF939C
:1025A000DF938C017B0165E540E00E948612C0E06C
:1025B000D0E0F701EC0FFD1FC801608140E00E94F0
:1025C00086122196C830D105A1F7DF91CF911F91D6
:1025D0000F91FF90EF900895DF92EF92FF920F938B
:1025E0001F93CF93DF93FC010081C181D281F894C6
:1025F0008981D02ED0948D21898378941DE7E02E97
:10260000FF24115059F182E090E00E941716888152
:1026100090E08E219F21892BA1F3F8948A818D214E
:102620008A838981802B8983789480EE91E00E944F
:102630001716F89489818D21898386E490E00E94A1
:102640001716888110E090E0E822F922EF2809F4BB
:1026500011E078948AE991E00E941716812FDF91AA
:10266000CF911F910F91FF90EF90DF900895AF925F
:10267000BF92DF92EF92FF920F931F93CF93DF935E
:10268000EC015B018D85882309F061C0CE010E94B9
:10269000EC12882329F41B861D861C8690E06BC0F3
:1026A000CE0160EF40E00E94861201E0DD24EE24BE
:1026B000FF24F394CE010E940112182FCE010E9434
:1026C0000112113019F48130E1F439C0181709F5FD
:1026D0008B85081770F460E0FE01EE0DF11D83811B
:1026E00090E02F2D30E082239323181619064CF02A
:1026F00003C060E0081729F0093008F04CC00C87CF
:102700004AC0FE01EE0DF11D83818F29838361E0B4
:1027100009C0612FFE01EE0DF11D9F2D9095838163
:1027200089238383CE010E9452120F5FFF0C19F49C
:10273000E394FF24F39487E08E1508F0BBCF0134B7
:1027400030F0DB86DD2011F581E08D871FC01B8610
:102750001D861C8690E0DE0120E030E0F501E20FEE
:10276000F31F13968C91139780832F5F3F4F119621
:102770002830310599F7892FDF91CF911F910F9163
:10278000FF90EF90DF90BF90AF9008958B818823EA
:10279000F1F291E0E0CFD02EBDCFFF920F931F93C7
:1027A0008C01F62E862F60E00E94DF168F2D90E0C0
:1027B000FC01E75CFB4FE491D801EC93855E9B4FF5
:1027C000FC016491E62FF0E0EE0FFF1FE35FFB4F8B
:1027D0008591949112969C938E9311971B961C92BF
:1027E0001B971D961C921D971C961C92F80187E062
:1027F00090E012863197009711F00197FACF1F9160
:102800000F91FF9008950895FF920F931F93FC017D
:10281000F62E02EF12E0C80160810E94CB06C801CB
:102820006F2D0E945707C8010E949A071F910F91B0
:10283000FF900895CF92DF92EF92FF920F931F9334
:10284000CF93DF93EC018981813071F482EF92E0C4
:102850006CE570E00E94D50682EF92E06CE570E0D6
:1028600042E050E00E94AB078981882371F482EF37
:1028700092E063E270E00E94D50682EF92E063E2AC
:1028800070E042E050E00E94AB0782EF92E00E94CD
:10289000E806F82EEE2482EF92E00E94E8066C0132
:1028A00082EF92E00E949A07EC28FD2800E010E0F9
:1028B000C801B7010E94641F2AE939E949E95FE3C9
:1028C0000E94CB1E0E94381FCB01DF91CF911F9138
:1028D0000F91FF90EF90DF90CF900895FF920F93AC
:1028E0001F938C01F62E6AE070E080E090E00E9479
:1028F0007716C8016F2D0E9404141F910F91FF904D
:1029000008950F931F938C0182EF92E00E94AF070E
:10291000C80161E00E94041481E161E00E94DF16B9
:1029200081E161E00E946C171F910F910895FC01F5
:1029300066834783208781E0858708950F931F93DF
:102940008C01FC01868160E00E94DF16F80186811F
:1029500061E00E946C17F8011186128613861486B6
:102960001F910F910895CF92DF92EF92FF920F93F4
:102970001F93CF93DF93EC018E8161E00E946C176F
:102980006AEF70E080E090E00E9477160E940916DE
:102990009B01AC0189859A85AB85BC8528173907D1
:1029A0004A075B0720F419861A861B861C868D85CC
:1029B000882371F489859A85AB85BC85281B390BE2
:1029C0004A0B5B0B205D37404040504008F477C015
:1029D0001D860E94091669877A878B879C871C82CF
:1029E0001B821A82198218828E8161E00E94DF1692
:1029F0008E8160E00E946C1764E170E080E090E0FE
:102A00000E947716F8948E8161E00E946C1788E22C
:102A100090E00E9417168E8160E00E94DF1681E030
:102A2000EE2400E010E00AC0F39481E090E00E9400
:102A300017168FEFF81629F40AC0822FFF24C82E2C
:102A4000DD248E810E949F178C159D0569F38E8170
:102A50000E949F17282F8FEFF816C9F0043090F0CE
:102A600000FD10C08E2D869586958695FE01E80F97
:102A7000F11D9081990F908388858F1510F49160D6
:102A80009083E3940F5F1F4F05351105B1F67894DD
:102A900087E28E1510F030E013C030E04C8150E03A
:102AA0002981888190E0820F911D2A81820F911DDA
:102AB0002B81820F911D90704817590709F431E05E
:102AC000832FDF91CF911F910F91FF90EF90DF90B7
:102AD000CF900895EF92FF920F931F93CF93DF93C0
:102AE000EC010E94B3148823A9F18F818B3031F05F
:102AF0008B3080F18551823068F507C0688170E0C5
:102B000080E090E00E94641F22C0688170E080E055
:102B100090E00E94641F20E030E040E853E40E940F
:102B2000F21F7B018C01698170E0882777FD809519
:102B3000982F0E94661F9B01AC01C801B7010E943B
:102B4000671E20E030E040E251E40E94CB1EE62FF9
:102B5000692F0AC085E793E060E071E00E942E19BA
:102B6000E0E070E080EC6FE72E2F372F482F562FD4
:102B7000B901CA01DF91CF911F910F91FF90EF90A2
:102B800008951F920F920FB60F9211242F933F9327
:102B90008F939F93AF93BF93809170039091710334
:102BA000A0917203B0917303309174030196A11D3B
:102BB000B11D232F2D5F2D3720F02D570196A11D1C
:102BC000B11D209374038093700390937103A093BD
:102BD0007203B093730380916C0390916D03A09185
:102BE0006E03B0916F030196A11DB11D80936C031C
:102BF00090936D03A0936E03B0936F03BF91AF9159
:102C00009F918F913F912F910F900FBE0F901F902A
:102C100018958FB7F894209170033091710340910B
:102C20007203509173038FBFB901CA0108950197D0
:102C300039F0880F991F880F991F02970197F1F7B4
:102C40000895789484B5826084BD84B5816084BD24
:102C500085B5826085BD85B5816085BDEEE6F0E015
:102C6000808181608083E1E8F0E010828081826071
:102C70008083808181608083E0E8F0E080818160F2
:102C80008083E1E9F0E080818260808380818160DF
:102C90008083E0E9F0E0808181608083E1ECF0E016
:102CA0008081846080838081826080838081816074
:102CB0008083E3ECF0E0808181608083E0ECF0E0F1
:102CC000808182608083E2ECF0E08081816080839B
:102CD000EAE7F0E080818460808380818260808385
:102CE0008081816080838081806880830895EF92F5
:102CF000FF920F931F93CF93DF937B018C013FB71C
:102D0000F89480916C0390916D03A0916E03B09143
:102D10006F0326B5A89B05C02F3F19F00196A11D92
:102D2000B11D3FBFBA2FA92F982F8827820F911D61
:102D3000A11DB11D52E0880F991FAA1FBB1F5A95F4
:102D4000D1F7EC0130C00E94221D3FB7F89480916A
:102D50006C0390916D03A0916E03B0916F0326B543
:102D6000A89B05C02F3F19F00196A11DB11D3FBFC3
:102D7000BA2FA92F982F8827820F911DA11DB11D51
:102D800032E0880F991FAA1FBB1F3A95D1F78C1B01
:102D90009D0B885E9340B8F20894E108F1080109A0
:102DA0001109C851DC4FE114F1040105110559F670
:102DB000DF91CF911F910F91FF90EF900895CF93E6
:102DC000DF93482F50E0CA01875C9B4FFC01349190
:102DD000455E5B4FFA018491882369F190E0880F8A
:102DE000991FFC01EF50FC4FA591B491FC01E150FB
:102DF000FC4FC591D491662351F42FB7F8948C9170
:102E0000932F909589238C93888189230BC06230FE
:102E100061F42FB7F8948C91932F909589238C931C
:102E20008881832B88832FBF06C09FB7F8948C912D
:102E3000832B8C939FBFDF91CF910895883071F1E0
:102E4000893068F4823031F1833020F4813009F028
:102E500042C01DC0833089F08430E9F512C08B3048
:102E600059F18C3028F48930E9F08A30A1F51EC080
:102E70008C3031F18E3079F529C0809180008F77C8
:102E800003C0809180008F7D80938000089584B579
:102E90008F7702C084B58F7D84BD089580919000A6
:102EA0008F7707C0809190008F7D03C08091900044
:102EB000877F8093900008958091C0008F7703C032
:102EC0008091C0008F7D8093C00008958091C200E2
:102ED000877F8093C2000895FF920F931F93F62E71
:102EE000482F50E0CA01895A9B4FFC012491CA0126
:102EF000875C9B4FFC011491455E5B4FFA01049186
:102F00000023C9F0222319F0822F0E941E17E02F00
:102F1000F0E0EE0FFF1FE150FC4FA591B4919FB779
:102F2000F894FF2021F48C911095812302C08C919C
:102F3000812B8C939FBF1F910F91FF9008950F934A
:102F40001F93482F50E0CA01895A9B4FFC012491DE
:102F5000CA01875C9B4FFC010491455E5B4FFA01FF
:102F60001491112319F420E030E015C0222319F048
:102F7000822F0E941E17812F90E0880F991F835F78
:102F80009B4FFC01A591B4918C9120E030E080230F
:102F900011F021E030E0C9011F910F910895FC016B
:102FA0002485858530E0205C3F4F281B31092F7335
:102FB0003070C9010895FC0194858585981719F42E
:102FC0002FEF3FEF06C08585E80FF11D8685282F7E
:102FD00030E0C9010895DC011C969C911C971D9658
:102FE0008C911D97981719F42FEF3FEF10C01D9685
:102FF0008C911D97FD01E80FF11D96851D968C9112
:103000001D978F5F8F731D968C93292F30E0C90118
:103010000895109278031092770388EE93E0A0E071
:10302000B0E08093790390937A03A0937B03B093ED
:103030007C0388E291E09093760380937503089572
:103040000F931F93DF93CF930F92CDB7DEB78C0111
:10305000698380911101882369F083E0BE016F5F6D
:103060007F4F41E050E00E94A81A1816190614F488
:103070009C0107C081E090E0F8019383828320E007
:1030800030E0C9010F90CF91DF911F910F9108950A
:1030900083E00E947F1A08950F931F93CF93DF93CD
:1030A0008C01FC010FC082E00E9465199C01FFEFBA
:1030B0008F3F9F0799F0F8018485E80FF11D26875F
:1030C000F801C4878485C82FD0E02196CF73D070D3
:1030D000F801858590E0C817D90729F7DF91CF91CE
:1030E0001F910F910895FC0180818E5F808380E89D
:1030F00061E874E042E450E00E947E190895FC010A
:1031000081819081913A59F4813209F04CC080E07C
:103110006AE071E047E050E00E947E1942C09132BF
:1031200009F041C0803239F48AE091E067E070E054
:103130000E94671A36C0823209F035C082818093BE
:10314000110180910A0190910B01A0910C01B091A5
:103150000D01805B9440A040B04019F580911101B1
:1031600080FD12C087E797E79093010880930008DD
:103170002BE088E190E00FB6F894A895809360006A
:103180000FBE209360000DC088E10FB6F8948093C5
:103190006000109260000FBEA89510920108109276
:1031A000000881E0089580E00895CF93DF930E94A6
:1031B00021168BEC93E00E948A1A0E94C505C0E09C
:1031C000D0E00E94CA052097E1F30E940000F9CFE9
:1031D000CF92DF92EF92FF920F931F93CF93DF93E3
:1031E0007C016B018A01C0E0D0E00FC0D6016D9177
:1031F0006D01D701ED91FC910190F081E02DC701A7
:103200000995C80FD91F015010400115110571F71C
:10321000CE01DF91CF911F910F91FF90EF90DF9042
:10322000CF900895CF93DF93EC016115710519F4E8
:1032300020E030E00FC0DB010D900020E9F711978E
:10324000A61BB70BE881F9810280F381E02DAD0167
:1032500009959C01C901DF91CF9108950E9412192F
:103260000895282F8091C5038823C1F057FF1AC005
:1032700015C028989093C4038091F1008193E217C0
:10328000F307B9F74115510539F08091F200882311
:1032900019F48BE68093E800AFBF02C04FEF5FEFF9
:1032A000CA010895AFB7F89427702093E900809180
:1032B000F200282F30E0241735070CF4A901FB0198
:1032C0009B01240F311D94E6DACFDF93CF930F9249
:1032D000CDB7DEB7BE016F5F7F4F41E050E00E9487
:1032E0003119019719F02FEF3FEF03C08981282F83
:1032F00030E0C9010F90CF91DF910895FF920F93B5
:103300001F93F82E142F052F4091C8035091C90325
:10331000212F302FC901DC01FB016EEF29C0F7FE20
:1033200002C0949101C090812091C6033091C703DF
:1033300024173507ACF48091E8008570E1F38091A3
:10334000E80082FF03C02FEF3FEF17C09093F1001A
:10335000C90101968F739070892B11F46093E80076
:103360002F5F3F4F3093C7032093C60311973196C9
:103370001097A9F6812F902F9C01C9011F910F91E1
:10338000FF9008951F93782FE92F162F2091C603E1
:103390003091C703A091C803B091C9032A173B0716
:1033A000C4F48091E8008570E1F38091E80082FD2B
:1033B00016C0812F90E00196880F991F8093F1002D
:1033C000C90101968F739070892B19F48EEF809349
:1033D000E8002F5F3F4F3093C7032093C60320912F
:1033E000C6033091C7032A173B07A4F48091E80075
:1033F0008570E1F38091E80082FD12C083E0809344
:10340000F100C90101968F739070892B19F48EEF2A
:103410008093E8002F5F3F4F3093C7032093C6038C
:103420004091C6035091C703872F9E2FFC0170E087
:103430006EEF43C094914A175B07A4F48091E800B3
:103440008570E1F38091E80082FF02C020E00DC0AA
:103450009093F100CA0101968F739070892B11F43B
:103460006093E8004F5F5F4F21E04A175B07A4F4C9
:103470008091E8008570E1F38091E80082FF02C04E
:1034800080E00DC01092F100CA0101968F73907018
:10349000892B11F46093E8004F5F5F4F81E0319614
:1034A00090E030E082239323892B31F45093C703BB
:1034B0004093C60380E009C07F5F711708F4BACF5C
:1034C0005093C7034093C60381E01F9108959C0168
:1034D0008091E80082FFFCCFF901260F311D03C067
:1034E0008091F1008193E217F307D1F7289884E6E1
:1034F0008093C4038BEF8093E800CB010895809301
:10350000E9008091F200882319F08AE38093E800B3
:10351000089508951092C50381E08093D70080EA52
:103520008093D80082E189BD09B400FEFDCF61E03F
:1035300070E080E090E00E94771680E98093D800E8
:103540008CE08093E2001092E000559A209A089552
:103550005F926F927F928F929F92AF92BF92CF9223
:10356000DF92EF92FF920F931F93CF93DF93E82E9A
:10357000842E752E8091C503882371F18B01242F31
:10358000352FC901EC01AAEFFA2EF7E09F2E9E20FD
:10359000E0E45E2E8E2D90E070E2A72EB12CA822E2
:1035A000B9226AE3662E50E4C52ED12CC822D92256
:1035B00058C09FB7F8949092E9008091E80085FD8B
:1035C00002C020E004C08091F200252D281B9FBF7F
:1035D000222361F4FA9419F42FEF3FEF4DC061E01C
:1035E00070E080E090E00E9477163BC0822F90E070
:1035F000C817D9070CF42C2FC21BD1094FB7F89468
:103600009092E900A114B10421F406C01092F100D7
:1036100021502223D9F719C0E7FC03C0F801922FEB
:1036200010C0C801322F06C0FC010196E491E0935E
:10363000F10031503323C1F706C081918093F1002E
:1036400091509923D1F7020F111D8091E80085FF59
:1036500005C0209729F4C114D10411F06092E8004C
:103660004FBF209709F0A5CF5D9884E68093C303F0
:10367000282D372DC9019C01C901DF91CF911F91E0
:103680000F91FF90EF90DF90CF90BF90AF909F9001
:103690008F907F906F905F9008951F920F920FB65A
:1036A0000F9211242F933F934F935F936F937F93C8
:1036B0008F939F93AF93BF93EF93FF938091E1001C
:1036C0001092E100982F83FF0FC01092E90081E073
:1036D0008093EB001092EC0082E38093ED00109257
:1036E000C50388E08093F00092FF34C083E08093AC
:1036F000E9008091F200882319F08AE38093E800C2
:103700008FB7F89492E09093E9009091F2008FBF08
:10371000992321F085E793E00E944C188091C30320
:10372000882351F08091C30381508093C30380911B
:10373000C303882309F45D9A8091C403882351F060
:103740008091C40381508093C4038091C403882373
:1037500009F4289AFF91EF91BF91AF919F918F91BA
:103760007F916F915F914F913F912F910F900FBE7D
:103770000F901F9018950F931F93DF93CF930F9285
:10378000CDB7DEB719828E010F5F1F4FC8010E94AF
:103790007318C8010E945A1E898190E00F90CF9142
:1037A000DF911F910F9108951F920F920FB60F9204
:1037B0001124EF92FF921F932F933F934F935F93A8
:1037C0006F937F938F939F93AF93BF93EF93FF93E9
:1037D000DF93CF93CDB7DEB76197DEBFCDBF109239
:1037E000E9008091E80083FF14C1FE0131969E013B
:1037F000275F3F4F03C08091F1008193E217F307E9
:10380000D1F7289884E68093C40382EF8093E80080
:10381000998197FF05C08091E80080FFFCCF03C02D
:103820008EEF8093E800292F30E0C90180769070F8
:10383000892B09F0C7C08A81882329F41092F100EE
:103840001092F100DBC0813009F4D8C0833009F454
:10385000D5C0853049F48091E80080FFFCCF8B8192
:1038600080688093E300CAC0863009F081C01C8163
:10387000EF80F8841230C1F51092E9001092C7036E
:103880001092C6031092C9031092C8030E94BB1B7A
:1038900099E0FE013996DF01292F1D922A95E9F75B
:1038A00099871A8791E09E8790E8988B9AEF998B79
:1038B0002091C6033091C703275F3F4F3C872B877A
:1038C0008D871092E9001092C7031092C603F09200
:1038D000C903E092C80380E0BF0149E050E00E94C4
:1038E0007E190E94BB1B8AC01092E9001092C70388
:1038F0001092C603F092C903E092C803123241F459
:1039000082E290E00E94521E892B09F47BC076C0AF
:10391000113079F488E0E816F10419F481E080931D
:10392000CA038091CA03882309F070C0E4EEF4E072
:1039300018C0133009F066C08B81882319F4E3ECBA
:10394000F4E00FC0823021F487EC94E060E106C01F
:10395000813009F057C088ED94E06BE00E94C219F5
:103960004BC0449180E8BF0150E00E947E1946C0E0
:10397000873009F447C0883021F481E08093F1005A
:103980003DC08930D9F523703070232BD9F5E9E09B
:10399000F5E091E031E026E39093E9003093EB000D
:1039A00084918093EC002093ED009F5F31969530D9
:1039B00099F78EE78093EA001092EA008B8180935A
:1039C000C5031CC08F8198851092E9001092C7032F
:1039D0001092C6039093C9038093C8038D818823F6
:1039E00029F4CE0101960E947F1806C0823051F45E
:1039F000CE0101960E94231D882321F08EEF809333
:103A0000E80007C081E28093EB0003C0E6EFF4E03A
:103A1000A8CF6196DEBFCDBFCF91DF91FF91EF912F
:103A2000BF91AF919F918F917F916F915F914F91D6
:103A30003F912F911F91FF90EF900F900FBE0F902D
:103A40001F9018950895FC0191818081813A31F48D
:103A5000913089F080E0933089F40DC0813269F4AF
:103A60009B3021F482818093120105C09A3029F4A1
:103A700082818093130181E0089580E00895EF92A0
:103A8000FF920F931F938C01E62EDC01ED91FC91C8
:103A90000480F581E02D0995F82ED801ED91FC9177
:103AA0000680F781E02DC8016E2D09958F2D90E0DD
:103AB0001F910F91FF90EF9008951092CC031092F8
:103AC000D0031092CF038AE391E09093CE038093CA
:103AD000CD030895EF92FF920F931F93DF93CF933F
:103AE0000F92CDB7DEB789838B017A0184E0BE01E6
:103AF0006F5F7F4F41E050E00E94A81A84E4B80154
:103B0000A7010E94A81A0F90CF91DF911F910F91EA
:103B1000FF90EF90089582E048E050E00E946A1D17
:103B20000895FC011682178210861186128613866C
:103B300014823496BF010E948B1D0895DC01683801
:103B400010F0685829C0E62FF0E067FF13C0E05876
:103B5000F04081E090E002C0880F991FEA95E2F7FB
:103B6000809514962C911497282314962C931497CF
:103B700060E012C0E557FA4F6491662319F420E023
:103B800030E01DC067FF08C014968C9114978D7F9C
:103B900014968C9314976F77FD0190E0662321F0C3
:103BA0008681861709F416829F5F31969630B1F7A9
:103BB000CD011496BD010E948B1D21E030E0C901AA
:103BC0000895CF93DF93DC01683810F0685825C062
:103BD000E62FF0E067FF12C0E058F04081E090E08F
:103BE00002C0880F991FEA95E2F714962C9114975A
:103BF000282B14962C93149760E00FC0E557FA4FCA
:103C000064916623D9F167FF08C014968C911497CC
:103C1000826014968C9314976F7716968C911697F2
:103C20008617A9F117968C911797861781F1189628
:103C30008C911897861759F119968C9119978617B8
:103C400031F11A968C911A97861709F11B968C916F
:103C50001B978617E1F0ED01E0E0F0E09E2F8E81EA
:103C6000882321F4EA0FFB1F668306C09F5F31960D
:103C70002196E630F10591F7963049F481E090E025
:103C800013969C938E93129720E030E007C0CD01ED
:103C90001496BD010E948B1D21E030E0C901DF9127
:103CA000CF91089580E86DE075E045E650E00E9410
:103CB0007E190895FC0180818F5F808380E862E730
:103CC00075E049E150E00E947E1908955058BB27E5
:103CD000AA270ED04DC13ED130F043D120F031F4AF
:103CE0009F3F11F41EF433C10EF4E095E7FB29C1A8
:103CF000E92F4FD180F3BA1762077307840795073E
:103D000018F071F49EF567C10EF4E0950B2EBA2FF2
:103D1000A02D0B01B90190010C01CA01A0011124D1
:103D2000FF27591B99F0593F50F4503E68F11A167D
:103D3000F040A22F232F342F4427585FF3CF46950E
:103D400037952795A795F0405395C9F77EF41F1630
:103D5000BA0B620B730B840BBAF09150A1F0FF0FFA
:103D6000BB1F661F771F881FC2F70EC0BA0F621FE6
:103D7000731F841F48F4879577956795B795F795D6
:103D80009E3F08F0B3CF9395880F08F09927EE0F68
:103D90009795879508950CD0EBC0E3D040F0DAD02A
:103DA00030F021F45F3F19F0CCC0511115C1CFC0E4
:103DB000F0D098F39923C9F35523B1F3951B550B14
:103DC000BB27AA2762177307840738F09F5F5F4FEE
:103DD000220F331F441FAA1FA9F333D00E2E3AF02F
:103DE000E0E830D091505040E695001CCAF729D049
:103DF000FE2F27D0660F771F881FBB1F2617370798
:103E00004807AB07B0E809F0BB0B802DBF01FF27C7
:103E100093585F4F2AF09E3F510568F092C0DCC076
:103E20005F3FECF3983EDCF3869577956795B79501
:103E3000F7959F5FC9F7880F911D9695879597F91C
:103E40000895E1E0660F771F881FBB1F6217730795
:103E50008407BA0720F0621B730B840BBA0BEE1FAA
:103E600088F7E095089504D06894B111B5C008951D
:103E700098D088F09F5790F0B92F9927B751A0F0AC
:103E8000D1F0660F771F881F991F1AF0BA95C9F7EE
:103E900012C0B13081F09FD0B1E008959CC0672F6F
:103EA000782F8827B85F39F0B93FCCF3869577959E
:103EB0006795B395D9F73EF4909580957095619587
:103EC0007F4F8F4F9F4F0895E89409C097FB3EF4B2
:103ED00090958095709561957F4F8F4F9F4F992357
:103EE000A9F0F92F96E9BB279395F69587957795D5
:103EF0006795B795F111F8CFFAF4BB0F11F460FF95
:103F00001BC06F5F7F4F8F4F9F4F16C0882311F0EC
:103F100096E911C0772321F09EE8872F762F05C000
:103F2000662371F096E8862F70E060E02AF09A959B
:103F3000660F771F881FDAF7880F9695879597F990
:103F4000089597F99F6780E870E060E008959FEF1B
:103F500080EC089500240A94161617061806090620
:103F6000089500240A9412161306140605060895EF
:103F7000092E0394000C11F4882352F0BB0F40F477
:103F8000BF2B11F460FF04C06F5F7F4F8F4F9F4FB7
:103F9000089557FD9058440F551F59F05F3F71F039
:103FA0004795880F97FB991F61F09F3F79F08795A0
:103FB0000895121613061406551FF2CF4695F1DF29
:103FC00008C0161617061806991FF1CF86957105B9
:103FD000610508940895E894BB2766277727CB01ED
:103FE00097F908950BD0C4CFB5DF28F0BADF18F0E9
:103FF000952309F0A6CFABCF1124EECFCADFA0F3F3
:10400000959FD1F3950F50E0551F629FF001729F6D
:10401000BB27F00DB11D639FAA27F00DB11DAA1F8C
:10402000649F6627B00DA11D661F829F2227B00DD9
:10403000A11D621F739FB00DA11D621F839FA00D64
:10404000611D221F749F3327A00D611D231F849FB4
:10405000600D211D822F762F6A2F11249F5750400B
:104060008AF0E1F088234AF0EE0FFF1FBB1F661FA6
:10407000771F881F91505040A9F79E3F510570F05F
:1040800060CFAACF5F3FECF3983EDCF3869577953F
:104090006795B795F795E7959F5FC1F7FE2B880F5A
:1040A000911D9695879597F90895FA01EE0FFF1FD8
:1040B00030962105310599F16115710561F480385B
:1040C000BFE39B0749F168949038810561F080381F
:1040D000BFEF9B0741F0992342F5FF3FE105310512
:1040E000210511F1E8940894E795D901AA2329F450
:1040F000AB2FBE2FF85FD0F310C0FF5F70F4A69512
:10410000E0F7F73950F019F0FF3A38F49F779F93B2
:104110000CD00F9007FC905808953EF018CF60E047
:1041200070E080E89FE308954FE79F775F934F9398
:104130003F932F939ED02F913F914F915F9152DFEC
:1041400005C019F40EF0FDCE46CF01CF2ADFC8F32B
:104150009638C0F707F80F92E8942BE33AEA48EB59
:104160005FE74EDF0F920F920F924DB75EB70F923F
:10417000C0D0ECEAF0E016D04F915F91EF91FF9143
:10418000E595EE1FFF1F49F0FE57E0684427EE0F4C
:10419000441FFA95E1F74195550B32D00F9007FE79
:1041A00026C00895DF93CF931F930F93FF92EF9252
:1041B000DF927B018C01689405C0DA2EEF011EDFCF
:1041C000FE01E894A5912591359145915591AEF365
:1041D000EF018EDDFE019701A801DA9479F7DF90F7
:1041E000EF90FF900F911F91CF91DF9108959B0168
:1041F000AC0160E070E080E89FE3CDCDA2CEACC022
:10420000D0DEE8F39923D9F3940F511DBBF39150FD
:10421000504094F059F0882332F0660F771F881FC2
:1042200091505040C1F79E3F510544F7880F911DB2
:104230009695879597F908955F3FACF0983E9CF06E
:10424000BB27869577956795B79508F4B1609395E8
:10425000C1F7BB0F58F711F460FFE8CF6F5F7F4FD6
:104260008F4F9F4FE3CFB8CE0EF076C070CE6894DC
:1042700068CE97DEC8F39923D1F3C6F3DF93CF93CB
:104280001F930F93FF92C92FDD2788232AF02197D0
:10429000660F771F881FDAF720E030E040E85FEB19
:1042A0009FE3883920F0803E30F021968F770FDD34
:1042B000E4EDF0E003C00BDDE1E0F1E073DF8B0142
:1042C000BE01EC01FB2E6F5771097595771F880BA6
:1042D000990BFCDD28E132E741E35FE38FDEAF2D90
:1042E0009801AE01FF900F911F91CF91DF9100DDFA
:1042F0003FCEFA01DC01AA0FBB1F9B01AC01BF57E7
:1043000028F422273327442750781FC0B75188F458
:10431000AB2F0024469537952795011CA395D2F322
:10432000002069F0220F331F441FB395DAF30DD03C
:10433000CDCC61307105A0E88A07B94630F49B0105
:10434000AC016627772788279078309621F0208364
:1043500031834283538308959F3F49F0915028F45D
:10436000869577956795B7959F5F80389F4F880FA3
:104370009695879597F90895EE0FFF1F0590F49194
:08438000E02D0994F894FFCF31
:1043880052656164206661696C0000E1000000000C
:10439800000001010000000057072607DF06E806B5
:1043A800FD060E07000000002018E818CF17EB17CD
:1043B800DB1748184C18000000003F1DE818E11DE5
:0443C8009E1D911D88
:00000001FF
