:100000000C94C7010C94EF010C94EF010C94EF01D8
:100010000C94EF010C94EF010C94EF010C94EF01A0
:100020000C94EF010C94EF010C94EF010C94EF0190
:100030000C94EF010C94EF010C94EF010C94EF0180
:100040000C94F61A0C94EF010C94E41D0C94161EFB
:100050000C94EF010C94EF010C94EF010C94EF0160
:100060000C94BD110C94EF01504120506F776572D4
:1000700009203D2025530D0A00435243204C656E54
:1000800067746809203D2025530D0A004D6F646593
:100090006C0909203D2025530D0A0044617461203C
:1000A0005261746509203D2025530D0A0044594EC4
:1000B00050442F4645415455524500434F4E464902
:1000C000470052465F53455455500052465F4348DF
:1000D00000454E5F52584144445200454E5F4141F5
:1000E0000052585F50575F50302D360054585F41D2
:1000F0004444520052585F414444525F50322D35BF
:100100000052585F414444525F50302D31000D0A77
:1001100000253032780020307800255309256320EF
:100120003D000D0A00203078253032780025530933
:100130002563203D004F4253455256455F54583D7C
:10014000253032783A20504F4C535F434E543D2572
:1001500078204152435F434E543D25780D0A0053A9
:1001600054415455530909203D20307825303278C8
:100170002052585F44523D25782054585F44533DE7
:100180002578204D41585F52543D25782052585FC4
:10019000505F4E4F3D25782054585F46554C4C3D9E
:1001A00025780D0A0000010203040511121314152D
:1001B000160A0B0C0D0E0FD501CE01C701BF015061
:1001C000415F48494748004C415F4D45440050411C
:1001D0005F4C4F570050415F4D494E00F101EA011D
:1001E000E2013136206269747300382062697473E9
:1001F0000044697361626C6564000802FE016E521E
:100200004632344C30312B006E524632344C303151
:100210000025021F0217023235304B425053003284
:100220004D42505300314D42505300005EBCE261DC
:100230003FDD83C29C7E20A3FD1F419DC3217FFC27
:10024000A2401E5F01E3BD3E6082DC237D9FC14270
:100250001CFEA0E1BF5D0380DE3C62BEE0025CDF0D
:1002600081633D7C22C09E1D43A1FF4618FAA4274E
:10027000799BC584DA3866E5BB5907DB856739BAEF
:10028000E406581947A5FB7826C49A653BD987042C
:100290005AB8E6A7F91B45C6987A24F8A6441A99D5
:1002A000C7257B3A6486D85B05E7B98CD2306EED02
:1002B000B3510F4E10F2AC2F7193CD114FADF370BF
:1002C0002ECC92D38D6F31B2EC0E50AFF1134DCED8
:1002D00090722C6D33D18F0C52B0EE326C8ED053A5
:1002E0000DEFB1F0AE4C1291CF2D73CA947628ABBE
:1002F000F517490856B4EA6937D58B5709EBB53677
:10030000688AD495CB2977F4AA4816E9B7550B88A3
:10031000D6346A2B7597C94A14F6A8742AC896155C
:100320004BA9F7B6E80A54D7896B350000000800DE
:1003300002010000030407000000000000000001AB
:100340000204081020408001020408102001020469
:10035000081020040404040404040402020202023B
:100360000203030303030300000000230026002907
:100370000000000000250028002B000000000024E1
:100380000027002A00000E07DB10461E6B07112411
:100390001FBECFEFD8E0DEBFCDBF13E0A0E0B1E0DD
:1003A000EEE1FEE402C005900D92A23AB107D9F742
:1003B00026E0A2EAB3E001C01D92A63AB207E1F737
:1003C00013E0CCE8D3E004C02297FE010E947D2414
:1003D000C638D107C9F70E948A1E0C9402270C94D4
:1003E0000000FC01CB01408151816281738122E0D8
:1003F00030E00C94A6200F931F93CF93DF93C2EAB3
:10040000D3E00FEF1FEF6881798177FD08C080EDA1
:1004100093E00E94FC0F811102C019830883229689
:1004200083E0C63BD80779F7DF91CF911F910F91F9
:1004300008950F931F930E94401B0091E1041091B7
:10044000E2042091E3043091E404601B710B820B01
:10045000930B61327E448105910518F182E00E9480
:10046000741C0197E1F481E08093E5040E94401B35
:100470006093E1047093E2048093E3049093E404B6
:1004800086E191E09F938F938FE295E09F938F9306
:100490000E947D0D0F900F900F900F9002C0109250
:1004A000E5041F910F9108950F931F93CF93DF934E
:1004B0001F92CDB7DEB7182F062F99830E943E1CDE
:1004C0001F920F9399819F931F9386E291E09F93D0
:1004D0008F938FE295E09F938F930E94930D0FB6B9
:1004E000F894DEBF0FBECDBF0F90DF91CF911F916B
:1004F0000F910895EF92FF920F931F9381ED94E077
:100500000E94430C60E070E081ED94E00E94EF0BEC
:1005100063E070E081ED94E00E94CC0B4FE06FE06F
:1005200081ED94E00E94930C1092CD0300E010E95D
:1005300020E930E940E950E060E070E081ED94E0CE
:100540000E94200BEE24E39480E9F82E00E92FEFBF
:100550003FEF4FEF5FEF61E081ED94E00E945C0BB5
:10056000EE24EA9420E930E040E050E062E081EDE2
:1005700094E00E945C0B21E233E040E65AEE60E03A
:1005800070E080ED93E00E94DA0E8AE391E09F93A1
:100590008F938FE295E09F938F930E94930D0F901E
:1005A0000F900F900F901F910F91FF90EF90089573
:1005B000CF93DF931F92CDB7DEB781ED94E00E9419
:1005C0000A0A86EB93E00E94DB0D482F86EB93E04E
:1005D00049830E94E70DBC01498181ED94E00E94AE
:1005E000CF0A81ED94E00F90DF91CF910C94D40964
:1005F00086EB93E00E94D50D63E286EB93E00E94C8
:10060000EB0D6AE686EB93E00E94EB0D61E086EB72
:1006100093E00E94EB0D64E286EB93E00E94EB0D09
:100620000E94D8028CE491E09F938F938FE295E033
:100630009F938F930E94930D0F900F900F900F90A8
:1006400008958091CD03811102C00C94F8020895A1
:1006500086EB93E00E94D50D63E286EB93E00E9467
:10066000EB0D64E686EB93E00E94EB0D6AE586EB0A
:1006700093E00E94EB0D61E086EB93E00E94EB0DAE
:100680006CE286EB93E00E94EB0D64E586EB93E071
:100690000E94EB0D20E030E048EC52E46091FE0453
:1006A0007091FF0480910005909101050E94BE2386
:1006B0000E94D72286EB93E00E94FE0D6CE286EB4F
:1006C00093E00E94EB0D68E486EB93E00E94EB0D53
:1006D00020E030E048EC52E46091EC047091ED04CD
:1006E0008091EE049091EF040E94BE230E94D722D5
:1006F00086EB93E00E94FE0D6CE286EB93E00E9495
:10070000EB0D69E486EB93E00E94EB0D6091E6044B
:100710007091E70486EB93E00E94FE0D6CE286EB9D
:1007200093E00E94EB0D6DE486EB93E00E94EB0DED
:100730006091E50486EB93E00E94EB0D6CE286EBA2
:1007400093E00E94EB0D64E286EB93E00C94EB0DDA
:100750000E9428030C94D80281E08093CD0385E6A3
:1007600091E09F938F938FE295E09F938F930E94E8
:100770007D0D0F900F900F900F900895CF93DF9302
:10078000EC018B3091058CF42BEF31E040EE53E916
:1007900064E070E080ED93E00E94E30EFE01EE0F56
:1007A000FF1FEE55FC4F91838083DF91CF91089519
:1007B00082E095E00E9414161092FE041092FF044D
:1007C000109200051092010582E891E09F938F93AB
:1007D0008FE295E09F938F930E94930D0F900F905F
:1007E0000F900F90089580EF94E00E949E18109251
:1007F000EC041092ED041092EE041092EF048AE9DA
:1008000091E09F938F938FE295E09F938F930E9447
:10081000930D0F900F900F900F9008958AEE94E033
:100820000E94701863E28AEE94E00E94FF1760E174
:100830008AEE94E00E9485188FEA91E09F938F934F
:100840008FE295E09F938F930E94930D0F900F90EE
:100850000F900F90089560E082E00E94051C60ED0B
:1008600077E080E090E00E946F1B1092E50429E1A0
:1008700032E044E650E060E070E080ED93E00E94FA
:10088000DA0E87EC91E09F938F938FE295E09F9330
:100890008F930E94930D0F900F900F900F900895DB
:1008A0008AED91E09F938F938FE295E09F938F93D2
:1008B0000E94930D0E94D8030E94F3030E940E042D
:1008C0000E942B042BE035E040E25EE460E070E043
:1008D00080ED93E00E94DA0E9093CF038093CE03D5
:1008E0000F900F900F900F90089582E095E00E9476
:1008F000E61660E082E095E00C94DA1780EF94E071
:100900000C945E198AEE94E00E941718BC0180E0F6
:1009100090E00895CF93DF930E9475046093FE04E6
:100920007093FF0480930005909301050E947E045C
:100930006093EC047093ED048093EE049093EF04C5
:100940000E9482046093E6047093E7048093E804B5
:100950009093E90420E030E048EC52E46091FE041A
:100960007091FF0480910005909101050E94BE23C3
:100970000E94D7227F936F9383EF91E09F938F9391
:10098000CFE2D5E0DF93CF930E94930D20E030E0DB
:1009900048EC52E46091EC047091ED048091EE0417
:1009A0009091EF040E94BE230E94D7227F936F9301
:1009B00084E092E09F938F93DF93CF930E94930DF7
:1009C0008091E9048F938091E8048F938091E704EC
:1009D0008F938091E6048F9382E192E09F938F93AF
:1009E000DF93CF930E94930D8091E5041F928F9324
:1009F00083E292E09F938F93DF93CF930E94930DB6
:100A00008DB79EB74A960FB6F8949EBF0FBE8DBFA6
:100A1000DF91CF910895CF92DF92EF92FF920F93E3
:100A20001F93CF93DF93CDB7DEB7E8970FB6F89457
:100A3000DEBF0FBECDBF0E948A04CE0109969C8303
:100A40008B8386E090E09E838D8318861F8287E4E7
:100A500093E09A83898300912305109124056FE226
:100A600072E0CE0101960E94AD1A2EE03AE1FC013F
:100A70003583248311830083C090FE04D090FF044B
:100A8000E0900005F090010562E372E0CE0101966E
:100A90000E94AD1A01EF11E0FC0115830483C082AE
:100AA000D182E282F382C090EC04D090ED04E09019
:100AB000EE04F090EF046EE372E0CE0101960E9426
:100AC000AD1AFC0115830483C082D182E282F382D5
:100AD000C090E604D090E704E090E804F090E904C8
:100AE00067E472E0CE0101960E94AD1A2CEE3AE165
:100AF000FC0135832483C082D182E282F38210918B
:100B0000E50463E572E0CE0101960E94AD1A20EE85
:100B10003AE1FC0135832483108363E284E096E0AC
:100B20000E94D91EBE016F5F7F4F84E096E00E9455
:100B3000E01E64E284E096E00E94FE1EE8960FB696
:100B4000F894DEBF0FBECDBFDF91CF911F910F9103
:100B5000FF90EF90DF90CF90089561E085E00E94D4
:100B60003E1C8AE592E09F938F938FE295E09F93DE
:100B70008F930E94930D0F900F900F900F900895F8
:100B800060E085E00E943E1C85E692E09F938F9393
:100B90008FE295E09F938F930E94930D0F900F909B
:100BA0000F900F90089561E085E00E94051C0E945F
:100BB000C00581E792E09F938F938FE295E09F932A
:100BC0008F930E94930D0F900F900F900F900895A8
:100BD00061E08FE00E94051C60E08FE090E00E94E1
:100BE000540261E080E10E94051C60E080E190E039
:100BF0000C94540220E031EE40E050E063E070E0FD
:100C00008FE295E00E949C0CE3E2F5E081818F93F6
:100C100080818F9384E892E09F938F938FE295E099
:100C20009F938F930E947D0D0E9450040E94D305D4
:100C30000E947A020F900F900F900F900F900F90DC
:100C40000C94E8059C012F5031092230310510F435
:100C50000C9454020895AF92BF92CF92DF92EF921C
:100C6000FF920F931F93CF93DF931F92CDB7DEB701
:100C70008EEB93E00E94160E282F332727FD309528
:100C80003F938F932AE932E03F932F932FE235E091
:100C90003F932F9389830E94930D0F900F900F9095
:100CA0000F900F900F908981833209F088C08EEBEE
:100CB00093E00E94160E282F3AE9E32E32E0F32E3D
:100CC0004FE2A42E45E0B42E57EAC52E52E0D52EB1
:100CD000243209F474C08EEB93E029830E94DF0D67
:100CE0002981181619060CF06AC0022F112707FD7A
:100CF00010951F932F93FF92EF92BF92AF9229838B
:100D00000E94930D0F900F900F900F900F900F90E7
:100D100029812C3499F48EEB93E00E94160E61E049
:100D200007C02C36D9F48EEB93E00E94160E60E0DB
:100D3000992787FD90950E94220606C02D3438F52C
:100D4000223441F40E94AD058EEB93E00E94160E12
:100D5000282FBECF233488F42C32B1F31F930F9386
:100D6000DF92CF92BF92AF920E945B0D0F900F90D7
:100D70000F900F900F900F90E7CF243419F40E943A
:100D8000A803E2CF2A3451F70E94AC03DDCF24360A
:100D9000D9F250F4223519F41092CD03D5CF223672
:100DA000E9F60E94C005D0CF2A3609F0BACF8EEB03
:100DB00093E00E94160E90E00E94BE03C5CF0F90F4
:100DC000DF91CF911F910F91FF90EF90DF90CF9027
:100DD000BF90AF9008958EEB93E00E94E70D40E244
:100DE000BC0181ED94E00E94A00A0C942B0681EDD9
:100DF00094E00E949C0A882381F087EC92E09F9304
:100E00008F938FE295E09F938F930E947D0D0F90BB
:100E10000F900F900F900C94EB060895CF93DF93F3
:100E200000D000D000D0CDB7DEB768ED72E089E227
:100E300095E00E94162169E275E0CE0101960E94BC
:100E4000432161E070E0CE0101960E94E521BC01E2
:100E500083E295E00E944321CE0101960E94A820E2
:100E600067E085E195E00E94231465E175E082E08A
:100E700095E00E94EB1426E04BE068E080EF94E000
:100E80000E9497188AEE94E00E94FE174AE069E0FB
:100E900081ED94E00E94BA0980ED93E00E942A0E51
:100EA00066EC71E087EC93E00E94162160E270E04E
:100EB0008EEB93E00E94BF0D60E270E086EB93E062
:100EC0000E94BF0D26960FB6F894DEBF0FBECDBFB1
:100ED000DF91CF91089587EC93E00E94A82083E2F0
:100EE00095E00E94A82089E295E00C94A820CF9379
:100EF000DF9384E096E00E949D1C892B09F498C042
:100F000084E096E00E94B81C9091C6038332D1F42D
:100F100091116AC081E08093C6036FED72E087ECA7
:100F200093E00E944C2181EE92E09F938F938FE299
:100F300095E09F938F930E94930D0F900F900F90C9
:100F40000F9076C0843209F04FC0992309F470C025
:100F50001092C6036AEF72E087EC93E00E94902142
:100F60008091CC038F938091CB038F938CEF92E091
:100F70009F938F93CFE2D5E0DF93CF930E947D0DB7
:100F80008091C8038F938091C7038F9382E293E08F
:100F90009F938F93DF93CF930E94930D8EEB93E0FB
:100FA0000E94D50D8DB79EB70C960FB6F8949EBFD4
:100FB0000FBE8DBFC0E0D0E08091CB039091CC03F9
:100FC000C817D90768F4BE0187EC93E00E94F321AB
:100FD000FC0160818EEB93E00E94EB0D2196ECCF3B
:100FE000DF91CF910C942B06992311F12091CB0323
:100FF0003091CC032F313105D8F4682F87EC93E082
:101000000E94A0218091CC038F938091CB038F937A
:1010100080E393E09F938F938FE295E09F938F936C
:101020000E94930D0F900F900F900F900F900F90C4
:10103000DF91CF91089580ED93E00E94230F0E94ED
:1010400077070C94F7068EBD00000DB407FEFDCFA8
:101050008EB508952CB52F7D2CBD2CB5237F2CBDCE
:101060002CB52C7F2CBD2DB52E7F2DBDFC01818193
:101070000C943E1CFC0180810C943E1CCF92DF92AC
:10108000EF92FF920F931F93CF93DF9300D0CDB7D2
:10109000DEB78C01E62EF22E60E070E049835A83C1
:1010A0000E942A088E2D8F710E942308E82E498104
:1010B000C42E5A81D52EF40EFC1439F08FEF0E9405
:1010C0002308F60181936F01F7CF61E070E0C8015A
:1010D0000E942A088E2D0F900F90DF91CF911F91C3
:1010E0000F91FF90EF90DF90CF9008951F93CF93D3
:1010F000DF93EC01162F60E070E00E942A08812F38
:101100008F710E9423088FEF0E942308182F61E03F
:1011100070E0CE010E942A08812FDF91CF911F91AC
:101120000895CF92DF92EF92FF920F931F93CF9388
:10113000DF9300D0CDB7DEB78C01E62EF22E60E053
:1011400070E049835A830E942A088E2D8F71806235
:101150000E942308E82E4981C42E5A81D52EF40E10
:10116000FC1431F0F60181916F010E942308F8CF41
:1011700061E070E0C8010E942A088E2D0F900F9048
:10118000DF91CF911F910F91FF90EF90DF90CF9063
:101190000895EF92FF921F93CF93DF931F92CDB7E5
:1011A000DEB77C01162F60E070E049830E942A08B8
:1011B000812F8F7180620E942308182F4981842F0C
:1011C0000E94230861E070E0C7010E942A08812F75
:1011D0000F90DF91CF911F91FF90EF900895BF92F4
:1011E000CF92DF92EF92FF920F931F93CF93DF93F3
:1011F0008C01D62EB72EFC01C481F42EC41708F43E
:10120000FC2EF8018681811103C0EC2EEF1801C07D
:10121000E12C60E070E0C8010E942A0880EA0E9488
:101220002308C82ECD2DDB2DFD0CFC1621F0899155
:101230000E942308FACFCE2DCC2329F080E00E9413
:101240002308C150F9CF61E070E0C8010E942A086C
:101250008C2DDF91CF911F910F91FF90EF90DF9038
:10126000CF90BF900895BF92CF92DF92EF92FF92FE
:101270000F931F93CF93DF938C01D62EB72EFC01D3
:10128000C481F42EC41708F4FC2EF8018681811164
:1012900003C0EC2EEF1801C0E12C60E070E0C80143
:1012A0000E942A0881E60E942308C82ECD2DDB2D3E
:1012B000FD0CFC1629F08FEF0E9423088993F9CFCB
:1012C000CE2DCC2329F08FEF0E942308C150F9CFF7
:1012D00061E070E0C8010E942A088C2DDF91CF9157
:1012E0001F910F91FF90EF90DF90CF90BF900895E6
:1012F0001F93CF93DF93EC0160E070E00E942A0817
:1013000082EE0E942308182F61E070E0CE010E9457
:101310002A08812FDF91CF911F9108951F93CF93BA
:10132000DF93EC0160E070E00E942A0881EE0E94E9
:101330002308182F61E070E0CE010E942A08812F57
:10134000DF91CF911F9108951F93CF93DF93EC010D
:1013500060E070E00E942A088FEF0E942308182F97
:1013600061E070E0CE010E942A08812FDF91CF91C9
:101370001F910895FC016083418381E08283138281
:1013800080E2848315821682108611861286138667
:1013900014861586168617860895462F603808F03D
:1013A0004FE765E00C94C908CF93DF93EC0160E050
:1013B0000E947608482F436060E0CE010E94C90871
:1013C00040E767E0CE010E94C908288539854A8533
:1013D0005B856C857D858E859F85A0E00E945B2462
:1013E00041F025E0AE01485F5F4F6AE0CE010E9408
:1013F0009108CE010E947809CE010E948E0961E019
:1014000070E0CE010E943A0882E890E0DF91CF912F
:101410000C94971BCF93DF93EC0160E070E00E9487
:101420003A08CE010E948E09CE01DF91CF910C9433
:101430007809CF93DF93EC0160E00E947608482F93
:101440004D7F60E0CE01DF91CF910C94C908FF92EF
:101450000F931F93CF93DF93EC018B01F42E60E089
:101460000E947608482F4C7F426060E0CE010E94C7
:10147000C90886E990E00E94971B4F2DB801CE0164
:101480000E94EF0861E070E0CE010E943A088FE010
:1014900090E00E94971B60E070E0CE01DF91CF9159
:1014A0001F910F91FF900C943A081F93CF93DF93F5
:1014B000EC0160E070E00E942A0880E60E942308A8
:1014C0008FEF0E942308182F61E070E0CE010E9488
:1014D0002A08812FDF91CF911F910895EF92FF92FB
:1014E0000F931F93CF93DF93EC018B010E94A4090C
:1014F000F82E86FBEE24E0F886FF16C001151105D4
:1015000039F0282F30E0359527952770F801208392
:1015100040E467E0CE010E94C908F5FE05C040E244
:1015200067E0CE010E94C9088E2DDF91CF911F91F7
:101530000F91FF90EF90089560E070E00C946E0AB8
:10154000CF93DF93EC010E94330967E1CE010E9443
:1015500076088170DF91CF910895EF92FF920F93FB
:101560001F93CF93DF93EB018A01790140E767E096
:101570000E94C90885FB992790F9988384FB9927D5
:1015800090F9F801908386FB882780F9F701808322
:10159000DF91CF911F910F91FF90EF900895CF921F
:1015A000DF92EF92FF920F931F93CF93DF9300D0C0
:1015B0001F92CDB7DEB78C010E94270A0E94401B04
:1015C0006B017C0121E0AE014D5F5F4F68E0C80117
:1015D0000E943E08807359F40E94401B6C197D09DB
:1015E0008E099F09643F71408105910558F3980168
:1015F0002B5F3F4FAE014F5F5F4FBE016E5F7F4F6E
:10160000C8010E94AD0AFA80F8018581882329F07B
:10161000C8010E94550AF8018783C8010E94190A6F
:10162000C8010E948E098F2D0F900F900F90DF91AF
:10163000CF911F910F91FF90EF90DF90CF90089581
:10164000EF92FF920F931F93CF93DF93CDB7DEB747
:1016500028970FB6F894DEBF0FBECDBF7C0109837B
:101660001A832B833C834D835E836F83788725E0C9
:10167000AE014F5F5F4F6AE00E94910825E0AE0126
:101680004F5F5F4F60E1C7010E949108F7014481FD
:10169000413208F040E261E1C7010E94C908289682
:1016A0000FB6F894DEBF0FBECDBFDF91CF911F9173
:1016B0000F91FF90EF900895BF92CF92DF92EF923B
:1016C000FF920F931F93CF93DF93CDB7DEB7289789
:1016D0000FB6F894DEBF0FBECDBF6C01B62EE98207
:1016E000FA820B831C832D833E834F8358876111BD
:1016F0000AC0F601E086F1860287138724873587C2
:101700004687578707C0F6E0F61708F435C081E032
:10171000681307C0EB2DF0E0EF54FE4F649125E015
:1017200006C0E62FF0E0EF54FE4F649121E0AE01D9
:101730004F5F5F4FC6010E9491080B2D10E0F8012A
:10174000E555FE4F6491F6014481C6010E94C90827
:1017500062E0C6010E947608F801EB55FE4F049145
:1017600021E030E001C0220F0A95EAF7822B482FD2
:1017700062E0C6010E94C90828960FB6F894DEBF41
:101780000FBECDBFDF91CF911F910F91FF90EF90D2
:10179000DF90CF90BF9008950F931F93CF93DF9367
:1017A0008C01EB0166E00E947608482F497FC33028
:1017B000D10561F0C230D10511F4446008C0C130D8
:1017C000D10511F4426003C0249709F4466066E035
:1017D000C801DF91CF911F910F910C94C908EF922E
:1017E000FF920F931F93CF93DF931F92CDB7DEB776
:1017F0007C018B0166E00E947608F7011282282F97
:10180000277D0230110511F4206207C00130110557
:1018100021F481E0F70182832860422F66E0C7014E
:1018200029830E94C90866E0C7010E9476082981C1
:10183000821721F0F701128280E001C081E00F9051
:10184000DF91CF911F910F91FF90EF9008950F932B
:101850001F93CF93DF93EC018B0160E00E94760829
:10186000482F437F0115110531F00130110511F4A6
:10187000486001C04C6060E0CE01DF91CF911F91C4
:101880000F910C94C908CF93DF93EC0161E088813C
:101890000E94051C61E089810E94051C0E94A90D1F
:1018A00060E070E0CE010E943A0861E070E0CE0195
:1018B0000E942A0865E070E080E090E00E946F1BC3
:1018C0004FE464E0CE010E94C90863E070E0CE01FD
:1018D0000E94CC0B62E070E0CE010E94EF0B8823E7
:1018E00011F081E08B8360E070E0CE010E94EF0B8D
:1018F00062E070E0CE010E94270C40E06CE1CE0176
:101900000E94C90840E767E0CE010E94C9086CE464
:10191000CE010E94CD09CE010E947809CE01DF914F
:10192000CF910C948E0920E1629FB00111244F7079
:10193000462B64E00C94C908FB01BA01A9019F0180
:10194000E530F10514F024E030E037FF02C020E07C
:1019500030E0FC01318320834283538364837583A9
:1019600026E084E096E00C94821DEF92FF920F93A4
:101970001F93CF93DF938B01EA01F80180818823C5
:1019800009F492C0853209F084C078018FEFE81A1B
:10199000F80AF8018181882309F486C0853231F480
:1019A00065E284E096E00E94D91E7AC0833731F464
:1019B0008E010E5F1F4F6881798153C0843611F00C
:1019C000893669F48E010E5F1F4F688179814AE084
:1019D00050E084E096E00E94B31FE80161C08837C0
:1019E00041F0883571F469E473E084E096E00E9488
:1019F000D71E8E010E5F1F4F6881798140E150E054
:101A0000E8CF823641F0823471F46CE473E084E014
:101A100096E00E94D71E8E010E5F1F4F688179816C
:101A200042E050E0D6CF8C3671F48E010C5F1F4F30
:101A3000488159816A817B812AE030E084E096E028
:101A40000E94691FCACF833609F4BCCF843789F45A
:101A50008E010E5F1F4F88819981019739F46FE4E1
:101A600073E084E096E00E94D71EB7CF61E573E093
:101A7000F8CF843569F48E010E5F1F4F88819981FC
:101A8000019719F463E573E0ECCF68E573E0E9CF03
:101A90008701F801608184E096E00E94D91E7801F8
:101AA00087010F5F1F4F69CFDF91CF911F910F917A
:101AB000FF90EF9008950F931F93CF93DF93CDB7CF
:101AC000DEB70F811885F8018081918118161906FB
:101AD0007CF440E050E06EE573E0C8010E94B50C74
:101AE000AE01455F5F4F69857A85C8010E94B50CDC
:101AF000DF91CF911F910F910895CF93DF93CDB7D1
:101B0000DEB78D819E81FC0120813181223031053B
:101B10003CF0AE01475F5F4F6F8178850E94B50C46
:101B2000DF91CF910895CF93DF93CDB7DEB78D814D
:101B30009E81FC0120813181233031053CF0AE01D2
:101B4000475F5F4F6F8178850E94B50CDF91CF9121
:101B5000089561E08AE00E943E1C61E08AE00E94F4
:101B6000051C8CB580618CBD8CB580648CBD61E03A
:101B70008DE00E94051C61E08BE00C94051C0F9326
:101B80001F93CF93DF93EC018B01CB010E94812443
:101B9000998388831F830E831B821A821D821C8275
:101BA000DF91CF911F910F910895FC011382128252
:101BB000158214820895FC01828193810895FC01AD
:101BC0008281938124813581821B930B0895FC01CE
:101BD000808191810895FC018281938126813781E2
:101BE0008217930754F4A081B181A80FB91F6C9399
:101BF0008281938101969383828308950F931F932B
:101C0000CF93DF9300D0CDB7DEB78C017A836983A1
:101C1000C8010E94EB0D6A81C8010E94EB0D0F9074
:101C20000F90DF91CF911F910F910895FC012481B6
:101C30003581828193812817390754F4A081B181BD
:101C4000A20FB31F8C912F5F3F4F358324830895DC
:101C500080E008950F931F93CF93DF93EC010E94D0
:101C6000401BFE018E0120E030E0AE01420F531F09
:101C70004E525F4FDA011C9215AE14AED8016D932F
:101C80007D938D939D938D01AF014C545F4FDA018D
:101C90001D921C922F5F3F4F32962F30310529F74E
:101CA000C150DF4F19821882DF91CF911F910F91A0
:101CB0000895FC01E150FF4F208131812F30310523
:101CC00084F4FC0120E030E084AD95AD892B39F03F
:101CD0002F5F3F4F32962F303105B1F702C0C90157
:101CE00008958FEF9FEF08958F929F92AF92BF92CA
:101CF000CF92DF92EF92FF920F931F93CF93DF93D8
:101D000000D000D0CDB7DEB77C01590149835A839A
:101D10006B837C830E94590E4C0149815A816B81EF
:101D20007C8197FD34C0A114B10489F16C01CC0C05
:101D3000DD1CCC0CDD1CCE0CDF1CF601E65AFF4F7F
:101D40004083518362837383F401EE0FFF1FEE0D16
:101D5000FF1DB5AEA4AEEA56FF4F11830083F70115
:101D6000E80DF91DEE52FF4F81E080830E94401B79
:101D7000F6016083718382839383F701E150FF4F03
:101D800080819181019691838083C40102C08FEF8D
:101D90009FEF0F900F900F900F90DF91CF911F91B9
:101DA0000F91FF90EF90DF90CF90BF90AF909F90FA
:101DB0008F9008950F931F9300E010E00E94740E1F
:101DC0001F910F9108950F931F9301E010E00E945F
:101DD000740E1F910F910895CF93DF936F307105AB
:101DE0007CF5DC01A150BF4F2D913C91119721153D
:101DF000310531F1FB01EE0FFF1FE80FF91F44AD74
:101E000055AD452BE9F015AE14AEEC01C60FD71F4A
:101E1000CE52DF4F1882660F771F660F771F680F4D
:101E2000791FEB01C65ADF4F188219821A821B8272
:101E3000EC54FF4F11821082215031092D933C93B5
:101E4000DF91CF9108952F923F924F925F926F92C0
:101E50007F928F929F92AF92BF92CF92DF92EF923A
:101E6000FF920F931F93CF93DF9300D000D000D049
:101E7000CDB7DEB79E838D830E94401B2D813E81AE
:101E80003C832B83F9011A82198222242394312C5A
:101E90009F012F513F4FD9011D921C9244AD55AD6A
:101EA000452B09F458C0AB81BC81CD90DD90ED90FD
:101EB000FC901397AD01465A5F4FDA018D909D90CB
:101EC000AD90BC902B013C014C185D086E087F085A
:101ED000481459046A047B04F0F1C80CD91CEA1CAC
:101EE000FB1CAB81BC81CD92DD92ED92FC921397ED
:101EF00049815A81AD81BE814A0F5B1F4E525F4FAF
:101F0000DA014C91442339F1AF014A565F4FDA01AF
:101F10004D915C914115510521F4D9012D923C92CE
:101F20001AC07F01B4EBEB0EF11CD7010D911C918F
:101F30000417150784F4D9012D923C920F5F1F4FAF
:101F4000D7010D931C93041715072CF042E050E0C5
:101F5000D9014D935C93A981BA811196BA83A98363
:101F600032962B813C812C5F3F4F3C832B831F9704
:101F700009F08ECF0D811E81E12CF12CF801EF517B
:101F8000FF4F808191818130910571F0029791F42A
:101F9000D801DC96ED91FC91DD970995B7018D8113
:101FA0009E810E94EC0E06C0D801DC96ED91FC915A
:101FB000DD970995BFEFEB1AFB0A0E5F1F4F2FE06D
:101FC000E216F104D9F626960FB6F894DEBF0FBEDE
:101FD000CDBFDF91CF911F910F91FF90EF90DF90D8
:101FE000CF90BF90AF909F908F907F906F905F90B9
:101FF0004F903F902F9008956F3071053CF4680F1B
:10200000791FFB01EE52FF4F8081089580E0089513
:102010008091650590E020916605821B91090895E5
:102020002091660580916505281750F4E22FF0E0B5
:10203000E959FA4F808190E02F5F2093660508955B
:102040008FEF9FEF0895E091660580916505E81791
:1020500030F4F0E0E959FA4F808190E008958FEF75
:102060009FEF08950895CF92DF92EF92FF920F9322
:102070001F93CF93DF937C01CB018A01209141050F
:10208000222389F0EB016B01C40ED51ECC15DD05B2
:1020900069F06991D701ED91FC910190F081E02DFB
:1020A000C7010995F3CF642F0E949411C801DF91F5
:1020B000CF911F910F91FF90EF90DF90CF900895F7
:1020C000CF93DF931F92CDB7DEB76983209141058F
:1020D0002223D1F020914205203240F021E030E06F
:1020E000FC013383228380E090E015C0809143059A
:1020F000E82FF0E0EC5BFA4F998190838F5F80933B
:1021000043058093420505C061E0CE0101960E941F
:10211000941181E090E00F90DF91CF910895FC0140
:102120001382128248EE53E060E070E044835583EE
:10213000668377838AE693E0918380830895109283
:1021400066051092650510924305109242050C94A5
:10215000DF10862F413208F040E267E675E00E940A
:10216000FD101092660580936505089521E00C949A
:10217000A91081E0809341056093640510924305A6
:102180001092420508950C94B9100F93062F21E088
:102190004091420564E475E0809164050E9441111C
:1021A0001092430510924205109241050F91089537
:1021B00061E00C94C51085E395E00C948F101092AB
:1021C000F40581E08093F2051092F10561E082E16F
:1021D0000E943E1C61E083E10E943E1CE9EBF0E0BE
:1021E00080818E7F808380818D7F808388E480934F
:1021F000B80085E48093BC000895413208F03FC0E8
:102200009091F4059111FCCF91E09093F405209307
:10221000F2052FEF209387051092CC05240F209311
:10222000CB059093F3059091F305880F892B80934C
:10223000F3058091F105813041F41092F105809110
:10224000F3058093BB0085EC01C085EE8093BC0054
:102250008091F4058130E1F38091CC05841710F46E
:102260004091CC052DEC35E0FB01D9018A2F821B72
:10227000841718F48D918193F9CF842F089580E00D
:1022800008950F93413208F046C09091F4059111E2
:10229000FCCF92E09093F4050093F2059FEF9093AA
:1022A00087051092CC054093CB05FB016DEC75E0E2
:1022B000DB019A2F961B941718F491919D93F9CFF7
:1022C0001092F3059091F305880F892B8093F30505
:1022D0008091F105813041F41092F1058091F30570
:1022E0008093BB0085EC01C085EE8093BC00222367
:1022F00021F08091F4058230E1F3809187058F3FD2
:1023000061F080918705803251F08091870580339C
:1023100041F483E007C081E005C080E003C082E0B3
:1023200001C084E00F910895613298F42091F40582
:10233000243089F46093A905FC018BEA95E0DC0167
:102340002A2F281B261718F421912D93F9CF80E00E
:10235000089581E0089582E0089585ED8093BC00A2
:102360008091BC0084FDFCCF1092F405089585ECAB
:102370008093BC001092F40508951F920F920FB63F
:102380000F9211242F933F934F935F936F937F93FB
:102390008F939F93AF93BF93EF93FF938091B90077
:1023A000887F803609F49CC068F5883209F45BC0E8
:1023B00090F4803109F454C038F4882309F4F5C04E
:1023C000883009F44DC0F5C0883109F44CC0803222
:1023D00009F45DC0EEC0803409F468C048F480336D
:1023E00009F455C0883309F0E4C080938705A8C07C
:1023F000803509F44FC0883509F45DC0883409F090
:10240000D8C0D5C0883909F4C6C0A8F4883709F403
:1024100067C038F4883609F463C0803709F460C0B7
:10242000C8C0883809F4B7C0803909F45FC0803863
:1024300009F0BFC05BC0803B09F485C038F4803A26
:1024400009F466C0883A09F47EC0B3C0803C09F440
:10245000A6C0883C09F4A3C0883B09F489C0A9C080
:102460008091F30510C09091CC058091CB05981711
:1024700070F5E091CC0581E08E0F8093CC05F0E003
:10248000E353FA4F80818093BB0085EC85C0809335
:1024900087058DC0E091CC0581E08E0F8093CC053F
:1024A0008091BB00F0E0E353FA4F80839091CC051C
:1024B0008091CB056DC0E091CC0581E08E0F8093BB
:1024C000CC058091BB00F0E0E353FA4F808380910C
:1024D000F20581116CC081E08093F10584EA60C04F
:1024E00083E08093F40510928805CFCF8091880512
:1024F000803208F050C0E091880581E08E0F809313
:1025000088058091BB00F0E0E757FA4F8083BDCF8C
:1025100080918805803230F4E0918805F0E0E7573B
:10252000FA4F10820E94AD116091880570E0E09131
:10253000ED05F091EE0589E895E009951092880582
:102540000E94B71136C084E08093F4051092AA056A
:102550001092A905E091EF05F091F00509958091A1
:10256000A905811105C081E08093A9051092AB05F2
:10257000E091AA0581E08E0F8093AA05F0E0E55571
:10258000FA4F80818093BB009091AA058091A905A4
:10259000981708F47ACF85E88093BC000AC085ECD0
:1025A0008093BC001092F40504C0109287050E942D
:1025B000AD11FF91EF91BF91AF919F918F917F915D
:1025C0006F915F914F913F912F910F900FBE0F90A0
:1025D0001F901895FF920F931F93CF93DF93FC01E9
:1025E0000081C181D281F8948981F02EF0948F21ED
:1025F000898378941DE7115029F182E090E00E94D0
:10260000971B88818023B9F3F8948A818F218A836C
:102610008981802B8983789480EE91E00E94971BBA
:10262000F89489818F21898386E490E00E94971B2A
:102630008881802311E009F010E078948AE991E024
:102640000E94971B812FDF91CF911F910F91FF90D7
:1026500008951F93CF93DF93FC011081C181D28134
:10266000912F909560FF12C0F8948A8189238A8304
:102670008981812B89838AE090E00E94971B8A815F
:10268000812B8A83789487E390E011C0F8948A8143
:1026900089238A838981812B898381E490E00E9448
:1026A000971B8A81812B8A83789485E090E0DF9163
:1026B000CF911F910C94971B0F931F93CF93DF9390
:1026C000FC011081C181D281F8948981812B898399
:1026D0008A81012F009580238A8383E090E00E9405
:1026E000971B8981802389838AE090E00E94971B51
:1026F000C881789485E390E00E94971B1C2381E0B9
:1027000009F480E0DF91CF911F910F910895CF924E
:10271000DF92EF92FF920F931F93CF93DF931F925D
:10272000CDB7DEB76C01E62E08E010E0FF24F3948D
:1027300061E09F2D9E2109F460E0C60149830E945B
:102740002913FF0C0150110949810115110581F769
:10275000411115C0F894D6011196ED91FC91129794
:1027600091818C918095892381831196ED91FC91C3
:10277000129792818C9180958923828378940F900F
:10278000DF91CF911F910F91FF90EF90DF90CF904D
:102790000895EF92FF920F931F93CF93DF938C01D5
:1027A000C8E0D0E0F12CEE24E394C8010E945C1351
:1027B0008111FE28EE0C2197C1F78F2DDF91CF916B
:1027C0001F910F91FF90EF900895CF92DF92FF92AB
:1027D0000F931F93CF93DF931F92CDB7DEB78C017A
:1027E000F62E40E065E579830E948713CF2C79812E
:1027F000D72E88E0F82EF60161916F0140E0C80104
:102800000E948713FA94B9F70F90DF91CF911F912F
:102810000F91FF90DF90CF90089540E06CEC0C9406
:102820008713FC0113861586148627E030E0DF014C
:10283000A20FB31F13961C922115310519F02150D8
:102840003109F5CF08951F93CF93DF93EC01162F35
:1028500060E0812F0E94051C612F70E0FB01E15CAC
:10286000FC4FE491E883FB01ED5AFC4FE491F0E06A
:10287000EE0FFF1FE959FC4F859194919A8389834C
:10288000CE01DF91CF911F910C941114AF92BF92A2
:10289000CF92DF92EF92FF920F931F93CF93DF932C
:1028A0001F92CDB7DEB75C01E62ED72EFC018585E1
:1028B00081115DC0C5010E94EA12811105C0F501B8
:1028C0001386158614866EC040E060EFC5010E9435
:1028D000871301E0F12CC12C11E0C5010E945C13AB
:1028E000682FC50169830E945C136981613019F406
:1028F0008130B9F433C02F2D30E068131BC0F501CF
:102900008385181730F4E20FF31F8381802349F485
:1029100002C0181731F060E0193058F4F50114873F
:1029200008C0F501EF0DF11D8381802B838361E0E9
:1029300009C0C12EF501E20FF31F8381902F9095FE
:1029400089238383C5010E9429131F5F000F11F49F
:10295000F39401E0F7E0FF1508F0BFCF113438F031
:10296000F501C386C11018C081E0858715C0F50147
:1029700013861586148680E0EE2DFD2D20E030E0D4
:10298000D501A20FB31F13969C9191932F5F3F4FD8
:1029900028303105A9F706C0F5018381882339F372
:1029A00081E0EACF0F90DF91CF911F910F91FF90BF
:1029B000EF90DF90CF90BF90AF900895DC0180E062
:1029C000615038F0ED91E827F0E0E55DFD4F84912E
:1029D000F7CF08950895FC018AEE94E1928B818BE4
:1029E000768365831482108289E0818381E082830B
:1029F00083830895CF93DF93EB0167E0CE010E94BC
:102A0000DE1491E02F81821390E0892FDF91CF9126
:102A10000895EF92FF920F931F93CF93DF93EC01F2
:102A20008B01E42E8D819E810E941114F12CB8013E
:102A30008D819E810E944614882359F0FE1006C0A5
:102A4000B801CE010E94FA14811104C0F394EF146E
:102A500070F780E0DF91CF911F910F91FF90EF9081
:102A60000895EF92FF920F931F93CF93DF9300D0BF
:102A7000CDB7DEB77C018A01FC018581968169832F
:102A80007A830E94EA1269817A81F70185819681B1
:102A90000E94E51340E06EEBF701858196810E946C
:102AA0008713F701858196810E94C913F8018083FD
:102AB000F701858196810E94C913F8018183F7018E
:102AC000858196810E94C913F8018283F70185816F
:102AD00096810E94C913F8018383F701858196814D
:102AE0000E94C913F8018483F701858196810E94B1
:102AF000C913F8018583F701858196810E94C91366
:102B0000F8018683F701858196810E94C913F80137
:102B10008783F701858196810E94C913F801808718
:102B2000F701858196810F900F90DF91CF911F91D2
:102B30000F91FF90EF900C94EA12CF93DF93EA018C
:102B40000E94311568E0CE010E94DE1491E02885D4
:102B5000821390E0892FDF91CF910895EF92FF9239
:102B60001F93CF93DF9300D0CDB7DEB77C01FC017C
:102B70008581968169837A830E94EA1269817A81CC
:102B8000F701858196810E94E51340E064EBF7012F
:102B9000858196810E948713F701858196810E9425
:102BA0005C13182FF701858196810E94EA1281E05B
:102BB000111180E00F900F90DF91CF911F91FF9046
:102BC000EF900895CF93DF93CDB7DEB729970FB677
:102BD000F894DEBF0FBECDBFFB0120812031D1F0C4
:102BE000AE014F5F5F4F0E949D15882379F08D8164
:102BF0008F3351F018F48F3169F008C08F3541F0F0
:102C00008F3721F48CE007C08AE005C080E003C064
:102C10008BE001C089E029960FB6F894DEBF0FBEA5
:102C2000CDBFDF91CF910895EF92FF920F931F9345
:102C3000CF93DF93CDB7DEB761970FB6F894DEBFC1
:102C40000FBECDBF8C01FC01858196810E941114BD
:102C5000F8011482FF24F394BE01665F7F4FF801F0
:102C6000858196810E9446148823C9F1BE01665F62
:102C70007F4FC8010E94FA14882371F3F801808104
:102C8000811108C0BE01665F7F4FC8010E94AE156A
:102C9000811122C0AE014F5F5F4FBE01665F7F4F63
:102CA000C8010E943115F801E180BE01665F7F4FC7
:102CB000C8010E94E2158E1518F4F801818106C042
:102CC000BE01665F7F4FC8010E94E215F801818353
:102CD00084818F5F8483C0CFF801F082DBCF61965F
:102CE0000FB6F894DEBF0FBECDBFDF91CF911F911D
:102CF0000F91FF90EF900895CF93DF93CDB7DEB79C
:102D000029970FB6F894DEBF0FBECDBFAE014F5F5F
:102D10005F4F0E94311581E09981911101C080E0DF
:102D200029960FB6F894DEBF0FBECDBFDF91CF91CD
:102D30000895CF92DF92EF92FF920F931F93CF935C
:102D4000DF93EC018B01452BE1F08B818823C9F0E7
:102D50008881811116C00E94401B6B017C0160E0DC
:102D600070E0CE010E947C1681110BC00E94401BB6
:102D70006C197D098E099F096E3E7240810591058F
:102D800070F3F80180818A3049F08B3061F089302E
:102D900079F46EE570E080E090E00EC06CEB70E0DE
:102DA00080E090E009C067E771E080E090E004C057
:102DB0006EEE72E080E090E0DF91CF911F910F9175
:102DC000FF90EF90DF90CF900C946F1BCF93DF9329
:102DD000EC018D819E810E94EA128D819E810E946C
:102DE0000D14488164E48D819E810E9487138A813D
:102DF000882351F0BE016F5F7F4F40E050E0CE016D
:102E0000DF91CF910C949916DF91CF9108958F9215
:102E10009F92AF92BF92CF92DF92EF92FF921F9359
:102E2000CF93DF93FB01EA01698170E0762F66277B
:102E30008881682B80818232B1F18832A1F18031A2
:102E400009F078C01F8175956795882777FD809573
:102E5000982F0E940A2320E030E040E85EE30E94C1
:102E600006226B017C01612F70E08E81681B710965
:102E7000882777FD8095982F0E940A234B015C01DB
:102E8000612F70E080E090E00E9408239B01AC017C
:102E9000C501B4010E946F229B01AC01C701B601BC
:102EA0000E94072243C08C818F3381F198F48F31C7
:102EB00009F040C093E0759567959A95E1F78827EA
:102EC00077FD8095982F0E940A2320E030E040E0B3
:102ED0005FE32AC08F3569F08F3761F5882777FD6A
:102EE0008095982F0E940A2320E030E040E85DE3BF
:102EF0001BC075956795882777FD8095982F0E9450
:102F00000A2320E030E040E05EE30EC0759567954F
:102F100075956795882777FD8095982F0E940A23DD
:102F200020E030E040E85EE30E94BE23562F472FAA
:102F3000382F292F652F742F832F922FDF91CF9158
:102F40001F91FF90EF90DF90CF90BF90AF909F9038
:102F50008F900895EF92FF920F931F93CF93DF937B
:102F6000CDB7DEB729970FB6F894DEBF0FBECDBF41
:102F70008C017B01AE014F5F5F4F0E949D1588233E
:102F800041F0AE014F5F5F4FB701C8010E940717C4
:102F900004C060E070E08EEF92EC29960FB6F894D2
:102FA000DEBF0FBECDBFDF91CF911F910F91FF907C
:102FB000EF9008950F931F93CF93DF93CDB7DEB7B4
:102FC00028970FB6F894DEBF0FBECDBF8C01462FF9
:102FD000BE016F5F7F4F0E940915BE016F5F7F4F7B
:102FE000C8010E94AA1728960FB6F894DEBF0FBE3C
:102FF000CDBFDF91CF911F910F9108950895CF9389
:10300000DF93EC01633251F06C3571F4688361E059
:1030100081E10E943E1C81E0898306C0688360E0F4
:1030200081E10E943E1C1982DF91CF910895CF93D8
:10303000DF93EC018981813071F46CE570E085E308
:1030400095E00E94C31042E050E06CE570E085E33B
:1030500095E00E94B610898181110EC063E270E094
:1030600085E395E00E94C31042E050E063E270E027
:1030700085E395E00E94B61085E395E00E9410106C
:10308000D82F80E0C82F85E395E00E941010C82B50
:10309000D92B85E395E00E94D810BE0180E090E036
:1030A0000E9408232AE939E949E95FE30E946F2277
:1030B0000E94DC22CB01DF91CF910895CF93C62FE0
:1030C000FC01608185E395E00E94B9106C2F85E3D7
:1030D00095E00E94601085E395E0CF910C94D810A4
:1030E000CF93DF93EC0185E395E00E949F1061E0B0
:1030F000CE010E945E1861E081E10E94051C61E042
:1031000081E1DF91CF910C943E1C1F93CF93DF930D
:10311000EC01162F6AE070E080E090E00E946F1BE7
:10312000612FCE01DF91CF911F910C945E18FC01AD
:1031300066834783208781E085870895CF93DF9357
:10314000EC0160E08E810E94051C61E08E810E948E
:103150003E1C19861A861B861C86DF91CF91089526
:10316000DF92EF92FF920F931F93CF93DF93EC01C7
:1031700061E08E810E943E1C6AEF70E080E090E08A
:103180000E946F1B0E94401B09851A852B853C8578
:10319000601771078207930720F419861A861B8629
:1031A0001C862D85211111C009851A852B853C852A
:1031B000DC01CB01801B910BA20BB30B803D974030
:1031C000A105B10510F481E071C01D860E94401B6D
:1031D00069877A878B879C871C821B821A82198257
:1031E000188261E08E810E94051C60E08E810E9441
:1031F0003E1C64E170E080E090E00E946F1BF89458
:1032000061E08E810E943E1C88E290E00E94971B44
:1032100060E08E810E94051CF12CD12C81E0E12C14
:10322000082F10E08E810E94741C8017910741F4D2
:10323000E39481E090E00E94971B8FEFE812F2CFB9
:103240008E810E94741C9FEFE916C9F023E02F15B0
:1032500090F4F0FC10C09D2D969596959695FE01E4
:10326000E90FF11D9081990F908328852E1510F498
:1032700091609083D394F39495E5F912D0CF78942C
:1032800027E22D1590F42C8130E04881898190E06F
:10329000840F911D4A81840F911D4B81840F911DD4
:1032A00099272817390709F48ECF80E0DF91CF9155
:1032B0001F910F91FF90EF90DF900895CF92DF92D2
:1032C000EF92FF92CF93DF93EC010E94B018882316
:1032D00079F18F818B3029F158F18551823040F599
:1032E000688170E080E090E00E94082320E030E0F8
:1032F00040E853E40E94BE236B017C01698170E0C9
:1033000080E090E00E940A239B01AC01C701B60156
:103310000E94072220E030E040E251E40E946F2248
:1033200011C0688170E080E090E00E9408230AC02C
:1033300066E773E084E096E00E94D71E60E070E0EC
:1033400080EC9FE7DF91CF91FF90EF90DF90CF90DF
:103350000895BF92CF92DF92EF92FF920F931F9347
:10336000CF93DF937C01EB01009771F460E873E089
:10337000CE01DF91CF911F910F91FF90EF90DF90E1
:10338000CF90BF900C94D71EE881F9810190F08115
:10339000E02D62E2CE0109958C01F70161917F0178
:1033A000662341F1E6E0F1E09081911117C0B18010
:1033B000E881F981BB20B1F00190F081E02D6CE54E
:1033C000CE0109956C01E881F9810190F081E02D31
:1033D0006B2DCE0109958C0D9D1D09C0961739F3F3
:1033E0003296E2CF0190F081E02DCE010995080FD1
:1033F000191FD3CFE881F9810190F081E02D62E2BD
:10340000CE010995800F911FDF91CF911F910F91F0
:10341000FF90EF90DF90CF90BF900895FC018081E6
:1034200091810C94A9196F927F928F929F92AF9283
:10343000BF92CF92DF92EF92FF920F931F93CF93A1
:10344000DF937C01EB01E881F9810190F081E02DAF
:103450006BE7CE0109958C01F701A280B380C6808D
:10346000D78075014501F2E08F0E911C1C141D04DC
:10347000B4F5BE01F701808191810E94A9193C0138
:10348000E881F9810190F081E02D6AE3CE01099590
:10349000860D971D080F191FF701EA19FB09E80DA2
:1034A000F91D0480F581E02DBE01C7010296099542
:1034B000080F191FF8E0EF0EF11C81E0C816D104C7
:1034C00051F0E881F9810190F081E02D6CE2CE01AC
:1034D0000995080F191FE1E0CE1AD108C7CFE8817E
:1034E000F9810190F081E02D6DE7CE010995800F03
:1034F000911FDF91CF911F910F91FF90EF90DF907F
:10350000CF90BF90AF909F908F907F906F900895D5
:10351000EF92FF920F931F93CF93DF937B01FC01F8
:10352000C281D38106811781101611065CF4B701A0
:10353000888199810E947B26892B39F02896015039
:103540001109F2CF80E090E001C0CE01DF91CF9170
:103550001F910F91FF90EF9008950F931F93CF93BA
:10356000DF93EC018B010E94881A009711F00296FC
:1035700022C08E819F812C813D818217930784F424
:103580009C0143E0220F331F4A95E1F7EA81FB815A
:10359000E20FF31F0193119301969F838E8302C064
:1035A000E5EFF5E010821182128213828EE09AE13B
:1035B00095838483CF01DF91CF911F910F9108955F
:1035C000FC01CB012081222319F063E573E002C0E6
:1035D00068E573E00C94D71EFC01CB01408151815A
:1035E000628173812AE030E00C94691F1F920F9270
:1035F0000FB60F9211242F933F938F939F93AF9306
:10360000BF938091FC059091FD05A091FE05B091BE
:10361000FF053091FB0523E0230F2D3720F40196A1
:10362000A11DB11D05C026E8230F0296A11DB11DE5
:103630002093FB058093FC059093FD05A093FE0568
:10364000B093FF058091000690910106A0910206BB
:10365000B09103060196A11DB11D809300069093C1
:103660000106A0930206B0930306BF91AF919F910C
:103670008F913F912F910F900FBE0F901F90189533
:103680002FB7F8946091FC057091FD058091FE05BF
:103690009091FF052FBF08953FB7F89480910006E1
:1036A00090910106A0910206B091030626B5A89B51
:1036B00005C02F3F19F00196A11DB11D3FBF662720
:1036C000782F892F9A2F620F711D811D911D42E065
:1036D000660F771F881F991F4A95D1F70895CF92DB
:1036E000DF92EF92FF92CF93DF936B017C010E94F8
:1036F0004C1BEB01C114D104E104F10489F00E94D8
:1037000005220E944C1B6C1B7D0B683E734090F39E
:1037100081E0C81AD108E108F108C851DC4FEACFAE
:10372000DF91CF91FF90EF90DF90CF9008950197B8
:1037300039F0880F991F880F991F02970197F1F7A9
:103740000895789484B5826084BD84B5816084BD19
:1037500085B5826085BD85B5816085BDEEE6F0E00A
:10376000808181608083E1E8F0E010828081826066
:103770008083808181608083E0E8F0E080818160E7
:103780008083E1EBF0E0808184608083E0EBF0E017
:10379000808181608083EAE7F0E0808184608083BB
:1037A0008081826080838081816080838081806865
:1037B00080831092C1000895833081F028F4813015
:1037C00099F08230A1F008958730A9F08830B9F0DF
:1037D0008430D1F4809180008F7D03C0809180007F
:1037E0008F7780938000089584B58F7702C084B569
:1037F0008F7D84BD08958091B0008F7703C0809144
:10380000B0008F7D8093B0000895CF93DF9390E058
:10381000FC01E15CFC4F2491FC01ED5AFC4F8491CA
:10382000882349F190E0880F991FFC01E558FC4F6F
:10383000A591B4918F589C4FFC01C591D4919FB72D
:10384000611108C0F8948C91209582238C93888113
:1038500082230AC0623051F4F8948C91322F309553
:1038600083238C938881822B888304C0F8948C9165
:10387000822B8C939FBFDF91CF9108950F931F935D
:10388000CF93DF931F92CDB7DEB7282F30E0F90139
:10389000E55DFC4F8491F901E15CFC4F1491F90165
:1038A000ED5AFC4F04910023C9F0882321F069836D
:1038B0000E94DC1B6981E02FF0E0EE0FFF1FEF5844
:1038C000FC4FA591B4919FB7F8948C91611103C0FE
:1038D0001095812301C0812B8C939FBF0F90DF91A6
:1038E000CF911F910F910895CF93DF93282F30E050
:1038F000F901E55DFC4F8491F901E15CFC4FD49145
:10390000F901ED5AFC4FC491CC2391F081110E9432
:10391000DC1BEC2FF0E0EE0FFF1FE959FC4FA591E7
:10392000B4912C912D2381E090E021F480E002C03D
:1039300080E090E0DF91CF910895FC01818D228D90
:1039400090E0805C9F4F821B910960E470E00E94D0
:1039500025240895FC01918D828D981731F0828D78
:10396000E80FF11D858D90E008958FEF9FEF08958A
:10397000FC01918D828D981761F0828DDF01A80F77
:10398000B11D5D968C91928D9F5F9F73928F90E099
:1039900008958FEF9FEF08958CE39EE1892B49F006
:1039A00080E090E0892B29F00E943C1E81110C944C
:1039B00000000895FC01848DDF01A80FB11DA35AFA
:1039C000BF4F2C91848D90E001968F739927848F3F
:1039D000A689B7892C93A089B1898C9180648C9336
:1039E000938D848D981306C00288F389E02D808121
:1039F0008F7D80830895CF93DF93EC01888D88239A
:103A0000C9F0EA89FB89808185FD05C0A889B9894B
:103A10008C9186FD0FC00FB607FCF5CF808185FF26
:103A2000F2CFA889B9898C9185FFEDCFCE010E9494
:103A3000DA1CE7CFDF91CF910895CF92DF92FF920A
:103A40000F931F93CF93DF931F92CDB7DEB76C0117
:103A5000DC015B969C915B975C968C915C979813CC
:103A600007C05096ED91FC915197808185FD32C041
:103A7000F601038D10E00F5F1F4F0F731127F02E1B
:103A8000F601848DF81211C00FB607FCF9CFD601EC
:103A90005096ED91FC915197808185FFF1CFC60141
:103AA00069830E94DA1C6981EBCF838DE80FF11DD9
:103AB000E35AFF4F6083D6015B960C935B97529657
:103AC000ED91FC91539780818062808381E05896CC
:103AD0008C930DC0D6015696ED91FC91579760835B
:103AE0005096ED91FC91519780818064808381E0B4
:103AF00090E00F90DF91CF911F910F91FF90DF9099
:103B0000CF900895BF92CF92DF92EF92FF92CF9322
:103B1000DF93EC016A017B01B22EE889F98982E02A
:103B20008083411581EE580761057105A1F060E0C1
:103B300079E08DE390E0A70196010E94392421509D
:103B40003109410951095695479537952795211512
:103B500080E1380798F0E889F989108260E874E814
:103B60008EE190E0A70196010E943924215031098D
:103B7000410951095695479537952795EC85FD855F
:103B80003083EE85FF852083188EEC89FD89B08215
:103B9000EA89FB89808180618083EA89FB89808151
:103BA00088608083EA89FB89808180688083EA89D4
:103BB000FB8980818F7D8083DF91CF91FF90EF9093
:103BC000DF90CF90BF9008951F920F920FB60F9283
:103BD00011242F938F939F93EF93FF93E0911406FB
:103BE000F09115068081E0911A06F0911B0682FD86
:103BF00012C0908180911D068F5F8F7320911E06E9
:103C0000821751F0E0911D06F0E0EC5FF94F958FBF
:103C100080931D0601C08081FF91EF919F918F914C
:103C20002F910F900FBE0F901F9018951F920F921B
:103C30000FB60F9211242F933F934F935F936F937F
:103C40007F938F939F93AF93BF93EF93FF9384E002
:103C500096E00E94DA1CFF91EF91BF91AF919F9186
:103C60008F917F916F915F914F913F912F910F9025
:103C70000FBE0F901F90189584E096E00E949D1C47
:103C800021E0892B09F420E0822F08951092070685
:103C90001092060688EE93E0A0E0B0E0809308065C
:103CA00090930906A0930A06B0930B0689E893E067
:103CB000909305068093040685EC90E0909311069E
:103CC0008093100684EC90E0909313068093120684
:103CD00080EC90E0909315068093140681EC90E0C0
:103CE000909317068093160682EC90E09093190645
:103CF0008093180686EC90E090931B0680931A063A
:103D000010921D0610921E0610921F061092200699
:103D1000089508950E94A11B0E94891E0E94FA0521
:103D2000CCECDCE10E941B082097E1F30E94CC1C44
:103D3000F9CFCF92DF92EF92FF920F931F93CF9321
:103D4000DF936C017A01EB01E60EF71E00E010E054
:103D5000CE15DF0561F06991D601ED91FC910190DE
:103D6000F081E02DC6010995080F191FF1CFC80198
:103D7000DF91CF911F910F91FF90EF90DF90CF9047
:103D800008956115710581F0DB010D900020E9F7C0
:103D9000AD0141505109461B570BDC01ED91FC91DF
:103DA0000280F381E02D099480E090E008950C9466
:103DB000C11EDC01ED91FC910190F081E02D099490
:103DC000DB01ED91FC9111970190F081E02DBC0198
:103DD000CD0109940F931F93CF93DF93EC016DE016
:103DE0000E94D91E8C016AE0CE010E94D91E800F6C
:103DF000911FDF91CF911F910F9108950F931F9302
:103E0000CF93DF93EC010E94D91E8C01CE010E945A
:103E1000EA1E800F911FDF91CF911F910F9108959E
:103E20008F929F92AF92BF92CF92DF92EF92FF92CA
:103E30000F931F93CF93DF93CDB7DEB7A1970FB644
:103E4000F894DEBF0FBECDBF7C01C42EE52FCB01A1
:103E5000D22E19A221E02D1510F02AE0D22E8E01CB
:103E60000F5D1F4F8D2C912CA12CB12C6C2D7E2F12
:103E7000A50194010E9439248C2DD29E8019112411
:103E8000015011098A3014F4805D01C0895CF80189
:103E90008083211531054105510521F0C22EE32F04
:103EA000CA01E4CFB801C7010E94C11EA1960FB696
:103EB000F894DEBF0FBECDBFDF91CF911F910F9160
:103EC000FF90EF90DF90CF90BF90AF909F908F903A
:103ED0000895CF92DF92EF92FF920F931F93CF93AB
:103EE000DF93EC016A017B012115310579F4E8814A
:103EF000F9810190F081E02D642FDF91CF911F9126
:103F00000F91FF90EF90DF90CF9009942A30310508
:103F1000E9F477FF1AC06DE20E94D91E8C01442794
:103F20005527BA014C195D096E097F092AE0CE01B7
:103F30000E94101F800F911FDF91CF911F910F9151
:103F4000FF90EF90DF90CF9008952AE0B701A6018F
:103F5000CE01DF91CF911F910F91FF90EF90DF90F5
:103F6000CF900C94101F9A01AB01662757FD609506
:103F7000762F0C94691F4F925F926F927F928F926F
:103F80009F92AF92BF92CF92DF92EF92FF920F93E8
:103F90001F93CF93DF93EC016A017B01B22E9A014C
:103FA000AB01C701B6010E942124882319F065E9FD
:103FB00073E027C026013701E89477F82FEF3FEF31
:103FC0004FE75FE7C301B2010E94212481110DC0B8
:103FD0002FEF3FEF4FE75FE7C301B2010E946B2273
:103FE00018161CF469E973E00CC02FEF3FEF4FE7A0
:103FF0005FE4C701B6010E94BA231816ACF46DE95C
:1040000073E0CE01DF91CF911F910F91FF90EF9060
:10401000DF90CF90BF90AF909F908F907F906F90E8
:104020005F904F900C94C11E2FEF3FEF4FE75FEC76
:10403000C701B6010E946B2287FDE1CF20E030E08E
:10404000A901C701B6010E946B2287FF0AC06DE279
:10405000CE010E94D91E8C01F7FAF094F7F8F09483
:1040600002C000E010E0A12C60E070E080E09FE37F
:10407000AB1441F020E030E040E251E40E946F22B6
:10408000A394F6CF9B01AC01C701B6010E940722A1
:104090006B017C010E94DC222B013C010E94082361
:1040A0009B01AC01C701B6010E9406226B017C0195
:1040B0002AE0B301A201CE010E94101F080F191FB0
:1040C000BB2039F068EF72E0CE010E94C11E080FDC
:1040D000191F7B2C772041F120E030E040E251E4D1
:1040E000C701B6010E94BE236B017C010E94D7224A
:1040F0004B01AA2497FCA094BA2C2AE030E0B50129
:10410000A401CE010E94691F080F191FC501B40147
:104110000E940A239B01AC01C701B6010E9406223E
:104120006B017C017A94D6CFC801DF91CF911F91AA
:104130000F91FF90EF90DF90CF90BF90AF909F9046
:104140008F907F906F905F904F9008950C94BB1F5D
:10415000FC01808191810C941925CF93DF93EC01B0
:1041600088819981009711F00E941925198218827F
:104170001D821C821B821A82DF91CF9108950F93BA
:104180001F93CF93DF93EC018B016F5F7F4F88818B
:1041900099810E94A825009731F0998388831B8319
:1041A0000A8381E001C080E0DF91CF911F910F91E0
:1041B0000895CF93DF93EC0188819981892B29F0B1
:1041C0008A819B818617970760F4CE010E94BF20E9
:1041D000882341F08C819D81892B19F4E881F98134
:1041E000108281E0DF91CF910895EF92FF920F93BB
:1041F0001F93CF93DF93EC017B018A01BA010E94E8
:10420000D920811104C0CE010E94AD2007C01D83BA
:104210000C83B701888199810E948426CE01DF91A9
:10422000CF911F910F91FF90EF900895FC011182A3
:10423000108213821282158214826115710559F061
:10424000FB0101900020E9F7AF0141505109461BE5
:10425000570B0C94F5200895CF93DF93EC01FB01ED
:104260008617970761F0608171816115710529F0EA
:10427000448155810E94F52002C00E94AD20CE01EC
:10428000DF91CF910895FC01118210821382128276
:10429000158214820C942C21CF93DF93EC016115CD
:1042A000710561F0FB0101900020E9F7AF01415079
:1042B0005109461B570B0E94F52002C00E94AD20F9
:1042C000CE01DF91CF910895EF92FF920F931F934C
:1042D000CF93DF93EC017B010C811D81611571058A
:1042E00011F480E016C04115510591F0040F151F1F
:1042F000B8010E94D9208823A1F3288139818C81BB
:104300009D81B701820F931F0E9484261D830C8319
:1043100081E0DF91CF911F910F91FF90EF90089571
:104320006115710559F0FB0101900020E9F7AF011B
:1043300041505109461B570B0C94642180E00895AD
:10434000CF93DF9300D0CDB7DEB769831A8241E007
:1043500050E0BE016F5F7F4F0E9464210F900F906D
:10436000DF91CF910895EF92FF920F931F93CF9318
:10437000DF93CDB7DEB728970FB6F894DEBF0FBE38
:10438000CDBF7C01CB014AE050E08E010F5F1F4F93
:10439000B8010E948B26F80101900020E9F7AF01D7
:1043A00041505109401B510BB801C7010E946421C3
:1043B00028960FB6F894DEBF0FBECDBFDF91CF9128
:1043C0001F910F91FF90EF900895CF93DF93EC0131
:1043D0000E94B321811103C0CE010E94AD20CE0105
:1043E000DF91CF910895FC01848195816817790749
:1043F00020F480819181009729F41092A10681EA2E
:1044000096E00895860F971F089508955058BB278A
:10441000AA270ED075C166D130F06BD120F031F4EF
:104420009F3F11F41EF45BC10EF4E095E7FB51C110
:10443000E92F77D180F3BA176207730784079507CE
:1044400018F071F49EF58FC10EF4E0950B2EBA2F83
:10445000A02D0B01B90190010C01CA01A00111248A
:10446000FF27591B99F0593F50F4503E68F11A1636
:10447000F040A22F232F342F4427585FF3CF4695C7
:1044800037952795A795F0405395C9F77EF41F16E9
:10449000BA0B620B730B840BBAF09150A1F0FF0FB3
:1044A000BB1F661F771F881FC2F70EC0BA0F621F9F
:1044B000731F841F48F4879577956795B795F7958F
:1044C0009E3F08F0B3CF9395880F08F09927EE0F21
:1044D000979587950895D9D008F481E008950CD078
:1044E0000FC107D140F0FED030F021F45F3F19F04A
:1044F000F0C0511139C1F3C014D198F39923C9F315
:104500005523B1F3951B550BBB27AA2762177307D9
:10451000840738F09F5F5F4F220F331F441FAA1F8D
:10452000A9F333D00E2E3AF0E0E830D0915050404D
:10453000E695001CCAF729D0FE2F27D0660F771FFB
:10454000881FBB1F261737074807AB07B0E809F0DD
:10455000BB0B802DBF01FF2793585F4F2AF09E3F72
:10456000510568F0B6C000C15F3FECF3983EDCF344
:10457000869577956795B795F7959F5FC9F7880FEB
:10458000911D9695879597F90895E1E0660F771F3D
:10459000881FBB1F621773078407BA0720F0621BCE
:1045A000730B840BBA0BEE1F88F7E095089504D0C7
:1045B0006894B111D9C00895BCD088F09F5790F08D
:1045C000B92F9927B751A0F0D1F0660F771F881F38
:1045D000991F1AF0BA95C9F712C0B13081F0C3D053
:1045E000B1E00895C0C0672F782F8827B85F39F0F1
:1045F000B93FCCF3869577956795B395D9F73EF497
:1046000090958095709561957F4F8F4F9F4F08953E
:10461000E89409C097FB3EF490958095709561955C
:104620007F4F8F4F9F4F9923A9F0F92F96E9BB2712
:104630009395F695879577956795B795F111F8CF8E
:10464000FAF4BB0F11F460FF1BC06F5F7F4F8F4FF9
:104650009F4F16C0882311F096E911C0772321F0EF
:104660009EE8872F762F05C0662371F096E8862F87
:1046700070E060E02AF09A95660F771F881FDAF7DE
:10468000880F9695879597F90895990F0008550F0B
:10469000AA0BE0E8FEEF16161706E807F907C0F0C8
:1046A00012161306E407F50798F0621B730B840BD0
:1046B000950B39F40A2661F0232B242B252B21F4AA
:1046C00008950A2609F4A140A6958FEF811D811D4A
:1046D000089597F99F6780E870E060E008959FEF84
:1046E00080EC089500240A94161617061806090689
:1046F000089500240A941216130614060506089558
:10470000092E0394000C11F4882352F0BB0F40F4DF
:10471000BF2B11F460FF04C06F5F7F4F8F4F9F4F1F
:10472000089557FD9058440F551F59F05F3F71F0A1
:104730004795880F97FB991F61F09F3F79F0879508
:104740000895121613061406551FF2CF4695F1DF91
:1047500008C0161617061806991FF1CF8695710521
:10476000610508940895E894BB2766277727CB0155
:1047700097F908958ADF08F48FEF08950BD0C0CF22
:10478000B1DF28F0B6DF18F0952309F0A2CFA7CF4C
:104790001124EACFC6DFA0F3959FD1F3950F50E027
:1047A000551F629FF001729FBB27F00DB11D639FE3
:1047B000AA27F00DB11DAA1F649F6627B00DA11D89
:1047C000661F829F2227B00DA11D621F739FB00D2F
:1047D000A11D621F839FA00D611D221F749F33279F
:1047E000A00D611D231F849F600D211D822F762F38
:1047F0006A2F11249F5750408AF0E1F088234AF035
:10480000EE0FFF1FBB1F661F771F881F9150504080
:10481000A9F79E3F510570F05CCFA6CF5F3FECF348
:10482000983EDCF3869577956795B795F795E7956C
:104830009F5FC1F7FE2B880F911D9695879597F97D
:10484000089523DF880B990B089597FB072E16F424
:10485000009407D077FD09D00E94672407FC05D09B
:104860003EF4909581959F4F0895709561957F4F87
:104870000895A1E21A2EAA1BBB1BFD010DC0AA1FA1
:10488000BB1FEE1FFF1FA217B307E407F50720F0B9
:10489000A21BB30BE40BF50B661F771F881F991F34
:1048A0001A9469F760957095809590959B01AC017D
:1048B000BD01CF0108950024A7FD00942A173005FB
:1048C0004005500560057005800590050895AA1BF8
:1048D000BB1B51E107C0AA1FBB1FA617B70710F0EB
:1048E000A61BB70B881F991F5A95A9F7809590951D
:1048F000BC01CD010895EE0FFF1F0590F491E02D4E
:104900000994CF93DF938230910510F482E090E018
:10491000E091A406F091A50620E030E0A0E0B0E030
:10492000309739F14081518148175907B8F048173D
:10493000590771F482819381109729F013969C9303
:104940008E9312972CC09093A5068093A40627C03F
:104950002115310531F04217530718F0A901DB0189
:1049600001C0EF019A01BD01DF010280F381E02D5A
:10497000D7CF21153105F9F0281B390B243031052B
:1049800080F48A819B816115710521F0FB0193837D
:10499000828304C09093A5068093A406FE013296FC
:1049A00044C0FE01E20FF31F81939193225031091D
:1049B000398328833AC02091A2063091A306232B85
:1049C00041F420910201309103013093A30620931A
:1049D000A20620910001309101012115310541F419
:1049E0002DB73EB74091040150910501241B350BB2
:1049F000E091A206F091A306E217F307A0F42E1BA4
:104A00003F0B2817390778F0AC014E5F5F4F241732
:104A1000350748F04E0F5F1F5093A3064093A20640
:104A20008193919302C0E0E0F0E0CF01DF91CF915C
:104A30000895CF93DF93009709F487C0FC01329764
:104A400013821282C091A406D091A506209781F40A
:104A500020813181280F391F8091A2069091A306F1
:104A60008217930779F5F093A306E093A2066DC031
:104A7000DE0120E030E0AE17BF0750F412964D91F2
:104A80005C9113979D014115510509F1DA01F3CFAE
:104A9000B383A28340815181840F951F8A179B079E
:104AA00071F48D919C911197840F951F02969183BB
:104AB000808312968D919C91139793838283211505
:104AC000310529F4F093A506E093A4063EC0D90170
:104AD0001396FC93EE9312974D915D91A40FB51F21
:104AE000EA17FB0779F480819181840F951F029664
:104AF000D90111969C938E938281938113969C93F6
:104B00008E931297E0E0F0E08A819B81009719F084
:104B1000FE01EC01F9CFCE01029628813981820F86
:104B2000931F2091A2063091A3062817390769F434
:104B3000309729F41092A5061092A40602C01382A1
:104B40001282D093A306C093A206DF91CF9108955D
:104B5000A0E0B0E0EEEAF5E20C94CF26EC01CB0148
:104B6000209719F40E948124B8C0FE01E60FF71FB8
:104B70009E0122503109E217F30708F4ACC0D901B5
:104B80000D911C91119706171707B8F00530110504
:104B900008F49FC0A801445051094617570708F46C
:104BA00098C002501109061B170B019311936D93C6
:104BB0007C93CF010E9419258CC05B01A01AB10A19
:104BC0004E01800E911EA091A406B091A506612C05
:104BD000712C60E070E0109709F449C0A815B90580
:104BE000C9F5ED90FC901197670142E0C40ED11C0D
:104BF000CA14DB0478F147018A189B08640142E07B
:104C0000C40ED11C1296BC9012971396AC91B5E0CD
:104C1000CB16D10440F0B282A38391828082D90165
:104C20008D939C9309C00E5F1F4F0E0D1F1DF90140
:104C300011830083EB2DFA2F6115710531F0DB0133
:104C40001396FC93EE93129744C0F093A506E0935D
:104C5000A4063FC06D917C9111976616770608F403
:104C60003B01BD0112960D90BC91A02DB4CF609177
:104C7000A2067091A30668157905E9F4681679060D
:104C8000D0F440910001509101014115510541F4CA
:104C90004DB75EB76091040170910501461B570B3B
:104CA000E417F507C0F4F093A306E093A206F90118
:104CB000918380830EC00E9481247C01009759F06B
:104CC000A801BE010E947226CE010E941925C701CB
:104CD00004C0CE0102C080E090E0CDB7DEB7EEE0C8
:104CE0000C94EB26FB01DC0102C001900D924150B7
:104CF0005040D8F70895FB01DC018D910190801997
:104D00000110D9F3990B0895FB01DC0101900D927C
:104D10000020E1F708954532510520F4423010F0AB
:104D20000C949626FB011082CB010895BB274A30D4
:104D300031F4992322F4BDE2909581959F4F0C9414
:104D4000A226BB27FB015527AA27880F991FAA1F58
:104D5000A41710F0A41B83955051B9F7A05DAA3396
:104D600008F0A95DA193009779F7B111B193119261
:104D7000CB010C94BB26DC01FC01672F71917723DA
:104D8000E1F7329704C07C916D9370836291AE1706
:104D9000BF07C8F308952F923F924F925F926F9290
:104DA0007F928F929F92AF92BF92CF92DF92EF92BB
:104DB000FF920F931F93CF93DF93CDB7DEB7CA1B3C
:104DC000DB0B0FB6F894DEBF0FBECDBF09942A8867
:104DD000398848885F846E847D848C849B84AA840F
:104DE000B984C884DF80EE80FD800C811B81AA819C
:104DF000B981CE0FD11D0FB6F894DEBF0FBECDBF67
:104E0000ED01089513E0CCE8D3E004C0FE010E9458
:0E4E10007D242296CE38D107C9F7F894FFCF43
:104E1E000000A606800022225C5C08620C660A6E08
:104E2E000D72097400004D6F74696F6E20646574A5
:104E3E006563746564004C4544206F6E2070696E26
:104E4E00202564202D2025540A00526164696F20AC
:104E5E00737461727465642E2E2E0A00417474652B
:104E6E006D7074696E67206E6574776F726B206AF1
:104E7E006F696E0A004A6F696E6564206E6574779D
:104E8E006F726B0A0053656E64696E673A20256314
:104E9E000A0054656D706572617475726520737465
:104EAE0061727465642E2E2E0A0048756D696469F0
:104EBE00747920737461727465642E2E2E0A004903
:104ECE006C6C756D696E616E63652073746172745E
:104EDE0065642E2E2E0A004D6F74696F6E207374EA
:104EEE0061727465642E2E2E0A00496E69746961B2
:104EFE006C6973696E672073656E736F72732E2E95
:104F0E002E0A0054656D70657261747572653A2073
:104F1E0025640A0048756D69646974793A202564C0
:104F2E000A00496C6C756D696E616E63653A202579
:104F3E00640A004D6F74696F6E3A2025540A006939
:104F4E00640074656D706572617475726500687564
:104F5E006D696469747900696C6C756D696E616EEA
:104F6E006365006D6F74696F6E0042757A7A657253
:104F7E00206F6E0A0042757A7A6572206F66660A35
:104F8E000042757A7A657220737461727465642E4C
:104F9E002E2E0A004C75726B6572207374617274DA
:104FAE00696E67202D2025730A00436F6D6D616E4B
:104FBE00643A2025630A005761726E696E673A2063
:104FCE00756E6B6E6F776E20636F6D6D207461679B
:104FDE00205B25635D0A005061636B65742072650A
:104FEE006365697665640A006C75726B6572002381
:104FFE000053657269616C207061636B6574207318
:10500E007461727465642E2E2E00240053657269CD
:10501E00616C207061636B6574207265636569767F
:10502E0065642E205B4C656E6774683A2025645D5E
:10503E000A0052656365697665643A2025730A0035
:10504E005061636B6574206C656E6774683A2025D9
:10505E00640A0000000000131A3078003062005419
:10506E00004600747275650066616C73650045528A
:10507E00524F523A2000000000006010331008100A
:10508E0010102310321052656164206661696C0045
:10509E006E756C6C00000000001D1D991E9D1CB8E5
:1050AE001CAA1CFB1C6E616E00696E66006F766634
:0250BE000000F0
:00000001FF
