:100000000C94C8010C94F0010C94F0010C94F001D4
:100010000C94F0010C94F0010C94F0010C94F0019C
:100020000C94F0010C94F0010C94F0010C94F0018C
:100030000C94F0010C94F0010C94F0010C94F0017C
:100040000C94061D0C94F0010C9464210C94E7218F
:100050000C94F0010C94F0010C94F0010C94F0015C
:100060000C94DE120C94F0010A0B0C0D0E0F111201
:1000700013141516000102030405CF01D501DB019D
:10008000E301EC01F601FF0106020E0215021C025B
:100090002302504120506F77657209203D2025537F
:1000A0000D0A00435243204C656E67746809203D79
:1000B0002025530D0A004D6F64656C0909203D2011
:1000C00025530D0A00446174612052617465092052
:1000D0003D2025530D0A0044594E50442F464541BA
:1000E0005455524500434F4E4649470052465F53D0
:1000F000455455500052465F434800454E5F5258A4
:100100004144445200454E5F41410052585F5057B0
:100110005F50302D360054585F41444452005258CD
:100120005F414444525F50322D350052585F414484
:1001300044525F50302D31000D0A002530327800D6
:10014000203078002553092563203D000D0A00204A
:10015000307825303278002553092563203D004F43
:100160004253455256455F54583D253032783A2027
:10017000504F4C535F434E543D2578204152435FCE
:10018000434E543D25780D0A0053544154555309AC
:1001900009203D203078253032782052585F445273
:1001A0003D25782054585F44533D2578204D4158D3
:1001B0005F52543D25782052585F505F4E4F3D2589
:1001C000782054585F46554C4C3D25780D0A003137
:1001D0004D42505300324D425053003235304B4265
:1001E0005053006E524632344C3031006E5246321B
:1001F000344C30312B0044697361626C65640038A3
:100200002062697473003136206269747300504152
:100210005F4D494E0050415F4C4F57004C415F4D80
:1002200045440050415F4849474800005EBCE261D8
:100230003FDD83C29C7E20A3FD1F419DC3217FFC27
:10024000A2401E5F01E3BD3E6082DC237D9FC14270
:100250001CFEA0E1BF5D0380DE3C62BEE0025CDF0D
:1002600081633D7C22C09E1D43A1FF4618FAA4274E
:10027000799BC584DA3866E5BB5907DB856739BAEF
:10028000E406581947A5FB7826C49A653BD987042C
:100290005AB8E6A7F91B45C6987A24F8A6441A99D5
:1002A000C7257B3A6486D85B05E7B98CD2306EED02
:1002B000B3510F4E10F2AC2F7193CD114FADF370BF
:1002C0002ECC92D38D6F31B2EC0E50AFF1134DCED8
:1002D00090722C6D33D18F0C52B0EE326C8ED053A5
:1002E0000DEFB1F0AE4C1291CF2D73CA947628ABBE
:1002F000F517490856B4EA6937D58B5709EBB53677
:10030000688AD495CB2977F4AA4816E9B7550B88A3
:10031000D6346A2B7597C94A14F6A8742AC896155C
:100320004BA9F7B6E80A54D7896B350000000024C2
:100330000027002A0000000000250028002B0000F4
:10034000000000230026002900040404040404041F
:100350000402020202020203030303030301020474
:100360000810204080010204081020010204081037
:100370002000000007000201000003040600000046
:10038000000000000000D3029F0D7A119A21CC02D8
:1003900011241FBECFEFD8E0DEBFCDBF13E0A0E039
:1003A000B1E0E4E7F2E502C005900D92A038B10794
:1003B000D9F716E0A0E8B3E001C01D92AC3CB1074C
:1003C000E1F713E0CEE8D3E004C02297FE010E94DB
:1003D0002929C638D107C9F70E940D220C942D296E
:1003E0000C940000FB01DC0102C001900D92415011
:1003F0005040D8F70895FB01DC018D9101908019E0
:100400000110D9F3990B0895FB01DC0101900D92C5
:100410000020E1F70895FB019F01E8944230C4F009
:100420004532B4F44A3029F497FB1EF49095819537
:100430009F4F642F77270E941329805D8A330CF029
:10044000895D8193CB010097A1F716F45DE251938A
:100450001082C9010C942C02DC01FC01672F719100
:100460007723E1F7329704C07C916D93708362919A
:10047000AE17BF07C8F308950F931F93DF93CF9371
:1004800000D000D000D0CDB7DEB78130910509F0A3
:1004900067C06F5F7F4F09F074C080E893E060E051
:1004A00071E00E9468258E010F5F1F4FC80160E850
:1004B00073E00E94BB25C80162E00E943625BC01A2
:1004C00086E893E00E94B125C8010E94CB258CE804
:1004D00093E067E00E9477168AE993E06CE873E0A6
:1004E0000E94AD1681EB93E068E04BE026E00E94AD
:1004F000891A83EC93E00E94DC198EEC93E069E0AA
:100500004AE00E94030986EE93E09093E103809312
:10051000E00388E090E09093E3038093E20310927D
:10052000E5031092E4038EE593E09093DF0380935C
:10053000DE0386E294E00E9408118AE295E067E01B
:1005400071E00E94682581E395E060E270E00E941E
:100550008A0F89E395E060E270E00E948A0F11C083
:10056000892B79F46F5F7F4F61F48AE295E00E94F6
:10057000C52586E893E00E94C52580E893E00E94A7
:10058000C52526960FB6F894DEBF0FBECDBFCF911E
:10059000DF911F910F91089580E090E06FEF7FEF62
:1005A0000E943C02089581E090E06FEF7FEF0E948F
:1005B0003C020895CF93DF93EC018B30910584F4D6
:1005C00086E294E040EE53E964E070E023E735E032
:1005D0000E941910CC0FDD1FCF5BDA4F99838883FF
:1005E000DF91CF9108951F93CF93DF93EC01162FE6
:1005F0008630910540F4FC01EE0FFF1FE25BFC4FDB
:1006000080810E94481E8DB79EB70A970FB6F89456
:100610009EBF0FBE8DBFEDB7FEB7319685E595E065
:10062000ADB7BEB712969C938E93119788E091E078
:1006300093838283D583C483CC0FDD1FC25BDC4FE1
:100640008881998197838683108711860E944C0E3A
:100650008DB79EB70A960FB6F8949EBF0FBE8DBF9A
:10066000DF91CF911F91089580E090E060E00E94BB
:10067000F302089580E090E061E00E94F30286E2D8
:1006800094E048E853E160E070E024E333E00E9446
:100690001910089581E090E060E00E94F30208954F
:1006A00081E090E061E00E94F30286E294E048E895
:1006B00053E160E070E02AE433E00E9419100895ED
:1006C00085E060E00E94481E00D000D085E595E0FE
:1006D000EDB7FEB7928381838EE191E094838383AB
:1006E0000E944C0E0F900F900F900F90089585E090
:1006F00061E00E94481E00D000D085E595E0EDB78E
:10070000FEB7928381838AE291E0948383830E947F
:100710004C0E0F900F900F900F9008950F931F9312
:10072000CF93DF930EE413E0C0E0D0E0F8018081C6
:1007300061E00E94091ECE0160E00E94F302219652
:100740000E5F1F4FC630D10589F7DF91CF911F9102
:100750000F91089585E061E00E94091E0E946003E8
:1007600000D000D085E595E0EDB7FEB79283818398
:1007700085E391E0948383830E944C0E0F900F9049
:100780000F900F9008950E944E1D2091CA03309142
:10079000CB034091CC035091CD03621B730B840BB0
:1007A000950B61527E448040904048F182E00E9467
:1007B0009C1E019711F581E08093C9030E944E1D94
:1007C0006093CA037093CB038093CC039093CD03C3
:1007D00000D000D085E595E0EDB7FEB79283818328
:1007E00088E491E0948383830E94620E0F900F90BF
:1007F0000F900F900E94500308951092C90308951E
:1008000081E08093290500D000D085E595E0EDB723
:10081000FEB79283818389E591E0948383830E946C
:10082000620E0F900F900F900F90089582E060E09D
:100830000E94091E60ED77E080E090E00E94A11D1B
:100840001092C90386E294E044E650E060E070E074
:1008500023EC33E00E94221000D000D085E595E023
:10086000EDB7FEB79283818389E691E09483838319
:100870000E944C0E0F900F900F900F90089583ECF4
:1008800093E00E94F319BC0180E090E008950F937B
:100890001F9303EC13E0C8010E94731AC80163E2BE
:1008A0000E945A1AC80160E10E94471A00D000D085
:1008B00085E595E0EDB7FEB7928381838CE791E003
:1008C000948383830E944C0E0F900F900F900F9093
:1008D0001F910F91089581EB93E00E945C1B089596
:1008E00081EB93E00E94901A80E090E0A0E0B0E0FD
:1008F0008093BF039093C003A093C103B093C2033E
:1009000000D000D085E595E0EDB7FEB792838183F6
:1009100084E991E0948383830E944C0E0F900F90A2
:100920000F900F9008950F931F930AE913E0C801E9
:100930000E947218C80160E00E944C191F910F912B
:1009400008958AE993E00E94731980E090E0A0E0A6
:10095000B0E08093AD039093AE03A093AF03B09348
:10096000B00300D000D085E595E0EDB7FEB79283E7
:10097000818389EA91E0948383830E944C0E0F90D7
:100980000F900F900F900895CF92DF92EF92FF9209
:100990000F931F936EEDE62E63E0F62EC70161EC18
:1009A00071E00E94CD1C8C010E94930458E6C52E74
:1009B00055E0D52EF801D582C4826083718382838D
:1009C0009383C7016DEC71E00E94CD1C8C010E94E5
:1009D0006B04F801D582C482608371838283938320
:1009E000C70166ED71E00E94CD1C8C010E943F049E
:1009F0002EE93CE1F801358324836083718382838F
:100A00009383C70162EE71E00E94CD1CFC0120912E
:100A1000C90383EB9BE19583848320830E943A037F
:100A20001F910F91FF90EF90DF90CF9008950F935B
:100A30001F930EED13E0C80169EE71E00E94CD1C1A
:100A4000FC01209186033091870383E29CE195832A
:100A5000848331832083C8016CEE71E00E94CD1C39
:100A6000FC0188E695E09583848386E696E6A6E613
:100A7000BFE380839183A283B38300D000D085E558
:100A800095E0EDB7FEB79283818384EF91E0948384
:100A900083830E944C0E0F900F900F900F900E9436
:100AA000A1040E9470040E9447040E94160486E27A
:100AB00094E040E25EE460E070E02CEA38E00E94FE
:100AC000221090932805809327051F910F91089578
:100AD000FC01CB01408151816281738122E030E0D1
:100AE0000E945A2408950F931F93CF93DF93C1E47C
:100AF000D5E00FEF1FEF6881798177FD08C086E2AE
:100B000094E00E94A10F882311F419830883229690
:100B100085E0C535D80779F7DF91CF911F910F9107
:100B200008950F931F9309E315E0C8010E94F40E86
:100B3000C80163E20E940B0FC80164E60E940B0F1C
:100B4000C8016AE50E940B0FC80162E00E940B0F0A
:100B5000C8016CE20E940B0FC80164E50E940B0FF4
:100B60006091AD037091AE038091AF039091B0039B
:100B700020E030E048EC52E40E946B280E94842779
:100B80009B01AC01C801B9010E94270FC8016CE2AA
:100B90000E940B0FC80168E40E940B0F6091BF0315
:100BA0007091C0038091C1039091C20320E030E0B6
:100BB00048EC52E40E946B280E9484279B01AC0100
:100BC000C801B9010E94270FC8016CE20E940B0FF7
:100BD000C80169E40E940B0F6091C5037091C603C0
:100BE000C8010E94270FC8016CE20E940B0FC801C8
:100BF0006DE40E940B0FC8016091C9030E940B0FA6
:100C0000C8016CE20E940B0FC80164E20E940B0F46
:100C10001F910F910895CF92DF92EF92FF920F9361
:100C20001F937EECE72E73E0F72EC7010E94930915
:100C300009E315E0C8010E94070F6C01C8010E947A
:100C4000FA0E482FC701B6010E94460DC7010E9447
:100C5000900C1F910F91FF90EF90DF90CF9008952F
:100C60000E9491050E940B060895AF92BF92CF9209
:100C7000DF92FF920F931F93CF93DF9381E395E071
:100C80000E946F0F182FF6E1CF2EF2E0DF2E00D07A
:100C900000D000D0EDB7FEB73196C5E5D5E0ADB7D1
:100CA000BEB71296DC93CE931197D382C282992756
:100CB00087FD9095958384830E944C0E8DB79EB7D7
:100CC00006960FB6F8949EBF0FBE8DBF133209F083
:100CD000A9C081E395E00E946F0F182FCE01FC2E72
:100CE000092FE3E2AE2EE2E0BE2E4BC00E94770356
:100CF00043C00E94600340C00E9430063DC081E3B3
:100D000095E00E946F0F992787FD909561E008C0DC
:100D100081E395E00E946F0F992787FD909560E031
:100D20000E94F30229C081E395E00E946F0F90E0DA
:100D30000E94DA0221C00E9400041EC01092290500
:100D40001BC000D000D000D0EDB7FEB73196ADB7D4
:100D5000BEB71196FC92119712960C93B382A282A1
:100D6000D583C4830E94780E8DB79EB706960FB6C2
:100D7000F8949EBF0FBE8DBF81E395E00E946F0F78
:100D8000182F143209F44EC081E395E00E94FE0E44
:100D9000181619060CF046C0C12FDD27C7FDD095E7
:100DA00000D000D000D0EDB7FEB73196ADB7BEB7DA
:100DB0001196FC92119712960C93D382C282D5831E
:100DC000C4830E944C0E8DB79EB706960FB6F8945A
:100DD0009EBF0FBE8DBF123509F4B0CF133590F40E
:100DE000143409F489CF153430F41C3229F212344A
:100DF00009F0A7CF7BCF1A3409F49DCF1C3409F03A
:100E0000A0CF7DCF143609F4B7CF153620F41236B3
:100E100009F097CF6ECF1A3609F485CF1C3609F04A
:100E200090CF76CFDF91CF911F910F91FF90DF9000
:100E3000CF90BF90AF90089581E395E00E94070F97
:100E4000BC018EEC93E040E20E94450C0E94350606
:100E500008958EEC93E00E94C00A8823A1F000D090
:100E600000D085E595E0EDB7FEB79283818383E4FA
:100E700092E0948383830E94620E0F900F900F90F4
:100E80000F900E941C0708950F931F9309E315E02C
:100E9000C8010E94F40EC80163E20E940B0FC80152
:100EA0006AE60E940B0FC80162E00E940B0FC801A6
:100EB00064E20E940B0F0E940B0600D000D085E573
:100EC00095E0EDB7FEB79283818384E592E0948349
:100ED00083830E944C0E0F900F900F900F901F91E4
:100EE0000F91089580912905882311F40E944407E9
:100EF0000895CF92DF92EF92FF920F931F931EEC13
:100F0000C12E13E0D12EC6010E94CA0CC60160E0BA
:100F100070E00E946F0BC60163E070E00E94A00BBE
:100F2000C6016FE04FE00E94520A10922905C601E7
:100F300000E010E920E930E94FEF5FEF6FEF7FEF5E
:100F40000E94FA0AC60161E0B2E0EB2EA0E9FA2E97
:100F500000E92FEF3FEF4FEF5FEF0E94C60BC60196
:100F600062E0EE24EA942FEF3FEF4FEF5FEF0E9435
:100F7000C60B86E294E040E65AEE60E070E022E7BD
:100F800037E00E94221000D000D085E595E0EDB753
:100F9000FEB7928381838DE692E0948383830E94DF
:100FA0004C0E0F900F900F900F901F910F91FF908C
:100FB000EF90DF90CF9008950F931F93CF93DF931F
:100FC0008AE296E00E94B820892B09F4C0C08AE228
:100FD00096E00E94D420682F833229F58091300555
:100FE000882309F084C081E0809330058AE295E08F
:100FF0006FE772E00E94812500D000D085E595E082
:10100000ADB7BEB712969C938E93119781E892E08C
:1010100014969C938E9313970E944C0E0F900F90F2
:101020000F900F9094C0843209F061C08091300518
:10103000882309F45CC0109230058AE295E06AE9E1
:1010400072E00E94142500D000D000D0EDB7FEB7AA
:10105000319605E515E0ADB7BEB712961C930E9319
:1010600011978CE992E09383828380912E05909171
:101070002F05958384830E94620EEDB7FEB73196EB
:10108000ADB7BEB712961C930E93119782EC92E007
:101090009383828380912A0590912B059583848385
:1010A0000E944C0EEDB7FEB736960FB6F894FEBF11
:1010B0000FBEEDBF81E395E00E94F40EC0E0D0E0EA
:1010C0000CC08AE295E0BE010E945D24FC0181E330
:1010D00095E060810E940B0F219680912E059091E2
:1010E0002F05C817D90768F30E94350630C08091D4
:1010F0003005882361F180912E0590912F054F973F
:1011000030F58AE295E00E94012500D000D000D0A1
:10111000EDB7FEB7319685E595E0ADB7BEB712964F
:101120009C938E93119780ED92E0938382838091BC
:101130002E0590912F05958384830E944C0EEDB768
:10114000FEB736960FB6F894FEBF0FBEEDBFDF9127
:10115000CF911F910F9108950F931F930E94C40484
:101160000AE216E0C80163E20E944622C8016EED61
:1011700073E00E944E22C80164E20E9479221F910E
:101180000F91089586E294E00E942B100E94DC07E4
:101190000E94290708950F931F9305E515E0C801E4
:1011A00062E070E020E031EE40E050E00E949B0EF3
:1011B00000D000D000D0EDB7FEB73196ADB7BEB7C6
:1011C00012961C930E93119783EE92E09383828381
:1011D0008091860390918703958384830E94620E99
:1011E0008DB79EB706960FB6F8949EBF0FBE8DBF03
:1011F0000E9417050E94AA030E9479070E948E038D
:101200001F910F910895FC016083418381E08283E7
:10121000138280E2848315821682108611861286DC
:10122000138614861586168617860895FF920F93E7
:101230001F938C01F62E81E00E94BE0E80E00E947A
:10124000C70E80E00E94CC0EF80181816F2D0E94B4
:10125000481E1F910F91FF9008951F93CF93DF9326
:10126000EC0160E070E00E94160980E68EBD0DB4CE
:1012700007FEFDCF8EB58FEF8EBD0DB407FEFDCFFF
:101280001EB5CE0161E070E00E941609812FDF914A
:10129000CF911F9108951F93CF93DF93EC0160E0EE
:1012A00070E00E9416098FEF8EBD0DB407FEFDCFD2
:1012B0001EB5CE0161E070E00E941609812FDF911A
:1012C000CF911F9108951F93CF93DF93EC0160E0BE
:1012D00070E00E94160981EE8EBD0DB407FEFDCFB1
:1012E0001EB5CE0161E070E00E941609812FDF91EA
:1012F000CF911F9108951F93CF93DF93EC0160E08E
:1013000070E00E94160982EE8EBD0DB407FEFDCF7F
:101310001EB5CE0161E070E00E941609812FDF91B9
:10132000CF911F9108950F931F938C01FC01808131
:1013300060E00E94481EC8010E946309C8010E9423
:101340007B091F910F910895EF92FF920F931F93C6
:10135000CF93DF93EC01F62EE72E9C81142F941788
:1013600008F4192F8E81882311F000E002C0092FA4
:10137000011BCE0160E070E00E94160981E68EBD7F
:101380000DB407FEFDCF8F2D9E2D9C01F901FEB4FB
:101390009FEF07C09EBD0DB407FEFDCF8EB58193B4
:1013A00011501123B9F707C08EBD0DB407FEFDCF54
:1013B0009EB5015001C08FEF0023B1F7CE0161E06F
:1013C00070E00E9416098F2DDF91CF911F910F9130
:1013D000FF90EF900895EF92FF920F931F93CF939A
:1013E000DF93EC01F62EE72E9C81142F941708F45E
:1013F000192F8E81882311F000E002C0092F011BF4
:10140000CE0160E070E00E94160980EA8EBD0DB446
:1014100007FEFDCF8F2D9E2D9C01F901FEB408C063
:1014200080818EBD0DB407FEFDCF31968EB5115073
:101430001123B1F706C01EBC0DB407FEFDCF8EB55B
:1014400001500023C1F7CE0161E070E00E9416094F
:101450008F2DDF91CF911F910F91FF90EF90089505
:101460000F931F93CF93DF93EC01162F042F60E0AF
:1014700070E00E9416091F7110621EBD0DB407FEB8
:10148000FDCF1EB50EBD0DB407FEFDCF8EB5CE014E
:1014900061E070E00E941609812FDF91CF911F91CA
:1014A0000F910895262F4F702295207F242B64E002
:1014B000422F0E94300A0895CF92DF92EF92FF925E
:1014C0000F931F938B017A01690167E040E70E9447
:1014D000300A90E09C01E5E036952795EA95E1F722
:1014E0002170F801208374E0969587957A95E1F74D
:1014F000282F2170F70120839695879596958795DB
:101500008170F60180831F910F91FF90EF90DF9023
:10151000CF900895DF92EF92FF920F931F93CF9396
:10152000DF938C017B010E944B09C82FD0E0CE01D4
:10153000A6E096958795AA95E1F7DD24D394D82265
:1015400080FF15C0E114F10431F0CE019595879527
:101550008770F7018083C80167E040E40E94300A89
:10156000C5FF05C0C80167E040E20E94300A8D2D2A
:10157000DF91CF911F910F91FF90EF90DF90089531
:1015800060E070E00E948A0A0895462F603808F0F3
:101590004FE765E00E94300A0895EF92FF920F93A3
:1015A0001F93CF93DF937C01162FEA01022F60E097
:1015B00070E00E9416091F7110621EBD0DB407FE77
:1015C000FDCF1EB508C088818EBD0DB407FEFDCFCE
:1015D00021968EB501500023B1F7C70161E070E09C
:1015E0000E941609812FDF91CF911F910F91FF90DB
:1015F000EF900895EF92FF920F931F93DF93CF9395
:10160000CDB7DEB728970FB6F894DEBF0FBECDBFBB
:101610007C0109831A832B833C834D835E836F8314
:1016200078878E010F5F1F4F6AE0A80125E00E94B6
:10163000CD0AC70160E1A80125E00E94CD0AF701AB
:101640004481413208F040E2C70161E10E94300A62
:1016500028960FB6F894DEBF0FBECDBFCF91DF91B5
:101660001F910F91FF90EF9008951F93CF93DF93F9
:10167000EC01162F60E070E00E9416091F711EBD7C
:101680000DB407FEFDCF8EB58FEF8EBD0DB407FEF6
:10169000FDCF1EB5CE0161E070E00E941609812FDA
:1016A000DF91CF911F9108950F931F93CF93DF93F5
:1016B0008C01EB0160E00E94350B482F437F20979F
:1016C00029F0219711F4486001C04C60C80160E026
:1016D0000E94300ADF91CF911F910F910895FF92E0
:1016E0000F931F93CF93DF93EC018B0166E00E9471
:1016F000350B1A82B7EDFB2EF8220230110511F4DA
:1017000080E206C00130110529F481E08A8388E077
:10171000F82A01C01A82CE0166E04F2D0E94300ADD
:10172000CE0166E00E94350B8F1511F481E002C0F6
:101730001A8280E0DF91CF911F910F91FF90089561
:101740000F931F93CF93DF938C01EB0166E00E9410
:10175000350B482F497FC330D10571F0C230D10518
:1017600011F444600AC0C130D10511F4426005C0D3
:10177000209719F0249709F44660C80166E00E949A
:10178000300ADF91CF911F910F910895BF92CF92B0
:10179000DF92EF92FF920F931F93DF93CF93CDB71A
:1017A000DEB728970FB6F894DEBF0FBECDBF6C0131
:1017B000B62EE982FA820B831C832D833E834F83EE
:1017C0005887662389F4F601E0868A8181878B81B8
:1017D00082878C8183878D8184878E8185878F81A5
:1017E00086878885878707C0F6E0F61708F43DC02E
:1017F00081E0681761F4EB2DF0E0E859FF4FE491C8
:10180000C6016E2FAE014F5F5F4F25E00BC0E62F84
:10181000F0E0E859FF4FE491C6016E2FAE014F5F33
:101820005F4F21E00E94CD0A0B2D10E0F801E25934
:10183000FF4FE491C6016E2FF60144810E94300AE9
:10184000C60162E00E94350B0C581F4FF8016491ED
:1018500021E030E002C0220F331F6A95E2F7482FE3
:10186000422BC60162E00E94300A28960FB6F89417
:10187000DEBF0FBECDBFCF91DF911F910F91FF90C3
:10188000EF90DF90CF90BF9008950F931F938C013E
:101890000E94A409C80167E10E94350B81701F9165
:1018A0000F910895DF92EF92FF920F931F938C0197
:1018B0007B01D42E60E00E94350B482F4C7F4260A4
:1018C000C80160E00E94300A86E990E00E945C1D39
:1018D000C801B7014D2D0E94EB09F801808161E03C
:1018E0000E94481E8FE090E00E945C1DF8018081FC
:1018F00060E00E94481E1F910F91FF90EF90DF90D3
:1019000008950F931F938C0160E00E94350B482FC0
:101910004D7FC80160E00E94300A1F910F91089529
:10192000CF93DF93EC0160E00E94350B482F4360BA
:10193000CE0160E00E94300ACE0167E040E70E94DD
:10194000300A88859985892B9A85892B9B85892BD7
:101950009C85892B9D85892B9E85892B9F85892B2D
:1019600041F0AE01485F5F4FCE016AE025E00E9482
:10197000CD0ACE010E947B09CE010E9463098881B5
:1019800061E00E94481E82E890E00E945C1DDF91A9
:10199000CF910895CF93DF93EC01888161E00E949D
:1019A000091E898161E00E94091E0E94DD0E888166
:1019B00060E00E94481ECE0161E070E00E941609BE
:1019C00065E070E080E090E00E94A11DCE0164E03F
:1019D0004FE40E94300ACE0163E070E00E94A00B49
:1019E000CE0162E070E00E946F0B882311F081E06D
:1019F0008B83CE0160E070E00E946F0BCE0162E04D
:101A000070E00E94540BCE016CE140E00E94300A6D
:101A1000CE0167E040E70E94300ACE016CE40E94EC
:101A2000C50ACE010E947B09CE010E946309DF91A5
:101A3000CF910895EF92FF920F931F93CF93DF936F
:101A40007C01162FEA01022F60E070E00E94160967
:101A50001F711EBD0DB407FEFDCF1EB59FEF07C061
:101A60009EBD0DB407FEFDCF8EB5899301500023B6
:101A7000B9F7C70161E070E00E941609812FDF917C
:101A8000CF911F910F91FF90EF900895AF92BF9269
:101A9000CF92DF92EF92FF920F931F93DF93CF933A
:101AA00000D00F92CDB7DEB78C010E94520C0E947D
:101AB0004E1D6B017C015E010894A11CB11CC80184
:101AC00068E0A50121E00E941A0D807331F50E94A3
:101AD0004E1D6C197D098E099F09645F714080401D
:101AE0009040D8F4ECCFC8010E942D09F8018783FB
:101AF000C8010E94810CC8010E9463098F2D0F90BC
:101B00000F900F90CF91DF911F910F91FF90EF9069
:101B1000DF90CF90BF90AF90089598012B5F3F4F1B
:101B2000C801BE016E5F7F4FAE014D5F5F4F0E94E7
:101B30005C0AFA80F80185818823D1F2D4CF089518
:101B4000EF92FF920F931F93CF93DF937B01EA01F4
:101B500097C0853209F08BC00894E11CF11CF70195
:101B60008081882309F491C0853221F48AE296E0CD
:101B700065E281C0833741F48E010E5F1F4F68819B
:101B800079818AE296E057C08436E1F18936D1F155
:101B9000883741F0883581F48AE296E069EF72E097
:101BA0000E9473238E010E5F1F4F688179818AE244
:101BB00096E040E150E02FC0823641F0823481F45B
:101BC0008AE296E06CEF72E00E9473238E010E5F52
:101BD0001F4F688179818AE296E042E050E01BC0A5
:101BE0008C3671F48E010C5F1F4F488159816A81D8
:101BF0007B818AE296E02AE030E00E9420231DC02B
:101C0000833661F48E010E5F1F4F688179818AE20D
:101C100096E04AE050E00E9460230FC08437A1F4B0
:101C20008E010E5F1F4F88819981019741F48AE2EE
:101C300096E06FEF72E00E947323E8011EC08AE213
:101C400096E061E073E0F7CF843589F48E010E5F92
:101C50001F4F88819981019729F48AE296E063E019
:101C600073E0E9CF8AE296E068E073E0E4CF8AE2CD
:101C700096E0F70160810E9446220894E11CF11C65
:101C8000F7018081882309F064CFDF91CF911F9104
:101C90000F91FF90EF900895DF93CF93CDB7DEB70C
:101CA000ED81FE818081918103974CF09E01275F39
:101CB0003F4FCF016F817885A9010E94A00DCF9180
:101CC000DF910895DF93CF93CDB7DEB7ED81FE812D
:101CD0008081918102974CF09E01275F3F4FCF0199
:101CE0006F817885A9010E94A00DCF91DF910895A1
:101CF0000F931F93DF93CF93CDB7DEB70F81188576
:101D0000F801808191811816190684F4C8016EE0EB
:101D100073E040E050E00E94A00D9E01255F3F4F20
:101D2000C80169857A85A9010E94A00DCF91DF9134
:101D30001F910F910895EF92FF920F931F93FC0153
:101D400079018A01CB016530710514F084E090E0DF
:101D500097FF02C080E090E091838083E282F3826B
:101D6000048315838AE296E0B801A70126E00E9469
:101D700054201F910F91FF90EF900895882319F43C
:101D80008CB5806202C08CB58F7D8CBD08959CB5EA
:101D9000937F982B9CBD08952CB5382F33702C7FE2
:101DA000322B3CBD2DB590E09595879595958795FF
:101DB00081702E7F822B8DBD08958AE061E00E94A4
:101DC000481E8AE061E00E94091E8CB580618CBDCE
:101DD0008CB580648CBD8DE061E00E94091E8BE0B3
:101DE00061E00E94091E0895FC011382128215828F
:101DF00014820895FC01828193810895FC0122815F
:101E0000338184819581281B390BC9010895FC0118
:101E1000808191810895DC0112962D913C91139758
:101E200016968D919C911797281739077CF4ED91A0
:101E3000FC911197E20FF31F608312968D919C9194
:101E40001397019613969C938E9312970895DF93A0
:101E5000CF9300D0CDB7DEB7DC017A836983BE01B2
:101E60006F5F7F4FFB01418112962D913C9113973B
:101E700016968D919C911797281739077CF4ED9150
:101E8000FC911197E20FF31F408312968D919C9164
:101E90001397019613969C938E931297FB014081A2
:101EA00012962D913C91139716968D919C911797B0
:101EB000281739077CF4ED91FC911197E20FF31F7D
:101EC000408312968D919C911397019613969C9343
:101ED0008E9312970F900F90CF91DF910895DC01B0
:101EE00014962D913C91159712968D919C91139774
:101EF0002817390714F080E00895ED91FC911197AF
:101F0000E20FF31F80812F5F3F4F15963C932E9376
:101F100014970895EF92FF920F931F938C017B010A
:101F2000CB010E94EF1EF80180839183F782E68245
:101F300013821282158214821F910F91FF90EF90ED
:101F40000895FC016F30710514F080E00895E60FEC
:101F5000F71FEE52FF4F80810895EF92FF920F938B
:101F60001F93CF93DF937C01D8018FEF90E0E80EB1
:101F7000F91EF70180819181E1E0FFEFEE0EFF1E77
:101F80000F970CF047C0F701FC96C0E0D0E08081CD
:101F90009181892B09F448C021963296CF30D10522
:101FA000B1F738C08E01000F111F000F111F0E0D69
:101FB0001F1D065A1F4FF8014083518362837383AC
:101FC0000A551040FE017E96EE0FFF1FEE0DFF1D1D
:101FD00031832083FE01E55BFF4FEE0FFF1FEE0D07
:101FE000FF1DB183A083F701EC0FFD1FEE52FF4FE1
:101FF00081E080830E944E1DF8016083718382839B
:102000009383F701E150FF4F808191810196918385
:10201000808302C0CFEFDFEFCE01DF91CF911F9120
:102020000F91FF90EF9008952115310509F0BACF77
:10203000F1CF0F931F9301E010E00E94AD0F1F91AD
:102040000F9108950F931F9300E010E00E94AD0FD1
:102050001F910F9108952F923F924F925F926F922E
:102060007F928F929F92AF92BF92CF92DF92EF9228
:10207000FF920F931F93CF93DF936C010E944E1D2D
:102080001B012C01B6016F517F4FE601A2ED6A2EB4
:10209000712C6C0C7D1CF601EA56FF4F4301AA24FB
:1020A000BB24DB011D921C92EA55F0408081918196
:1020B000E65AFF4F892B09F443C0E880F9800A8172
:1020C0001B81C65ADF4F288139814A815B81CA55FD
:1020D000D040D201C1018E199F09A00BB10B82170C
:1020E0009307A407B50760F12E0D3F1D401F511F38
:1020F000288339834A835B83D4018C91882301F13F
:10210000208131812115310531F441E050E0DB01BE
:102110004D935C9315C0868D978D8217930784F439
:1021200041E050E0DB0111965C934E930196978F4E
:10213000868F8217930724F082E090E08D939C9322
:102140000894A11CB11C6E5F7F4F24960894811CDB
:10215000911C32969FE0A916B10409F0A2CFE601C6
:10216000EC968601065A1F4FFFEFEF2EF12CEC0C78
:10217000FD1C6801CB55DF4F88819981C55AD0403D
:102180008130910519F0029739F504C0E881F98191
:10219000099522C0E881F9810995D7012D913C91DB
:1021A00021153105C9F088819981892BA9F01982FF
:1021B0001882F3011082D8011D921D921D921C926B
:1021C0001397C858DF4F19821882C857D040215042
:1021D0003040F7013183208322960894611C711CE2
:1021E0000C5F1F4FCC15DD0529F6DF91CF911F91B4
:1021F0000F91FF90EF90DF90CF90BF90AF909F90A6
:102200008F907F906F905F904F903F902F900895A8
:102210000F931F93CF93DF93EC010E944E1DAE01ED
:102220004E525F4FFE01FC968E0120E030E0DA0155
:102230001D92AD0111821082D8016D937D938D9313
:102240009D938D01E858FF4F118210822F5F3F4F01
:10225000E657F0402F30310551F7C150DF4F19825A
:102260001882DF91CF911F910F91089581E08093A3
:10227000A00560937D0510929E0510929F0508951C
:1022800081E08093A00560937D0510929E051092D9
:102290009F05089520917C0530E080917B05281BE7
:1022A0003109C901089540917B0580917C0548174B
:1022B00018F02FEF3FEF0AC0E42FF0E0E55AFA4F95
:1022C0008081282F30E04F5F40937B05C90108953E
:1022D000E0917B0580917C05E81718F0EFEFFFEFA8
:1022E00006C0F0E0E55AFA4F8081E82FF0E0CF0118
:1022F000089508951092A4051092A30588EE93E026
:10230000A0E0B0E08093A5059093A605A093A70553
:10231000B093A80584E693E09093A2058093A1056D
:102320000895CF92DF92EF92FF920F931F93CF9376
:10233000DF937C016B018A018091A0058823A1F0C5
:10234000C0E0D0E00DC0D701ED91FC91D601AC0FFB
:10235000BD1F0190F081E02DC7016C910995219678
:10236000C017D10780F304C0CB01642F0E94C312B1
:10237000C801DF91CF911F910F91FF90EF90DF90F7
:10238000CF900895DF93CF930F92CDB7DEB7FC01C6
:1023900069838091A0058823C9F080919F058032D0
:1023A00038F081E090E09383828320E030E015C034
:1023B00080919E05E82FF0E0E258FA4F99819083D2
:1023C0008F5F80939E0580939F0505C0CE01019687
:1023D00061E00E94C31221E030E0C9010F90CF916B
:1023E000DF9108950F93062F80917D056EE775E0CC
:1023F00040919F0521E00E946E1210929E0510925E
:102400009F051092A0050F91089561E00E94F211BE
:102410000895413208F040E2862F6BE575E00E9496
:10242000251210927B0580937C05089521E00E947F
:102430000912089510927B0510927C0510929E055A
:1024400010929F050E946F140895382F413210F0AA
:1024500040E042C08091AD058823E1F791E0909380
:10246000AD052093AF058FEF80931A061092D50526
:1024700041504093D6054F5F9093AE058091AE05D5
:10248000330F832B8093AE058091B005813041F4EA
:102490001092B0058091AE058093BB0085EC01C021
:1024A00085EE8093BC008091AD058130E1F3809191
:1024B000D505841710F44091D50520E030E00AC01E
:1024C000FB01E20FF31FD901AB54BA4F8C9180830B
:1024D0002F5F3F4F2417A0F3842F08950F931F936E
:1024E000582F122F413210F081E04AC08091AD0583
:1024F0008823E1F782E08093AD050093AF058FEF6D
:1025000080931A061092D5054093D605A5EBB5E049
:10251000FB0102C081918D938E2F861B8417D0F30F
:102520001092AE058091AE05550F852B8093AE05B8
:102530008091B005813041F41092B0058091AE05D4
:102540008093BB0085EC01C085EE8093BC00112315
:1025500021F08091AD058230E1F380911A068F3F22
:1025600011F480E00DC080911A06803211F482E0EF
:1025700007C080911A06803311F084E001C083E027
:102580001F910F910895482F613210F081E0089556
:102590008091AD05843011F082E008956093F805D4
:1025A000A7EDB5E0842F9C01F90102C081918D93C4
:1025B0008E2F841B8617D0F380E008951F920F9210
:1025C0000FB60F9211242F933F934F935F936F9306
:1025D0007F938F939F93AF93BF93EF93FF938091DC
:1025E000B90090E0887F90708036910509F4F2C0C0
:1025F00081369105CCF58832910509F47BC089328A
:102600009105B4F48031910509F46FC081319105D1
:102610003CF4009709F447C1089709F04FC165C021
:102620008831910509F466C0809709F047C182C0DE
:102630008034910509F4A4C08134910544F48033B9
:10264000910509F482C0C89709F038C189C0803566
:10265000910509F489C08835910509F496C088343C
:10266000910509F02BC1AEC08839910509F413C159
:1026700089399105ECF48837910509F4ABC08937A5
:1026800091054CF48836910509F4A4C08037910572
:1026900009F014C19FC08838910509F4FCC0803945
:1026A000910509F49DC08038910509F007C198C0D3
:1026B000803B910509F4C6C0813B91054CF4803AFA
:1026C000910509F49FC0883A910509F0F7C0BAC096
:1026D000803C910509F4E3C0883C910509F4DFC012
:1026E000883B910509F0EAC0C2C08091AE05809395
:1026F000BB00CFC09091D5058091D605981768F49E
:102700009091D505E92FF0E0EB54FA4F808180934A
:10271000BB009F5F9093D505BCC08091AF05882317
:1027200009F44BC085ED8093BC008091BC0084FD12
:10273000FCCFC2C080E280931A0685ED8093BC0076
:102740008091BC0084FDFCCFB7C080E380931A0663
:1027500085ED8093BC008091BC0084FDFCCFACC0B3
:1027600088E380931A069BC08091D5059091BB00A9
:10277000E82FF0E0EB54FA4F90838F5F8093D505FC
:102780009091D5058091D60582C08091D505909114
:10279000BB00E82FF0E0EB54FA4F90838F5F8093FB
:1027A000D5058091AF05882341F085ED8093BC006D
:1027B0008091BC0084FDFCCF7FC081E08093B00598
:1027C00084EA6EC085ED8093BC008091BC0084FDDE
:1027D000FCCF72C083E08093AD051092190659C0FA
:1027E00080911906803208F056C0809119069091A8
:1027F000BB00E82FF0E0E750FA4F90838F5F8093A3
:10280000190647C080911906803230F4E09119060C
:10281000F0E0E750FA4F108285ED8093BC00809184
:10282000BC0084FDFCCF1092AD0560911906E091CB
:10283000B305F091B40589EF95E070E00995109229
:1028400019062DC084E08093AD051092F705109213
:10285000F805E091B105F091B20509958091F80570
:10286000882329F481E08093F8051092D705909190
:10287000F705E92FF0E0E952FA4F80818093BB0021
:102880009F5F9093F7059091F7058091F805981751
:1028900010F485EC01C085E88093BC000FC085EC86
:1028A0008093BC0009C010921A0685ED8093BC008D
:1028B0008091BC0084FDFCCF1092AD05FF91EF919B
:1028C000BF91AF919F918F917F916F915F914F9148
:1028D0003F912F910F900FBE0F901F90189510925F
:1028E000AD0581E08093AF051092B00582E161E013
:1028F0000E94481E83E161E00E94481EE9EBF0E07F
:1029000080818E7F808380818D7F808388E4809327
:10291000B80085E48093BC000895FC0113861586F9
:10292000148687E090E012863197009711F00197A6
:10293000FACF0895DC0180E00BC0E82FF0E08D9124
:1029400090E0E827F927E55DFD4FE49161508E2F77
:10295000662399F70895DF92EF92FF920F931F93EA
:10296000FC01E08001811281F894F80181818E29B7
:1029700081838281DE2CD0948D21828383E090E05C
:102980000E945C1DF80181818D2181838AE090E0A5
:102990000E945C1DF8010081789485E390E00E941C
:1029A0005C1D80E010E0FF240E211F21012B09F0A7
:1029B00081E01F910F91FF90EF90DF900895EF92CB
:1029C000FF920F931F93CF93DF937C0101E010E000
:1029D000C0E0D0E0C7010E94AB148111102B000FA2
:1029E0002196C830D105B1F7812FDF91CF911F918A
:1029F0000F91FF90EF9008951F93CF93DF93FC0109
:102A00001081C181D281912F909560FF12C0F894FE
:102A10008A8189238A838981812B89838AE090E056
:102A20000E945C1D8A81812B8A83789487E390E0E1
:102A300011C0F8948A8189238A838981812B8983B3
:102A400081E490E00E945C1D8A81812B8A837894C6
:102A500085E090E00E945C1DDF91CF911F91089569
:102A6000CF92DF92EF92FF920F931F93CF93DF935A
:102A70008C01E42EFF24F394C0E0D0E0C62EDD24C8
:102A800060E08F2D90E08C219D21892B09F061E081
:102A9000C8010E94FC14FF0C2196C830D10581F7B3
:102AA000EE20A9F4F894D8011196ED91FC911297BB
:102AB00091818C918095982391831196ED91FC9151
:102AC000129792818C918095982392837894DF91CC
:102AD000CF911F910F91FF90EF90DF90CF900895CD
:102AE0006CEC40E00E9430150895EF92FF920F9336
:102AF0001F93CF93DF938C017B0165E540E00E943B
:102B00003015C0E0D0E0F701EC0FFD1FC801608177
:102B100040E00E9430152196C830D105A1F7DF9121
:102B2000CF911F910F91FF90EF900895DF92EF9258
:102B3000FF920F931F93CF93DF93FC010081C1811C
:102B4000D281F8948981D02ED0948D218983789474
:102B50001DE7E02EFF24115059F182E090E00E9421
:102B60005C1D888190E08E219F21892BA1F3F89430
:102B70008A818D218A838981802B8983789480EE54
:102B800091E00E945C1DF89489818D21898386E4FF
:102B900090E00E945C1D888110E090E0E822F9221C
:102BA000EF2809F411E078948AE991E00E945C1D15
:102BB000812FDF91CF911F910F91FF90EF90DF90C8
:102BC0000895AF92BF92DF92EF92FF920F931F93FF
:102BD000CF93DF93EC015B018D85882309F061C001
:102BE000CE010E949615882329F41B861D861C861B
:102BF00090E06BC0CE0160EF40E00E94301501E034
:102C0000DD24EE24FF24F394CE010E94AB14182F90
:102C1000CE010E94AB14113019F48130E1F439C0B7
:102C2000181709F58B85081770F460E0FE01EE0DAA
:102C3000F11D838190E02F2D30E08223932318161D
:102C400019064CF003C060E0081729F0093008F0BD
:102C50004CC00C874AC0FE01EE0DF11D83818F2907
:102C6000838361E009C0612FFE01EE0DF11D9F2DF0
:102C70009095838189238383CE010E94FC140F5F8A
:102C8000FF0C19F4E394FF24F39487E08E1508F009
:102C9000BBCF013430F0DB86DD2011F581E08D877C
:102CA0001FC01B861D861C8690E0DE0120E030E000
:102CB000F501E20FF31F13968C91139780832F5F1A
:102CC0003F4F11962830310599F7892FDF91CF9129
:102CD0001F910F91FF90EF90DF90BF90AF900895FC
:102CE0008B818823F1F291E0E0CFD02EBDCFFF920F
:102CF0000F931F938C01F62E862F60E00E94091E11
:102D00008F2D90E0FC01E35AFC4FE491D801EC9345
:102D1000875B9C4FFC016491E62FF0E0EE0FFF1FF4
:102D2000E15CFC4F8591949112969C938E93119740
:102D30001B961C921B971D961C921D971C961C920D
:102D4000F80187E090E012863197009711F0019723
:102D5000FACF1F910F91FF900895FC0183E797E14F
:102D6000928B818B768365831482108289E08183C4
:102D700081E08283838308956F927F928F929F92E6
:102D8000AF92BF92CF92DF92EF92FF920F931F9379
:102D9000CF93DF93FB01EA01998180E0288130E045
:102DA000282B392BE081E23231F0E83221F0E0319A
:102DB00009F084C04BC04C814F3329F1403420F4DA
:102DC0004F3109F07BC02FC04F3579F04F3709F0F4
:102DD00075C0B901882777FD8095982F0E94B72785
:102DE00020E030E040E85DE32EC035952795B9013D
:102DF000882777FD8095982F0E94B72720E030E044
:102E000040E05EE320C03595279535952795B901BB
:102E1000882777FD8095982F0E94B72720E030E023
:102E200040E85EE310C093E0359527959A95E1F769
:102E3000B901882777FD8095982F0E94B72720E059
:102E400030E040E05FE30E946B2832C0EF803595B0
:102E50002795B901882777FD8095982F0E94B7277D
:102E600020E030E040E85EE30E94B3263B014C01E5
:102E70006E2D70E02E81621B7109882777FD809589
:102E8000982F0E94B7275B016C01FF2400E010E03F
:102E9000C801B7010E94B5279B01AC01C601B5016D
:102EA0000E941C279B01AC01C401B3010E94B426FF
:102EB0009B01AC01832F942F752F00C0262F382F34
:102EC000492F572FB901CA01DF91CF911F910F915F
:102ED000FF90EF90DF90CF90BF90AF909F908F903A
:102EE0007F906F9008950895EF92FF920F931F9334
:102EF0008C017B01FC01858196810E949615F80169
:102F000085819681B7010E947515F80185819681AA
:102F100064EB40E00E943015F801858196810E94A3
:102F2000AB14F82EF801858196810E94961580E0F9
:102F3000FF2009F481E01F910F91FF90EF90089519
:102F4000CF92DF92EF92FF920F931F938C016B0150
:102F50007A01FC01858196810E949615F801858190
:102F60009681B6010E947515F801858196816EEBF8
:102F700040E00E943015F801858196810E94DF149F
:102F8000F7018083F801858196810E94DF14F701A3
:102F90008183F801858196810E94DF14F701828385
:102FA000F801858196810E94DF14F7018383F8017F
:102FB000858196810E94DF14F7018483F801858161
:102FC00096810E94DF14F7018583F801858196813F
:102FD0000E94DF14F7018683F801858196810E94A3
:102FE000DF14F7018783F801858196810E94DF1441
:102FF000F7018087F801858196810E9496151F91BF
:103000000F91FF90EF90DF90CF900895DF93CF93D3
:10301000CDB7DEB729970FB6F894DEBF0FBECDBF90
:10302000AE014F5F5F4F0E94A0178981811181E03F
:1030300029960FB6F894DEBF0FBECDBFCF91DF91BA
:103040000895CF92DF92EF92FF920F931F93CF9349
:10305000DF93EC016B01452BE1F08B818823C9F0F4
:1030600088818823B1F40E944E1D7B018C01CE0122
:1030700060E070E00E940618882359F40E944E1DFB
:103080006E197F09800B910B6E5E724080409040FC
:1030900070F3F6016081693039F06930A0F06A3070
:1030A00041F06B3081F40AC06EE570E080E090E0A2
:1030B0000EC06CEB70E080E090E009C067E771E063
:1030C00080E090E004C06EEE72E080E090E00E944C
:1030D000A11DDF91CF911F910F91FF90EF90DF9095
:1030E000CF900895CF93DF93EC018D819E810E9454
:1030F00096158D819E810E9470158D819E8164E45C
:1031000048810E9430158A81882339F0CE012196AA
:10311000BE0140E050E00E942118DF91CF91089558
:103120000F931F938A010E94A017C80168E00E94B4
:103130009A1420E0F8019085891709F421E0822F84
:103140001F910F910895CF92DF92EF92FF920F930C
:103150001F93DF93CF93CDB7DEB729970FB6F894BF
:10316000DEBF0FBECDBF8C017B016E010894C11C78
:10317000D11CA6010E949018882329F460E070E019
:103180008EEF92EC05C0C801B701A6010E94BC16E3
:1031900029960FB6F894DEBF0FBECDBFCF91DF9159
:1031A0001F910F91FF90EF90DF90CF900895DF93E4
:1031B000CF93CDB7DEB729970FB6F894DEBF0FBE19
:1031C000CDBF9C01FB0180818031D9F0C901AE01E6
:1031D0004F5F5F4F0E9490188823A9F08D818F3335
:1031E00071F0803418F48F3171F40BC08F3519F001
:1031F0008F3749F402C08BE007C08CE005C08AE03D
:1032000003C089E001C080E029960FB6F894DEBFC4
:103210000FBECDBFCF91DF9108950F931F938B0108
:10322000CB0167E00E949A1420E0F801978189178A
:1032300009F421E0822F1F910F910895EF92FF92E0
:103240000F931F93CF93DF93EC017B01042F8D81AC
:103250009E810E948D1410E007C0CE01B7010E942C
:103260000D198823A9F00AC08D819E81B7010E94A3
:10327000E115882329F0101759F4EFCF81E001C040
:1032800080E0DF91CF911F910F91FF90EF90089513
:103290001F5F0117A8F3E8CFEF92FF920F931F93E0
:1032A000DF93CF93CDB7DEB728970FB6F894DEBF84
:1032B0000FBECDBF7C01462F8E010F5F1F4FB8019F
:1032C0000E941E19C701B8010E94A31828960FB6C4
:1032D000F894DEBF0FBECDBFCF91DF911F910F914C
:1032E000FF90EF900895AF92BF92CF92DF92EF924E
:1032F000FF920F931F93DF93CF93CDB7DEB7619704
:103300000FB6F894DEBF0FBECDBF7C01FC018581F6
:1033100096810E948D14F70114826E010894C11CDD
:10332000D11C79E0A72EB12CAC0EBD1E01E02BC044
:10333000C701B6010E940D19882329F1F701808188
:10334000882341F4C701B6010E947417882311F045
:10335000F7010083C701B601A5010E94A017F7017C
:103360001181C701B6010E94D718811718F4F7011F
:10337000818104C0C701B6010E94D718F70181837B
:1033800084818F5F8483F70185819681B6010E94D5
:10339000E115882369F661960FB6F894DEBF0FBE7B
:1033A000CDBFCF91DF911F910F91FF90EF90DF90F4
:1033B000CF90BF90AF9008950895FF920F931F9301
:1033C000FC01F62E01EA15E0C80160810E94361169
:1033D000C8016F2D0E94C211C8010E9405121F91E1
:1033E0000F91FF900895CF92DF92EF92FF920F938B
:1033F0001F93CF93DF93EC018981813071F481EACF
:1034000095E06CE570E00E94401181EA95E06CE582
:1034100070E042E050E00E9416128981882371F426
:1034200081EA95E063E270E00E94401181EA95E054
:1034300063E270E042E050E00E94161281EA95E0FB
:103440000E945311F82EEE2481EA95E00E94531158
:103450006C0181EA95E00E940512EC28FD2800E04D
:1034600010E0C801B7010E94B5272AE939E949E906
:103470005FE30E941C270E948927CB01DF91CF9137
:103480001F910F91FF90EF90DF90CF900895FF92E2
:103490000F931F938C01F62E6AE070E080E090E0BD
:1034A0000E94A11DC8016F2D0E94DD191F910F916F
:1034B000FF900895CF93DF93EC01633219F06C35E0
:1034C00079F407C0688381E160E00E94481E198298
:1034D00007C0688381E161E00E94481E81E0898322
:1034E000DF91CF9108950F931F938C0181EA95E0AE
:1034F0000E941A12C80161E00E94DD1981E161E0B9
:103500000E94091E81E161E00E94481E1F910F91F7
:103510000895FC0166834783208781E085870895AD
:103520000F931F938C01FC01868160E00E94091EAD
:10353000F801868161E00E94481EF801118612861A
:10354000138614861F910F910895CF92DF92EF9208
:10355000FF920F931F93CF93DF93EC018E8161E075
:103560000E94481E6AEF70E080E090E00E94A11D7A
:103570000E944E1D9B01AC0189859A85AB85BC8557
:10358000281739074A075B0720F419861A861B8615
:103590001C868D85882371F489859A85AB85BC85C9
:1035A000281B390B4A0B5B0B205D374040405040D5
:1035B00008F477C01D860E944E1D69877A878B8725
:1035C0009C871C821B821A82198218828E8161E07C
:1035D0000E94091E8E8160E00E94481E64E170E036
:1035E00080E090E00E94A11DF8948E8161E00E942D
:1035F000481E88E290E00E945C1D8E8160E00E947F
:10360000091E81E0EE2400E010E00AC0F39481E09E
:1036100090E00E945C1D8FEFF81629F40AC0822FFB
:10362000FF24C82EDD248E810E949C1E8C159D05D2
:1036300069F38E810E949C1E282F8FEFF816C9F027
:10364000043090F000FD10C08E2D869586958695ED
:10365000FE01E80FF11D9081990F908388858F15E9
:1036600010F491609083E3940F5F1F4F05351105AF
:10367000B1F6789487E28E1510F030E013C030E098
:103680004C8150E02981888190E0820F911D2A8130
:10369000820F911D2B81820F911D90704817590741
:1036A00009F431E0832FDF91CF911F910F91FF90AB
:1036B000EF90DF90CF900895EF92FF920F931F93BA
:1036C000CF93DF93EC010E94A51A8823A9F18F8183
:1036D0008B3031F08B3080F18551823068F507C036
:1036E000688170E080E090E00E94B52722C0688188
:1036F00070E080E090E00E94B52720E030E040E8F4
:1037000053E40E946B287B018C01698170E088275B
:1037100077FD8095982F0E94B7279B01AC01C801C7
:10372000B7010E94B42620E030E040E251E40E945C
:103730001C27E62F692F0AC08AE296E066E173E053
:103740000E947323E0E070E080EC6FE72E2F372FAC
:10375000482F562FB901CA01DF91CF911F910F91C8
:10376000FF90EF900895FC019B018081882319F45C
:1037700065E273E002C06BE273E0C9010E9473234B
:103780000895BF92CF92DF92EF92FF920F931F9313
:10379000CF93DF937C01EB01009739F4CB0160E21A
:1037A00073E00E9473239C0143C0E881F98101907A
:1037B000F081E02DCB0162E209956C0127C03296C1
:1037C0008081882311F08617D1F7B180E881F981D3
:1037D000BB2091F00190F081E02DCE016CE50995C0
:1037E0008C01E881F9810190F081E02DCE016B2DF3
:1037F0000995800F911F05C00190F081E02DCE0149
:1038000009950894E11CF11CC80ED91EF7016081CE
:10381000662319F0E0E3F3E0D3CFE881F98101906A
:10382000F081E02DCE0162E209959601280F391F43
:10383000C901DF91CF911F910F91FF90EF90DF9021
:10384000CF90BF900895FC01808191810E94C11B9F
:1038500008956F927F928F929F92AF92BF92CF9274
:10386000DF92EF92FF920F931F93CF93DF938C0120
:10387000EB01E881F9810190F081E02DCB016BE74C
:1038800009955C01D80112966D907C90139716965D
:103890008D909C90179734C0F301819191918F0185
:1038A000BE010E94C11B7C01E881F9810190F08179
:1038B000E02DCE016AE309956C01D3011696ED91D6
:1038C000FC911797C801BE010995EC0CFD1CAE0CCC
:1038D000BF1CA80EB91EB1E08B16910451F0E8810F
:1038E000F9810190F081E02DCE016CE20995A80EDE
:1038F000B91EE8E0F0E06E0E7F1E08948108910882
:10390000181419044CF2E881F9810190F081E02D3E
:10391000CE016DE709959501280F391FC901DF9187
:10392000CF911F910F91FF90EF90DF90CF90BF90BC
:10393000AF909F908F907F906F900895FC01CB0186
:1039400040815181628173812AE030E00E9420230E
:103950000895EF92FF920F931F93CF93DF93FC0193
:103960007B01C281D381068117810AC08881998138
:10397000B7010E94FB01009741F0289601501040CA
:10398000101611069CF3C0E0D0E0CE01DF91CF917C
:103990001F910F91FF90EF9008950F931F93CF9376
:1039A000DF93EC018B010E94A91C009719F0FC0128
:1039B000329626C02E813F818C819D812817390740
:1039C0001CF0EBE1F6E010C0C90153E0880F991F2D
:1039D0005A95E1F7EA81FB81E80FF91F01931193F2
:1039E0002F5F3F4F3F832E8380E090E0A0E0B0E068
:1039F00080839183A283B38383E29CE19583848354
:103A0000CF01DF91CF911F910F9108951F920F92D7
:103A10000FB60F9211242F933F938F939F93AF93E1
:103A2000BF938091250690912606A0912706B0911C
:103A30002806309129060196A11DB11D232F2D5F67
:103A40002D3720F02D570196A11DB11D2093290679
:103A50008093250690932606A0932706B093280608
:103A60008091210690912206A0912306B091240610
:103A70000196A11DB11D8093210690932206A0936B
:103A80002306B0932406BF91AF919F918F913F91F0
:103A90002F910F900FBE0F901F9018958FB7F8942D
:103AA0002091250630912606409127065091280640
:103AB0008FBFB901CA010895019739F0880F991F86
:103AC000880F991F02970197F1F70895789484B5AC
:103AD000826084BD84B5816084BD85B5826085BD0A
:103AE00085B5816085BDEEE6F0E0808181608083F0
:103AF000E1E8F0E0108280818260808380818160D3
:103B00008083E0E8F0E0808181608083E1EBF0E099
:103B1000808184608083E0EBF0E08081816080833D
:103B2000EAE7F0E080818460808380818260808326
:103B30008081816080838081806880831092C10051
:103B40000895EF92FF920F931F93CF93DF937B0122
:103B50008C013FB7F8948091210690912206A091A4
:103B60002306B091240626B5A89B05C02F3F19F067
:103B70000196A11DB11D3FBFBA2FA92F982F8827ED
:103B8000820F911DA11DB11D52E0880F991FAA1F20
:103B9000BB1F5A95D1F7EC0130C00E94D1253FB729
:103BA000F8948091210690912206A0912306B0916D
:103BB000240626B5A89B05C02F3F19F00196A11D2C
:103BC000B11D3FBFBA2FA92F982F8827820F911DB3
:103BD000A11DB11D32E0880F991FAA1FBB1F3A9586
:103BE000D1F78C1B9D0B885E9340B8F20894E108D6
:103BF000F10801091109C851DC4FE114F104010574
:103C0000110559F6DF91CF911F910F91FF90EF9021
:103C10000895CF93DF93482F50E0CA01835A9C4FF9
:103C2000FC013491475B5C4FFA018491882369F170
:103C300090E0880F991FFC01E55DFC4FA591B491C0
:103C4000FC01EB5CFC4FC591D491662351F42FB776
:103C5000F8948C91932F909589238C938881892354
:103C60000BC0623061F42FB7F8948C91932F90952C
:103C700089238C938881832B88832FBF06C09FB7AD
:103C8000F8948C91832B8C939FBFDF91CF910895F3
:103C9000482F50E0CA018F589C4FFC012491CA0163
:103CA000835A9C4FFC019491475B5C4FFA0134911D
:103CB000332309F440C0222351F1233071F0243022
:103CC00028F42130A1F0223011F514C02630B1F0D3
:103CD0002730C1F02430D9F404C0809180008F7760
:103CE00003C0809180008F7D8093800010C084B5D8
:103CF0008F7702C084B58F7D84BD09C08091B000EC
:103D00008F7703C08091B0008F7D8093B000E32F48
:103D1000F0E0EE0FFF1FEB5CFC4FA591B4912FB7C5
:103D2000F894662321F48C919095892302C08C919C
:103D3000892B8C932FBF0895682F70E0CB018F588B
:103D40009C4FFC012491CB01835A9C4FFC01449170
:103D5000675B7C4FFB019491992319F420E030E0DC
:103D60003CC0222351F1233071F0243028F421305B
:103D7000A1F0223011F514C02630B1F02730C1F087
:103D80002430D9F404C0809180008F7703C08091E3
:103D900080008F7D8093800010C084B58F7702C033
:103DA00084B58F7D84BD09C08091B0008F7703C03A
:103DB0008091B0008F7D8093B000892F90E0880FB4
:103DC000991F815C9C4FFC01A591B4918C9120E0DE
:103DD00030E0842311F021E030E0C90108950F9311
:103DE0001F93CF93DF93BC018230910510F462E002
:103DF00070E0E091CA06F091CB0640E050E0A0E010
:103E0000B0E024C08081918186179707D0F0861793
:103E1000970771F482819381109729F013969C93F0
:103E20008E9312972CC09093CB068093CA0627C01E
:103E30004115510519F08417950718F48D01AC014F
:103E4000EF01DF01828193819C01F9013097D1F666
:103E500041155105F9F0CA01861B970B8430910575
:103E600080F48A819B810115110521F0F80193836B
:103E7000828304C09093CB068093CA06FE013296DB
:103E800045C0FE01E80FF91F619371930297998372
:103E900088833CC08091C8069091C906892B41F463
:103EA00080915603909157039093C9068093C8065A
:103EB00040915803509159034115510541F44DB7B4
:103EC0005EB78091540390915503481B590B209184
:103ED000C8063091C90624173507B0F4CA01821B01
:103EE000930B8617970780F0AB014E5F5F4F8417E7
:103EF000950750F0420F531F5093C9064093C806D0
:103F0000F9016193719302C0E0E0F0E0CF01DF912D
:103F1000CF911F910F910895CF93DF939C0100974C
:103F200009F48FC0EC0122971B821A826091CA06A5
:103F30007091CB066115710581F488819981820F9A
:103F4000931F2091C8063091C9062817390739F503
:103F5000D093C906C093C80674C0DB0140E050E0AE
:103F6000AC17BD0708F1BB83AA83FE0121913191F3
:103F7000E20FF31FAE17BF0779F48D919C91119753
:103F8000280F391F2E5F3F4F3983288312968D915A
:103F90009C9113979B838A834115510571F4D093AB
:103FA000CB06C093CA064DC012968D919C91139773
:103FB000AD01009711F0DC01D3CFDA011396DC9349
:103FC000CE931297FA0121913191E20FF31FCE1790
:103FD000DF0769F488819981280F391F2E5F3F4FD1
:103FE000FA01318320838A819B8193838283E0E07D
:103FF000F0E0DB0112968D919C911397009719F0D8
:10400000BC01FD01F6CFAB014E5F5F4FDB018D912F
:104010009C91840F951F2091C8063091C9062817DE
:10402000390779F4309729F41092CB061092CA061A
:1040300002C013821282425050405093C9064093EE
:10404000C806DF91CF910895DC015C968C915C9756
:10405000FD01E80FF11DE35AFF4F20815C968C9122
:104060005C9790E001968F7390705C968C935C9750
:104070005696ED91FC91579720835096ED91FC91C7
:1040800051978081806480835B969C915B975C965E
:104090008C915C97981739F45296ED91FC91539757
:1040A00080818F7D80830895DF92EF92FF920F933E
:1040B0001F93CF93DF93EC017A018B01D22EE88915
:1040C000F98982E08083403081EE580780E06807FC
:1040D00080E07807A1F060E079E08DE390E0A8014E
:1040E00097010E94F12821503040404050405695A1
:1040F00047953795279580E12030380798F0E88973
:10410000F989108260E874E88EE190E0A8019701D7
:104110000E94F1282150304040405040569547952C
:1041200037952795EC85FD853083EE85FF852083C7
:10413000188EEC89FD89D082EA89FB8980818061B3
:104140008083EA89FB89808188608083EA89FB8992
:10415000808180688083EA89FB8980818F7D80836C
:10416000DF91CF911F910F91FF90EF90DF90089515
:10417000FC01218D828D30E0205C3F4F281B3109EE
:104180002F733070C9010895FC01918D828D9817AD
:1041900019F42FEF3FEF06C0828DE80FF11D858DDA
:1041A000282F30E0C9010895DC0159969C91599758
:1041B0005A968C915A97981719F42FEF3FEF10C029
:1041C0005A968C915A97FD01E80FF11D958D5A96DC
:1041D0008C915A978F5F8F735A968C93292F30E06A
:1041E000C9010895CF93DF93EC01888D882361F492
:1041F00019C08C9185FF0AC0E889F989808185FF03
:1042000005C0CE010E942420AA89BB898C9185FD1E
:1042100005C0E889F989808186FD04C00FB607FED4
:10422000E8CFF4CFDF91CF9108950F931F93CF93F1
:10423000DF93EC01062F9B8D8C8D981791F5E88903
:10424000F989808185FF2DC0EE89FF896083E88927
:10425000F9898081806480831DC00FB607FC08C087
:10426000E889F989808185FF03C0CE010E9424205E
:104270008C8D181791F38B8DFE01E80FF11DE35A19
:10428000FF4F00831B8FEA89FB89808180628083D6
:1042900081E0888F81E090E0DF91CF911F910F91B5
:1042A00008951B8D1F5F1F73E3CF8DED91E2892B66
:1042B00051F080E090E0892B31F00E94DD218823CD
:1042C00011F00E94000008951F920F920FB60F92F6
:1042D00011242F938F939F93EF93FF93E0913A06CE
:1042E000F0913B06808182FD16C0E0914006F0917E
:1042F00041062081909143069F5F9F738091440601
:10430000981771F0E0914306F0E0E65DF94F258FD4
:104310009093430605C0E0914006F0914106E0818C
:10432000FF91EF919F918F912F910F900FBE0F9062
:104330001F90189510922D0610922C0688EE93E08F
:10434000A0E0B0E080932E0690932F06A093300655
:10435000B093310684E793E090932B0680932A066E
:1043600085EC90E0909337068093360684EC90E0DD
:10437000909339068093380680EC90E090933B064A
:1043800080933A0681EC90E090933D0680933C0642
:1043900082EC90E090933F0680933E0686EC90E09E
:1043A0009093410680934006109243061092440673
:1043B000109245061092460608958AE296E00E9401
:1043C000B82020E0892B09F021E0822F08951F9268
:1043D0000F920FB60F9211242F933F934F935F9339
:1043E0006F937F938F939F93AF93BF93EF93FF93BD
:1043F0008AE296E00E942420FF91EF91BF91AF9155
:104400009F918F917F916F915F914F913F912F91EC
:104410000F900FBE0F901F901895CF93DF930E94BF
:10442000661D0E94CB08C5E5D1E20E94C208209714
:10443000E1F30E945521F9CFCF92DF92EF92FF92E4
:104440000F931F93CF93DF937C016B018A01C0E030
:10445000D0E00FC0D6016D916D01D701ED91FC91B7
:104460000190F081E02DC7010995C80FD91F0150B7
:1044700010400115110571F7CE01DF91CF911F9109
:104480000F91FF90EF90DF90CF900895DC01ED91B8
:10449000FC910190F081E02D099508959C01DB01CC
:1044A000ED91FC910190F081E02DCB01B9010995CE
:1044B0000895EF92FF920F931F938C01DC01ED9111
:1044C000FC910190F081E02D6DE009957C01D8010F
:1044D000ED91FC910190F081E02DC8016AE0099511
:1044E0009C012E0D3F1DC9011F910F91FF90EF9070
:1044F0000895EF92FF920F931F937C01DC01ED91E1
:10450000FC910190F081E02D09958C01C7010E947A
:104510005922080F191FC8011F910F91FF90EF90AA
:104520000895CF93DF93EC016115710519F420E034
:1045300030E00FC0DB010D900020E9F71197A61BBA
:10454000B70BE881F9810280F381E02DAD01099577
:104550009C01C901DF91CF9108954F925F927F92A4
:104560008F929F92AF92BF92CF92DF92EF92FF9283
:104570000F931F93DF93CF93CDB7DEB7A1970FB6FD
:10458000F894DEBF0FBECDBF2C01742ECB012230BC
:1045900008F42AE019A231E2C32ED12CCC0EDD1E84
:1045A000822E9924AA24BB24672D752FA50194017E
:1045B0000E94F12879018A01C801B701A50194017F
:1045C0000E94D228472D461B0894C108D1084A30C2
:1045D00014F4405D01C0495CF6014083E114F1042C
:1045E0000105110521F07E2C5F2DC801DDCFC20130
:1045F000B6010E949122A1960FB6F894DEBF0FBEBD
:10460000CDBFCF91DF911F910F91FF90EF90DF9081
:10461000CF90BF90AF909F908F907F905F904F9082
:104620000895DC012115310541F4ED91FC910190D3
:10463000F081E02D642F099508950E94AD22089520
:10464000CF92DF92EF92FF920F931F93CF93DF935E
:10465000EC016A017B012115310541F4E881F98102
:104660000190F081E02D642F09951FC02A3031059B
:10467000D1F477FF17C0E881F9810190F081E02D36
:104680006DE209958C0144275527BA014C195D0943
:104690006E097F09CE012AE00E94AD229801280F01
:1046A000391F04C02AE00E94AD229C01C901DF919C
:1046B000CF911F910F91FF90EF90DF90CF900895D1
:1046C000EF92FF920F931F937B019A010027F7FC53
:1046D0000095102FB801A7010E9420231F910F9170
:1046E000FF90EF9008950E94912208957F928F92FB
:1046F0009F92AF92BF92CF92DF92EF92FF920F9371
:104700001F93CF93DF934C017A018B01722ECB0163
:10471000BA01A80197010E94CE28882321F0C40184
:1047200060E473E021C0C0E0D0E057016801E89484
:10473000D7F8C601B5012FEF3FEF4FE75FE70E94C3
:10474000CE28882351F4C601B5012FEF3FEF4FE784
:104750005FE70E941827181614F0C1E0D0E02197F7
:1047600039F0C40164E473E00E949122EC0193C02B
:10477000C801B7012FEF3FEF4FE75FE40E946728C2
:10478000181654F0C801B7012FEF3FEF4FE75FEC69
:104790000E941827882324F4C40168E473E0E4CF5E
:1047A000C801B70120E030E040E050E00E94182747
:1047B00087FD03C0C0E0D0E00EC0D401ED91FC91B4
:1047C0000190F081E02DC4016DE20995EC0117FB29
:1047D000109517F9109520E030E040E05FE3DD240C
:1047E0000BC0CA01B90120E030E040E251E40E9470
:1047F0001C279B01AC01D394D71498F3C801B701CF
:104800000E94B4265B016C010E9489277B018C0108
:10481000C401B801A7012AE030E00E941123C80FAB
:10482000D91F772039F0C4016CE473E00E94912213
:10483000C80FD91FC801B7010E94B5279B01AC0161
:10484000C601B5010E94B32624C020E030E040E25A
:1048500051E40E946B287B018C010E9484275B013C
:104860006C01CC24B7FCC094DC2CC401B601A501BA
:104870002AE030E00E942023C80FD91FC601B501ED
:104880000E94B7279B01AC01C801B7010E94B32663
:104890007A947720D1F6CE01DF91CF911F910F91BD
:1048A000FF90EF90DF90CF90BF90AF909F908F9050
:1048B0007F9008950E9476230895FC019B018481D6
:1048C00095816817790728F46081718161157105F8
:1048D00029F41092C70667EC76E002C0620F731FDE
:1048E000CB0108950F931F93CF93DF93EC018B01BE
:1048F0006F5F7F4F888199810E94D225009711F4C4
:1049000080E005C0998388831B830A8381E0DF915F
:10491000CF911F910F910895CF93DF93EC01888180
:104920009981892B29F08A819B818617970760F4EA
:10493000CE010E947224882341F08C819D81892BB5
:1049400019F4E881F981108281E0DF91CF91089517
:10495000EF92FF920F931F93CF93DF93EC017B01B4
:104960006C817D81E114F104C1F04115510599F08C
:104970008A01060F171FB8010E948C24882369F052
:10498000888199812C813D81820F931FB7010E94FC
:1049900004021D830C8381E001C080E0DF91CF9190
:1049A0001F910F91FF90EF900895EF92FF920F9358
:1049B0001F93DF93CF9300D000D0CDB7DEB77C013B
:1049C000862F90E08E010F5F1F4FB8014AE050E044
:1049D0000E940B02F80101900020E9F73197E01BDB
:1049E000F10BC701B801AF010E94A8240F900F90EE
:1049F0000F900F90CF91DF911F910F91FF90EF904B
:104A00000895DF93CF9300D0CDB7DEB769831A82C4
:104A1000BE016F5F7F4F41E050E00E94A8240F90DD
:104A20000F90CF91DF9108956115710511F480E029
:104A30000895DB010D900020E9F71197A61BB70B35
:104A4000AD010E94A8240895CF93DF93EC018881E3
:104A50009981009711F00E948C1F198218821D8283
:104A60001C821B821A82DF91CF9108950F931F93AE
:104A7000182F092F0E94D524882321F4812F902FED
:104A80000E942425812F902F1F910F910895EF925E
:104A9000FF920F931F93CF93DF93EC017B018A0169
:104AA000BA010E948C24882321F4CE010E9424257F
:104AB00007C01D830C8388819981B7010E9404027D
:104AC000CE01DF91CF911F910F91FF90EF9008954C
:104AD000CF93DF93EC01198218821B821A821D8208
:104AE0001C826115710551F0DB010D900020E9F782
:104AF0001197A61BB70BAD010E944725DF91CF91FF
:104B000008950F931F93182F092F6115710559F000
:104B1000DB010D900020E9F71197A61BB70BAD0143
:104B20000E94472502C00E942425812F902F1F91AB
:104B30000F910895CF93DF93EC01FB018617970740
:104B400061F0608171816115710529F044815581A1
:104B50000E94472502C00E942425CE01DF91CF91FB
:104B60000895FC0111821082138212821582148230
:104B70000E949A250895FC011182108213821282EC
:104B8000158214820E949A250895FC0180819181EA
:104B90000E948C1F0895FC01808191810E948C1FCE
:104BA000089508956F927F928F929F92AF92BF92D5
:104BB000CF92DF92EF92FF920F931F93CF93DF93E9
:104BC0008C01009729F4CB010E94EF1E8C01BBC021
:104BD0008EEFE82E8FEFF82EE00EF11E4801860EC4
:104BE000971E8E149F0408F4ACC0D7014D915C91C0
:104BF000119746175707B8F04530510508F4A3C080
:104C0000CA0104978617970708F49DC04250504088
:104C1000461B570BF401419351936D937C93CF0145
:104C20000E948C1F90C05B01A41AB50A3801640E63
:104C3000751EA091CA06B091CB06E0E0F0E0CC244E
:104C4000DD2447C0A615B705A9F5CD91DC911197D4
:104C5000CE0102968A159B0568F1CE018A199B093F
:104C6000029612962C91129713963C91059758F044
:104C7000F40122833383CA19DB09D183C083D701AE
:104C80006D937C9309C04E5F5F4F4C0F5D1FF70122
:104C900051834083C901FC01C114D10431F0D60114
:104CA0001396FC93EE9312974EC0F093CB06E093CD
:104CB000CA0649C08D919C911197E817F90708F42D
:104CC000FC016D0112968C91129713969C919C0198
:104CD000D901109709F0B6CF8091C8069091C90606
:104CE00086159705E9F4E617F707D0F420915803E5
:104CF000309159032115310541F42DB73EB780910C
:104D0000540390915503281B390B82169306C8F45F
:104D10009092C9068092C806F7017183608313C020
:104D2000CB010E94EF1EEC01009759F0D7014D9185
:104D30005C91B8010E94F201C8010E948C1F8E0193
:104D400002C000E010E0C801DF91CF911F910F91E8
:104D5000FF90EF90DF90CF90BF90AF909F908F909B
:104D60007F906F9008955058BB27AA270ED075C129
:104D700066D130F06BD120F031F49F3F11F41EF476
:104D80005BC10EF4E095E7FB51C1E92F77D180F3C9
:104D9000BA17620773078407950718F071F49EF538
:104DA0008FC10EF4E0950B2EBA2FA02D0B01B90187
:104DB00090010C01CA01A0011124FF27591B99F091
:104DC000593F50F4503E68F11A16F040A22F232F9D
:104DD000342F4427585FF3CF469537952795A795ED
:104DE000F0405395C9F77EF41F16BA0B620B730B94
:104DF000840BBAF09150A1F0FF0FBB1F661F771F05
:104E0000881FC2F70EC0BA0F621F731F841F48F4B9
:104E1000879577956795B795F7959E3F08F0B3CF3F
:104E20009395880F08F09927EE0F97958795089529
:104E3000D9D008F481E008950CD00FC107D140F01B
:104E4000FED030F021F45F3F19F0F0C0511139C1AC
:104E5000F3C014D198F39923C9F35523B1F3951BEB
:104E6000550BBB27AA2762177307840738F09F5F8B
:104E70005F4F220F331F441FAA1FA9F333D00E2EFA
:104E80003AF0E0E830D091505040E695001CCAF767
:104E900029D0FE2F27D0660F771F881FBB1F26172C
:104EA00037074807AB07B0E809F0BB0B802DBF01FF
:104EB000FF2793585F4F2AF09E3F510568F0B6C018
:104EC00000C15F3FECF3983EDCF3869577956795DC
:104ED000B795F7959F5FC9F7880F911D96958795B0
:104EE00097F90895E1E0660F771F881FBB1F6217CF
:104EF00073078407BA0720F0621B730B840BBA0B8D
:104F0000EE1F88F7E095089504D06894B111D9C0D8
:104F10000895BCD088F09F5790F0B92F9927B751CA
:104F2000A0F0D1F0660F771F881F991F1AF0BA956D
:104F3000C9F712C0B13081F0C3D0B1E00895C0C04C
:104F4000672F782F8827B85F39F0B93FCCF3869563
:104F500077956795B395D9F73EF4909580957095C0
:104F600061957F4F8F4F9F4F0895E89409C097FB3D
:104F70003EF490958095709561957F4F8F4F9F4F30
:104F80009923A9F0F92F96E9BB279395F695879574
:104F900077956795B795F111F8CFFAF4BB0F11F437
:104FA00060FF1BC06F5F7F4F8F4F9F4F16C08823DE
:104FB00011F096E911C0772321F09EE8872F762F14
:104FC00005C0662371F096E8862F70E060E02AF055
:104FD0009A95660F771F881FDAF7880F9695879541
:104FE00097F90895990F0008550FAA0BE0E8FEEF16
:104FF00016161706E807F907C0F012161306E4079D
:10500000F50798F0621B730B840B950B39F40A2695
:1050100061F0232B242B252B21F408950A2609F473
:10502000A140A6958FEF811D811D089597F99F6777
:1050300080E870E060E008959FEF80EC0895002420
:105040000A941616170618060906089500240A94ED
:1050500012161306140605060895092E0394000C73
:1050600011F4882352F0BB0F40F4BF2B11F460FF02
:1050700004C06F5F7F4F8F4F9F4F089557FD90582B
:10508000440F551F59F05F3F71F04795880F97FB0C
:10509000991F61F09F3F79F08795089512161306C6
:1050A0001406551FF2CF4695F1DF08C016161706F5
:1050B0001806991FF1CF869571056105089408952A
:1050C000E894BB2766277727CB0197F908958ADFF5
:1050D00008F48FEF08950BD0C0CFB1DF28F0B6DF12
:1050E00018F0952309F0A2CFA7CF1124EACFC6DF8D
:1050F000A0F3959FD1F3950F50E0551F629FF001EB
:10510000729FBB27F00DB11D639FAA27F00DB11D43
:10511000AA1F649F6627B00DA11D661F829F2227CC
:10512000B00DA11D621F739FB00DA11D621F839F53
:10513000A00D611D221F749F3327A00D611D231F29
:10514000849F600D211D822F762F6A2F11249F5777
:1051500050408AF0E1F088234AF0EE0FFF1FBB1F9A
:10516000661F771F881F91505040A9F79E3F510539
:1051700070F05CCFA6CF5F3FECF3983EDCF38695F2
:1051800077956795B795F795E7959F5FC1F7FE2BE4
:10519000880F911D9695879597F9089523DF880BC1
:1051A000990B0895629FD001739FF001829FE00DDB
:1051B000F11D649FE00DF11D929FF00D839FF00D96
:1051C000749FF00D659FF00D9927729FB00DE11D42
:1051D000F91F639FB00DE11DF91FBD01CF0111241F
:1051E0000895A1E21A2EAA1BBB1BFD010DC0AA1F28
:1051F000BB1FEE1FFF1FA217B307E407F50720F040
:10520000A21BB30BE40BF50B661F771F881F991FBA
:105210001A9469F760957095809590959B01AC0103
:10522000BD01CF010895AA1BBB1B51E107C0AA1FF6
:10523000BB1FA617B70710F0A61BB70B881F991F37
:105240005A95A9F780959095BC01CD010895EE0F70
:10525000FF1F0590F491E02D099413E0CEE8D3E010
:1052600004C0FE010E9429292296C039D107C9F73E
:04527000F894FFCFE0
:105274006C75726B657200004C45442564206F6E3A
:105284002070696E202564202D2025540A00427563
:105294007A7A6572206F66660A0042757A7A657258
:1052A400206F6E0A0042757A7A6572207374617297
:1052B4007465642E2E2E0A004D6F74696F6E20641F
:1052C400657465637465640A004A6F696E65642079
:1052D4006E6574776F726B0A004D6F74696F6E2020
:1052E400737461727465642E2E2E0A00496C6C7599
:1052F4006D696E616E636520737461727465642E8A
:105304002E2E0A0048756D6964697479207374617E
:10531400727465642E2E2E0A0054656D7065726178
:105324007475726520737461727465642E2E2E0A0E
:105334000074656D70657261747572650068756D71
:10534400696469747900696C6C756D696E616E630A
:1053540065006D6F74696F6E0069640076657273C1
:10536400696F6E005374617274696E672073656E41
:10537400736F72732E2E2E0A0053656E64696E6706
:105384003A2025630A00436F6D6D616E643A2025EF
:10539400630A005761726E696E673A20756E6B6EB0
:1053A4006F776E20636F6D6D20746167205B25637A
:1053B4005D0A005061636B6574207265636569768C
:1053C40065640A00417474656D7074696E67206E5B
:1053D4006574776F726B206A6F696E0A005261643C
:1053E400696F20737461727465642E2E2E0A002313
:1053F4000053657269616C207061636B657420731E
:105404007461727465642E2E2E00240053657269D3
:10541400616C207061636B65742072656365697685
:1054240065642E205B4C656E6774683A2025645D64
:105434000A0052656365697665643A2025730A003B
:105444005061636B6574206C656E6774683A2025DF
:10545400640A004C75726B657220737461727469AE
:105464006E67202D2025730A0030780030620054C6
:10547400004600747275650066616C736500455280
:10548400524F523A200052656164206661696C0093
:105494006E756C6C0066616C736500747275650082
:1054A40022225C5C08620C660A6E0D7209740000AC
:1054B4006E616E00696E66006F7666002E000F00E6
:1054C40010000D008000CC06000000000000291C24
:1054D40000000000C21191114A1153116811791191
:1054E4000000000015211C22B820D420C420F22082
:00000001FF
