:100000000C94C7010C94EF010C94EF010C94EF01D8
:100010000C94EF010C94EF010C94EF010C94EF01A0
:100020000C94EF010C94EF010C94EF010C94EF0190
:100030000C94EF010C94EF010C94EF010C94EF0180
:100040000C94261B0C94EF010C94311E0C94631E2F
:100050000C94EF010C94EF010C94EF010C94EF0160
:100060000C94ED110C94EF01504120506F776572A4
:1000700009203D2025530D0A00435243204C656E54
:1000800067746809203D2025530D0A004D6F646593
:100090006C0909203D2025530D0A0044617461203C
:1000A0005261746509203D2025530D0A0044594EC4
:1000B00050442F4645415455524500434F4E464902
:1000C000470052465F53455455500052465F4348DF
:1000D00000454E5F52584144445200454E5F4141F5
:1000E0000052585F50575F50302D360054585F41D2
:1000F0004444520052585F414444525F50322D35BF
:100100000052585F414444525F50302D31000D0A77
:1001100000253032780020307800255309256320EF
:100120003D000D0A00203078253032780025530933
:100130002563203D004F4253455256455F54583D7C
:10014000253032783A20504F4C535F434E543D2572
:1001500078204152435F434E543D25780D0A0053A9
:1001600054415455530909203D20307825303278C8
:100170002052585F44523D25782054585F44533DE7
:100180002578204D41585F52543D25782052585FC4
:10019000505F4E4F3D25782054585F46554C4C3D9E
:1001A00025780D0A0000010203040511121314152D
:1001B000160A0B0C0D0E0FD501CE01C701BF015061
:1001C000415F48494748004C415F4D45440050411C
:1001D0005F4C4F570050415F4D494E00F101EA011D
:1001E000E2013136206269747300382062697473E9
:1001F0000044697361626C6564000802FE016E521E
:100200004632344C30312B006E524632344C303151
:100210000025021F0217023235304B425053003284
:100220004D42505300314D42505300005EBCE261DC
:100230003FDD83C29C7E20A3FD1F419DC3217FFC27
:10024000A2401E5F01E3BD3E6082DC237D9FC14270
:100250001CFEA0E1BF5D0380DE3C62BEE0025CDF0D
:1002600081633D7C22C09E1D43A1FF4618FAA4274E
:10027000799BC584DA3866E5BB5907DB856739BAEF
:10028000E406581947A5FB7826C49A653BD987042C
:100290005AB8E6A7F91B45C6987A24F8A6441A99D5
:1002A000C7257B3A6486D85B05E7B98CD2306EED02
:1002B000B3510F4E10F2AC2F7193CD114FADF370BF
:1002C0002ECC92D38D6F31B2EC0E50AFF1134DCED8
:1002D00090722C6D33D18F0C52B0EE326C8ED053A5
:1002E0000DEFB1F0AE4C1291CF2D73CA947628ABBE
:1002F000F517490856B4EA6937D58B5709EBB53677
:10030000688AD495CB2977F4AA4816E9B7550B88A3
:10031000D6346A2B7597C94A14F6A8742AC896155C
:100320004BA9F7B6E80A54D7896B350000000800DE
:1003300002010000030407000000000000000001AB
:100340000204081020408001020408102001020469
:10035000081020040404040404040402020202023B
:100360000203030303030300000000230026002907
:100370000000000000250028002B000000000024E1
:100380000027002A00003E070B11931E9B07112433
:100390001FBECFEFD8E0DEBFCDBF13E0A0E0B1E0DD
:1003A000E8EBFEE402C005900D92A23CB107D9F73C
:1003B00026E0A2ECB3E001C01D92A83CB207E1F731
:1003C00013E0CCE8D3E004C02297FE010E94CA24C7
:1003D000C638D107C9F70E94D71E0C944F270C943A
:1003E0000000FC01CB01408151816281738122E0D8
:1003F00030E00C94F3200F931F93CF93DF93C2EC64
:10040000D3E00FEF1FEF6881798177FD08C080EF9F
:1004100093E00E942C10811102C019830883229658
:1004200083E0C63DD80779F7DF91CF911F910F91F7
:1004300008950F931F930E94701B00910305109164
:1004400004052091050530910605601B710B820B98
:10045000930B61367A4E81059105A8F082E00E94E7
:10046000C11C019771F481E0809307050E94701B05
:10047000609303057093040580930505909306052A
:1004800002C0109207051F910F9108950F931F93BB
:10049000CF93DF931F92CDB7DEB7182F062F998326
:1004A0000E948B1C1F920F9399819F931F9387E14A
:1004B00091E09F938F9381E595E09F938F930E94A6
:1004C000C30D0FB6F894DEBF0FBECDBF0F90DF9106
:1004D000CF911F910F910895EF92FF920F931F9369
:1004E00081EF94E00E94730C60E070E081EF94E093
:1004F0000E941F0C63E070E081EF94E00E94FC0B0F
:100500004FE065E081EF94E00E94C30C1092ED0390
:1005100000E010E920E930E940E950E060E070E0F7
:1005200081EF94E00E94500BEE24E39480E9F82ED2
:1005300000E92FEF3FEF4FEF5FEF61E081EF94E0D5
:100540000E948C0BEE24EA9420E930E040E050E079
:1005500062E081EF94E00E948C0B23E133E040E6FF
:100560005AEE60E070E080EF93E00E940A0F8BE2A9
:1005700091E09F938F9381E595E09F938F930E94E5
:10058000C30D0F900F900F900F901F910F91FF9040
:10059000EF900895CF93DF931F92CDB7DEB781EF31
:1005A00094E00E943A0A86ED93E00E940B0E482FD9
:1005B00086ED93E049830E94170EBC01498181EFCB
:1005C00094E00E94FF0A81EF94E00F90DF91CF91B9
:1005D0000C94040A86ED93E00E94050E63E286ED1A
:1005E00093E00E941B0E6AE686ED93E00E941B0ECC
:1005F00061E086ED93E00E941B0E64E286ED93E0DD
:100600000E941B0E0E94CA028DE391E09F938F937C
:1006100081E595E09F938F930E94C30D0F900F90FB
:100620000F900F9008958091ED03811102C00C94FA
:10063000EA02089586ED93E00E94050E63E286EDDE
:1006400093E00E941B0E64E686ED93E00E941B0E71
:100650006AE586ED93E00E941B0E61E086ED93E073
:100660000E941B0E6CE286ED93E00E941B0E64E577
:1006700086ED93E00E941B0E20E030E048EC52E44F
:1006800060912005709121058091220590912305AC
:100690000E940B240E94242386ED93E00E942E0EDC
:1006A0006CE286ED93E00E941B0E68E486ED93E019
:1006B0000E941B0E20E030E048EC52E460910E05F1
:1006C00070910F0580911005909111050E940B24E7
:1006D0000E94242386ED93E00E942E0E6CE286EDAC
:1006E00093E00E941B0E69E486ED93E00E941B0ECE
:1006F000609108057091090586ED93E00E942E0E29
:100700006CE286ED93E00E941B0E6DE486ED93E0B3
:100710000E941B0E6091070586ED93E00E941B0E60
:100720006CE286ED93E00E941B0E63E586ED93E09C
:100730000E941B0E609101057091020586ED93E009
:100740000E942E0E6CE286ED93E00E941B0E64E286
:1007500086ED93E00C941B0E0E941A030C94CA02BF
:1007600081E08093ED0386E591E09F938F9381E58F
:1007700095E09F938F930E94AD0D0F900F900F9077
:100780000F900895CF93DF93EC018B3091058CF49B
:100790002BEF31E040EE53E964E070E080EF93E04E
:1007A0000E94130FFE01EE0FFF1FEE53FC4F9183CB
:1007B0008083DF91CF91089584E295E00E944416F2
:1007C0001092200510922105109222051092230507
:1007D00083E791E09F938F9381E595E09F938F93BB
:1007E0000E94C30D0F900F900F900F90089582E11B
:1007F00095E00E94CE1810920E0510920F051092EF
:100800001005109211058BE891E09F938F9381E57D
:1008100095E09F938F930E94C30D0F900F900F90C0
:100820000F9008958CE095E00E94A01863E28CE0A0
:1008300095E00E942F1860E18CE095E00E94B518C9
:1008400080EA91E09F938F9381E595E09F938F934A
:100850000E94C30D0F900F900F900F90089560E0CD
:1008600082E00E94521C60ED77E080E090E00E9400
:100870009F1B1092070529E132E044E650E060E05A
:1008800070E080EF93E00E940A0F88EB91E09F9365
:100890008F9381E595E09F938F930E94C30D0F90F6
:1008A0000F900F900F9008958BEC91E09F938F9392
:1008B00081E595E09F938F930E94C30D0E94DC0316
:1008C0000E94F7030E9412040E942F0426E235E0E2
:1008D00040E25EE460E070E080EF93E00E940A0F87
:1008E0009093EF038093EE030F900F900F900F9073
:1008F000089584E295E00E94161760E084E295E096
:100900000C940A1882E195E00C948E198CE095E025
:100910000E944718BC0180E090E008958EE00C949E
:100920000C1CCF93DF930E94790460932005709391
:10093000210580932205909323050E9482046093F1
:100940000E0570930F0580931005909311050E947A
:100950008604609308057093090580930A059093B7
:100960000B050E948E04909302058093010520E000
:1009700030E048EC52E460912005709121058091AF
:100980002205909123050E940B240E9424237F932B
:100990006F938CEF91E09F938F93C1E5D5E0DF9348
:1009A000CF930E94C30D20E030E048EC52E4609108
:1009B0000E0570910F0580911005909111050E9410
:1009C0000B240E9424237F936F938DE092E09F93EA
:1009D0008F93DF93CF930E94C30D80910B058F936C
:1009E00080910A058F93809109058F938091080566
:1009F0008F938BE192E09F938F93DF93CF930E942D
:100A0000C30D809107051F928F938CE292E09F9314
:100A10008F93DF93CF930E94C30D809102058F9334
:100A2000809101058F9388E392E09F938F93DF93EA
:100A3000CF930E94C30D8DB79EB780960FB6F894E2
:100A40009EBF0FBE8DBFDF91CF910895CF92DF92F1
:100A5000EF92FF920F931F93CF93DF93CDB7DEB743
:100A6000E8970FB6F894DEBF0FBECDBF0E94910489
:100A7000CE0109969C838B8386E090E09E838D83D4
:100A800018861F8287E693E09A8389830091450543
:100A90001091460569E472E0CE0101960E94DD1ACC
:100AA0002EE33AE1FC013583248311830083C09057
:100AB0002005D0902105E0902205F09023056CE4FC
:100AC00072E0CE0101960E94DD1A01EF11E0FC01F7
:100AD00015830483C082D182E282F382C0900E0526
:100AE000D0900F05E0901005F090110568E572E0D8
:100AF000CE0101960E94DD1AFC0115830483C08299
:100B0000D182E282F382C0900805D0900905E0907E
:100B10000A05F0900B0561E672E0CE0101960E9495
:100B2000DD1A0CE11BE1FC0115830483C082D18234
:100B3000E282F382F09007056DE672E0CE01019645
:100B40000E94DD1A20E13BE1FC0135832483F08221
:100B5000E0900105F090020564E772E0CE01019695
:100B60000E94DD1AFC0115830483A701662757FD47
:100B70006095762F408351836283738363E286E2BC
:100B800096E00E94261FBE016F5F7F4F86E296E0CF
:100B90000E942D1F64E286E296E00E944B1FE896B9
:100BA0000FB6F894DEBF0FBECDBFDF91CF911F917E
:100BB0000F91FF90EF90DF90CF90089561E085E076
:100BC0000E948B1C8AE792E09F938F9381E595E0CA
:100BD0009F938F930E94C30D0F900F900F900F90D3
:100BE000089560E085E00E948B1C85E892E09F9369
:100BF0008F9381E595E09F938F930E94C30D0F9093
:100C00000F900F900F90089561E085E00E94521CB4
:100C10000E94F10581E992E09F938F9381E595E031
:100C20009F938F930E94C30D0F900F900F900F9082
:100C3000089561E08FE00E94521C60E08FE090E038
:100C40000E94460261E080E10E94521C60E080E167
:100C500090E00C94460220E031EE40E050E063E08A
:100C600070E081E595E00E94CC0CE5E4F5E081813F
:100C70008F9380818F9384EA92E09F938F9381E595
:100C800095E09F938F930E94AD0D0E9454040E94A3
:100C900004060E946C020F900F900F900F900F901F
:100CA0000F900C9419069C012F5031092230310508
:100CB00010F40C9446020895AF92BF92CF92DF9247
:100CC000EF92FF920F931F93CF93DF931F92CDB7B5
:100CD000DEB78EED93E00E94460E282F332727FDC6
:100CE00030953F938F932AEB32E03F932F9321E58A
:100CF00035E03F932F9389830E94C30D0F900F908F
:100D00000F900F900F900F908981833209F087C068
:100D10008EED93E00E94460E282F3AEBE32E32E050
:100D2000F32E41E5A42E45E0B42E57ECC52E52E03B
:100D3000D52E243209F473C08EED93E029830E94EE
:100D40000F0E2981181619060CF069C0022F112701
:100D500007FD10951F932F93FF92EF92BF92AF92D2
:100D600029830E94C30D0F900F900F900F900F904A
:100D70000F9029812C3499F48EED93E00E94460E59
:100D800061E007C02C36D9F48EED93E00E94460E48
:100D900060E0992787FD90950E94530606C02D3488
:100DA00038F5223441F40E94DE058EED93E00E9476
:100DB000460E282FBECF233488F42C32B1F31F9374
:100DC0000F93DF92CF92BF92AF920E948B0D0F9044
:100DD0000F900F900F900F900F90E7CF243419F4DD
:100DE0000E94AC03E2CF2A3451F70E94B003DDCF5A
:100DF000223619F40E94F105D8CF233628F4223583
:100E0000F1F61092ED03D1CF2A3609F0BBCF8EED6B
:100E100093E00E94460E90E00E94C203C6CF0F905E
:100E2000DF91CF911F910F91FF90EF90DF90CF90C6
:100E3000BF90AF9008958EED93E00E94170E40E2B0
:100E4000BC0181EF94E00E94D00A0C945C0681EF13
:100E500094E00E94CC0A882381F087EE92E09F9371
:100E60008F9381E595E09F938F930E94AD0D0F9036
:100E70000F900F900F900C941B070895CF93DF9362
:100E800000D000D000D0CDB7DEB768EF72E08BE4C1
:100E900095E00E9463216BE475E0CE0101960E940B
:100EA000902161E070E0CE0101960E943222BC01E7
:100EB00085E495E00E949021CE0101960E94F520E4
:100EC00067E087E395E00E94531467E375E084E2EE
:100ED00095E00E941B1526E04BE068E082E195E07A
:100EE0000E94C7188CE095E00E942E184AE069E045
:100EF00081EF94E00E94EA0980EF93E00E945A0E8D
:100F000067EB71E087EE93E00E94632160E270E09E
:100F10008EED93E00E94EF0D60E270E086ED93E0CD
:100F20000E94EF0D26960FB6F894DEBF0FBECDBF20
:100F3000DF91CF91089587EE93E00E94F52085E43C
:100F400095E00E94F5208BE495E00C94F520CF937A
:100F5000DF9386E296E00E94EA1C892B09F498C090
:100F600086E296E00E94051D9091E6038332D1F45B
:100F700091116AC081E08093E6036FEF72E087EE23
:100F800093E00E94992181E093E09F938F9381E504
:100F900095E09F938F930E94C30D0F900F900F9039
:100FA0000F9076C0843209F04FC0992309F470C0C5
:100FB0001092E6036AE173E087EE93E00E94DD2180
:100FC0008091EC038F938091EB038F938CE193E0FE
:100FD0009F938F93C1E5D5E0DF93CF930E94AD0D32
:100FE0008091E8038F938091E7038F9382E493E0ED
:100FF0009F938F93DF93CF930E94C30D8EED93E069
:101000000E94050E8DB79EB70C960FB6F8949EBF42
:101010000FBE8DBFC0E0D0E08091EB039091EC0358
:10102000C817D90768F4BE0187EE93E00E944022FA
:10103000FC0160818EED93E00E941B0E2196ECCFA7
:10104000DF91CF910C945C06992311F12091EB0371
:101050003091EC032F313105D8F4682F87EE93E0FF
:101060000E94ED218091EC038F938091EB038F938D
:1010700080E593E09F938F9381E595E09F938F9315
:101080000E94C30D0F900F900F900F900F900F9034
:10109000DF91CF91089580EF93E00E94530F0E945B
:1010A000A7070C9427078EBD00000DB407FEFDCFE7
:1010B0008EB508952CB52F7D2CBD2CB5237F2CBD6E
:1010C0002CB52C7F2CBD2DB52E7F2DBDFC01818133
:1010D0000C948B1CFC0180810C948B1CCF92DF92B2
:1010E000EF92FF920F931F93CF93DF9300D0CDB772
:1010F000DEB78C01E62EF22E60E070E049835A8361
:101100000E945A088E2D8F710E945308E82E498143
:10111000C42E5A81D52EF40EFC1439F08FEF0E94A4
:101120005308F60181936F01F7CF61E070E0C801C9
:101130000E945A088E2D0F900F90DF91CF911F9132
:101140000F91FF90EF90DF90CF9008951F93CF9372
:10115000DF93EC01162F60E070E00E945A08812FA7
:101160008F710E9453088FEF0E945308182F61E07F
:1011700070E0CE010E945A08812FDF91CF911F911C
:101180000895CF92DF92EF92FF920F931F93CF9328
:10119000DF9300D0CDB7DEB78C01E62EF22E60E0F3
:1011A00070E049835A830E945A088E2D8F718062A5
:1011B0000E945308E82E4981C42E5A81D52EF40E80
:1011C000FC1431F0F60181916F010E945308F8CFB1
:1011D00061E070E0C8010E945A088E2D0F900F90B8
:1011E000DF91CF911F910F91FF90EF90DF90CF9003
:1011F0000895EF92FF921F93CF93DF931F92CDB785
:10120000DEB77C01162F60E070E049830E945A0827
:10121000812F8F7180620E945308182F4981842F7B
:101220000E94530861E070E0C7010E945A08812FB4
:101230000F90DF91CF911F91FF90EF900895BF9293
:10124000CF92DF92EF92FF920F931F93CF93DF9392
:101250008C01D62EB72EFC01C481F42EC41708F4DD
:10126000FC2EF8018681811103C0EC2EEF1801C01D
:10127000E12C60E070E0C8010E945A0880EA0E94F8
:101280005308C82ECD2DDB2DFD0CFC1621F08991C5
:101290000E945308FACFCE2DCC2329F080E00E9483
:1012A0005308C150F9CF61E070E0C8010E945A08AC
:1012B0008C2DDF91CF911F910F91FF90EF90DF90D8
:1012C000CF90BF900895BF92CF92DF92EF92FF929E
:1012D0000F931F93CF93DF938C01D62EB72EFC0173
:1012E000C481F42EC41708F4FC2EF8018681811104
:1012F00003C0EC2EEF1801C0E12C60E070E0C801E3
:101300000E945A0881E60E945308C82ECD2DDB2D7D
:10131000FD0CFC1629F08FEF0E9453088993F9CF3A
:10132000CE2DCC2329F08FEF0E945308C150F9CF66
:1013300061E070E0C8010E945A088C2DDF91CF91C6
:101340001F910F91FF90EF90DF90CF90BF90089585
:101350001F93CF93DF93EC0160E070E00E945A0886
:1013600082EE0E945308182F61E070E0CE010E94C7
:101370005A08812FDF91CF911F9108951F93CF932A
:10138000DF93EC0160E070E00E945A0881EE0E9459
:101390005308182F61E070E0CE010E945A08812F97
:1013A000DF91CF911F9108951F93CF93DF93EC01AD
:1013B00060E070E00E945A088FEF0E945308182FD7
:1013C00061E070E0CE010E945A08812FDF91CF9139
:1013D0001F910895FC016083418381E08283138221
:1013E00080E2848315821682108611861286138607
:1013F00014861586168617860895462F603808F0DD
:101400004FE765E00C94F908CF93DF93EC0160E0BF
:101410000E94A608482F436060E0CE010E94F908B0
:1014200040E767E0CE010E94F908288539854A85A2
:101430005B856C857D858E859F85A0E00E94A824B4
:1014400041F025E0AE01485F5F4F6AE0CE010E94A7
:10145000C108CE010E94A809CE010E94BE0961E028
:1014600070E0CE010E946A0882E890E0DF91CF919F
:101470000C94C71BCF93DF93EC0160E070E00E94F7
:101480006A08CE010E94BE09CE01DF91CF910C9473
:10149000A809CF93DF93EC0160E00E94A608482FD3
:1014A0004D7F60E0CE01DF91CF910C94F908FF925F
:1014B0000F931F93CF93DF93EC018B01F42E60E029
:1014C0000E94A608482F4C7F426060E0CE010E9437
:1014D000F90886E990E00E94C71B4F2DB801CE01A4
:1014E0000E941F0961E070E0CE010E946A088FE04F
:1014F00090E00E94C71B60E070E0CE01DF91CF91C9
:101500001F910F91FF900C946A081F93CF93DF9364
:10151000EC0160E070E00E945A0880E60E945308E7
:101520008FEF0E945308182F61E070E0CE010E94F7
:101530005A08812FDF91CF911F910895EF92FF926A
:101540000F931F93CF93DF93EC018B010E94D4097B
:10155000F82E86FBEE24E0F886FF16C00115110573
:1015600039F0282F30E0359527952770F801208332
:1015700040E467E0CE010E94F908F5FE05C040E2B4
:1015800067E0CE010E94F9088E2DDF91CF911F9167
:101590000F91FF90EF90089560E070E00C949E0A28
:1015A000CF93DF93EC010E94630967E1CE010E94B3
:1015B000A6088170DF91CF910895EF92FF920F936B
:1015C0001F93CF93DF93EB018A01790140E767E036
:1015D0000E94F90885FB992790F9988384FB992745
:1015E00090F9F801908386FB882780F9F7018083C2
:1015F000DF91CF911F910F91FF90EF900895CF92BF
:10160000DF92EF92FF920F931F93CF93DF9300D05F
:101610001F92CDB7DEB78C010E94570A0E94701B43
:101620006B017C0121E0AE014D5F5F4F68E0C801B6
:101630000E946E08807359F40E94701B6C197D091A
:101640008E099F09643F71408105910558F3980107
:101650002B5F3F4FAE014F5F5F4FBE016E5F7F4F0D
:10166000C8010E94DD0AFA80F8018581882329F0EB
:10167000C8010E94850AF8018783C8010E94490AAF
:10168000C8010E94BE098F2D0F900F900F90DF911F
:10169000CF911F910F91FF90EF90DF90CF90089521
:1016A000EF92FF920F931F93CF93DF93CDB7DEB7E7
:1016B00028970FB6F894DEBF0FBECDBF7C0109831B
:1016C0001A832B833C834D835E836F83788725E069
:1016D000AE014F5F5F4F6AE00E94C10825E0AE0196
:1016E0004F5F5F4F60E1C7010E94C108F70144816D
:1016F000413208F040E261E1C7010E94F9082896F2
:101700000FB6F894DEBF0FBECDBFDF91CF911F9112
:101710000F91FF90EF900895BF92CF92DF92EF92DA
:10172000FF920F931F93CF93DF93CDB7DEB7289728
:101730000FB6F894DEBF0FBECDBF6C01B62EE982A6
:10174000FA820B831C832D833E834F83588761115C
:101750000AC0F601E086F186028713872487358761
:101760004687578707C0F6E0F61708F435C081E0D2
:10177000681307C0EB2DF0E0EF54FE4F649125E0B5
:1017800006C0E62FF0E0EF54FE4F649121E0AE0179
:101790004F5F5F4FC6010E94C1080B2D10E0F8019A
:1017A000E555FE4F6491F6014481C6010E94F90897
:1017B00062E0C6010E94A608F801EB55FE4F0491B5
:1017C00021E030E001C0220F0A95EAF7822B482F72
:1017D00062E0C6010E94F90828960FB6F894DEBFB1
:1017E0000FBECDBFDF91CF911F910F91FF90EF9072
:1017F000DF90CF90BF9008950F931F93CF93DF9307
:101800008C01EB0166E00E94A608482F497FC33097
:10181000D10561F0C230D10511F4446008C0C13077
:10182000D10511F4426003C0249709F4466066E0D4
:10183000C801DF91CF911F910F910C94F908EF929D
:10184000FF920F931F93CF93DF931F92CDB7DEB715
:101850007C018B0166E00E94A608F7011282282F06
:10186000277D0230110511F4206207C001301105F7
:1018700021F481E0F70182832860422F66E0C701EE
:1018800029830E94F90866E0C7010E94A608298101
:10189000821721F0F701128280E001C081E00F90F1
:1018A000DF91CF911F910F91FF90EF9008950F93CB
:1018B0001F93CF93DF93EC018B0160E00E94A60899
:1018C000482F437F0115110531F00130110511F446
:1018D000486001C04C6060E0CE01DF91CF911F9164
:1018E0000F910C94F908CF93DF93EC0161E08881AC
:1018F0000E94521C61E089810E94521C0E94D90DF5
:1019000060E070E0CE010E946A0861E070E0CE0104
:101910000E945A0865E070E080E090E00E949F1B02
:101920004FE464E0CE010E94F90863E070E0CE016C
:101930000E94FC0B62E070E0CE010E941F0C882325
:1019400011F081E08B8360E070E0CE010E941F0CFB
:1019500062E070E0CE010E94570C40E06CE1CE01E5
:101960000E94F90840E767E0CE010E94F9086CE4A4
:10197000CE010E94FD09CE010E94A809CE01DF918F
:10198000CF910C94BE0920E1629FB00111244F70E9
:10199000462B64E00C94F908FB01BA01A9019F01F0
:1019A000E530F10514F024E030E037FF02C020E01C
:1019B00030E0FC0131832083428353836483758349
:1019C00026E086E296E00C94CF1DEF92FF920F93F3
:1019D0001F93CF93DF938B01EA01F8018081882365
:1019E00009F492C0853209F084C078018FEFE81ABB
:1019F000F80AF8018181882309F486C0853231F420
:101A000065E286E296E00E94261F7AC0833731F4B1
:101A10008E010E5F1F4F6881798153C0843611F0AB
:101A2000893669F48E010E5F1F4F688179814AE023
:101A300050E086E296E00E940020E80161C088370D
:101A400041F0883571F469E673E086E296E00E9421
:101A5000241F8E010E5F1F4F6881798140E150E0A5
:101A6000E8CF823641F0823471F46CE673E086E2AE
:101A700096E00E94241F8E010E5F1F4F68817981BE
:101A800042E050E0D6CF8C3671F48E010C5F1F4FD0
:101A9000488159816A817B812AE030E086E296E0C4
:101AA0000E94B61FCACF833609F4BCCF843789F4AD
:101AB0008E010E5F1F4F88819981019739F46FE67F
:101AC00073E086E296E00E94241FB7CF61E773E0DF
:101AD000F8CF843569F48E010E5F1F4F888199819C
:101AE000019719F463E773E0ECCF68E773E0E9CF9F
:101AF0008701F801608186E296E00E94261F780146
:101B000087010F5F1F4F69CFDF91CF911F910F9119
:101B1000FF90EF9008950F931F93CF93DF93CDB76E
:101B2000DEB70F811885F80180819181181619069A
:101B30007CF440E050E06EE773E0C8010E94E50CE1
:101B4000AE01455F5F4F69857A85C8010E94E50C4B
:101B5000DF91CF911F910F910895CF93DF93CDB770
:101B6000DEB78D819E81FC012081318122303105DB
:101B70003CF0AE01475F5F4F6F8178850E94E50CB6
:101B8000DF91CF910895CF93DF93CDB7DEB78D81ED
:101B90009E81FC0120813181233031053CF0AE0172
:101BA000475F5F4F6F8178850E94E50CDF91CF9191
:101BB000089561E08AE00E948B1C61E08AE00E9447
:101BC000521C8CB580618CBD8CB580648CBD61E08D
:101BD0008DE00E94521C61E08BE00C94521C0F932C
:101BE0001F93CF93DF93EC018B01CB010E94CE2496
:101BF000998388831F830E831B821A821D821C8215
:101C0000DF91CF911F910F910895FC0113821282F1
:101C1000158214820895FC01828193810895FC014C
:101C20008281938124813581821B930B0895FC016D
:101C3000808191810895FC01828193812681378181
:101C40008217930754F4A081B181A80FB91F6C9338
:101C50008281938101969383828308950F931F93CA
:101C6000CF93DF9300D0CDB7DEB78C017A83698341
:101C7000C8010E941B0E6A81C8010E941B0E0F90B2
:101C80000F90DF91CF911F910F910895FC01248156
:101C90003581828193812817390754F4A081B1815D
:101CA000A20FB31F8C912F5F3F4F3583248308957C
:101CB00080E008950F931F93CF93DF93EC010E9470
:101CC000701BFE018E0120E030E0AE01420F531F79
:101CD0004E525F4FDA011C9215AE14AED8016D93CF
:101CE0007D938D939D938D01AF014C545F4FDA012D
:101CF0001D921C922F5F3F4F32962F30310529F7EE
:101D0000C150DF4F19821882DF91CF911F910F913F
:101D10000895FC01E150FF4F208131812F303105C2
:101D200084F4FC0120E030E084AD95AD892B39F0DE
:101D30002F5F3F4F32962F303105B1F702C0C901F6
:101D400008958FEF9FEF08958F929F92AF92BF9269
:101D5000CF92DF92EF92FF920F931F93CF93DF9377
:101D600000D000D0CDB7DEB77C01590149835A833A
:101D70006B837C830E94890E4C0149815A816B815F
:101D80007C8197FD34C0A114B10489F16C01CC0CA5
:101D9000DD1CCC0CDD1CCE0CDF1CF601E65AFF4F1F
:101DA0004083518362837383F401EE0FFF1FEE0DB6
:101DB000FF1DB5AEA4AEEA56FF4F11830083F701B5
:101DC000E80DF91DEE52FF4F81E080830E94701BE9
:101DD000F6016083718382839383F701E150FF4FA3
:101DE00080819181019691838083C40102C08FEF2D
:101DF0009FEF0F900F900F900F90DF91CF911F9159
:101E00000F91FF90EF90DF90CF90BF90AF909F9099
:101E10008F9008950F931F9300E010E00E94A40E8E
:101E20001F910F9108950F931F9301E010E00E94FE
:101E3000A40E1F910F910895CF93DF936F3071051A
:101E40007CF5DC01A150BF4F2D913C9111972115DC
:101E5000310531F1FB01EE0FFF1FE80FF91F44AD13
:101E600055AD452BE9F015AE14AEEC01C60FD71FEA
:101E7000CE52DF4F1882660F771F660F771F680FED
:101E8000791FEB01C65ADF4F188219821A821B8212
:101E9000EC54FF4F11821082215031092D933C9355
:101EA000DF91CF9108952F923F924F925F926F9260
:101EB0007F928F929F92AF92BF92CF92DF92EF92DA
:101EC000FF920F931F93CF93DF9300D000D000D0E9
:101ED000CDB7DEB79E838D830E94701B2D813E811E
:101EE0003C832B83F9011A82198222242394312CFA
:101EF0009F012F513F4FD9011D921C9244AD55AD0A
:101F0000452B09F458C0AB81BC81CD90DD90ED909C
:101F1000FC901397AD01465A5F4FDA018D909D906A
:101F2000AD90BC902B013C014C185D086E087F08F9
:101F3000481459046A047B04F0F1C80CD91CEA1C4B
:101F4000FB1CAB81BC81CD92DD92ED92FC9213978C
:101F500049815A81AD81BE814A0F5B1F4E525F4F4E
:101F6000DA014C91442339F1AF014A565F4FDA014F
:101F70004D915C914115510521F4D9012D923C926E
:101F80001AC07F01B4EBEB0EF11CD7010D911C912F
:101F90000417150784F4D9012D923C920F5F1F4F4F
:101FA000D7010D931C93041715072CF042E050E065
:101FB000D9014D935C93A981BA811196BA83A98303
:101FC00032962B813C812C5F3F4F3C832B831F97A4
:101FD00009F08ECF0D811E81E12CF12CF801EF511B
:101FE000FF4F808191818130910571F0029791F4CA
:101FF000D801DC96ED91FC91DD970995B7018D81B3
:102000009E810E941C0F06C0D801DC96ED91FC91C8
:10201000DD970995BFEFEB1AFB0A0E5F1F4F2FE00C
:10202000E216F104D9F626960FB6F894DEBF0FBE7D
:10203000CDBFDF91CF911F910F91FF90EF90DF9077
:10204000CF90BF90AF909F908F907F906F905F9058
:102050004F903F902F9008956F3071053CF4680FBA
:10206000791FFB01EE52FF4F8081089580E00895B3
:102070008091870590E020918805821B9109089541
:102080002091880580918705281750F4E22FF0E011
:10209000E757FA4F808190E02F5F209388050895DD
:1020A0008FEF9FEF0895E091880580918705E817ED
:1020B00030F4F0E0E757FA4F808190E008958FEF19
:1020C0009FEF08950895CF92DF92EF92FF920F93C2
:1020D0001F93CF93DF937C01CB018A01209163058D
:1020E000222389F0EB016B01C40ED51ECC15DD0552
:1020F00069F06991D701ED91FC910190F081E02D9B
:10210000C7010995F3CF642F0E94C411C801DF9164
:10211000CF911F910F91FF90EF90DF90CF90089596
:10212000CF93DF931F92CDB7DEB76983209163050C
:102130002223D1F020916405203240F021E030E0EC
:10214000FC013383228380E090E015C08091650517
:10215000E82FF0E0EA59FA4F998190838F5F8093DE
:1021600065058093640505C061E0CE0101960E947B
:10217000C41181E090E00F90DF91CF910895FC01B0
:102180001382128248EE53E060E070E0448355838E
:10219000668377838AE893E0918380830895109221
:1021A00088051092870510926505109264050C94BD
:1021B0000F11862F413208F040E269E875E00E9475
:1021C0002D111092880580938705089521E00C94C5
:1021D000D91081E0809363056093860510926505B0
:1021E0001092640508950C94E9100F93062F21E0D6
:1021F0004091640566E675E0809186050E94711144
:102200001092650510926405109263050F91089570
:1022100061E00C94F51087E595E00C94BF101092E6
:10222000160681E0809314061092130661E082E1A5
:102230000E948B1C61E083E10E948B1CE9EBF0E0C3
:1022400080818E7F808380818D7F808388E48093EE
:10225000B80085E48093BC000895413208F03FC087
:10226000909116069111FCCF91E090931606209361
:1022700014062FEF2093A9051092EE05240F20934A
:10228000ED059093150690911506880F892B809384
:10229000150680911306813041F410921306809147
:1022A00015068093BB0085EC01C085EE8093BC00D1
:1022B000809116068130E1F38091EE05841710F4C9
:1022C0004091EE052FEE35E0FB01D9018A2F821BEC
:1022D000841718F48D918193F9CF842F089580E0AD
:1022E00008950F93413208F046C09091160691115F
:1022F000FCCF92E090931606009314069FEF909304
:10230000A9051092EE054093ED05FB016FEE75E017
:10231000DB019A2F961B941718F491919D93F9CF96
:102320001092150690911506880F892B809315063B
:1023300080911306813041F41092130680911506A6
:102340008093BB0085EC01C085EE8093BC00222306
:1023500021F0809116068230E1F38091A9058F3F2C
:1023600061F08091A905803251F08091A9058033F8
:1023700041F483E007C081E005C080E003C082E053
:1023800001C084E00F910895613298F420911606FF
:10239000243089F46093CB05FC018DEC95E0DC01E1
:1023A0002A2F281B261718F421912D93F9CF80E0AE
:1023B000089581E0089582E0089585ED8093BC0042
:1023C0008091BC0084FDFCCF10921606089585EC28
:1023D0008093BC001092160608951F920F920FB6BC
:1023E0000F9211242F933F934F935F936F937F939B
:1023F0008F939F93AF93BF93EF93FF938091B90017
:10240000887F803609F49CC068F5883209F45BC087
:1024100090F4803109F454C038F4882309F4F5C0ED
:10242000883009F44DC0F5C0883109F44CC08032C1
:1024300009F45DC0EEC0803409F468C048F480330C
:1024400009F455C0883309F0E4C08093A905A8C0F9
:10245000803509F44FC0883509F45DC0883409F02F
:10246000D8C0D5C0883909F4C6C0A8F4883709F4A3
:1024700067C038F4883609F463C0803709F460C057
:10248000C8C0883809F4B7C0803909F45FC0803803
:1024900009F0BFC05BC0803B09F485C038F4803AC6
:1024A00009F466C0883A09F47EC0B3C0803C09F4E0
:1024B000A6C0883C09F4A3C0883B09F489C0A9C020
:1024C0008091150610C09091EE058091ED0598174A
:1024D00070F5E091EE0581E08E0F8093EE05F0E05F
:1024E000E151FA4F80818093BB0085EC85C08093D9
:1024F000A9058DC0E091EE0581E08E0F8093EE0579
:102500008091BB00F0E0E151FA4F80839091EE059D
:102510008091ED056DC0E091EE0581E08E0F809316
:10252000EE058091BB00F0E0E151FA4F808380918D
:10253000140681116CC081E08093130684EA60C0A8
:1025400083E0809316061092AA05CFCF8091AA054A
:10255000803208F050C0E091AA0581E08E0F809390
:10256000AA058091BB00F0E0E555FA4F8083BDCF0E
:102570008091AA05803230F4E091AA05F0E0E5559B
:10258000FA4F10820E94DD116091AA0570E0E0917F
:102590000F06F09110068BEA95E009951092AA05B6
:1025A0000E94E71136C084E0809316061092CC0595
:1025B0001092CB05E0911106F091120609958091D9
:1025C000CB05811105C081E08093CB051092CD052C
:1025D000E091CC0581E08E0F8093CC05F0E0E353D1
:1025E000FA4F80818093BB009091CC058091CB0500
:1025F000981708F47ACF85E88093BC000AC085EC70
:102600008093BC001092160604C01092A9050E9487
:10261000DD11FF91EF91BF91AF919F918F917F91CC
:102620006F915F914F913F912F910F900FBE0F903F
:102630001F901895FF920F931F93CF93DF93FC0188
:102640000081C181D281F8948981F02EF0948F218C
:10265000898378941DE7115029F182E090E00E946F
:10266000C71B88818023B9F3F8948A818F218A83DC
:102670008981802B8983789480EE91E00E94C71B2A
:10268000F89489818F21898386E490E00E94C71B9A
:102690008881802311E009F010E078948AE991E0C4
:1026A0000E94C71B812FDF91CF911F910F91FF9047
:1026B00008951F93CF93DF93FC011081C181D281D4
:1026C000912F909560FF12C0F8948A8189238A83A4
:1026D0008981812B89838AE090E00E94C71B8A81CF
:1026E000812B8A83789487E390E011C0F8948A81E3
:1026F00089238A838981812B898381E490E00E94E8
:10270000C71B8A81812B8A83789485E090E0DF91D2
:10271000CF911F910C94C71B0F931F93CF93DF93FF
:10272000FC011081C181D281F8948981812B898338
:102730008A81012F009580238A8383E090E00E94A4
:10274000C71B8981802389838AE090E00E94C71B90
:10275000C881789485E390E00E94C71B1C2381E028
:1027600009F480E0DF91CF911F910F910895CF92EE
:10277000DF92EF92FF920F931F93CF93DF931F92FD
:10278000CDB7DEB76C01E62E08E010E0FF24F3942D
:1027900061E09F2D9E2109F460E0C60149830E94FB
:1027A0005913FF0C0150110949810115110581F7D9
:1027B000411115C0F894D6011196ED91FC91129734
:1027C00091818C918095892381831196ED91FC9163
:1027D000129792818C9180958923828378940F90AF
:1027E000DF91CF911F910F91FF90EF90DF90CF90ED
:1027F0000895EF92FF920F931F93CF93DF938C0175
:10280000C8E0D0E0F12CEE24E394C8010E948C13C0
:102810008111FE28EE0C2197C1F78F2DDF91CF910A
:102820001F910F91FF90EF900895CF92DF92FF924A
:102830000F931F93CF93DF931F92CDB7DEB78C0119
:10284000F62E40E065E579830E94B713CF2C79819D
:10285000D72E88E0F82EF60161916F0140E0C801A3
:102860000E94B713FA94B9F70F90DF91CF911F919F
:102870000F91FF90DF90CF90089540E06CEC0C94A6
:10288000B713FC0113861586148627E030E0DF01BC
:10289000A20FB31F13961C922115310519F0215078
:1028A0003109F5CF08951F93CF93DF93EC01162FD5
:1028B00060E0812F0E94521C612F70E0FB01E15CFF
:1028C000FC4FE491E883FB01ED5AFC4FE491F0E00A
:1028D000EE0FFF1FE959FC4F859194919A838983EC
:1028E000CE01DF91CF911F910C944114AF92BF9212
:1028F000CF92DF92EF92FF920F931F93CF93DF93CC
:102900001F92CDB7DEB75C01E62ED72EFC01858580
:1029100081115DC0C5010E941A13811105C0F50126
:102920001386158614866EC040E060EFC5010E94D4
:10293000B71301E0F12CC12C11E0C5010E948C13EA
:10294000682FC50169830E948C136981613019F475
:102950008130B9F433C02F2D30E068131BC0F5016E
:102960008385181730F4E20FF31F8381802349F425
:1029700002C0181731F060E0193058F4F5011487DF
:1029800008C0F501EF0DF11D8381802B838361E089
:1029900009C0C12EF501E20FF31F8381902F90959E
:1029A00089238383C5010E9459131F5F000F11F40F
:1029B000F39401E0F7E0FF1508F0BFCF113438F0D1
:1029C000F501C386C11018C081E0858715C0F501E7
:1029D00013861586148680E0EE2DFD2D20E030E074
:1029E000D501A20FB31F13969C9191932F5F3F4F78
:1029F00028303105A9F706C0F5018381882339F312
:102A000081E0EACF0F90DF91CF911F910F91FF905E
:102A1000EF90DF90CF90BF90AF900895DC0180E001
:102A2000615038F0ED91E827F0E0E55DFD4F8491CD
:102A3000F7CF08950895FC018AE195E1928B818B8F
:102A4000768365831482108289E0818381E08283AA
:102A500083830895CF93DF93EB0167E0CE010E945B
:102A60000E1591E02F81821390E0892FDF91CF9195
:102A70000895EF92FF920F931F93CF93DF93EC0192
:102A80008B01E42E8D819E810E944114F12CB801AE
:102A90008D819E810E947614882359F0FE1006C015
:102AA000B801CE010E942A15811104C0F394EF14DD
:102AB00070F780E0DF91CF911F910F91FF90EF9021
:102AC0000895EF92FF920F931F93CF93DF9300D05F
:102AD000CDB7DEB77C018A01FC01858196816983CF
:102AE0007A830E941A1369817A81F7018581968120
:102AF0000E94151440E06EEBF701858196810E94DB
:102B0000B713F701858196810E94F913F80180833C
:102B1000F701858196810E94F913F8018183F701FD
:102B2000858196810E94F913F8018283F7018581DE
:102B300096810E94F913F8018383F70185819681BC
:102B40000E94F913F8018483F701858196810E9420
:102B5000F913F8018583F701858196810E94F913A5
:102B6000F8018683F701858196810E94F913F801A7
:102B70008783F701858196810E94F913F801808788
:102B8000F701858196810F900F90DF91CF911F9172
:102B90000F91FF90EF900C941A13CF93DF93EA01FB
:102BA0000E94611568E0CE010E940E1591E0288513
:102BB000821390E0892FDF91CF910895EF92FF92D9
:102BC0001F93CF93DF9300D0CDB7DEB77C01FC011C
:102BD0008581968169837A830E941A1369817A813B
:102BE000F701858196810E94151440E064EBF7019E
:102BF000858196810E94B713F701858196810E9495
:102C00008C13182FF701858196810E941A1381E099
:102C1000111180E00F900F90DF91CF911F91FF90E5
:102C2000EF900895CF93DF93CDB7DEB729970FB616
:102C3000F894DEBF0FBECDBFFB0120812031D1F063
:102C4000AE014F5F5F4F0E94CD15882379F08D81D3
:102C50008F3351F018F48F3169F008C08F3541F08F
:102C60008F3721F48CE007C08AE005C080E003C004
:102C70008BE001C089E029960FB6F894DEBF0FBE45
:102C8000CDBFDF91CF910895EF92FF920F931F93E5
:102C9000CF93DF93CDB7DEB761970FB6F894DEBF61
:102CA0000FBECDBF8C01FC01858196810E9441142D
:102CB000F8011482FF24F394BE01665F7F4FF80190
:102CC000858196810E9476148823C9F1BE01665FD2
:102CD0007F4FC8010E942A15882371F3F801808173
:102CE000811108C0BE01665F7F4FC8010E94DE15DA
:102CF000811122C0AE014F5F5F4FBE01665F7F4F03
:102D0000C8010E946115F801E180BE01665F7F4F36
:102D1000C8010E9412168E1518F4F801818106C0B0
:102D2000BE01665F7F4FC8010E941216F8018183C1
:102D300084818F5F8483C0CFF801F082DBCF6196FE
:102D40000FB6F894DEBF0FBECDBFDF91CF911F91BC
:102D50000F91FF90EF900895CF93DF93CDB7DEB73B
:102D600029970FB6F894DEBF0FBECDBFAE014F5FFF
:102D70005F4F0E94611581E09981911101C080E04F
:102D800029960FB6F894DEBF0FBECDBFDF91CF916D
:102D90000895CF92DF92EF92FF920F931F93CF93FC
:102DA000DF93EC018B01452BE1F08B818823C9F087
:102DB0008881811116C00E94701B6B017C0160E04C
:102DC00070E0CE010E94AC1681110BC00E94701BF6
:102DD0006C197D098E099F096E3E7240810591052F
:102DE00070F3F80180818A3049F08B3061F08930CE
:102DF00079F46EE570E080E090E00EC06CEB70E07E
:102E000080E090E009C067E771E080E090E004C0F6
:102E10006EEE72E080E090E0DF91CF911F910F9114
:102E2000FF90EF90DF90CF900C949F1BCF93DF9398
:102E3000EC018D819E810E941A138D819E810E94DA
:102E40003D14488164E48D819E810E94B7138A817C
:102E5000882351F0BE016F5F7F4F40E050E0CE010C
:102E6000DF91CF910C94C916DF91CF9108958F9285
:102E70009F92AF92BF92CF92DF92EF92FF921F93F9
:102E8000CF93DF93FB01EA01698170E0762F66271B
:102E90008881682B80818232B1F18832A1F1803142
:102EA00009F078C01F8175956795882777FD809513
:102EB000982F0E94572320E030E040E85EE30E9414
:102EC00053226B017C01612F70E08E81681B7109B8
:102ED000882777FD8095982F0E9457234B015C012E
:102EE000612F70E080E090E00E9455239B01AC01CF
:102EF000C501B4010E94BC229B01AC01C701B6010F
:102F00000E94542243C08C818F3381F198F48F3119
:102F100009F040C093E0759567959A95E1F7882789
:102F200077FD8095982F0E94572320E030E040E005
:102F30005FE32AC08F3569F08F3761F5882777FD09
:102F40008095982F0E94572320E030E040E85DE311
:102F50001BC075956795882777FD8095982F0E94EF
:102F6000572320E030E040E05EE30EC075956795A2
:102F700075956795882777FD8095982F0E94572330
:102F800020E030E040E85EE30E940B24562F472FFC
:102F9000382F292F652F742F832F922FDF91CF91F8
:102FA0001F91FF90EF90DF90CF90BF90AF909F90D8
:102FB0008F900895EF92FF920F931F93CF93DF931B
:102FC000CDB7DEB729970FB6F894DEBF0FBECDBFE1
:102FD0008C017B01AE014F5F5F4F0E94CD158823AE
:102FE00041F0AE014F5F5F4FB701C8010E94371734
:102FF00004C060E070E08EEF92EC29960FB6F89472
:10300000DEBF0FBECDBFDF91CF911F910F91FF901B
:10301000EF9008950F931F93CF93DF93CDB7DEB753
:1030200028970FB6F894DEBF0FBECDBF8C01462F98
:10303000BE016F5F7F4F0E943915BE016F5F7F4FEA
:10304000C8010E94DA1728960FB6F894DEBF0FBEAB
:10305000CDBFDF91CF911F910F9108950895CF9328
:10306000DF93EC01633251F06C3571F4688361E0F9
:1030700081E10E948B1C81E0898306C0688360E047
:1030800081E10E948B1C1982DF91CF910895CF932B
:10309000DF93EC018981813071F46CE570E087E5A4
:1030A00095E00E94F31042E050E06CE570E087E5A7
:1030B00095E00E94E610898181110EC063E270E004
:1030C00087E595E00E94F31042E050E063E270E093
:1030D00087E595E00E94E61087E595E00E944010A4
:1030E000D82F80E0C82F87E595E00E944010C82BBC
:1030F000D92B87E595E00E940811BE0180E090E0A1
:103100000E9455232AE939E949E95FE30E94BC227C
:103110000E942923CB01DF91CF910895CF93C62F31
:10312000FC01608187E595E00E94E9106C2F87E53E
:1031300095E00E94901087E595E0CF910C940811DE
:10314000CF93DF93EC0187E595E00E94CF1061E01B
:10315000CE010E948E1861E081E10E94521C61E064
:1031600081E1DF91CF910C948B1C1F93CF93DF9360
:10317000EC01162F6AE070E080E090E00E949F1B57
:10318000612FCE01DF91CF911F910C948E18FC011D
:1031900066834783208781E085870895CF93DF93F7
:1031A000EC0160E08E810E94521C61E08E810E94E1
:1031B0008B1C19861A861B861C86DF91CF91089579
:1031C000DF92EF92FF920F931F93CF93DF93EC0167
:1031D00061E08E810E948B1C6AEF70E080E090E0DD
:1031E0000E949F1B0E94701B09851A852B853C85B8
:1031F000601771078207930720F419861A861B86C9
:103200001C862D85211111C009851A852B853C85C9
:10321000DC01CB01801B910BA20BB30B803D9740CF
:10322000A105B10510F481E071C01D860E94701BDC
:1032300069877A878B879C871C821B821A821982F6
:10324000188261E08E810E94521C60E08E810E9493
:103250008B1C64E170E080E090E00E949F1BF8947A
:1032600061E08E810E948B1C88E290E00E94C71B67
:1032700060E08E810E94521CF12CD12C81E0E12C67
:10328000082F10E08E810E94C11C8017910741F425
:10329000E39481E090E00E94C71B8FEFE812F2CF29
:1032A0008E810E94C11C9FEFE916C9F023E02F1503
:1032B00090F4F0FC10C09D2D969596959695FE0184
:1032C000E90FF11D9081990F908328852E1510F438
:1032D00091609083D394F39495E5F912D0CF7894CC
:1032E00027E22D1590F42C8130E04881898190E00F
:1032F000840F911D4A81840F911D4B81840F911D74
:1033000099272817390709F48ECF80E0DF91CF91F4
:103310001F910F91FF90EF90DF900895CF92DF9271
:10332000EF92FF92CF93DF93EC010E94E018882385
:1033300079F18F818B3029F158F18551823040F538
:10334000688170E080E090E00E94552320E030E04A
:1033500040E853E40E940B246B017C01698170E01A
:1033600080E090E00E9457239B01AC01C701B601A9
:103370000E94542220E030E040E251E40E94BC224E
:1033800011C0688170E080E090E00E9455230AC07F
:1033900066E973E086E296E00E94241F60E070E038
:1033A00080EC9FE7DF91CF91FF90EF90DF90CF907F
:1033B0000895BF92CF92DF92EF92FF920F931F93E7
:1033C000CF93DF937C01EB01009771F460EA73E027
:1033D000CE01DF91CF911F910F91FF90EF90DF9081
:1033E000CF90BF900C94241FE881F9810190F08167
:1033F000E02D62E2CE0109958C01F70161917F0118
:10340000662341F1E7E0F1E09081911117C0B180AE
:10341000E881F981BB20B1F00190F081E02D6CE5ED
:10342000CE0109956C01E881F9810190F081E02DD0
:103430006B2DCE0109958C0D9D1D09C0961739F392
:103440003296E2CF0190F081E02DCE010995080F70
:10345000191FD3CFE881F9810190F081E02D62E25C
:10346000CE010995800F911FDF91CF911F910F9190
:10347000FF90EF90DF90CF90BF900895FC01808186
:1034800091810C94D9196F927F928F929F92AF92F3
:10349000BF92CF92DF92EF92FF920F931F93CF9341
:1034A000DF937C01EB01E881F9810190F081E02D4F
:1034B0006BE7CE0109958C01F701A280B380C6802D
:1034C000D78075014501F2E08F0E911C1C141D047C
:1034D000B4F5BE01F701808191810E94D9193C01A8
:1034E000E881F9810190F081E02D6AE3CE01099530
:1034F000860D971D080F191FF701EA19FB09E80D42
:10350000F91D0480F581E02DBE01C70102960995E1
:10351000080F191FF8E0EF0EF11C81E0C816D10466
:1035200051F0E881F9810190F081E02D6CE2CE014B
:103530000995080F191FE1E0CE1AD108C7CFE8811D
:10354000F9810190F081E02D6DE7CE010995800FA2
:10355000911FDF91CF911F910F91FF90EF90DF901E
:10356000CF90BF90AF909F908F907F906F90089575
:10357000EF92FF920F931F93CF93DF937B01FC0198
:10358000C281D38106811781101611065CF4B70140
:10359000888199810E94C826892B39F0289601508C
:1035A0001109F2CF80E090E001C0CE01DF91CF9110
:1035B0001F910F91FF90EF9008950F931F93CF935A
:1035C000DF93EC018B010E94B81A009711F002966C
:1035D00022C08E819F812C813D818217930784F4C4
:1035E0009C0143E0220F331F4A95E1F7EA81FB81FA
:1035F000E20FF31F0193119301969F838E8302C004
:10360000E7E1F6E010821182128213828EE39AE1E2
:1036100095838483CF01DF91CF911F910F910895FE
:10362000FC01CB012081222319F063E773E002C083
:1036300068E773E00C94241FFC01CB0140815181A9
:10364000628173812AE030E00C94B61F1F920F92C2
:103650000FB60F9211242F933F938F939F93AF93A5
:10366000BF9380911E0690911F06A0912006B091F5
:10367000210630911D0623E0230F2D3720F40196FB
:10368000A11DB11D05C026E8230F0296A11DB11D85
:1036900020931D0680931E0690931F06A09320067C
:1036A000B09321068091220690912306A0912406D2
:1036B000B09125060196A11DB11D8093220690931D
:1036C0002306A0932406B0932506BF91AF919F9146
:1036D0008F913F912F910F900FBE0F901F901895D3
:1036E0002FB7F89460911E0670911F0680912006F6
:1036F000909121062FBF08953FB7F894809122063C
:1037000090912306A0912406B091250626B5A89B8A
:1037100005C02F3F19F00196A11DB11D3FBF6627BF
:10372000782F892F9A2F620F711D811D911D42E004
:10373000660F771F881F991F4A95D1F70895CF927A
:10374000DF92EF92FF92CF93DF936B017C010E9497
:103750007C1BEB01C114D104E104F10489F00E9447
:1037600052220E947C1B6C1B7D0B683E734090F3C1
:1037700081E0C81AD108E108F108C851DC4FEACF4E
:10378000DF91CF91FF90EF90DF90CF900895019758
:1037900039F0880F991F880F991F02970197F1F749
:1037A0000895789484B5826084BD84B5816084BDB9
:1037B00085B5826085BD85B5816085BDEEE6F0E0AA
:1037C000808181608083E1E8F0E010828081826006
:1037D0008083808181608083E0E8F0E08081816087
:1037E0008083E1EBF0E0808184608083E0EBF0E0B7
:1037F000808181608083EAE7F0E08081846080835B
:103800008081826080838081816080838081806804
:1038100080831092C10008958E3008F08E5087701A
:103820002091060190E4299F90011124822B80931E
:103830007C0080917A00806480937A0080917A0085
:1038400086FDFCCF809178002091790090E0922B4A
:103850000895833081F028F4813099F08230A1F00E
:1038600008958730A9F08830B9F08430D1F4809180
:1038700080008F7D03C0809180008F7780938000CF
:10388000089584B58F7702C084B58F7D84BD089577
:103890008091B0008F7703C08091B0008F7D8093BE
:1038A000B0000895CF93DF9390E0FC01E15CFC4F02
:1038B0002491FC01ED5AFC4F8491882349F190E05A
:1038C000880F991FFC01E558FC4FA591B4918F58C2
:1038D0009C4FFC01C591D4919FB7611108C0F89429
:1038E0008C91209582238C93888182230AC0623038
:1038F00051F4F8948C91322F309583238C938881E6
:10390000822B888304C0F8948C91822B8C939FBF68
:10391000DF91CF9108950F931F93CF93DF931F9261
:10392000CDB7DEB7282F30E0F901E55DFC4F84917B
:10393000F901E15CFC4F1491F901ED5AFC4F04913F
:103940000023C9F0882321F069830E94291C698122
:10395000E02FF0E0EE0FFF1FEF58FC4FA591B49160
:103960009FB7F8948C91611103C01095812301C019
:10397000812B8C939FBF0F90DF91CF911F910F915F
:103980000895CF93DF93282F30E0F901E55DFC4FD8
:103990008491F901E15CFC4FD491F901ED5AFC4F9F
:1039A000C491CC2391F081110E94291CEC2FF0E0EE
:1039B000EE0FFF1FE959FC4FA591B4912C912D23D7
:1039C00081E090E021F480E002C080E090E0DF91AF
:1039D000CF910895FC01818D228D90E0805C9F4FF6
:1039E000821B910960E470E00E9472240895FC013A
:1039F000918D828D981731F0828DE80FF11D858DA4
:103A000090E008958FEF9FEF0895FC01918D828DD6
:103A1000981761F0828DDF01A80FB11D5D968C9122
:103A2000928D9F5F9F73928F90E008958FEF9FEF2D
:103A3000089589E89EE1892B49F080E090E0892B88
:103A400029F00E94891E81110C9400000895FC0148
:103A5000848DDF01A80FB11DA35ABF4F2C91848D17
:103A600090E001968F739927848FA689B7892C934C
:103A7000A089B1898C9180648C93938D848D9813E7
:103A800006C00288F389E02D80818F7D80830895B0
:103A9000CF93DF93EC01888D8823C9F0EA89FB89F5
:103AA000808185FD05C0A889B9898C9186FD0FC0EC
:103AB0000FB607FCF5CF808185FFF2CFA889B989C1
:103AC0008C9185FFEDCFCE010E94271DE7CFDF91BE
:103AD000CF910895CF92DF92FF920F931F93CF93D0
:103AE000DF931F92CDB7DEB76C01DC015B969C9132
:103AF0005B975C968C915C97981307C05096ED91FC
:103B0000FC915197808185FD32C0F601038D10E054
:103B10000F5F1F4F0F731127F02EF601848DF812DF
:103B200011C00FB607FCF9CFD6015096ED91FC916C
:103B30005197808185FFF1CFC60169830E94271DBF
:103B40006981EBCF838DE80FF11DE35AFF4F60834E
:103B5000D6015B960C935B975296ED91FC9153972F
:103B600080818062808381E058968C930DC0D6015D
:103B70005696ED91FC91579760835096ED91FC918C
:103B8000519780818064808381E090E00F90DF9185
:103B9000CF911F910F91FF90DF90CF900895BF922A
:103BA000CF92DF92EF92FF92CF93DF93EC016A0105
:103BB0007B01B22EE889F98982E08083411581EE8C
:103BC000580761057105A1F060E079E08DE390E0B0
:103BD000A70196010E94862421503109410951090B
:103BE0005695479537952795211580E1380798F028
:103BF000E889F989108260E874E88EE190E0A70115
:103C000096010E9486242150310941095109569597
:103C1000479537952795EC85FD853083EE85FF85A3
:103C20002083188EEC89FD89B082EA89FB89808126
:103C300080618083EA89FB89808188608083EA894A
:103C4000FB89808180688083EA89FB8980818F7D00
:103C50008083DF91CF91FF90EF90DF90CF90BF9066
:103C600008951F920F920FB60F9211242F938F93E6
:103C70009F93EF93FF93E0913606F0913706808192
:103C8000E0913C06F0913D0682FD12C0908180914A
:103C90003F068F5F8F7320914006821751F0E091AD
:103CA0003F06F0E0EA5DF94F958F80933F0601C033
:103CB0008081FF91EF919F918F912F910F900FBE77
:103CC0000F901F9018951F920F920FB60F9211240C
:103CD0002F933F934F935F936F937F938F939F9314
:103CE000AF93BF93EF93FF9386E296E00E94271D68
:103CF000FF91EF91BF91AF919F918F917F916F91C4
:103D00005F914F913F912F910F900FBE0F901F9099
:103D1000189586E296E00E94EA1C21E0892B09F4BE
:103D200020E0822F0895109229061092280688EE2E
:103D300093E0A0E0B0E080932A0690932B06A09336
:103D40002C06B0932D0689EA93E090932706809382
:103D5000260685EC90E0909333068093320684EC3F
:103D600090E0909335068093340680EC90E0909339
:103D700037068093360681EC90E090933906809365
:103D8000380682EC90E090933B0680933A0686ECEE
:103D900090E090933D0680933C0610923F0610926F
:103DA00040061092410610924206089508950E941E
:103DB000D11B0E94D61E0E942B06C9E1DDE10E94A4
:103DC0004B082097E1F30E94191DF9CFCF92DF92A3
:103DD000EF92FF920F931F93CF93DF936C017A01C1
:103DE000EB01E60EF71E00E010E0CE15DF0561F0F6
:103DF0006991D601ED91FC910190F081E02DC60111
:103E00000995080F191FF1CFC801DF91CF911F91BC
:103E10000F91FF90EF90DF90CF900895611571059D
:103E200081F0DB010D900020E9F7AD01415051090F
:103E3000461B570BDC01ED91FC910280F381E02DD4
:103E4000099480E090E008950C940E1FDC01ED9140
:103E5000FC910190F081E02D0994DB01ED91FC9142
:103E600011970190F081E02DBC01CD0109940F93D1
:103E70001F93CF93DF93EC016DE00E94261F8C010E
:103E80006AE0CE010E94261F800F911FDF91CF9123
:103E90001F910F9108950F931F93CF93DF93EC0120
:103EA0000E94261F8C01CE010E94371F800F911F98
:103EB000DF91CF911F910F9108958F929F92AF92B2
:103EC000BF92CF92DF92EF92FF920F931F93CF9307
:103ED000DF93CDB7DEB7A1970FB6F894DEBF0FBE64
:103EE000CDBF7C01C42EE52FCB01D22E19A221E03B
:103EF0002D1510F02AE0D22E8E010F5D1F4F8D2C54
:103F0000912CA12CB12C6C2D7E2FA50194010E9427
:103F100086248C2DD29E80191124015011098A30DB
:103F200014F4805D01C0895CF8018083211531059E
:103F30004105510521F0C22EE32FCA01E4CFB8019B
:103F4000C7010E940E1FA1960FB6F894DEBF0FBEE8
:103F5000CDBFDF91CF911F910F91FF90EF90DF9038
:103F6000CF90BF90AF909F908F900895CF92DF92A7
:103F7000EF92FF920F931F93CF93DF93EC016A01AF
:103F80007B012115310579F4E881F9810190F081F7
:103F9000E02D642FDF91CF911F910F91FF90EF9053
:103FA000DF90CF9009942A303105E9F477FF1AC0E9
:103FB0006DE20E94261F8C0144275527BA014C1937
:103FC0005D096E097F092AE0CE010E945D1F800F06
:103FD000911FDF91CF911F910F91FF90EF90DF9094
:103FE000CF9008952AE0B701A601CE01DF91CF91CD
:103FF0001F910F91FF90EF90DF90CF900C945D1F79
:104000009A01AB01662757FD6095762F0C94B61F79
:104010004F925F926F927F928F929F92AF92BF92D8
:10402000CF92DF92EF92FF920F931F93CF93DF9384
:10403000EC016A017B01B22E9A01AB01C701B60106
:104040000E946E24882319F065EB73E027C02601D7
:104050003701E89477F82FEF3FEF4FE75FE7C301B1
:10406000B2010E946E2481110DC02FEF3FEF4FE788
:104070005FE7C301B2010E94B82218161CF469EB75
:1040800073E00CC02FEF3FEF4FE75FE4C701B601CD
:104090000E9407241816ACF46DEB73E0CE01DF919B
:1040A000CF911F910F91FF90EF90DF90CF90BF9035
:1040B000AF909F908F907F906F905F904F900C94F7
:1040C0000E1F2FEF3FEF4FE75FECC701B6010E94D5
:1040D000B82287FDE1CF20E030E0A901C701B60199
:1040E0000E94B82287FF0AC06DE2CE010E94261FFF
:1040F0008C01F7FAF094F7F8F09402C000E010E0B9
:10410000A12C60E070E080E09FE3AB1441F020E080
:1041100030E040E251E40E94BC22A394F6CF9B0120
:10412000AC01C701B6010E9454226B017C010E94C0
:1041300029232B013C010E9455239B01AC01C7019F
:10414000B6010E9453226B017C012AE0B301A20157
:10415000CE010E945D1F080F191FBB2039F068E1D6
:1041600073E0CE010E940E1F080F191F7B2C7720D1
:1041700041F120E030E040E251E4C701B6010E9485
:104180000B246B017C010E9424234B01AA2497FC81
:10419000A094BA2C2AE030E0B501A401CE010E941F
:1041A000B61F080F191FC501B4010E9457239B01B8
:1041B000AC01C701B6010E9453226B017C017A94C5
:1041C000D6CFC801DF91CF911F910F91FF90EF9053
:1041D000DF90CF90BF90AF909F908F907F906F9027
:1041E0005F904F9008950C940820FC01808191818C
:1041F0000C946625CF93DF93EC0188819981009719
:1042000011F00E946625198218821D821C821B8271
:104210001A82DF91CF9108950F931F93CF93DF936D
:10422000EC018B016F5F7F4F888199810E94F5259A
:10423000009731F0998388831B830A8381E001C052
:1042400080E0DF91CF911F910F910895CF93DF937D
:10425000EC0188819981892B29F08A819B818617BD
:10426000970760F4CE010E940C21882341F08C81D5
:104270009D81892B19F4E881F981108281E0DF9119
:10428000CF910895EF92FF920F931F93CF93DF93F7
:10429000EC017B018A01BA010E942621811104C030
:1042A000CE010E94FA2007C01D830C83B7018881CC
:1042B00099810E94D126CE01DF91CF911F910F915C
:1042C000FF90EF900895FC011182108213821282F8
:1042D000158214826115710559F0FB0101900020CF
:1042E000E9F7AF0141505109461B570B0C9442218D
:1042F0000895CF93DF93EC01FB018617970761F0D8
:10430000608171816115710529F0448155810E9498
:10431000422102C00E94FA20CE01DF91CF91089580
:10432000FC011182108213821282158214820C9475
:104330007921CF93DF93EC016115710561F0FB01E9
:1043400001900020E9F7AF0141505109461B570B7E
:104350000E94422102C00E94FA20CE01DF91CF913B
:104360000895EF92FF920F931F93CF93DF93EC0189
:104370007B010C811D816115710511F480E016C06F
:104380004115510591F0040F151FB8010E94262117
:104390008823A1F3288139818C819D81B701820F07
:1043A000931F0E94D1261D830C8381E0DF91CF9162
:1043B0001F910F91FF90EF9008956115710559F0CD
:1043C000FB0101900020E9F7AF0141505109461B64
:1043D000570B0C94B12180E00895CF93DF9300D068
:1043E000CDB7DEB769831A8241E050E0BE016F5F4E
:1043F0007F4F0E94B1210F900F90DF91CF910895D0
:10440000EF92FF920F931F93CF93DF93CDB7DEB759
:1044100028970FB6F894DEBF0FBECDBF7C01CB014D
:104420004AE050E08E010F5F1F4FB8010E94D8266E
:10443000F80101900020E9F7AF0141505109401BFC
:10444000510BB801C7010E94B12128960FB6F8940C
:10445000DEBF0FBECDBFDF91CF911F910F91FF90B7
:10446000EF900895CF93DF93EC010E940022811119
:1044700003C0CE010E94FA20CE01DF91CF910895B2
:10448000FC01848195816817790720F480819181EE
:10449000009729F41092C30683EC96E00895860FE6
:1044A000971F089508955058BB27AA270ED075C1AD
:1044B00066D130F06BD120F031F49F3F11F41EF43F
:1044C0005BC10EF4E095E7FB51C1E92F77D180F392
:1044D000BA17620773078407950718F071F49EF501
:1044E0008FC10EF4E0950B2EBA2FA02D0B01B90150
:1044F00090010C01CA01A0011124FF27591B99F05A
:10450000593F50F4503E68F11A16F040A22F232F65
:10451000342F4427585FF3CF469537952795A795B5
:10452000F0405395C9F77EF41F16BA0B620B730B5C
:10453000840BBAF09150A1F0FF0FBB1F661F771FCD
:10454000881FC2F70EC0BA0F621F731F841F48F482
:10455000879577956795B795F7959E3F08F0B3CF08
:104560009395880F08F09927EE0F979587950895F2
:10457000D9D008F481E008950CD00FC107D140F0E4
:10458000FED030F021F45F3F19F0F0C0511139C175
:10459000F3C014D198F39923C9F35523B1F3951BB4
:1045A000550BBB27AA2762177307840738F09F5F54
:1045B0005F4F220F331F441FAA1FA9F333D00E2EC3
:1045C0003AF0E0E830D091505040E695001CCAF730
:1045D00029D0FE2F27D0660F771F881FBB1F2617F5
:1045E00037074807AB07B0E809F0BB0B802DBF01C8
:1045F000FF2793585F4F2AF09E3F510568F0B6C0E1
:1046000000C15F3FECF3983EDCF3869577956795A4
:10461000B795F7959F5FC9F7880F911D9695879578
:1046200097F90895E1E0660F771F881FBB1F621797
:1046300073078407BA0720F0621B730B840BBA0B55
:10464000EE1F88F7E095089504D06894B111D9C0A1
:104650000895BCD088F09F5790F0B92F9927B75193
:10466000A0F0D1F0660F771F881F991F1AF0BA9536
:10467000C9F712C0B13081F0C3D0B1E00895C0C015
:10468000672F782F8827B85F39F0B93FCCF386952C
:1046900077956795B395D9F73EF490958095709589
:1046A00061957F4F8F4F9F4F0895E89409C097FB06
:1046B0003EF490958095709561957F4F8F4F9F4FF9
:1046C0009923A9F0F92F96E9BB279395F69587953D
:1046D00077956795B795F111F8CFFAF4BB0F11F400
:1046E00060FF1BC06F5F7F4F8F4F9F4F16C08823A7
:1046F00011F096E911C0772321F09EE8872F762FDD
:1047000005C0662371F096E8862F70E060E02AF01D
:104710009A95660F771F881FDAF7880F9695879509
:1047200097F90895990F0008550FAA0BE0E8FEEFDE
:1047300016161706E807F907C0F012161306E40765
:10474000F50798F0621B730B840B950B39F40A265E
:1047500061F0232B242B252B21F408950A2609F43C
:10476000A140A6958FEF811D811D089597F99F6740
:1047700080E870E060E008959FEF80EC08950024E9
:104780000A941616170618060906089500240A94B6
:1047900012161306140605060895092E0394000C3C
:1047A00011F4882352F0BB0F40F4BF2B11F460FFCB
:1047B00004C06F5F7F4F8F4F9F4F089557FD9058F4
:1047C000440F551F59F05F3F71F04795880F97FBD5
:1047D000991F61F09F3F79F087950895121613068F
:1047E0001406551FF2CF4695F1DF08C016161706BE
:1047F0001806991FF1CF86957105610508940895F3
:10480000E894BB2766277727CB0197F908958ADFBD
:1048100008F48FEF08950BD0C0CFB1DF28F0B6DFDA
:1048200018F0952309F0A2CFA7CF1124EACFC6DF55
:10483000A0F3959FD1F3950F50E0551F629FF001B3
:10484000729FBB27F00DB11D639FAA27F00DB11D0C
:10485000AA1F649F6627B00DA11D661F829F222795
:10486000B00DA11D621F739FB00DA11D621F839F1C
:10487000A00D611D221F749F3327A00D611D231FF2
:10488000849F600D211D822F762F6A2F11249F5740
:1048900050408AF0E1F088234AF0EE0FFF1FBB1F63
:1048A000661F771F881F91505040A9F79E3F510502
:1048B00070F05CCFA6CF5F3FECF3983EDCF38695BB
:1048C00077956795B795F795E7959F5FC1F7FE2BAD
:1048D000880F911D9695879597F9089523DF880B8A
:1048E000990B089597FB072E16F4009407D077FDD7
:1048F00009D00E94B42407FC05D03EF49095819520
:104900009F4F0895709561957F4F0895A1E21A2EEB
:10491000AA1BBB1BFD010DC0AA1FBB1FEE1FFF1F63
:10492000A217B307E407F50720F0A21BB30BE40BB3
:10493000F50B661F771F881F991F1A9469F76095FA
:104940007095809590959B01AC01BD01CF010895B4
:104950000024A7FD00942A17300540055005600586
:104960007005800590050895AA1BBB1B51E107C087
:10497000AA1FBB1FA617B70710F0A61BB70B881FEF
:10498000991F5A95A9F780959095BC01CD0108957E
:10499000EE0FFF1F0590F491E02D0994CF93DF9364
:1049A0008230910510F482E090E0E091C606F0912B
:1049B000C70620E030E0A0E0B0E0309739F1408158
:1049C000518148175907B8F04817590771F4828187
:1049D0009381109729F013969C938E9312972CC075
:1049E0009093C7068093C60627C02115310531F084
:1049F0004217530718F0A901DB0101C0EF019A012A
:104A0000BD01DF010280F381E02DD7CF21153105F3
:104A1000F9F0281B390B2430310580F48A819B8101
:104A20006115710521F0FB019383828304C090938B
:104A3000C7068093C606FE01329644C0FE01E20F0F
:104A4000F31F8193919322503109398328833AC00F
:104A50002091C4063091C506232B41F42091020118
:104A6000309103013093C5062093C40620910001C4
:104A7000309101012115310541F42DB73EB7409128
:104A8000040150910501241B350BE091C406F091FF
:104A9000C506E217F307A0F42E1B3F0B28173907B2
:104AA00078F0AC014E5F5F4F2417350748F04E0F8A
:104AB0005F1F5093C5064093C4068193919302C033
:104AC000E0E0F0E0CF01DF91CF910895CF93DF9345
:104AD000009709F487C0FC01329713821282C091BB
:104AE000C606D091C706209781F420813181280F16
:104AF000391F8091C4069091C5068217930779F5F6
:104B0000F093C506E093C4066DC0DE0120E030E0FE
:104B1000AE17BF0750F412964D915C9113979D010B
:104B20004115510509F1DA01F3CFB383A283408126
:104B30005181840F951F8A179B0771F48D919C9169
:104B40001197840F951F02969183808312968D9101
:104B50009C911397938382832115310529F4F09357
:104B6000C706E093C6063EC0D9011396FC93EE93A8
:104B700012974D915D91A40FB51FEA17FB0779F4C9
:104B800080819181840F951F0296D90111969C9383
:104B90008E938281938113969C938E931297E0E07B
:104BA000F0E08A819B81009719F0FE01EC01F9CFBA
:104BB000CE01029628813981820F931F2091C4066D
:104BC0003091C5062817390769F4309729F41092F7
:104BD000C7061092C60602C013821282D093C50681
:104BE000C093C406DF91CF910895A0E0B0E0EBEF51
:104BF000F5E20C941C27EC01CB01209719F40E94DC
:104C0000CE24B8C0FE01E60FF71F9E0122503109E5
:104C1000E217F30708F4ACC0D9010D911C9111976C
:104C200006171707B8F00530110508F49FC0A80152
:104C3000445051094617570708F498C0025011090B
:104C4000061B170B019311936D937C93CF010E9468
:104C500066258CC05B01A01AB10A4E01800E911E20
:104C6000A091C606B091C706612C712C60E070E07F
:104C7000109709F449C0A815B905C9F5ED90FC9045
:104C80001197670142E0C40ED11CCA14DB0478F10D
:104C900047018A189B08640142E0C40ED11C129699
:104CA000BC9012971396AC91B5E0CB16D10440F0AE
:104CB000B282A38391828082D9018D939C9309C093
:104CC0000E5F1F4F0E0D1F1DF90111830083EB2D89
:104CD000FA2F6115710531F0DB011396FC93EE9309
:104CE000129744C0F093C706E093C6063FC06D918B
:104CF0007C9111976616770608F43B01BD01129668
:104D00000D90BC91A02DB4CF6091C4067091C506E2
:104D100068157905E9F468167906D0F44091000128
:104D2000509101014115510541F44DB75EB76091B5
:104D3000040170910501461B570BE417F507C0F4F9
:104D4000F093C506E093C406F901918380830EC0F9
:104D50000E94CE247C01009759F0A801BE010E9458
:104D6000BF26CE010E946625C70104C0CE0102C045
:104D700080E090E0CDB7DEB7EEE00C943827FB0181
:104D8000DC0102C001900D9241505040D8F70895C7
:104D9000FB01DC018D91019080190110D9F3990B71
:104DA0000895FB01DC0101900D920020E1F70895C8
:104DB0004532510520F4423010F00C94E326FB01FB
:104DC0001082CB010895BB274A3031F4992322F495
:104DD000BDE2909581959F4F0C94EF26BB27FB0178
:104DE0005527AA27880F991FAA1FA41710F0A41BE4
:104DF00083955051B9F7A05DAA3308F0A95DA1933E
:104E0000009779F7B111B1931192CB010C94082757
:104E1000DC01FC01672F71917723E1F7329704C021
:104E20007C916D9370836291AE17BF07C8F30895AC
:104E30002F923F924F925F926F927F928F929F92AA
:104E4000AF92BF92CF92DF92EF92FF920F931F9398
:104E5000CF93DF93CDB7DEB7CA1BDB0B0FB6F89449
:104E6000DEBF0FBECDBF09942A88398848885F8489
:104E70006E847D848C849B84AA84B984C884DF80FA
:104E8000EE80FD800C811B81AA81B981CE0FD11DDE
:104E90000FB6F894DEBF0FBECDBFED01089513E04D
:104EA000CCE8D3E004C0FE010E94CA242296CE388A
:084EB000D107C9F7F894FFCF08
:104EB8000000C80680000122225C5C08620C660AB9
:104EC8006E0D72097400004C4544206F6E207069A5
:104ED8006E202564202D2025540A00526164696FD4
:104EE80020737461727465642E2E2E0A00417474E6
:104EF800656D7074696E67206E6574776F726B206C
:104F08006A6F696E0A004A6F696E6564206E65741F
:104F1800776F726B0A0053656E64696E673A202575
:104F2800630A0054656D70657261747572652073EB
:104F38007461727465642E2E2E0A0048756D69645A
:104F480069747920737461727465642E2E2E0A0058
:104F5800496C6C756D696E616E63652073746172FE
:104F68007465642E2E2E0A004D6F74696F6E20735F
:104F78007461727465642E2E2E0A00496E69746914
:104F8800616C6973696E672073656E736F72732ED7
:104F98002E2E0A00536F756E64206C6576656C2042
:104FA800737461727465642E2E2E0A0054656D70D8
:104FB800657261747572653A2025640A0048756DDA
:104FC80069646974793A2025640A00496C6C756DC6
:104FD800696E616E63653A2025640A004D6F7469D5
:104FE8006F6E3A2025540A00536F756E64204C6525
:104FF80076656C3A2025640A0069640074656D70F2
:10500800657261747572650068756D696469747933
:1050180000696C6C756D696E616E6365006D6F74A7
:10502800696F6E00736F756E640042757A7A657287
:10503800206F6E0A0042757A7A6572206F66660A7A
:105048000042757A7A657220737461727465642E91
:105058002E2E0A004C75726B65722073746172741F
:10506800696E67202D2025730A00436F6D6D616E90
:10507800643A2025630A005761726E696E673A20A8
:10508800756E6B6E6F776E20636F6D6D20746167E0
:10509800205B25635D0A005061636B65742072654F
:1050A8006365697665640A006C75726B65720023C6
:1050B8000053657269616C207061636B657420735D
:1050C8007461727465642E2E2E0024005365726913
:1050D800616C207061636B657420726563656976C5
:1050E80065642E205B4C656E6774683A2025645DA4
:1050F8000A0052656365697665643A2025730A007B
:105108005061636B6574206C656E6774683A20251E
:10511800640A0000000000431A307800306200542E
:10512800004600747275650066616C7365004552CF
:10513800524F523A200000000000901063103810BF
:1051480040105310621052656164206661696C00FA
:105158006E756C6C00000000006A1DE61EEA1C05F6
:105168001DF71C481D6E616E00696E66006F7666DD
:02517800000035
:00000001FF
