:100000000C9407020C942F020C942F020C942F02D4
:100010000C942F020C942F020C942F020C947A064D
:100020000C942F020C942F020C942F020C942F028C
:100030000C942F020C942F020C942F020C942F027C
:100040000C947D150C942F020C94C8180C944B1929
:100050000C942F020C942F020C942F020C942F025C
:100060000C94FA080C942F0207634236B79BD8A76A
:100070001A39685618AEBAAB558C1D3CB7CC5763CD
:10008000BD6DEDFD753EF6177231BF000000803F7B
:1000900008000000BE922449123EABAAAA2ABECD97
:1000A000CCCC4C3E00000080BEABAAAAAA3E000009
:1000B0000000BF000000803F000000000008417801
:1000C000D3BB4387D1133D190E3CC3BD4282AD2B38
:1000D0003E68EC8276BED98FE1A93E4C80EFFFBE30
:1000E00001C4FF7F3F00000000000001020304057F
:1000F0000A0B0C0D0E0F1112131415165102570294
:100100005D0265026E027802810288029002970207
:100110009E02A602504120506F77657209203D2053
:1001200025530D0A00435243204C656E67746809DD
:10013000203D2025530D0A004D6F64656C09092090
:100140003D2025530D0A004461746120526174659D
:1001500009203D2025530D0A0044594E50442F4696
:1001600045415455524500434F4E4649470052467B
:100170005F53455455500052465F434800454E5F1B
:1001800052584144445200454E5F41410052585F2D
:1001900050575F50302D360054585F414444520050
:1001A00052585F414444525F50322D350052585FDF
:1001B000414444525F50302D31000D0A0025303249
:1001C0007800203078002553092563203D000D0A72
:1001D0000020307825303278002553092563203DF2
:1001E000004F4253455256455F54583D25303278B2
:1001F0003A20504F4C535F434E543D257820415296
:10020000435F434E543D25780D0A005354415455E5
:10021000530909203D203078253032782052585F2C
:1002200044523D25782054585F44533D2578204D55
:1002300041585F52543D25782052585F505F4E4FD1
:100240003D25782054585F46554C4C3D25780D0A85
:1002500000314D42505300324D4250530032353040
:100260004B425053006E524632344C3031006E5285
:100270004632344C30312B0044697361626C6564E2
:10028000003820626974730031362062697473002B
:1002900050415F4D494E0050415F4C4F5700504117
:1002A0005F484947480050415F4D415800005EBCDF
:1002B000E2613FDD83C29C7E20A3FD1F419DC321DF
:1002C0007FFCA2401E5F01E3BD3E6082DC237D9F78
:1002D000C1421CFEA0E1BF5D0380DE3C62BEE002C5
:1002E0005CDF81633D7C22C09E1D43A1FF4618FA5E
:1002F000A427799BC584DA3866E5BB5907DB856797
:1003000039BAE406581947A5FB7826C49A653BD943
:1003100087045AB8E6A7F91B45C6987A24F8A6447C
:100320001A99C7257B3A6486D85B05E7B98CD23029
:100330006EEDB3510F4E10F2AC2F7193CD114FAD46
:10034000F3702ECC92D38D6F31B2EC0E50AFF1130F
:100350004DCE90722C6D33D18F0C52B0EE326C8E2C
:10036000D0530DEFB1F0AE4C1291CF2D73CA9476ED
:1003700028ABF517490856B4EA6937D58B5709EB0E
:10038000B536688AD495CB2977F4AA4816E9B755CB
:100390000B88D6346A2B7597C94A14F6A8742AC8F4
:1003A00096154BA9F7B6E80A54D7896B35000000BB
:1003B00000240027002A0000000000250028002B50
:1003C00000000000002300260029000404040404A7
:1003D00004040402020202020203030303030301F2
:1003E00002040810204080010204081020010204C9
:1003F00008102000000007000201000003040600AE
:1004000000000000000000003A029607FE181124C8
:100410001FBECFEFD8E0DEBFCDBF12E0A0E0B1E05D
:10042000E8E2FFE302C005900D92A837B107D9F7C3
:1004300015E0A8E7B2E001C01D92AA34B107E1F7C8
:1004400014E0CEE0D4E004C02297FE010E948E1F8B
:10045000C830D107C9F70E9471190C94921F0C94EF
:100460000000FB01DC0102C001900D9241505040A0
:10047000D8F708950F931F9388E792E069E04AE068
:100480000E94D80D05E812E0C80164E00E947013D4
:1004900083E992E0B8010E94A90A86EA92E068E046
:1004A0004BE026E00E94531484EB92E00E94A613D6
:1004B0001F910F9108956F927F928F929F92AF92AA
:1004C000BF92CF92DF92EF92FF920F931F93CF9341
:1004D000DF93EC010E94C515662477244301AA240A
:1004E000BB2465017E010027F7FC0095102FE60E66
:1004F000F71E081F191F0E94C5156E157F0580077E
:100500009107A0F41C161D068CF48EE00E94801644
:10051000AA2797FDA095BA2F680E791E8A1E9B1EEA
:100520000894A11CB11CC11CD11CE5CFC401B301AE
:10053000A60195010E94711FC901DF91CF911F9102
:100540000F91FF90EF90DF90CF90BF90AF909F9072
:100550008F907F906F90089584EB92E00E94BD137E
:100560009093BB028093BA02089586E060E00E94F7
:10057000A2168EE060E00E94A21608950F931F93CA
:1005800004EB12E0C8010E943D14C80163E20E941E
:100590002414C80160E10E9411141F910F91089565
:1005A0008DEA94E060E071E00E94961B08958DEA68
:1005B00094E069E171E00E94961B08958DEA94E051
:1005C00060E471E00E94961B08958DEA94E060E675
:1005D00071E00E94961B08958DEA94E06FE671E049
:1005E0000E94961B08958DEA94E06CE871E00E94E9
:1005F000961B08958DEA94E06CE971E00E94961BC9
:1006000008958DEA94E06BEA71E00E94961B0895CC
:100610008DEA94E06BEB71E00E94AC1A0895CF93E1
:10062000DF9387E060E00E94A2160E94D702C0E03C
:10063000D0E00E94080368EE73E080E090E00E9442
:1006400018162196CA30D105A1F70E94D00262E3A4
:1006500070E080E090E00E941816DF91CF9108953D
:1006600083E992E00E946F0D86EA92E00E945A149C
:100670000E94BE020E940F030E94B5021092B702B0
:100680001092B6021092B9021092B8021092BB02F8
:100690001092BA021092BD021092BC021092BE02D9
:1006A0001092BF0208950F931F930DEA14E0C80142
:1006B0006FEB71E00E94AC1AC80168ED71E00E9416
:1006C000AC1A6091B6027091B702882777FD8095C9
:1006D000982F0E94AE1C20E030E048EC52E40E94CB
:1006E000131CAB01BC01C80122E030E00E94931B47
:1006F000C80167EE71E00E94AC1A6091B802709177
:10070000B902882777FD8095982F0E94AE1C20E0C3
:1007100030E048EC52E40E94131CAB01BC01C8015C
:1007200022E030E00E94931BC80165EF71E00E9457
:10073000AC1A6091BA027091BB02C8014AE050E065
:100740000E94991AC80161E072E00E94AC1A60919F
:10075000BC027091BD02C8014AE050E00E94991AA3
:10076000C80164E172E00E94AC1A1F910F910895D4
:100770000F931F930DEA14E0C8016DE172E00E942F
:10078000AC1AC80161E070E04AE050E00E94991A9A
:10079000C80167E372E00E94AC1A1F910F9108959F
:1007A00080918402882309F45CC081E08093D002A8
:1007B00084E68093D1021092D2024CE24093D3029D
:1007C0001092D40284E78093D5022091B602309132
:1007D000B702832F992787FD9A958093D60220939D
:1007E000D7021092D8024093D9021092DA0288E61A
:1007F0008093DB022091B8023091B902832F9927B0
:1008000087FD9A958093DC022093DD021092DE0230
:100810004093DF021092E0028CE68093E102209187
:10082000BA023091BB02832F992787FD9A95809356
:10083000E2022093E3028AE08093E40285E1809360
:10084000100388E792E00E94D21088E792E060ED02
:1008500072E0409110030E940C0F88E792E00E9422
:10086000D2100895FF920F931F93F82E08E712E01D
:10087000C8010E94D210F092D00281E08093100350
:10088000C80160ED72E041E00E940C0FC8010E94B7
:1008900006111F910F91FF9008950E9401038DE6AC
:1008A0000E94320408950E94C5152091C002309123
:1008B000C1024091C2025091C302621B730B840BB0
:1008C000950B6151774280409040B8F087E00E94DC
:1008D0003517019781F481E08093BF020E94C5150E
:1008E0006093C0027093C1028093C2029093C302CE
:1008F0000E944D0408951092BF0208950E94FA02CA
:1009000083E70E94320408950E94C5152091C40215
:100910003091C5024091C6025091C702621B730B11
:10092000840B950B6151774280409040B8F086E08F
:100930000E943517892B81F481E08093BE020E94CA
:10094000C5156093C4027093C5028093C60290934C
:10095000C7020E947E0408951092BE02089588E79F
:100960000E94320408950E94AF040E94C51560934E
:10097000CC027093CD028093CE029093CF020E945E
:10098000EC0209C088E792E060EF72E040E20E946A
:10099000E10E0E941F05809184028823D1F40E94F9
:1009A000C5152091CC023091CD024091CE025091DC
:1009B000CF02621B730B840B950B685E7340804003
:1009C000904038F488E792E00E94B210882319F32F
:1009D000D9CF0895809184028823B9F00E94C5156B
:1009E0002091C8023091C9024091CA025091CB02B5
:1009F000621B730B840B950B615C774280409040C7
:100A000020F00E94F30210928402809184028823D5
:100A1000A9F40E94C5152091CC023091CD024091DD
:100A2000CE025091CF02621B730B840B950B615168
:100A300077428040904010F00E94B3040895809166
:100A40001103E82FF0E0E051FD4FE081803218F40F
:100A50008F5F80931103EE23F9F480911103E82F47
:100A6000F0E0E051FD4FE081803218F48F5F809319
:100A70001103EA3461F0E83539F0E43469F40E9496
:100A8000D0030E94DE0208950E94EA04089581E0E6
:100A9000809384020E94E50208951092110310923F
:100AA000100388E792E060EF72E040E20E94E10EFE
:100AB0000E941F05089588E792E00E94B2108823E3
:100AC00061F00E94C5156093C8027093C9028093BB
:100AD000CA029093CB020E944D050895CF92DF92F7
:100AE000EF92FF920F931F93E8E7CE2EE2E0DE2E07
:100AF000C6010E943411C6016AE50E94100FC601AA
:100B000063E00E94E00FC60161E070E00E94B50F53
:100B1000C60162E04FE00E94D70EC60100E010E976
:100B200020E930E940E950E060E070E00E94430FC6
:100B3000C60161E0EE24E39470E9F72E00E92FEF9F
:100B40003FEF4FEF5FEF0E941710C60162E0EE2407
:100B5000EA9420E930E040E050E00E941710C6011E
:100B60000E9406111F910F91FF90EF90DF90CF90A0
:100B70000895EF92FF920F931F937B018C01CA019E
:100B80000197049728F061E070E080E090E015C0E4
:100B9000BA01882777FD8095982F0E94AE1C9B0193
:100BA000AC0160E070E080E291E40E94C51D9B0111
:100BB000AC01CA01B9010E947B1C0E94AE1C9B01C2
:100BC000AC01C801B7010E94621D0E947B1CCB01D1
:100BD0001F910F91FF90EF90089586EA92E00E9496
:100BE000261542E050E00E94B9059093B902809327
:100BF000B80208950F931F9303E912E0C8010E9401
:100C00006E0CC80160E00E94480D42E050E00E9476
:100C1000B9059093B7028093B6021F910F91089582
:100C20000E94C515209112033091130340911403C3
:100C300050911503621B730B840B950B6157774121
:100C400080409040D0F00E94FA050E94ED050E947D
:100C5000AC0288EC90E00E945B029093BD0280930E
:100C6000BC020E94C5156093120370931303809316
:100C70001403909315030E9453030E9484040E945E
:100C800053040895F894A89589E228E130E00FB65E
:100C9000F894A895209360000FBE8093600078942C
:100CA0000E94EA04A8950E945B050E941006A89580
:100CB00064EF71E080E090E00E941816F894A89527
:100CC00088E10FB6F89480936000109260000FBE28
:100CD000789408958DEA94E040E051EE60E070E091
:100CE00026E00E94B8170E94B8030E946E050E9479
:100CF000300308951F920F920FB60F9211242F9375
:100D00003F934F935F936F937F938F939F93AF9393
:100D1000BF93EF93FF93809116030E943517482FDE
:100D20008091190390911A03019690931A0380936E
:100D300019038091E303843618F085E0809317034C
:100D4000809117038330D1F0843020F4823009F091
:100D500059C006C0843071F1853009F053C04CC0D1
:100D6000442309F04FC08091190390911A038436EF
:100D7000910508F443C01092E3031EC0413009F00E
:100D800041C08091E303E82FF0E0209119033091F6
:100D90001A03EE0FFF1FEA5EFC4F368325838F5F39
:100DA0008093E30310921A031092190384E0809356
:100DB000170328C04423B9F48091E303E82FF0E03F
:100DC0002091190330911A03EE0FFF1FEA5EFC4FCA
:100DD000368325838F5F8093E30310921A0310926A
:100DE000190383E0E4CF8091190390911A038536AB
:100DF000910540F085E0DBCF442321F410921A03E3
:100E00001092190380911803882329F0442311F4C8
:100E10002D9A01C02D98FF91EF91BF91AF919F91B5
:100E20008F917F916F915F914F913F912F910F9093
:100E30000FBE0F901F901895882319F48CB580620F
:100E400002C08CB58F7D8CBD08959CB5937F982B87
:100E50009CBD08952CB5382F33702C7F322B3CBDB0
:100E60002DB590E0959587959595879581702E7F06
:100E7000822B8DBD08958AE061E00E94E1168AE030
:100E800061E00E94A2168CB580618CBD8CB5806437
:100E90008CBD8DE061E00E94A2168BE061E00E94B3
:100EA000A216089581E080932904609306041092AD
:100EB000270410922804089581E080932904609308
:100EC0000604109227041092280408952091050426
:100ED00030E080910404281B3109C9010895409134
:100EE000040480910504481718F02FEF3FEF0AC063
:100EF000E42FF0E0EC51FC4F8081282F30E04F5F71
:100F000040930404C9010895E0910404809105040C
:100F1000E81718F0EFEFFFEF06C0F0E0EC51FC4FE0
:100F20008081E82FF0E0CF010895089510922D04FC
:100F300010922C0488EE93E0A0E0B0E080932E04A1
:100F400090932F04A0933004B09331048BE592E08A
:100F500090932B0480932A040895CF92DF92EF920E
:100F6000FF920F931F93CF93DF937C016B018A0154
:100F7000809129048823A1F0C0E0D0E00DC0D70102
:100F8000ED91FC91D601AC0FBD1F0190F081E02DD9
:100F9000C7016C9109952196C017D10780F304C051
:100FA000CB01642F0E94DF08C801DF91CF911F9110
:100FB0000F91FF90EF90DF90CF900895DF93CF9344
:100FC0000F92CDB7DEB7FC01698380912904882395
:100FD000C9F080912804803238F081E090E093835A
:100FE000828320E030E015C080912704E82FF0E0F4
:100FF000E95FFB4F998190838F5F809327048093F3
:10100000280405C0CE01019661E00E94DF0821E0BE
:1010100030E0C9010F90CF91DF9108950F93062F13
:101020008091060467E074E04091280421E00E946A
:101030008A081092270410922804109229040F9114
:10104000089561E00E940E080895413208F040E2E0
:10105000862F64EE73E00E9441081092040480938E
:101060000504089521E00E942508089510920404C3
:101070001092050410922704109228040E948B0AF3
:101080000895382F413210F040E042C0809136047C
:101090008823E1F791E090933604209338048FEF92
:1010A0008093A30410925E04415040935F044F5F0D
:1010B0009093370480913704330F832B8093370448
:1010C00080913904813041F41092390480913704C1
:1010D0008093BB0085EC01C085EE8093BC008091BD
:1010E00036048130E1F380915E04841710F440915E
:1010F0005E0420E030E00AC0FB01E20FF31FD901DB
:10110000A25CBB4F8C9180832F5F3F4F2417A0F3CD
:10111000842F08950F931F93582F122F413210F0F0
:1011200081E04AC0809136048823E1F782E0809311
:101130003604009338048FEF8093A30410925E046A
:1011400040935F04AEE3B4E0FB0102C081918D9354
:101150008E2F861B8417D0F31092370480913704AA
:10116000550F852B8093370480913904813041F4E9
:1011700010923904809137048093BB0085EC01C044
:1011800085EE8093BC00112321F0809136048230DB
:10119000E1F38091A3048F3F11F480E00DC08091B2
:1011A000A304803211F482E007C08091A30480334D
:1011B00011F084E001C083E01F910F910895482F42
:1011C000613210F081E0089580913604843011F08E
:1011D00082E0089560938104A0E6B4E0842F9C012E
:1011E000F90102C081918D938E2F841B8617D0F355
:1011F00080E008951F920F920FB60F9211242F9343
:101200003F934F935F936F937F938F939F93AF938E
:10121000BF93EF93FF938091B90090E0887F907027
:101220008036910509F4F2C081369105CCF58832FB
:10123000910509F47BC089329105B4F480319105A0
:1012400009F46FC0813191053CF4009709F447C15E
:10125000089709F04FC165C08831910509F466C04F
:10126000809709F047C182C08034910509F4A4C079
:101270008134910544F48033910509F482C0C89704
:1012800009F038C189C08035910509F489C08835D5
:10129000910509F496C08834910509F02BC1AEC0C0
:1012A0008839910509F413C189399105ECF488371F
:1012B000910509F4ABC0893791054CF48836910546
:1012C00009F4A4C08037910509F014C19FC0883883
:1012D000910509F4FCC08039910509F49DC080385E
:1012E000910509F007C198C0803B910509F4C6C07B
:1012F000813B91054CF4803A910509F49FC0883AEE
:10130000910509F0F7C0BAC0803C910509F4E3C02B
:10131000883C910509F4DFC0883B910509F0EAC0DB
:10132000C2C0809137048093BB00CFC090915E040F
:1013300080915F04981768F490915E04E92FF0E0C3
:10134000E25CFB4F80818093BB009F5F90935E04C3
:10135000BCC080913804882309F44BC085ED80938C
:10136000BC008091BC0084FDFCCFC2C080E28093B1
:10137000A30485ED8093BC008091BC0084FDFCCF6C
:10138000B7C080E38093A30485ED8093BC00809177
:10139000BC0084FDFCCFACC088E38093A3049BC059
:1013A00080915E049091BB00E82FF0E0E25CFB4F7F
:1013B00090838F5F80935E0490915E0480915F04C0
:1013C00082C080915E049091BB00E82FF0E0E25C67
:1013D000FB4F90838F5F80935E0480913804882355
:1013E00041F085ED8093BC008091BC0084FDFCCF72
:1013F0007FC081E08093390484EA6EC085ED8093DC
:10140000BC008091BC0084FDFCCF72C083E080935F
:1014100036041092A20459C08091A204803208F0D0
:1014200056C08091A2049091BB00E82FF0E0EE57E7
:10143000FB4F90838F5F8093A20447C08091A204EA
:10144000803230F4E091A204F0E0EE57FB4F1082BE
:1014500085ED8093BC008091BC0084FDFCCF109290
:1014600036046091A204E0913C04F0913D0482E8CE
:1014700094E070E009951092A2042DC084E080935E
:1014800036041092800410928104E0913A04F091A5
:101490003B04099580918104882329F481E080939D
:1014A00081041092600490918004E92FF0E0E05AEA
:1014B000FB4F80818093BB009F5F9093800490914D
:1014C000800480918104981710F485EC01C085E8B0
:1014D0008093BC000FC085EC8093BC0009C01092C3
:1014E000A30485ED8093BC008091BC0084FDFCCFFB
:1014F00010923604FF91EF91BF91AF919F918F9120
:101500007F916F915F914F913F912F910F900FBEFF
:101510000F901F9018951092360481E08093380444
:101520001092390482E161E00E94E11683E161E0FA
:101530000E94E116E9EBF0E080818E7F808380815C
:101540008D7F808388E48093B80085E48093BC001D
:101550000895FC018FE69BE0928B818B76836583F7
:101560001482108289E0818381E0828383830895DD
:101570006F927F928F929F92AF92BF92CF92DF92A3
:10158000EF92FF920F931F93CF93DF93FB01EA013A
:10159000998180E0288130E0282B392BE081E232EC
:1015A00031F0E83221F0E03109F084C04BC04C81C9
:1015B0004F3329F1403420F44F3109F07BC02FC064
:1015C0004F3579F04F3709F075C0B901882777FD9D
:1015D0008095982F0E94AE1C20E030E040E85DE34B
:1015E0002EC035952795B901882777FD8095982FCE
:1015F0000E94AE1C20E030E040E05EE320C0359564
:10160000279535952795B901882777FD8095982FDF
:101610000E94AE1C20E030E040E85EE310C093E0A2
:10162000359527959A95E1F7B901882777FD80953B
:10163000982F0E94AE1C20E030E040E05FE30E9463
:10164000621D32C0EF8035952795B901882777FD57
:101650008095982F0E94AE1C20E030E040E85EE3C9
:101660000E94AA1B3B014C016E2D70E02E81621B73
:101670007109882777FD8095982F0E94AE1C5B0129
:101680006C01FF2400E010E0C801B7010E94AC1C0F
:101690009B01AC01C601B5010E94131C9B01AC016A
:1016A000C401B3010E94AB1B9B01AC01832F942F9B
:1016B000752F00C0262F382F492F572FB901CA0187
:1016C000DF91CF911F910F91FF90EF90DF90CF901E
:1016D000BF90AF909F908F907F906F9008950895E6
:1016E000EF92FF920F931F938C017B01FC01858188
:1016F00096810E948F12F80185819681B7010E9420
:101700006E12F8018581968164EB40E00E942912F7
:10171000F801858196810E94A411F82EF801858137
:1017200096810E948F1280E0FF2009F481E01F91D2
:101730000F91FF90EF900895CF92DF92EF92FF927A
:101740000F931F938C016B017A01FC0185819681B7
:101750000E948F12F80185819681B6010E946E1257
:10176000F801858196816EEB40E00E942912F80114
:10177000858196810E94D811F7018083F8018581C7
:1017800096810E94D811F7018183F80185819681A5
:101790000E94D811F7018283F801858196810E9409
:1017A000D811F7018383F801858196810E94D811B1
:1017B000F7018483F801858196810E94D811F70191
:1017C0008583F801858196810E94D811F70186836F
:1017D000F801858196810E94D811F7018783F8016D
:1017E000858196810E94D811F7018087F801858153
:1017F00096810E948F121F910F91FF90EF90DF90C2
:10180000CF900895DF93CF93CDB7DEB729970FB66A
:10181000F894DEBF0FBECDBFAE014F5F5F4F0E9499
:101820009C0B8981811181E029960FB6F894DEBF67
:101830000FBECDBFCF91DF910895CF92DF92EF928F
:10184000FF920F931F93CF93DF93EC016B01452B16
:10185000E1F08B818823C9F088818823B1F40E944C
:10186000C5157B018C01CE0160E070E00E94020C86
:10187000882359F40E94C5156E197F09800B910BBE
:101880006E5E72408040904070F3F6016081693076
:1018900039F06930A0F06A3041F06B3081F40AC051
:1018A0006EE570E080E090E00EC06CEB70E080E0F0
:1018B00090E009C067E771E080E090E004C06EEE60
:1018C00072E080E090E00E941816DF91CF911F91A6
:1018D0000F91FF90EF90DF90CF900895CF93DF931B
:1018E000EC018D819E810E948F128D819E810E94CC
:1018F00069128D819E8164E448810E9429128A8147
:10190000882339F0CE012196BE0140E050E00E94CC
:101910001D0CDF91CF9108950F931F938A010E94B0
:101920009C0BC80168E00E94931120E0F8019085AB
:10193000891709F421E0822F1F910F910895CF920A
:10194000DF92EF92FF920F931F93DF93CF93CDB768
:10195000DEB729970FB6F894DEBF0FBECDBF8C015E
:101960007B016E010894C11CD11CA6010E948C0C45
:10197000882329F460E070E08EEF92EC05C0C80186
:10198000B701A6010E94B80A29960FB6F894DEBFE7
:101990000FBECDBFCF91DF911F910F91FF90EF90C0
:1019A000DF90CF900895DF93CF93CDB7DEB729971F
:1019B0000FB6F894DEBF0FBECDBF9C01FB01808146
:1019C0008031D9F0C901AE014F5F5F4F0E948C0C8E
:1019D0008823A9F08D818F3371F0803418F48F3112
:1019E00071F40BC08F3519F08F3749F402C08BE0CA
:1019F00007C08CE005C08AE003C089E001C080E038
:101A000029960FB6F894DEBF0FBECDBFCF91DF9100
:101A100008950F931F938B01CB0167E00E949311F0
:101A200020E0F8019781891709F421E0822F1F91A6
:101A30000F910895EF92FF920F931F93CF93DF932F
:101A4000EC017B01042F8D819E810E94861110E0A4
:101A500007C0CE01B7010E94090D8823A9F00AC072
:101A60008D819E81B7010E94DA12882329F0101718
:101A700059F4EFCF81E001C080E0DF91CF911F9159
:101A80000F91FF90EF9008951F5F0117A8F3E8CF23
:101A9000EF92FF920F931F93DF93CF93CDB7DEB7F3
:101AA00028970FB6F894DEBF0FBECDBF7C01462F3E
:101AB0008E010F5F1F4FB8010E941A0DC701B801B8
:101AC0000E949F0C28960FB6F894DEBF0FBECDBFC4
:101AD000CF91DF911F910F91FF90EF900895AF92FA
:101AE000BF92CF92DF92EF92FF920F931F93DF93FB
:101AF000CF93CDB7DEB761970FB6F894DEBF0FBEB8
:101B0000CDBF7C01FC01858196810E948611F70181
:101B100014826E010894C11CD11C79E0A72EB12C4F
:101B2000AC0EBD1E01E02BC0C701B6010E94090D1D
:101B3000882329F1F7018081882341F4C701B60188
:101B40000E94700B882311F0F7010083C701B601D2
:101B5000A5010E949C0BF7011181C701B6010E94EB
:101B6000D30C811718F4F701818104C0C701B601B5
:101B70000E94D30CF701818384818F5F8483F701F6
:101B800085819681B6010E94DA12882369F66196F2
:101B90000FB6F894DEBF0FBECDBFCF91DF911F917E
:101BA0000F91FF90EF90DF90CF90BF90AF9008958E
:101BB000FC0160834183128280E28383148285E08A
:101BC00082870895FF920F931F938C01F62E81E078
:101BD0000E941C0780E00E94250784E00E942A07DB
:101BE000F80181816F2D0E94E1161F910F91FF90E6
:101BF00008951F93CF93DF93EC01162F60E00E94AE
:101C0000E20D1EBD0DB407FEFDCF1EB5CE0161E095
:101C10000E94E20D812FDF91CF911F9108956FEF08
:101C20000E94F90D089561EE0E94F90D089562EE8B
:101C30000E94F90D0895EF92FF920F931F93CF9397
:101C4000DF93EC01F62EE72E9B81142F941708F4F6
:101C5000192F8C81882311F000E002C0092F011B8D
:101C6000CE0160E00E94E20D81E68EBD0DB407FE5C
:101C7000FDCF8F2D9E2D9C01F901FEB49FEF07C073
:101C80009EBD0DB407FEFDCF8EB58193115011237B
:101C9000B9F707C08EBD0DB407FEFDCF9EB501504C
:101CA00001C08FEF0023B1F7CE0161E00E94E20D89
:101CB0008F2DDF91CF911F910F91FF90EF9008959D
:101CC000DF92EF92FF920F931F93CF93DF93EC017C
:101CD000E62ED72EF22E9B81142F941708F4192F7D
:101CE0008C81882311F000E002C0092F011BCE0176
:101CF00060E00E94E20DFEBC0DB407FEFDCF8E2D0C
:101D00009D2D9C01F901FEB408C080818EBD0DB4EB
:101D100007FEFDCF31968EB511501123B1F706C0E5
:101D20001EBC0DB407FEFDCF8EB501500023C1F7D8
:101D3000CE0161E00E94E20D8F2DDF91CF911F91C6
:101D40000F91FF90EF90DF900895CF93DF93EC0118
:101D5000222311F420EA01C020EBCE010E94600E84
:101D6000888161E00E94E116DF91CF9108950F9381
:101D70001F93CF93DF93EC01162F042F60E00E9496
:101D8000E20D1F7110621EBD0DB407FEFDCF1EB522
:101D90000EBD0DB407FEFDCF8EB5CE0161E00E94F1
:101DA000E20D812FDF91CF911F910F910895262F82
:101DB0004F702295207F242B64E0422F0E94B70EA3
:101DC00008950F931F938C010E941B0EC80167E0BA
:101DD00040E70E94B70E1F910F910895CF93DF93B4
:101DE000EC010E94A50ECE010E940F0E8073D9F364
:101DF000888160E00E94E116CE0167E040E70E9422
:101E0000B70E84FD02C081E004C0CE010E94130E13
:101E100080E0DF91CF91089520E00E94EE0E0895BA
:101E2000462F603808F04FE765E00E94B70E08952E
:101E3000EF92FF920F931F93CF93DF937C01162FA6
:101E4000EA01022F60E00E94E20D1F7110621EBDC8
:101E50000DB407FEFDCF1EB508C088818EBD0DB440
:101E600007FEFDCF21968EB501500023B1F7C701C3
:101E700061E00E94E20D812FDF91CF911F910F91C0
:101E8000FF90EF900895EF92FF920F931F93DF93CF
:101E9000CF93CDB7DEB728970FB6F894DEBF0FBE4D
:101EA000CDBF7C0109831A832B833C834D835E83E2
:101EB0006F8378878E010F5F1F4F6AE0A801F701DB
:101EC00022850E94180FC70160E1A801F701228551
:101ED0000E94180FC70161E1F70143810E94B70E0C
:101EE00028960FB6F894DEBF0FBECDBFCF91DF911D
:101EF0001F910F91FF90EF9008951F93CF93DF9361
:101F0000EC01162F60E00E94E20D1F711EBD0DB4A2
:101F100007FEFDCF8EB58FEF8EBD0DB407FEFDCF52
:101F20001EB5CE0161E00E94E20D812FDF91CF91BD
:101F30001F9108950F931F93CF93DF938C01EB01B3
:101F400060E00E947D0F482F437F209729F0219762
:101F500011F4486001C04C60C80160E00E94B70EF7
:101F6000DF91CF911F910F910895FF920F931F93CF
:101F7000CF93DF93EC018B0166E00E947D0FF7EDBC
:101F8000FF2EF8220230110511F480E204C0013066
:101F9000110511F488E0F82ACE0166E04F2D0E9469
:101FA000B70ECE0166E00E947D0F90E08F1509F418
:101FB00091E0892FDF91CF911F910F91FF900895AC
:101FC0001F93CF93DF93EC01162F66E00E947D0FE5
:101FD000143010F047E003C0412F440F4F5F887F5B
:101FE000482BCE0166E00E94B70EDF91CF911F9182
:101FF0000895FF920F931F938C01F62E62E00E94CA
:102000007D0FEAEEF0E0EF0DF11DE49141E050E0CC
:1020100002C0440F551FEA95E2F740954823C801D6
:1020200062E00E94B70E1F910F91FF900895BF923A
:10203000CF92DF92EF92FF920F931F93DF93CF9394
:10204000CDB7DEB728970FB6F894DEBF0FBECDBF71
:102050006C01B62EE982FA820B831C832D833E83AA
:102060004F835887662369F49C012B5F3F4FFC0127
:102070004285C901BE016F5F7F4F50E00E9431026F
:1020800007C0F6E0F61708F43EC081E0681769F46F
:10209000EB2DF0E0E051FF4FE491C6016E2FAE0151
:1020A0004F5F5F4FF60122850BC0E62FF0E0E05155
:1020B000FF4FE491C6016E2FAE014F5F5F4F21E0ED
:1020C0000E94180F0B2D10E0F801EA50FF4FE49129
:1020D000C6016E2FF60143810E94B70EC60162E071
:1020E0000E947D0F06511F4FF801649121E030E0FE
:1020F00002C0220F331F6A95E2F7482F422BC60118
:1021000062E00E94B70E28960FB6F894DEBF0FBEAD
:10211000CDBFCF91DF911F910F91FF90EF90DF9096
:10212000CF90BF9008950F931F93CF93DF93EC014F
:102130008B0167E10E947D0F80FF02C080E00DC02F
:102140000115110549F0CE010E940F0E90E0959502
:1021500087958770F801808381E0DF91CF911F918F
:102160000F91089560E070E00E9493100895CF935E
:10217000DF93EC0160E00E947D0F81FD10C0CE0175
:1021800060E00E947D0F482F4260CE0160E00E9417
:10219000B70E65E070E080E090E00E941816DF91D5
:1021A000CF9108950F931F938C01FC01808160E013
:1021B0000E94E11682E890E00E94D315C8010E94B7
:1021C000130EC80160E00E947D0F482F4E7FC801AA
:1021D00060E00E94B70EC80162E00E947D0FEAEE47
:1021E000F0E0E49121E030E002C0220F331FEA95D5
:1021F000E2F7482F422BC80162E00E94B70E84E646
:1022000090E00E94D3151F910F910895CF93DF9313
:10221000EC010E94B710CE0160E00E947D0F482FB4
:102220004160CE0160E00E94B70ECE0167E040E75A
:102230000E94B70E8D81882349F0AE014B5F5F4F3E
:10224000CE016AE02A850E94180F04C0CE0160E02A
:102250000E94F90FCE010E94130E888161E00E9456
:10226000E116DF91CF910895CF93DF93EC01888140
:1022700061E00E94A216898161E00E94A2160E947C
:102280003B07888160E00E94E116CE0161E00E9478
:10229000E20D65E070E080E090E00E941816CE014B
:1022A00065E04FE00E94D70ECE0162E070E00E9430
:1022B000B50F882311F081E08A83CE0160E070E0E1
:1022C0000E94B50FCE0162E070E00E949A0FCE012D
:1022D00067E040E70E94B70ECE016CE40E94100F49
:1022E000CE010E94170ECE010E94130ECE010E9455
:1022F000B710CE0160E00E947D0F482F4E7FCE01C7
:1023000060E00E94B70EDF91CF910895FC01138623
:102310001586148687E090E012863197009711F0B9
:102320000197FACF0895DC0180E00BC0E82FF0E0C0
:102330008D9190E0E827F927E355FD4FE491615036
:102340008E2F662399F70895DF92EF92FF920F93F5
:102350001F93FC01E08001811281F894F8018181D2
:102360008E2981838281DE2CD0948D21828383E02B
:1023700090E00E94D315F80181818D2181838AE04C
:1023800090E00E94D315F8010081789485E390E0F5
:102390000E94D31580E010E0FF240E211F21012BA5
:1023A00009F081E01F910F91FF90EF90DF90089569
:1023B000EF92FF920F931F93CF93DF937C0101E085
:1023C00010E0C0E0D0E0C7010E94A4118111102BE1
:1023D000000F2196C830D105B1F7812FDF91CF9141
:1023E0001F910F91FF90EF9008951F93CF93DF936C
:1023F000FC011081C181D281912F909560FF12C0A4
:10240000F8948A8189238A838981812B89838AE050
:1024100090E00E94D3158A81812B8A83789487E388
:1024200090E011C0F8948A8189238A838981812B65
:10243000898381E490E00E94D3158A81812B8A836D
:10244000789485E090E00E94D315DF91CF911F91A1
:102450000895CF92DF92EF92FF920F931F93CF9345
:10246000DF938C01E42EFF24F394C0E0D0E0C62E6D
:10247000DD2460E08F2D90E08C219D21892B09F0D7
:1024800061E0C8010E94F511FF0C2196C830D1050A
:1024900081F7EE20A9F4F894D8011196ED91FC9102
:1024A000129791818C918095982391831196ED914B
:1024B000FC91129792818C918095982392837894C5
:1024C000DF91CF911F910F91FF90EF90DF90CF9010
:1024D00008956CEC40E00E9429120895EF92FF925B
:1024E0000F931F93CF93DF938C017B0165E540E051
:1024F0000E942912C0E0D0E0F701EC0FFD1FC801D7
:10250000608140E00E9429122196C830D105A1F7D0
:10251000DF91CF911F910F91FF90EF900895DF927F
:10252000EF92FF920F931F93CF93DF93FC010081F3
:10253000C181D281F8948981D02ED0948D21898354
:1025400078941DE7E02EFF24115059F182E090E0CD
:102550000E94D315888190E08E219F21892BA1F3C1
:10256000F8948A818D218A838981802B898378944C
:1025700080EE91E00E94D315F89489818D218983A2
:1025800086E490E00E94D315888110E090E0E82274
:10259000F922EF2809F411E078948AE991E00E9489
:1025A000D315812FDF91CF911F910F91FF90EF9065
:1025B000DF900895AF92BF92DF92EF92FF920F9358
:1025C0001F93CF93DF93EC015B018D85882309F086
:1025D00061C0CE010E948F12882329F41B861D86BC
:1025E0001C8690E06BC0CE0160EF40E00E94291293
:1025F00001E0DD24EE24FF24F394CE010E94A41117
:10260000182FCE010E94A411113019F48130E1F489
:1026100039C0181709F58B85081770F460E0FE01C2
:10262000EE0DF11D838190E02F2D30E08223932366
:10263000181619064CF003C060E0081729F009309D
:1026400008F04CC00C874AC0FE01EE0DF11D8381DD
:102650008F29838361E009C0612FFE01EE0DF11D1A
:102660009F2D9095838189238383CE010E94F5114C
:102670000F5FFF0C19F4E394FF24F39487E08E15A9
:1026800008F0BBCF013430F0DB86DD2011F581E0AE
:102690008D871FC01B861D861C8690E0DE0120E012
:1026A00030E0F501E20FF31F13968C9113978083AE
:1026B0002F5F3F4F11962830310599F7892FDF9111
:1026C000CF911F910F91FF90EF90DF90BF90AF904F
:1026D00008958B818823F1F291E0E0CFD02EBDCF19
:1026E000FF920F931F938C01F62E862F60E00E94BD
:1026F000A2168F2D90E0FC01E152FC4FE491D8012D
:10270000EC9385539C4FFC016491E62FF0E0EE0FB3
:10271000FF1FEF53FC4F8591949112969C938E93DB
:1027200011971B961C921B971D961C921D971C9629
:102730001C92F80187E090E012863197009711F023
:102740000197FACF1F910F91FF9008950895FF927E
:102750000F931F93FC01F62E0AE214E0C80160817A
:102760000E945207C8016F2D0E94DE07C8010E9417
:1027700021081F910F91FF900895CF92DF92EF9261
:10278000FF920F931F93CF93DF93EC0189818130E8
:1027900071F48AE294E06CE570E00E945C078AE2E2
:1027A00094E06CE570E042E050E00E9432088981DC
:1027B000882371F48AE294E063E270E00E945C078F
:1027C0008AE294E063E270E042E050E00E94320866
:1027D0008AE294E00E946F07F82EEE248AE294E0E9
:1027E0000E946F076C018AE294E00E942108EC28A5
:1027F000FD2800E010E0C801B7010E94AC1C2AE9E6
:1028000039E949E95FE30E94131C0E94801CCB0157
:10281000DF91CF911F910F91FF90EF90DF90CF90BC
:102820000895FF920F931F938C01F62E6AE070E0DB
:1028300080E090E00E941816C8016F2D0E94A71337
:102840001F910F91FF900895CF93DF93EC016332B6
:1028500019F06C3579F407C0688381E160E00E946B
:10286000E116198207C0688381E161E00E94E116E8
:1028700081E08983DF91CF9108950F931F938C019D
:102880008AE294E00E943608C80161E00E94A71322
:1028900081E161E00E94A21681E161E00E94E116FF
:1028A0001F910F910895FC0166834783208781E083
:1028B000858708950F931F938C01FC01868160E04A
:1028C0000E94A216F801868161E00E94E116F801DB
:1028D00011861286138614861F910F910895CF9248
:1028E000DF92EF92FF920F931F93CF93DF93EC0150
:1028F0008E8161E00E94E1166AEF70E080E090E076
:102900000E9418160E94C5159B01AC0189859A8505
:10291000AB85BC85281739074A075B0720F4198661
:102920001A861B861C868D85882371F489859A8575
:10293000AB85BC85281B390B4A0B5B0B205D3740F0
:102940004040504008F477C01D860E94C515698735
:102950007A878B879C871C821B821A821982188235
:102960008E8161E00E94A2168E8160E00E94E116D5
:1029700064E170E080E090E00E941816F8948E8187
:1029800061E00E94E11688E290E00E94D3158E81FA
:1029900060E00E94A21681E0EE2400E010E00AC090
:1029A000F39481E090E00E94D3158FEFF81629F49C
:1029B0000AC0822FFF24C82EDD248E810E94351785
:1029C0008C159D0569F38E810E943517282F8FEF96
:1029D000F816C9F0043090F000FD10C08E2D8695D9
:1029E00086958695FE01E80FF11D9081990F9083E1
:1029F00088858F1510F491609083E3940F5F1F4FCB
:102A000005351105B1F6789487E28E1510F030E0A7
:102A100013C030E04C8150E02981888190E0820F22
:102A2000911D2A81820F911D2B81820F911D907023
:102A30004817590709F431E0832FDF91CF911F9197
:102A40000F91FF90EF90DF90CF900895EF92FF925B
:102A50000F931F93CF93DF93EC010E946F14882391
:102A6000A9F18F818B3031F08B3080F1855182302C
:102A700068F507C0688170E080E090E00E94AC1CBF
:102A800022C0688170E080E090E00E94AC1C20E0F1
:102A900030E040E853E40E94621D7B018C016981B3
:102AA00070E0882777FD8095982F0E94AE1C9B01CF
:102AB000AC01C801B7010E94AB1B20E030E040E24E
:102AC00051E40E94131CE62F692F0AC08DEA94E09E
:102AD0006EE372E00E94AC1AE0E070E080EC6FE719
:102AE0002E2F372F482F562FB901CA01DF91CF91D2
:102AF0001F910F91FF90EF9008951F920F920FB6C4
:102B00000F9211242F933F938F939F93AF93BF9373
:102B10008091A8049091A904A091AA04B091AB045B
:102B20003091AC040196A11DB11D232F2D5F2D37CF
:102B300020F02D570196A11DB11D2093AC04809368
:102B4000A8049093A904A093AA04B093AB04809125
:102B5000A4049091A504A091A604B091A7040196A5
:102B6000A11DB11D8093A4049093A504A093A60475
:102B7000B093A704BF91AF919F918F913F912F91F7
:102B80000F900FBE0F901F9018958FB7F89420915B
:102B9000A8043091A9044091AA045091AB048FBFBE
:102BA000B901CA010895019739F0880F991F880F5C
:102BB000991F02970197F1F70895789484B5826080
:102BC00084BD84B5816084BD85B5826085BD85B5D1
:102BD000816085BDEEE6F0E0808181608083E1E880
:102BE000F0E01082808182608083808181608083B8
:102BF000E0E8F0E0808181608083E1EBF0E08081BB
:102C000084608083E0EBF0E0808181608083EAE78C
:102C1000F0E0808184608083808182608083808115
:102C2000816080838081806880831092C1000895D4
:102C3000EF92FF920F931F93CF93DF937B018C0151
:102C40003FB7F8948091A4049091A504A091A604A4
:102C5000B091A70426B5A89B05C02F3F19F0019697
:102C6000A11DB11D3FBFBA2FA92F982F8827820F12
:102C7000911DA11DB11D52E0880F991FAA1FBB1FF6
:102C80005A95D1F7EC0130C00E94A91B3FB7F894C8
:102C90008091A4049091A504A091A604B091A704EA
:102CA00026B5A89B05C02F3F19F00196A11DB11DA7
:102CB0003FBFBA2FA92F982F8827820F911DA11DE2
:102CC000B11D32E0880F991FAA1FBB1F3A95D1F79B
:102CD0008C1B9D0B885E9340B8F20894E108F108C4
:102CE00001091109C851DC4FE114F1040105110576
:102CF00059F6DF91CF911F910F91FF90EF900895BA
:102D0000982F8E3008F09E509770809156028295D1
:102D1000880F880F807C892B80937C0080917A00BB
:102D2000806480937A0080917A0086FDFCCF2091A8
:102D3000780040917900942F80E030E0282B392BE7
:102D4000C9010895CF93DF93482F50E0CA01815203
:102D50009C4FFC01349145535C4FFA0184918823C8
:102D600069F190E0880F991FFC01E355FC4FA59194
:102D7000B491FC01E954FC4FC591D491662351F400
:102D80002FB7F8948C91932F909589238C938881F9
:102D900089230BC0623061F42FB7F8948C91932F84
:102DA000909589238C938881832B88832FBF06C0BD
:102DB0009FB7F8948C91832B8C939FBFDF91CF9119
:102DC0000895482F50E0CA018D509C4FFC0124917A
:102DD000CA0181529C4FFC01949145535C4FFA010A
:102DE0003491332309F440C0222351F1233071F090
:102DF000243028F42130A1F0223011F514C02630FF
:102E0000B1F02730C1F02430D9F404C080918000A3
:102E10008F7703C0809180008F7D8093800010C0E9
:102E200084B58F7702C084B58F7D84BD09C0809141
:102E3000B0008F7703C08091B0008F7D8093B00089
:102E4000E32FF0E0EE0FFF1FE954FC4FA591B49182
:102E50002FB7F894662321F48C919095892302C0B2
:102E60008C91892B8C932FBF0895682F70E0CB0134
:102E70008D509C4FFC012491CB0181529C4FFC0151
:102E8000449165537C4FFB019491992319F420E000
:102E900030E03CC0222351F1233071F0243028F47B
:102EA0002130A1F0223011F514C02630B1F02730C6
:102EB000C1F02430D9F404C0809180008F7703C022
:102EC000809180008F7D8093800010C084B58F77C3
:102ED00002C084B58F7D84BD09C08091B0008F771A
:102EE00003C08091B0008F7D8093B000892F90E067
:102EF000880F991F8F539C4FFC01A591B4918C9121
:102F000020E030E0842311F021E030E0C901089591
:102F1000DC015C968C915C97FD01E80FF11DE35A92
:102F2000FF4F20815C968C915C9790E001968F73A7
:102F300090705C968C935C975696ED91FC915797A8
:102F400020835096ED91FC9151978081806480831D
:102F50005B969C915B975C968C915C97981739F483
:102F60005296ED91FC91539780818F7D80830895D7
:102F7000DF92EF92FF920F931F93CF93DF93EC01B9
:102F80007A018B01D22EE889F98982E08083403072
:102F900081EE580780E0680780E07807A1F060E0E4
:102FA00079E08DE390E0A80197010E944F1F215026
:102FB000304040405040569547953795279580E1E1
:102FC0002030380798F0E889F989108260E874E8C1
:102FD0008EE190E0A80197010E944F1F21503040E0
:102FE000404050405695479537952795EC85FD858F
:102FF0003083EE85FF852083188EEC89FD89D08291
:10300000EA89FB89808180618083EA89FB898081EC
:1030100088608083EA89FB89808180688083EA896F
:10302000FB8980818F7D8083DF91CF911F910F91EC
:10303000FF90EF90DF900895FC01218D828D30E0AC
:10304000205C3F4F281B31092F733070C901089550
:10305000FC01918D828D981719F42FEF3FEF06C078
:10306000828DE80FF11D858D282F30E0C90108956C
:10307000DC0159969C9159975A968C915A979817BA
:1030800019F42FEF3FEF10C05A968C915A97FD011B
:10309000E80FF11D958D5A968C915A978F5F8F731B
:1030A0005A968C93292F30E0C9010895CF93DF936E
:1030B000EC01888D882361F419C08C9185FF0AC0CA
:1030C000E889F989808185FF05C0CE010E948817B3
:1030D000AA89BB898C9185FD05C0E889F989808121
:1030E00086FD04C00FB607FEE8CFF4CFDF91CF9185
:1030F00008950F931F93CF93DF93EC01062F9B8DC1
:103100008C8D981791F5E889F989808185FF2DC00C
:10311000EE89FF896083E889F989808180648083F2
:103120001DC00FB607FC08C0E889F989808185FFBA
:1031300003C0CE010E9488178C8D181791F38B8DD8
:10314000FE01E80FF11DE35AFF4F00831B8FEA8950
:10315000FB8980818062808381E0888F81E090E0BC
:10316000DF91CF911F910F9108951B8D1F5F1F73EA
:10317000E3CF81E499E1892B51F080E090E0892B45
:1031800031F00E944119882311F00E940000089537
:103190001F920F920FB60F9211242F938F939F932C
:1031A000EF93FF93E091BD04F091BE04808182FD16
:1031B00016C0E091C304F091C40420819091C6042C
:1031C0009F5F9F738091C704981771F0E091C604C8
:1031D000F0E0E355FB4F258F9093C60405C0E091C6
:1031E000C304F091C404E081FF91EF919F918F910E
:1031F0002F910F900FBE0F901F9018951092B00452
:103200001092AF0488EE93E0A0E0B0E08093B104A8
:103210009093B204A093B304B093B4048BE692E00D
:103220009093AE048093AD0485EC90E09093BA0443
:103230008093B90484EC90E09093BC048093BB0429
:1032400080EC90E09093BE048093BD0481EC90E00C
:103250009093C0048093BF0482EC90E09093C204EA
:103260008093C10486EC90E09093C4048093C304DF
:103270001092C6041092C7041092C8041092C90498
:1032800008958DEA94E00E941C1820E0892B09F033
:1032900021E0822F08951F920F920FB60F921124F2
:1032A0002F933F934F935F936F937F938F939F934E
:1032B000AF93BF93EF93FF938DEA94E00E9488173A
:1032C000FF91EF91BF91AF919F918F917F916F91FE
:1032D0005F914F913F912F910F900FBE0F901F90D4
:1032E0001895CF93DF930E94DD150E946A06C9EB03
:1032F000D8E10E9442062097E1F30E94B918F9CF65
:10330000CF92DF92EF92FF920F931F93CF93DF93B1
:103310007C016B018A01C0E0D0E00FC0D6016D9145
:103320006D01D701ED91FC910190F081E02DC70175
:103330000995C80FD91F015010400115110571F7EB
:10334000CE01DF91CF911F910F91FF90EF90DF9011
:10335000CF900895EF92FF920F931F938C01DC01A1
:10336000ED91FC910190F081E02D6DE009957C01DB
:10337000D801ED91FC910190F081E02DC8016AE047
:1033800009959C012E0D3F1DC9011F910F91FF90C2
:10339000EF900895CF93DF93EC016115710519F457
:1033A00020E030E00FC0DB010D900020E9F711971D
:1033B000A61BB70BE881F9810280F381E02DAD01F6
:1033C00009959C01C901DF91CF9108954F925F92B9
:1033D0007F928F929F92AF92BF92CF92DF92EF92A5
:1033E000FF920F931F93DF93CF93CDB7DEB7A197D3
:1033F0000FB6F894DEBF0FBECDBF2C01742ECB01EB
:10340000223008F42AE019A231E2C32ED12CCC0ECE
:10341000DD1E822E9924AA24BB24672D752FA501B9
:1034200094010E944F1F79018A01C801B701A501CB
:1034300094010E94301F472D461B0894C108D108F3
:103440004A3014F4405D01C0495CF6014083E11448
:10345000F1040105110521F07E2C5F2DC801DDCF9F
:10346000C201B6010E94CA19A1960FB6F894DEBF38
:103470000FBECDBFCF91DF911F910F91FF90EF90C5
:10348000DF90CF90BF90AF909F908F907F905F9094
:103490004F900895DC012115310541F4ED91FC9127
:1034A0000190F081E02D642F099508950E94E6199E
:1034B0000895CF92DF92EF92FF920F931F93CF93D5
:1034C000DF93EC016A017B012115310541F4E881AC
:1034D000F9810190F081E02D642F09951FC02A30F9
:1034E0003105D1F477FF17C0E881F9810190F081AF
:1034F000E02D6DE209958C0144275527BA014C193E
:103500005D096E097F09CE012AE00E94E619980143
:10351000280F391F04C02AE00E94E6199C01C90146
:10352000DF91CF911F910F91FF90EF90DF90CF909F
:103530000895EF92FF920F931F937B019A0100274A
:10354000F7FC0095102FB801A7010E94591A1F918E
:103550000F91FF90EF9008950E94CA1908957F92ED
:103560008F929F92AF92BF92CF92DF92EF92FF9293
:103570000F931F93CF93DF934C017A018B01722E2F
:10358000CB01BA01A80197010E94111E882321F0E6
:10359000C40168E472E021C0C0E0D0E057016801D6
:1035A000E894D7F8C601B5012FEF3FEF4FE75FE78B
:1035B0000E94111E882351F4C601B5012FEF3FEF81
:1035C0004FE75FE70E940F1C181614F0C1E0D0E02F
:1035D000219739F0C4016CE472E00E94CA19EC0131
:1035E00093C0C801B7012FEF3FEF4FE75FE40E94A0
:1035F0005E1D181654F0C801B7012FEF3FEF4FE7DB
:103600005FEC0E940F1C882324F4C40160E572E083
:10361000E4CFC801B70120E030E040E050E00E9474
:103620000F1C87FD03C0C0E0D0E00EC0D401ED91B7
:10363000FC910190F081E02DC4016DE20995EC014F
:1036400017FB109517F9109520E030E040E05FE39C
:10365000DD240BC0CA01B90120E030E040E251E4B2
:103660000E94131C9B01AC01D394D71498F3C8019A
:10367000B7010E94AB1B5B016C010E94801C7B01A7
:103680008C01C401B801A7012AE030E00E944A1A67
:10369000C80FD91F772039F0C40164E572E00E9499
:1036A000CA19C80FD91FC801B7010E94AC1C9B01E1
:1036B000AC01C601B5010E94AA1B24C020E030E085
:1036C00040E251E40E94621D7B018C010E947B1C40
:1036D0005B016C01CC24B7FCC094DC2CC401B601A6
:1036E000A5012AE030E00E94591AC80FD91FC6016F
:1036F000B5010E94AE1C9B01AC01C801B7010E943C
:10370000AA1B7A947720D1F6CE01DF91CF911F9139
:103710000F91FF90EF90DF90CF90BF90AF909F9070
:103720008F907F9008950E94AF1A0895EF92FF92B4
:103730000F931F937C010E94CA198C01C7010E943C
:10374000AA19080F191FC8011F910F91FF90EF9040
:10375000089508955058BB27AA270ED075C166D189
:1037600030F06BD120F031F49F3F11F41EF45BC1B7
:103770000EF4E095E7FB51C1E92F77D180F3BA173A
:10378000620773078407950718F071F49EF58FC1DF
:103790000EF4E0950B2EBA2FA02D0B01B90190016C
:1037A0000C01CA01A0011124FF27591B99F0593FB0
:1037B00050F4503E68F11A16F040A22F232F342FF8
:1037C0004427585FF3CF469537952795A795F04046
:1037D0005395C9F77EF41F16BA0B620B730B840B5B
:1037E000BAF09150A1F0FF0FBB1F661F771F881F13
:1037F000C2F70EC0BA0F621F731F841F48F487956B
:1038000077956795B795F7959E3F08F0B3CF939559
:10381000880F08F09927EE0F979587950895D9D0CE
:1038200008F481E008950CD00FC107D140F0FED01C
:1038300030F021F45F3F19F0F0C0511139C1F3C0ED
:1038400014D198F39923C9F35523B1F3951B550B64
:10385000BB27AA2762177307840738F09F5F5F4F63
:10386000220F331F441FAA1FA9F333D00E2E3AF0A4
:10387000E0E830D091505040E695001CCAF729D0BE
:10388000FE2F27D0660F771F881FBB1F261737070D
:103890004807AB07B0E809F0BB0B802DBF01FF273D
:1038A00093585F4F2AF09E3F510568F0B6C000C1A3
:1038B0005F3FECF3983EDCF3869577956795B79577
:1038C000F7959F5FC9F7880F911D9695879597F992
:1038D0000895E1E0660F771F881FBB1F621773070B
:1038E0008407BA0720F0621B730B840BBA0BEE1F20
:1038F00088F7E095089504D06894B111D9C008956F
:10390000BCD088F09F5790F0B92F9927B751A0F0FD
:10391000D1F0660F771F881F991F1AF0BA95C9F763
:1039200012C0B13081F0C3D0B1E00895C0C0672F9C
:10393000782F8827B85F39F0B93FCCF38695779513
:103940006795B395D9F73EF49095809570956195FC
:103950007F4F8F4F9F4F0895E89409C097FB3EF427
:1039600090958095709561957F4F8F4F9F4F9923CC
:10397000A9F0F92F96E9BB279395F695879577954A
:103980006795B795F111F8CFFAF4BB0F11F460FF0A
:103990001BC06F5F7F4F8F4F9F4F16C0882311F062
:1039A00096E911C0772321F09EE8872F762F05C076
:1039B000662371F096E8862F70E060E02AF09A9511
:1039C000660F771F881FDAF7880F9695879597F906
:1039D0000895990F0008550FAA0BE0E8FEEF1616A0
:1039E0001706E807F907C0F012161306E407F507F3
:1039F00098F0621B730B840B950B39F40A2661F067
:103A0000232B242B252B21F408950A2609F4A14009
:103A1000A6958FEF811D811D089597F99F6780E816
:103A200070E060E008959FEF80EC089500240A9410
:103A30001616170618060906089500240A94121689
:103A40001306140605060895092E0394000C11F4BC
:103A5000882352F0BB0F40F4BF2B11F460FF04C069
:103A60006F5F7F4F8F4F9F4F089557FD9058440FC2
:103A7000551F59F05F3F71F04795880F97FB991FCD
:103A800061F09F3F79F0879508951216130614068A
:103A9000551FF2CF4695F1DF08C016161706180617
:103AA000991FF1CF86957105610508940895E894F2
:103AB000BB2766277727CB0197F908958ADF08F49B
:103AC0008FEF08950BD0C0CFB1DF28F0B6DF18F02C
:103AD000952309F0A2CFA7CF1124EACFC6DFA0F328
:103AE000959FD1F3950F50E0551F629FF001729F93
:103AF000BB27F00DB11D639FAA27F00DB11DAA1FB2
:103B0000649F6627B00DA11D661F829F2227B00DFE
:103B1000A11D621F739FB00DA11D621F839FA00D89
:103B2000611D221F749F3327A00D611D231F849FD9
:103B3000600D211D822F762F6A2F11249F57504030
:103B40008AF0E1F088234AF0EE0FFF1FBB1F661FCB
:103B5000771F881F91505040A9F79E3F510570F084
:103B60005CCFA6CF5F3FECF3983EDCF3869577956C
:103B70006795B795F795E7959F5FC1F7FE2B880F7F
:103B8000911D9695879597F90895FA01EE0FFF1FFD
:103B900030962105310599F16115710561F4803880
:103BA000BFE39B0749F168949038810561F0803844
:103BB000BFEF9B0741F0992342F5FF3FE105310537
:103BC000210511F1E8940894E795D901AA2329F475
:103BD000AB2FBE2FF85FD0F310C0FF5F70F4A69537
:103BE000E0F7F73950F019F0FF3A38F49F779F93D8
:103BF0000CD00F9007FC905808953EF014CF60E071
:103C000070E080E89FE308954FE79F775F934F93BD
:103C10003F932F93A2D02F913F914F915F9152DF0D
:103C200009C0D7DE880B990B089519F40EF0F5CE74
:103C30003ECFF9CE22DFC8F39638C0F707F80F92CF
:103C4000E8942BE33AEA48EB5FE74ADF0F920F92E2
:103C50000F924DB75EB70F92C0D0E8E6F0E016D0F5
:103C60004F915F91EF91FF91E595EE1FFF1F49F096
:103C7000FE57E0684427EE0F441FFA95E1F741959F
:103C8000550B32D00F9007FE26C00895DF93CF93D7
:103C90001F930F93FF92EF92DF927B018C01689448
:103CA00005C0DA2EEF011ADFFE01E894A5912591F7
:103CB000359145915591AEF3EF015EDDFE0197011F
:103CC000A801DA9479F7DF90EF90FF900F911F91A0
:103CD000CF91DF9108959B01AC0160E070E080E836
:103CE0009FE3A1CD9ACEACC0C8DEE8F39923D9F307
:103CF000940F511DBBF39150504094F059F088231C
:103D000032F0660F771F881F91505040C1F79E3FD9
:103D1000510544F7880F911D9695879597F9089559
:103D20005F3FACF0983E9CF0BB27869577956795F2
:103D3000B79508F4B1609395C1F7BB0F58F711F42C
:103D400060FFE8CF6F5F7F4F8F4F9F4FE3CFB0CEC5
:103D50000EF076C068CE689460CE8FDEC8F39923EB
:103D6000D1F3C6F3DF93CF931F930F93FF92C92F25
:103D7000DD2788232AF02197660F771F881FDAF73F
:103D800020E030E040E85FEB9FE3883920F0803EA0
:103D900030F021968F77DFDCE0E9F0E003C0DBDC78
:103DA000EDEBF0E073DF8B01BE01EC01FB2E6F57F2
:103DB00071097595771F880B990BD0DD28E132E7E3
:103DC00041E35FE38BDEAF2D9801AE01FF900F91D1
:103DD0001F91CF91DF91D0DC37CEFA01DC01AA0F21
:103DE000BB1F9B01AC01BF5728F422273327442770
:103DF00050781FC0B75188F4AB2F002446953795F3
:103E00002795011CA395D2F3002069F0220F331FE0
:103E1000441FB395DAF30DD09DCC61307105A0E855
:103E20008A07B94630F49B01AC01662777278827BB
:103E30009078309621F02083318342835383089514
:103E40009F3F49F0915028F4869577956795B795EF
:103E50009F5F80389F4F880F9695879597F90895B3
:103E6000629FD001739FF001829FE00DF11D649F5E
:103E7000E00DF11D929FF00D839FF00D749FF00DEA
:103E8000659FF00D9927729FB00DE11DF91F639F8B
:103E9000B00DE11DF91FBD01CF0111240895A1E26C
:103EA0001A2EAA1BBB1BFD010DC0AA1FBB1FEE1FB4
:103EB000FF1FA217B307E407F50720F0A21BB30BFF
:103EC000E40BF50B661F771F881F991F1A9469F77B
:103ED00060957095809590959B01AC01BD01CF01D7
:103EE000089597FB092E05260ED057FD04D0D7DF85
:103EF0000AD0001C38F450954095309521953F4FDD
:103F00004F4F5F4F0895F6F79095809570956195A6
:103F10007F4F8F4F9F4F0895EE0FFF1F0590F49135
:083F2000E02D0994F894FFCF95
:103F2800646F6E652E2053656E736F722063616CCB
:103F3800696272617465642E0043616C69627261C2
:103F480074696E67206D6F74696F6E2073656E7328
:103F58006F722E20506C65617365207761697400FB
:103F680053656E642064617461207061636B65746D
:103F780020746F20636F6F7264696E61746F720072
:103F88004A6F696E6564206E6574776F726B004E58
:103F98006574776F726B206A6F696E2072657175D0
:103FA8006573742073656E742E2E2E004E657477BB
:103FB8006F726B2074696D656F757400536F756EE1
:103FC80064206465746563746564004D6F74696F1B
:103FD8006E206465746563746564002E2E2E000A75
:103FE8003D3D3D3D3D2053656E736F7220446174C5
:103FF80061203D3D3D3D3D000A54656D706572612F
:10400800747572653A090020430A48756D696469D8
:1040180074793A090020250A4C696768743A0909D5
:1040280000206C75780A536F756E64204C65766550
:104038006C3A090020636F756E740A0A003D3D3DB5
:104048003D204C75726B6572204E616E6F202D207D
:104058004E6F6465202300203D3D3D3D0A005265BA
:104068006164206661696C006E616E00696E66004D
:104078006F7666002E000100000000DE07AD0766BF
:10408800076F078407950700000000791880191C3E
:0840980018381828185618000A
:00000001FF
