:100000000C9407020C942F020C942F020C942F02D4
:100010000C942F020C942F020C942F020C94910636
:100020000C942F020C942F020C942F020C942F028C
:100030000C942F020C942F020C942F020C942F027C
:100040000C9482160C942F020C94CD190C94501A17
:100050000C942F020C942F020C942F020C942F025C
:100060000C9411090C942F0207634236B79BD8A752
:100070001A39685618AEBAAB558C1D3CB7CC5763CD
:10008000BD6DEDFD753EF6177231BF000000803F7B
:1000900008000000BE922449123EABAAAA2ABECD97
:1000A000CCCC4C3E00000080BEABAAAAAA3E000009
:1000B0000000BF000000803F000000000008417801
:1000C000D3BB4387D1133D190E3CC3BD4282AD2B38
:1000D0003E68EC8276BED98FE1A93E4C80EFFFBE30
:1000E00001C4FF7F3F00000000000A0B0C0D0E0F43
:1000F00011121314151600010203040551025702D0
:100100005D0265026E027802810288029002970207
:100110009E02A502504120506F77657209203D2054
:1001200025530D0A00435243204C656E67746809DD
:10013000203D2025530D0A004D6F64656C09092090
:100140003D2025530D0A004461746120526174659D
:1001500009203D2025530D0A0044594E50442F4696
:1001600045415455524500434F4E4649470052467B
:100170005F53455455500052465F434800454E5F1B
:1001800052584144445200454E5F41410052585F2D
:1001900050575F50302D360054585F414444520050
:1001A00052585F414444525F50322D350052585FDF
:1001B000414444525F50302D31000D0A0025303249
:1001C0007800203078002553092563203D000D0A72
:1001D0000020307825303278002553092563203DF2
:1001E000004F4253455256455F54583D25303278B2
:1001F0003A20504F4C535F434E543D257820415296
:10020000435F434E543D25780D0A005354415455E5
:10021000530909203D203078253032782052585F2C
:1002200044523D25782054585F44533D2578204D55
:1002300041585F52543D25782052585F505F4E4FD1
:100240003D25782054585F46554C4C3D25780D0A85
:1002500000314D42505300324D4250530032353040
:100260004B425053006E524632344C3031006E5285
:100270004632344C30312B0044697361626C6564E2
:10028000003820626974730031362062697473002B
:1002900050415F4D494E0050415F4C4F57004C411B
:1002A0005F4D45440050415F4849474800005EBCEF
:1002B000E2613FDD83C29C7E20A3FD1F419DC321DF
:1002C0007FFCA2401E5F01E3BD3E6082DC237D9F78
:1002D000C1421CFEA0E1BF5D0380DE3C62BEE002C5
:1002E0005CDF81633D7C22C09E1D43A1FF4618FA5E
:1002F000A427799BC584DA3866E5BB5907DB856797
:1003000039BAE406581947A5FB7826C49A653BD943
:1003100087045AB8E6A7F91B45C6987A24F8A6447C
:100320001A99C7257B3A6486D85B05E7B98CD23029
:100330006EEDB3510F4E10F2AC2F7193CD114FAD46
:10034000F3702ECC92D38D6F31B2EC0E50AFF1130F
:100350004DCE90722C6D33D18F0C52B0EE326C8E2C
:10036000D0530DEFB1F0AE4C1291CF2D73CA9476ED
:1003700028ABF517490856B4EA6937D58B5709EB0E
:10038000B536688AD495CB2977F4AA4816E9B755CB
:100390000B88D6346A2B7597C94A14F6A8742AC8F4
:1003A00096154BA9F7B6E80A54D7896B35000000BB
:1003B00000240027002A0000000000250028002B50
:1003C00000000000002300260029000404040404A7
:1003D00004040402020202020203030303030301F2
:1003E00002040810204080010204081020010204C9
:1003F00008102000000007000201000003040600AE
:1004000000000000000000003102AD07031A1124B3
:100410001FBECFEFD8E0DEBFCDBF12E0A0E0B1E05D
:10042000EEE8F1E402C005900D92A231B107D9F7D0
:1004300014E0A2E1B2E001C01D92A43FB107E1F7D0
:1004400014E0CEE0D4E004C02297FE010E94C12057
:10045000C830D107C9F70E94761A0C94C5200C94B5
:1004600000000F931F9382E192E069E04AE00E944E
:10047000EF0D07E312E0C80164E00E94751485E403
:1004800092E0B8010E94C00A88E592E068E04BE083
:1004900026E00E94581586E692E00E94AB141F9158
:1004A0000F9108956F927F928F929F92AF92BF9219
:1004B000CF92DF92EF92FF920F931F93CF93DF9330
:1004C000EC010E94CA16662477244301AA24BB24A7
:1004D00065017E010027F7FC0095102FE60EF71E40
:1004E000081F191F0E94CA166E157F058007910705
:1004F000A0F41C161D068CF48EE00E948517AA2716
:1005000097FDA095BA2F680E791E8A1E9B1E08942F
:10051000A11CB11CC11CD11CE5CFC401B301A601B3
:1005200095010E94A420C901DF91CF911F910F91E5
:10053000FF90EF90DF90CF90BF90AF909F908F9003
:100540007F906F90089586E692E00E94C214909387
:100550006D0280936C02089586E060E00E94A71708
:100560008EE060E00E94A71708950F931F9306E6A0
:1005700012E0C8010E944215C80163E20E942915D9
:10058000C80160E10E9416151F910F910895EF9226
:10059000FF920F931F937C0107E514E0C80163E20B
:1005A00070E04AE050E00E94A61BC8016DE670E0D2
:1005B0004AE050E00E94A61BC8016CE270E04AE0ED
:1005C00050E00E94A61BC801B7014AE050E00E941B
:1005D000B91B1F910F91FF90EF90089580E090E07C
:1005E0000E94C70208950E94CA162091720230919B
:1005F00073024091740250917502621B730B840B5D
:10060000950B6151774280409040B8F087E00E949E
:100610003A18019781F481E0809371020E94CA1612
:1006200060937202709373028093740290937502C8
:100630000E94EE020895109271020895EF92FF92C7
:100640000F931F937C0107E514E0C80163E270E09B
:100650004AE050E00E94A61BC80163E770E04AE050
:1006600050E00E94A61BC8016CE270E04AE050E036
:100670000E94A61BC801B7014AE050E00E94B91BC6
:100680001F910F91FF90EF90089580E090E00E94FD
:100690001E0308950E94CA162091760230917702B7
:1006A0004091780250917902621B730B840B950B79
:1006B0006151774280409040B8F086E00E943A183D
:1006C000892B81F481E0809370020E94CA166093A6
:1006D00076027093770280937802909379020E9459
:1006E0004503089510927002089587E594E060E054
:1006F00071E00E94D81B08950F931F9307E514E043
:10070000C80164E071E00E94D81BC8016DE171E08E
:100710000E94D81B6091680270916902882777FD5A
:100720008095982F0E94E11D20E030E048EC52E4D3
:100730000E94461DAB01BC01C80122E030E00E94CE
:10074000BF1CC8016CE271E00E94D81B60916A0274
:1007500070916B02882777FD8095982F0E94E11D8C
:1007600020E030E048EC52E40E94461DAB01BC01A1
:10077000C80122E030E00E94BF1CC8016AE371E0BA
:100780000E94D81B60916C0270916D02C8014AE012
:1007900050E00E94A61BC80166E471E00E94D81BCD
:1007A00060916E0270916F02C8014AE050E00E94B1
:1007B000A61BC80169E571E00E94D81B1F910F912B
:1007C000089587E594E062E671E00E94C21C0895F6
:1007D00087E594E06BE771E00E94C21C0895CF9317
:1007E000DF9387E060E00E94A7170E94E803C0E063
:1007F000D0E00E94750368EE73E080E090E00E9414
:100800001D172196CA30D105A1F70E94E10362E3CA
:1008100070E080E090E00E941D17DF91CF91089575
:1008200085E492E00E94860D88E592E00E945F15C3
:100830000E94B5020E94EF030E94AC02109269026E
:100840001092680210926B0210926A0210926D026E
:1008500010926C0210926F0210926E02109270024F
:1008600010927102089587E594E062EA71E00E94B7
:10087000C21C08959091BB02E92FF0E0E656FD4FAF
:100880008081903218F49F5F9093BB029091BB02DD
:10089000E92FF0E0E656FD4F6081903218F49F5F3B
:1008A0009093BB020E94D51C0895DF92EF92FF92B5
:1008B0000F931F938C0187E594E063E270E04AE0B8
:1008C00050E00E94A61B87E594E0B8014AE050E0A2
:1008D0000E94A61B26C08091BB02E82FF0E0E656DE
:1008E000FD4FD080803218F48F5F8093BB028D2D36
:1008F0000E943A047B018C0187E594E06CE270E091
:100900004AE050E00E94A61B87E594E06D2D0E940E
:10091000AF1A87E594E0B801A70122E030E00E9419
:10092000BF1C8091BB02E82FF0E0E656FD4FE0814E
:10093000803218F48F5F8093BB02EC3261F21F911A
:100940000F91FF90EF90DF900895FF920F931F9308
:10095000082FF62E82E192E00E947F0E902F990FD1
:10096000990B192F105721E0191708F020E0892F53
:10097000805731E0891708F030E0280F41E0281750
:1009800008F040E0342B892F805741E0891708F0A8
:1009900040E0380F51E0381708F050E0452B892F20
:1009A000805761E0891708F060E0480F51E0481770
:1009B00008F050E0562B590F61E0591708F060E03D
:1009C000690F71E0691708F070E0790F82E192E039
:1009D0000E94E60FF0927A0281E08093BA0282E1EF
:1009E00092E06AE772E041E00E94321282E192E016
:1009F0000E947C111F910F91FF90089568E70E945B
:100A0000A5040895982FE2E2F2E08081891771F041
:100A1000319682E0E633F807C1F70CC0E82FF0E02A
:100A2000EE5DFD4F90838F5F80933602892F0E9489
:100A3000FE04089580913602843180F3F7CF20912F
:100A4000BB02E22FF0E0E656FD4F8081203218F421
:100A50002F5F2093BB022091BB02E22FF0E0E6560D
:100A6000FD4FE081203218F42F5F2093BB02ED365A
:100A7000C1F0EE361CF4E436C9F407C0E33759F090
:100A8000E837A1F40E9402050895992787FD909503
:100A90000E9455040895992787FD90950E941E0392
:100AA0000895992787FD90950E94C7020895109296
:100AB000BB021092BA0282E192E06AE972E040E27F
:100AC0000E9431110E941F05089582E192E00E9468
:100AD000AC0F882341F087E594E066EC71E00E945A
:100AE000D81B0E9457050895EF92FF920F931F9312
:100AF00010923602E2E2F2E0119282E0E633F80769
:100B0000D9F782E192E00E947F0E82E192E00FEF3E
:100B100010E920E930E940E950E060E070E00E942F
:100B2000E60F88E580937A0281E08093BA0200E0C4
:100B300010E082E192E06AE772E04091BA020E941E
:100B4000321264EF71E080E090E00E941D170F5FA9
:100B50001F4F0330110569F782E192E061E0EE2456
:100B600020E9F22E00E910E920E930E040E050E011
:100B70000E94B21082E192E00E947C111F910F91BD
:100B8000FF90EF900895CF92DF92EF92FF920F9334
:100B90001F9342E1C42E42E0D42EC6010E94B6113A
:100BA000C6016FE045E00E943E0FC60163E070E0C1
:100BB0000E948C10C60161E0EE2430E9F32E00E9BA
:100BC00010E92FEF3FEF4FEF5FEF0E94B210C60129
:100BD0000E947C111F910F91FF90EF90DF90CF90BA
:100BE0000895EF92FF920F931F937B018C01CA012E
:100BF0000197049728F061E070E080E090E015C074
:100C0000BA01882777FD8095982F0E94E11D9B01EE
:100C1000AC0160E070E080E291E40E94F81E9B016C
:100C2000AC01CA01B9010E94AE1D0E94E11D9B01E9
:100C3000AC01C801B7010E94951E0E94AE1DCB01F8
:100C40001F910F91FF90EF90089588E592E00E9428
:100C50002B1642E050E00E94F10590936B028093C6
:100C60006A0208950F931F9305E412E0C8010E94E1
:100C7000850CC80160E00E945F0D42E050E00E94D8
:100C8000F10590936902809368021F910F91089576
:100C90000E94CA162091BC023091BD024091BE0252
:100CA0005091BF02621B730B840B950B61567A4EF9
:100CB00080409040D0F00E9432060E9425060E949B
:100CC000A30288EC90E00E94520290936F028093FE
:100CD0006E020E94CA166093BC027093BD0280939C
:100CE000BE029093BF020E947C030E944A030E94AE
:100CF000F30208950E9465050E944806089587E55D
:100D000094E040E051EE60E070E026E00E94BD1803
:100D10000E9433040E94C3050E9410040E947405BF
:100D200008951F920F920FB60F9211242F933F93A5
:100D30004F935F936F937F938F939F93AF93BF93E3
:100D4000EF93FF938091C0020E943A18482F809140
:100D5000C3029091C40201969093C4028093C3028F
:100D600080918D03843618F085E08093C1028091D4
:100D7000C1028330D1F0843020F4823009F059C0B0
:100D800006C0843071F1853009F053C04CC0442353
:100D900009F04FC08091C3029091C402843691053E
:100DA00008F443C010928D031EC0413009F041C0C9
:100DB00080918D03E82FF0E02091C3023091C402AE
:100DC000EE0FFF1FE054FD4F368325838F5F809326
:100DD0008D031092C4021092C30284E08093C1027A
:100DE00028C04423B9F480918D03E82FF0E02091CE
:100DF000C3023091C402EE0FFF1FE054FD4F368353
:100E000025838F5F80938D031092C4021092C302DA
:100E100083E0E4CF8091C3029091C40285369105AE
:100E200040F085E0DBCF442321F41092C4021092FD
:100E3000C3028091C202882329F0442311F42D9A21
:100E400001C02D98FF91EF91BF91AF919F918F912C
:100E50007F916F915F914F913F912F910F900FBEB6
:100E60000F901F901895882319F48CB5806202C0EA
:100E70008CB58F7D8CBD08959CB5937F982B9CBDC0
:100E800008952CB5382F33702C7F322B3CBD2DB5F7
:100E900090E0959587959595879581702E7F822B0B
:100EA0008DBD08958AE061E00E94E6178AE061E066
:100EB0000E94A7178CB580618CBD8CB580648CBDF9
:100EC0008DE061E00E94A7178BE061E00E94A71708
:100ED000089581E08093D3036093B0031092D1030F
:100EE0001092D203089581E08093D3036093B003FE
:100EF0001092D1031092D20308952091AF0330E0F5
:100F00008091AE03281B3109C90108954091AE03B9
:100F10008091AF03481718F02FEF3FEF0AC0E42F7E
:100F2000F0E0E257FC4F8081282F30E04F5F409384
:100F3000AE03C9010895E091AE038091AF03E817B5
:100F400018F0EFEFFFEF06C0F0E0E257FC4F8081B2
:100F5000E82FF0E0CF01089508951092D703109282
:100F6000D60388EE93E0A0E0B0E08093D80390939E
:100F7000D903A093DA03B093DB0385EF91E090935C
:100F8000D5038093D4030895CF92DF92EF92FF921E
:100F90000F931F93CF93DF937C016B018A018091A4
:100FA000D3038823A1F0C0E0D0E00DC0D701ED91BC
:100FB000FC91D601AC0FBD1F0190F081E02DC7015F
:100FC0006C9109952196C017D10780F304C0CB011D
:100FD000642F0E94F608C801DF91CF911F910F91F5
:100FE000FF90EF90DF90CF900895DF93CF930F9213
:100FF000CDB7DEB7FC0169838091D3038823C9F0A4
:101000008091D203803238F081E090E09383828334
:1010100020E030E015C08091D103E82FF0E0EF54DC
:10102000FC4F998190838F5F8093D1038093D2038B
:1010300005C0CE01019661E00E94F60821E030E093
:10104000C9010F90CF91DF9108950F93062F8091E2
:10105000B00361EB73E04091D20321E00E94A1084C
:101060001092D1031092D2031092D3030F910895DE
:1010700061E00E9425080895413208F040E2862F81
:101080006EE873E00E9458081092AE038093AF039D
:10109000089521E00E943C0808951092AE0310923A
:1010A000AF031092D1031092D2030E94A20A0895B6
:1010B000382F413210F040E042C08091E003882395
:1010C000E1F791E09093E0032093E2038FEF8093A8
:1010D0004D04109208044150409309044F5F9093CF
:1010E000E1038091E103330F832B8093E10380912F
:1010F000E303813041F41092E3038091E103809394
:10110000BB0085EC01C085EE8093BC008091E003BC
:101110008130E1F380910804841710F440910804B1
:1011200020E030E00AC0FB01E20FF31FD901A85113
:10113000BC4F8C9180832F5F3F4F2417A0F3842FE7
:1011400008950F931F93582F122F413210F081E012
:101150004AC08091E0038823E1F782E08093E003B6
:101160000093E2038FEF80934D04109208044093A4
:101170000904A8EEB3E0FB0102C081918D938E2F8C
:10118000861B8417D0F31092E1038091E103550F81
:10119000852B8093E1038091E303813041F4109229
:1011A000E3038091E1038093BB0085EC01C085EEF1
:1011B0008093BC00112321F08091E0038230E1F3A1
:1011C00080914D048F3F11F480E00DC080914D045B
:1011D000803211F482E007C080914D04803311F019
:1011E00084E001C083E01F910F910895482F613280
:1011F00010F081E008958091E003843011F082E0E6
:10120000089560932B04AAE0B4E0842F9C01F901B7
:1012100002C081918D938E2F841B8617D0F380E0BE
:1012200008951F920F920FB60F9211242F933F93A0
:101230004F935F936F937F938F939F93AF93BF93DE
:10124000EF93FF938091B90090E0887F9070803693
:10125000910509F4F2C081369105CCF588329105EB
:1012600009F47BC089329105B4F48031910509F409
:101270006FC0813191053CF4009709F447C108978C
:1012800009F04FC165C08831910509F466C08097A7
:1012900009F047C182C08034910509F4A4C08134AB
:1012A000910544F48033910509F482C0C89709F090
:1012B00038C189C08035910509F489C08835910508
:1012C00009F496C08834910509F02BC1AEC0883965
:1012D000910509F413C189399105ECF4883791051A
:1012E00009F4ABC0893791054CF48836910509F4AF
:1012F000A4C08037910509F014C19FC088389105BA
:1013000009F4FCC08039910509F49DC0803891052D
:1013100009F007C198C0803B910509F4C6C0813B24
:1013200091054CF4803A910509F49FC0883A9105E3
:1013300009F0F7C0BAC0803C910509F4E3C0883CCD
:10134000910509F4DFC0883B910509F0EAC0C2C0ED
:101350008091E1038093BB00CFC0909108048091FD
:101360000904981768F490910804E92FF0E0E85117
:10137000FC4F80818093BB009F5F90930804BCC0AA
:101380008091E203882309F44BC085ED8093BC0073
:101390008091BC0084FDFCCFC2C080E280934D04EC
:1013A00085ED8093BC008091BC0084FDFCCFB7C06C
:1013B00080E380934D0485ED8093BC008091BC0058
:1013C00084FDFCCFACC088E380934D049BC080912A
:1013D00008049091BB00E82FF0E0E851FC4F9083A7
:1013E0008F5F80930804909108048091090482C063
:1013F000809108049091BB00E82FF0E0E851FC4F89
:1014000090838F5F809308048091E203882341F0EA
:1014100085ED8093BC008091BC0084FDFCCF7FC033
:1014200081E08093E30384EA6EC085ED8093BC0085
:101430008091BC0084FDFCCF72C083E08093E00308
:1014400010924C0459C080914C04803208F056C070
:1014500080914C049091BB00E82FF0E0E45DFB4FDD
:1014600090838F5F80934C0447C080914C048032FE
:1014700030F4E0914C04F0E0E45DFB4F108285ED28
:101480008093BC008091BC0084FDFCCF1092E003EF
:1014900060914C04E091E603F091E7038CE294E064
:1014A00070E0099510924C042DC084E08093E00315
:1014B00010922A0410922B04E091E403F091E503CA
:1014C000099580912B04882329F481E080932B04D3
:1014D00010920A0490912A04E92FF0E0E65FFB4F96
:1014E00080818093BB009F5F90932A0490912A048F
:1014F00080912B04981710F485EC01C085E8809347
:10150000BC000FC085EC8093BC0009C010924D0454
:1015100085ED8093BC008091BC0084FDFCCF1092CF
:10152000E003FF91EF91BF91AF919F918F917F91D8
:101530006F915F914F913F912F910F900FBE0F9040
:101540001F9018951092E00381E08093E2031092BF
:10155000E30382E161E00E94E61783E161E00E941B
:10156000E617E9EBF0E080818E7F808380818D7FBC
:10157000808388E48093B80085E48093BC0008955C
:10158000FC0186E89BE0928B818B768365831482D5
:10159000108289E0818381E08283838308956F9242
:1015A0007F928F929F92AF92BF92CF92DF92EF92F3
:1015B000FF920F931F93CF93DF93FB01EA01998171
:1015C00080E0288130E0282B392BE081E23231F0B5
:1015D000E83221F0E03109F084C04BC04C814F3338
:1015E00029F1403420F44F3109F07BC02FC04F3532
:1015F00079F04F3709F075C0B901882777FD8095DC
:10160000982F0E94E11D20E030E040E85DE32EC00D
:1016100035952795B901882777FD8095982F0E94E9
:10162000E11D20E030E040E05EE320C035952795E5
:1016300035952795B901882777FD8095982F0E94C9
:10164000E11D20E030E040E85EE310C093E0359516
:1016500027959A95E1F7B901882777FD8095982F0E
:101660000E94E11D20E030E040E05FE30E94951E13
:1016700032C0EF8035952795B901882777FD809591
:10168000982F0E94E11D20E030E040E85EE30E94D8
:10169000DD1C3B014C016E2D70E02E81621B710937
:1016A000882777FD8095982F0E94E11D5B016C01D2
:1016B000FF2400E010E0C801B7010E94DF1D9B017C
:1016C000AC01C601B5010E94461D9B01AC01C401DD
:1016D000B3010E94DE1C9B01AC01832F942F752F58
:1016E00000C0262F382F492F572FB901CA01DF918B
:1016F000CF911F910F91FF90EF90DF90CF90BF900F
:10170000AF909F908F907F906F9008950895EF9283
:10171000FF920F931F938C017B01FC0185819681C1
:101720000E949413F80185819681B7010E9473137A
:10173000F8018581968164EB40E00E942E13F80148
:10174000858196810E94A912F82EF80185819681E3
:101750000E94941380E0FF2009F481E01F910F9113
:10176000FF90EF900895CF92DF92EF92FF920F9348
:101770001F938C016B017A01FC01858196810E9487
:101780009413F80185819681B6010E947313F801C4
:10179000858196816EEB40E00E942E13F8018581D1
:1017A00096810E94DD12F7018083F8018581968180
:1017B0000E94DD12F7018183F801858196810E94E4
:1017C000DD12F7018283F801858196810E94DD1286
:1017D000F7018383F801858196810E94DD12F7016C
:1017E0008483F801858196810E94DD12F70185834B
:1017F000F801858196810E94DD12F7018683F80148
:10180000858196810E94DD12F7018783F801858129
:1018100096810E94DD12F7018087F801858196810B
:101820000E9494131F910F91FF90EF90DF90CF9043
:101830000895DF93CF93CDB7DEB729970FB6F8940D
:10184000DEBF0FBECDBFAE014F5F5F4F0E94B30B37
:101850008981811181E029960FB6F894DEBF0FBE11
:10186000CDBFCF91DF910895CF92DF92EF92FF929B
:101870000F931F93CF93DF93EC016B01452BE1F0A6
:101880008B818823C9F088818823B1F40E94CA160D
:101890007B018C01CE0160E070E00E94190C88236E
:1018A00059F40E94CA166E197F09800B910B6E5E67
:1018B00072408040904070F3F6016081693039F0E9
:1018C0006930A0F06A3041F06B3081F40AC06EE5F7
:1018D00070E080E090E00EC06CEB70E080E090E0A3
:1018E00009C067E771E080E090E004C06EEE72E04E
:1018F00080E090E00E941D17DF91CF911F910F9122
:10190000FF90EF90DF90CF900895CF93DF93EC019D
:101910008D819E810E9494138D819E810E946E1301
:101920008D819E8164E448810E942E138A818823E0
:1019300039F0CE012196BE0140E050E00E94340C07
:10194000DF91CF9108950F931F938A010E94B30BEB
:10195000C80168E00E94981220E0F801908589177C
:1019600009F421E0822F1F910F910895CF92DF9209
:10197000EF92FF920F931F93DF93CF93CDB7DEB714
:1019800029970FB6F894DEBF0FBECDBF8C017B0147
:101990006E010894C11CD11CA6010E94A30C8823CF
:1019A00029F460E070E08EEF92EC05C0C801B70149
:1019B000A6010E94CF0A29960FB6F894DEBF0FBE8B
:1019C000CDBFCF91DF911F910F91FF90EF90DF90EE
:1019D000CF900895DF93CF93CDB7DEB729970FB699
:1019E000F894DEBF0FBECDBF9C01FB01808180312A
:1019F000D9F0C901AE014F5F5F4F0E94A30C88234D
:101A0000A9F08D818F3371F0803418F48F3171F427
:101A10000BC08F3519F08F3749F402C08BE007C037
:101A20008CE005C08AE003C089E001C080E029960F
:101A30000FB6F894DEBF0FBECDBFCF91DF910895F2
:101A40000F931F938B01CB0167E00E94981220E057
:101A5000F8019781891709F421E0822F1F910F91D6
:101A60000895EF92FF920F931F93CF93DF93EC01B2
:101A70007B01042F8D819E810E948B1210E007C094
:101A8000CE01B7010E94200D8823A9F00AC08D81E4
:101A90009E81B7010E94DF13882329F0101759F4A3
:101AA000EFCF81E001C080E0DF91CF911F910F91D6
:101AB000FF90EF9008951F5F0117A8F3E8CFEF9212
:101AC000FF920F931F93DF93CF93CDB7DEB7289785
:101AD0000FB6F894DEBF0FBECDBF7C01462F8E013E
:101AE0000F5F1F4FB8010E94310DC701B8010E945E
:101AF000B60C28960FB6F894DEBF0FBECDBFCF91BF
:101B0000DF911F910F91FF90EF900895AF92BF92D8
:101B1000CF92DF92EF92FF920F931F93DF93CF93B9
:101B2000CDB7DEB761970FB6F894DEBF0FBECDBF5D
:101B30007C01FC01858196810E948B12F701148241
:101B40006E010894C11CD11C79E0A72EB12CAC0EFB
:101B5000BD1E01E02BC0C701B6010E94200D8823E5
:101B600029F1F7018081882341F4C701B6010E9461
:101B7000870B882311F0F7010083C701B601A50187
:101B80000E94B30BF7011181C701B6010E94EA0C54
:101B9000811718F4F701818104C0C701B6010E94C2
:101BA000EA0CF701818384818F5F8483F70185814B
:101BB0009681B6010E94DF13882369F661960FB6FD
:101BC000F894DEBF0FBECDBFCF91DF911F910F9173
:101BD000FF90EF90DF90CF90BF90AF900895FC0101
:101BE0006083418381E08283138280E28483158253
:101BF000168210861186128613861486158616861E
:101C000017860895FF920F931F938C01F62E81E0A3
:101C10000E94330780E00E943C0780E00E94410759
:101C2000F80181816F2D0E94E6171F910F91FF909F
:101C300008951F93CF93DF93EC0160E070E00E9462
:101C4000020E80E68EBD0DB407FEFDCF8EB58FEF80
:101C50008EBD0DB407FEFDCF1EB5CE0161E070E074
:101C60000E94020E812FDF91CF911F9108951F9343
:101C7000CF93DF93EC0160E070E00E94020E8FEFE3
:101C80008EBD0DB407FEFDCF1EB5CE0161E070E044
:101C90000E94020E812FDF91CF911F9108951F9313
:101CA000CF93DF93EC0160E070E00E94020E81EEC2
:101CB0008EBD0DB407FEFDCF1EB5CE0161E070E014
:101CC0000E94020E812FDF91CF911F9108951F93E3
:101CD000CF93DF93EC0160E070E00E94020E82EE91
:101CE0008EBD0DB407FEFDCF1EB5CE0161E070E0E4
:101CF0000E94020E812FDF91CF911F9108950F93C3
:101D00001F938C01FC01808160E00E94E617C801EE
:101D10000E944F0EC8010E94670E1F910F910895F7
:101D2000EF92FF920F931F93CF93DF93EC01F62E68
:101D3000E72E9C81142F941708F4192F8E81882385
:101D400011F000E002C0092F011BCE0160E070E03D
:101D50000E94020E81E68EBD0DB407FEFDCF8F2DD1
:101D60009E2D9C01F901FEB49FEF07C09EBD0DB4EE
:101D700007FEFDCF8EB5819311501123B9F707C02F
:101D80008EBD0DB407FEFDCF9EB5015001C08FEF93
:101D90000023B1F7CE0161E070E00E94020E8F2DAA
:101DA000DF91CF911F910F91FF90EF900895EF92E7
:101DB000FF920F931F93CF93DF93EC01F62EE72E44
:101DC0009C81142F941708F4192F8E81882311F009
:101DD00000E002C0092F011BCE0160E070E00E940C
:101DE000020E80EA8EBD0DB407FEFDCF8F2D9E2D15
:101DF0009C01F901FEB408C080818EBD0DB407FEC0
:101E0000FDCF31968EB511501123B1F706C01EBC1F
:101E10000DB407FEFDCF8EB501500023C1F7CE01F2
:101E200061E070E00E94020E8F2DDF91CF911F9133
:101E30000F91FF90EF9008950F931F93CF93DF932F
:101E4000EC01162F042F60E070E00E94020E1F715B
:101E500010621EBD0DB407FEFDCF1EB50EBD0DB444
:101E600007FEFDCF8EB5CE0161E070E00E94020E4C
:101E7000812FDF91CF911F910F910895262F4F70E1
:101E80002295207F242B64E0422F0E941C0F08958E
:101E9000CF92DF92EF92FF920F931F938B017A0103
:101EA000690167E040E70E941C0F90E09C01E5E0BB
:101EB00036952795EA95E1F72170F801208374E0C3
:101EC000969587957A95E1F7282F2170F701208361
:101ED00096958795969587958170F60180831F91D9
:101EE0000F91FF90EF90DF90CF900895DF92EF92E7
:101EF000FF920F931F93CF93DF938C017B010E947E
:101F0000370EC82FD0E0CE01A6E096958795AA950A
:101F1000E1F7DD24D394D82280FF15C0E114F10449
:101F200031F0CE01959587958770F7018083C801C0
:101F300067E040E40E941C0FC5FF05C0C80167E0D0
:101F400040E20E941C0F8D2DDF91CF911F910F91C8
:101F5000FF90EF90DF90089560E070E00E94760FB0
:101F60000895462F603808F04FE765E00E941C0F87
:101F70000895EF92FF920F931F93CF93DF937C010D
:101F8000162FEA01022F60E070E00E94020E1F711E
:101F900010621EBD0DB407FEFDCF1EB508C08881BE
:101FA0008EBD0DB407FEFDCF21968EB501500023E6
:101FB000B1F7C70161E070E00E94020E812FDF914E
:101FC000CF911F910F91FF90EF900895EF92FF92A4
:101FD0000F931F93DF93CF93CDB7DEB728970FB63C
:101FE000F894DEBF0FBECDBF7C0109831A832B831B
:101FF0003C834D835E836F8378878E010F5F1F4F15
:102000006AE0A80125E00E94B90FC70160E1A801BC
:1020100025E00E94B90FF7014481413208F040E207
:10202000C70161E10E941C0F28960FB6F894DEBF2D
:102030000FBECDBFCF91DF911F910F91FF90EF9019
:1020400008951F93CF93DF93EC01162F60E070E0AB
:102050000E94020E1F711EBD0DB407FEFDCF8EB58E
:102060008FEF8EBD0DB407FEFDCF1EB5CE0161E032
:1020700070E00E94020E812FDF91CF911F91089591
:102080000F931F93CF93DF938C01EB0160E00E94CD
:102090002110482F437F209729F0219711F44860A1
:1020A00001C04C60C80160E00E941C0FDF91CF911D
:1020B0001F910F910895FF920F931F93CF93DF937A
:1020C000EC018B0166E00E9421101A82B7EDFB2E15
:1020D000F8220230110511F480E206C0013011052A
:1020E00029F481E08A8388E0F82A01C01A82CE01AF
:1020F00066E04F2D0E941C0FCE0166E00E94211069
:102100008F1511F481E002C01A8280E0DF91CF9137
:102110001F910F91FF9008950F931F93CF93DF931B
:102120008C01EB0166E00E942110482F497FC330EB
:10213000D10571F0C230D10511F444600AC0C1303C
:10214000D10511F4426005C0209719F0249709F4D5
:102150004660C80166E00E941C0FDF91CF911F917D
:102160000F910895BF92CF92DF92EF92FF920F935B
:102170001F93DF93CF93CDB7DEB728970FB6F894B0
:10218000DEBF0FBECDBF6C01B62EE982FA820B8393
:102190001C832D833E834F835887662389F4F60181
:1021A000E0868A8181878B8182878C8183878D817C
:1021B00084878E8185878F8186878885878707C0FA
:1021C000F6E0F61708F43DC081E0681761F4EB2DE6
:1021D000F0E0E651FF4FE491C6016E2FAE014F5F74
:1021E0005F4F25E00BC0E62FF0E0E651FF4FE49192
:1021F000C6016E2FAE014F5F5F4F21E00E94B90F05
:102200000B2D10E0F801E051FF4FE491C6016E2F55
:10221000F60144810E941C0FC60162E00E94211059
:102220000A501F4FF801649121E030E002C0220FF4
:10223000331F6A95E2F7482F422BC60162E00E94E5
:102240001C0F28960FB6F894DEBF0FBECDBFCF91FE
:10225000DF911F910F91FF90EF90DF90CF90BF9093
:1022600008950F931F938C010E94900EC80167E19F
:102270000E94211081701F910F910895DF92EF92BB
:10228000FF920F931F938C017B01D42E60E00E947C
:102290002110482F4C7F4260C80160E00E941C0F53
:1022A00086E990E00E94D816C801B7014D2D0E9422
:1022B000D70EF801808161E00E94E6178FE090E080
:1022C0000E94D816F801808160E00E94E6171F91F5
:1022D0000F91FF90EF90DF9008950F931F938C0163
:1022E00060E00E942110482F4D7FC80160E00E94ED
:1022F0001C0F1F910F910895CF93DF93EC0160E0C5
:102300000E942110482F4360CE0160E00E941C0F04
:10231000CE0167E040E70E941C0F88859985892BD4
:102320009A85892B9B85892B9C85892B9D85892B5B
:102330009E85892B9F85892B41F0AE01485F5F4FB9
:10234000CE016AE025E00E94B90FCE010E94670E1F
:10235000CE010E944F0E888161E00E94E61782E85C
:1023600090E00E94D816DF91CF910895CF93DF932C
:10237000EC01888161E00E94A717898161E00E94D9
:10238000A7170E945207888160E00E94E617CE01DD
:1023900061E070E00E94020E65E070E080E090E095
:1023A0000E941D17CE0164E04FE40E941C0FCE0175
:1023B00063E070E00E948C10CE0162E070E00E9449
:1023C0005B10882311F081E08B83CE0160E070E028
:1023D0000E945B10CE0162E070E00E944010CE01CE
:1023E0006CE140E00E941C0FCE0167E040E70E94D4
:1023F0001C0FCE016CE40E94B10FCE010E94670E4B
:10240000CE010E944F0EDF91CF910895EF92FF927F
:102410000F931F93CF93DF937C01162FEA01022FB6
:1024200060E070E00E94020E1F711EBD0DB407FE39
:10243000FDCF1EB59FEF07C09EBD0DB407FEFDCFBB
:102440008EB5899301500023B9F7C70161E070E0B0
:102450000E94020E812FDF91CF911F910F91FF906B
:10246000EF900895AF92BF92CF92DF92EF92FF92DA
:102470000F931F93DF93CF9300D00F92CDB7DEB7AA
:102480008C010E943E110E94CA166B017C015E0104
:102490000894A11CB11CC80168E0A50121E00E94BC
:1024A0000612807331F50E94CA166C197D098E09D7
:1024B0009F09645F714080409040D8F4ECCFC80120
:1024C0000E94190EF8018783C8010E946D11C8018E
:1024D0000E944F0E8F2D0F900F900F90CF91DF9194
:1024E0001F910F91FF90EF90DF90CF90BF90AF9032
:1024F000089598012B5F3F4FC801BE016E5F7F4F6B
:10250000AE014D5F5F4F0E94480FFA80F801858150
:102510008823D1F2D4CFFC0113861586148687E078
:1025200090E012863197009711F00197FACF089545
:10253000DC0180E00BC0E82FF0E08D9190E0E8270F
:10254000F927E355FD4FE49161508E2F662399F7EB
:102550000895DF92EF92FF920F931F93FC01E080AA
:1025600001811281F894F80181818E298183828111
:10257000DE2CD0948D21828383E090E00E94D816D7
:10258000F80181818D2181838AE090E00E94D81634
:10259000F8010081789485E390E00E94D81680E0ED
:1025A00010E0FF240E211F21012B09F081E01F9173
:1025B0000F91FF90EF90DF900895EF92FF920F93AD
:1025C0001F93CF93DF937C0101E010E0C0E0D0E0E7
:1025D000C7010E94A9128111102B000F2196C8304B
:1025E000D105B1F7812FDF91CF911F910F91FF900E
:1025F000EF9008951F93CF93DF93FC011081C18169
:10260000D281912F909560FF12C0F8948A8189231E
:102610008A838981812B89838AE090E00E94D81681
:102620008A81812B8A83789487E390E011C0F894A3
:102630008A8189238A838981812B898381E490E03F
:102640000E94D8168A81812B8A83789485E090E055
:102650000E94D816DF91CF911F910895CF92DF92FB
:10266000EF92FF920F931F93CF93DF938C01E42E91
:10267000FF24F394C0E0D0E0C62EDD2460E08F2D6F
:1026800090E08C219D21892B09F061E0C8010E9416
:10269000FA12FF0C2196C830D10581F7EE20A9F47B
:1026A000F894D8011196ED91FC91129791818C913B
:1026B0008095982391831196ED91FC9112979281C8
:1026C0008C918095982392837894DF91CF911F917C
:1026D0000F91FF90EF90DF90CF9008956CEC40E069
:1026E0000E942E130895EF92FF920F931F93CF93A2
:1026F000DF938C017B0165E540E00E942E13C0E072
:10270000D0E0F701EC0FFD1FC801608140E00E949E
:102710002E132196C830D105A1F7DF91CF911F91DB
:102720000F91FF90EF900895DF92EF92FF920F9339
:102730001F93CF93DF93FC010081C181D281F89474
:102740008981D02ED0948D21898378941DE7E02E45
:10275000FF24115059F182E090E00E94D816888140
:1027600090E08E219F21892BA1F3F8948A818D21FD
:102770008A838981802B8983789480EE91E00E94FE
:10278000D816F89489818D21898386E490E00E948F
:10279000D816888110E090E0E822F922EF2809F4A9
:1027A00011E078948AE991E00E94D816812FDF9198
:1027B000CF911F910F91FF90EF90DF900895AF920E
:1027C000BF92DF92EF92FF920F931F93CF93DF930D
:1027D000EC015B018D85882309F061C0CE010E9468
:1027E0009413882329F41B861D861C8690E06BC0F9
:1027F000CE0160EF40E00E942E1301E0DD24EE24C4
:10280000FF24F394CE010E94A912182FCE010E943A
:10281000A912113019F48130E1F439C0181709F503
:102820008B85081770F460E0FE01EE0DF11D8381C9
:1028300090E02F2D30E082239323181619064CF0D8
:1028400003C060E0081729F0093008F04CC00C877D
:102850004AC0FE01EE0DF11D83818F29838361E063
:1028600009C0612FFE01EE0DF11D9F2D9095838112
:1028700089238383CE010E94FA120F5FFF0C19F4A3
:10288000E394FF24F39487E08E1508F0BBCF013466
:1028900030F0DB86DD2011F581E08D871FC01B86BF
:1028A0001D861C8690E0DE0120E030E0F501E20F9D
:1028B000F31F13968C91139780832F5F3F4F1196D0
:1028C0002830310599F7892FDF91CF911F910F9112
:1028D000FF90EF90DF90BF90AF9008958B81882399
:1028E000F1F291E0E0CFD02EBDCFFF920F931F9376
:1028F0008C01F62E862F60E00E94A7178F2D90E0A6
:10290000FC01E152FC4FE491D801EC9385539C4FBC
:10291000FC016491E62FF0E0EE0FFF1FEF53FC4F38
:102920008591949112969C938E9311971B961C926D
:102930001B971D961C921D971C961C92F80187E010
:1029400090E012863197009711F00197FACF1F910E
:102950000F91FF9008950895FF920F931F93FC012C
:10296000F62E04ED13E0C80160810E946907C801DA
:102970006F2D0E94F507C8010E9438081F910F9122
:10298000FF900895CF92DF92EF92FF920F931F93E3
:10299000CF93DF93EC018981813071F484ED93E072
:1029A0006CE570E00E94730784ED93E06CE570E0E5
:1029B00042E050E00E9449088981882371F484ED47
:1029C00093E063E270E00E94730784ED93E063E2BA
:1029D00070E042E050E00E94490884ED93E00E94DC
:1029E0008607F82EEE2484ED93E00E9486076C01A2
:1029F00084ED93E00E943808EC28FD2800E010E008
:102A0000C801B7010E94DF1D2AE939E949E95FE3FE
:102A10000E94461D0E94B31DCB01DF91CF911F91F3
:102A20000F91FF90EF90DF90CF900895FF920F935A
:102A30001F938C01F62E6AE070E080E090E00E9427
:102A40001D17C8016F2D0E94AC141F910F91FF90AC
:102A50000895CF93DF93EC01633219F06C3579F46C
:102A600007C0688381E160E00E94E617198207C011
:102A7000688381E161E00E94E61781E08983DF914C
:102A8000CF9108950F931F938C0184ED93E00E94E2
:102A90004D08C80161E00E94AC1481E161E00E9430
:102AA000A71781E161E00E94E6171F910F91089539
:102AB000FC0166834783208781E0858708950F9313
:102AC0001F938C01FC01868160E00E94A717F8012A
:102AD000868161E00E94E617F8011186128613864E
:102AE00014861F910F910895CF92DF92EF92FF927B
:102AF0000F931F93CF93DF93EC018E8161E00E94CF
:102B0000E6176AEF70E080E090E00E941D170E94D7
:102B1000CA169B01AC0189859A85AB85BC852817AF
:102B200039074A075B0720F419861A861B861C861C
:102B30008D85882371F489859A85AB85BC85281B92
:102B4000390B4A0B5B0B205D37404040504008F486
:102B500077C01D860E94CA1669877A878B879C87F3
:102B60001C821B821A82198218828E8161E00E9467
:102B7000A7178E8160E00E94E61764E170E080E0B4
:102B800090E00E941D17F8948E8161E00E94E61784
:102B900088E290E00E94D8168E8160E00E94A7171C
:102BA00081E0EE2400E010E00AC0F39481E090E0C0
:102BB0000E94D8168FEFF81629F40AC0822FFF243E
:102BC000C82EDD248E810E943A188C159D0569F36C
:102BD0008E810E943A18282F8FEFF816C9F0043022
:102BE00090F000FD10C08E2D869586958695FE018D
:102BF000E80FF11D9081990F908388858F1510F44F
:102C000091609083E3940F5F1F4F05351105B1F676
:102C1000789487E28E1510F030E013C030E04C81DC
:102C200050E02981888190E0820F911D2A81820FD6
:102C3000911D2B81820F911D90704817590709F43F
:102C400031E0832FDF91CF911F910F91FF90EF9093
:102C5000DF90CF900895EF92FF920F931F93CF9341
:102C6000DF93EC010E9474158823A9F18F818B30CA
:102C700031F08B3080F18551823068F507C0688172
:102C800070E080E090E00E94DF1D22C0688170E06B
:102C900080E090E00E94DF1D20E030E040E853E457
:102CA0000E94951E7B018C01698170E0882777FD69
:102CB0008095982F0E94E11D9B01AC01C801B701CE
:102CC0000E94DE1C20E030E040E251E40E94461DFC
:102CD000E62F692F0AC087E594E068ED71E00E9455
:102CE000D81BE0E070E080EC6FE72E2F372F482FE5
:102CF000562FB901CA01DF91CF911F910F91FF901B
:102D0000EF9008951F920F920FB60F9211242F93F8
:102D10003F938F939F93AF93BF9380915204909171
:102D20005304A0915404B091550430915604019677
:102D3000A11DB11D232F2D5F2D3720F02D5701969A
:102D4000A11DB11D20935604809352049093530407
:102D5000A0935404B093550480914E0490914F0475
:102D6000A0915004B09151040196A11DB11D809312
:102D70004E0490934F04A0935004B0935104BF911C
:102D8000AF919F918F913F912F910F900FBE0F9018
:102D90001F9018958FB7F8942091520430915304E6
:102DA00040915404509155048FBFB901CA01089550
:102DB000019739F0880F991F880F991F0297019783
:102DC000F1F70895789484B5826084BD84B58160FC
:102DD00084BD85B5826085BD85B5816085BDEEE623
:102DE000F0E0808181608083E1E8F0E01082808102
:102DF00082608083808181608083E0E8F0E0808170
:102E000081608083E1EBF0E0808184608083E0EB8F
:102E1000F0E0808181608083EAE7F0E08081846077
:102E200080838081826080838081816080838081D3
:102E3000806880831092C1000895EF92FF920F93F3
:102E40001F93CF93DF937B018C013FB7F894809160
:102E50004E0490914F04A0915004B091510426B5B6
:102E6000A89B05C02F3F19F00196A11DB11D3FBFC2
:102E7000BA2FA92F982F8827820F911DA11DB11D50
:102E800052E0880F991FAA1FBB1F5A95D1F7EC017A
:102E900030C00E94DC1C3FB7F89480914E049091A2
:102EA0004F04A0915004B091510426B5A89B05C0D1
:102EB0002F3F19F00196A11DB11D3FBFBA2FA92FB9
:102EC000982F8827820F911DA11DB11D32E0880F18
:102ED000991FAA1FBB1F3A95D1F78C1B9D0B885ECB
:102EE0009340B8F20894E108F10801091109C851AA
:102EF000DC4FE114F1040105110559F6DF91CF9182
:102F00001F910F91FF90EF900895982F8E3008F049
:102F10009E5097708091F0018295880F880F807C79
:102F2000892B80937C0080917A00806480937A0062
:102F300080917A0086FDFCCF209178004091790045
:102F4000942F80E030E0282B392BC9010895CF93CE
:102F5000DF93482F50E0CA0181529C4FFC0134910D
:102F600045535C4FFA018491882369F190E0880F02
:102F7000991FFC01E355FC4FA591B491FC01E95464
:102F8000FC4FC591D491662351F42FB7F8948C91DE
:102F9000932F909589238C93888189230BC062306D
:102FA00061F42FB7F8948C91932F909589238C938B
:102FB0008881832B88832FBF06C09FB7F8948C919C
:102FC000832B8C939FBFDF91CF910895482F50E0C2
:102FD000CA018D509C4FFC012491CA0181529C4F23
:102FE000FC01949145535C4FFA013491332309F469
:102FF00040C0222351F1233071F0243028F42130D5
:10300000A1F0223011F514C02630B1F02730C1F004
:103010002430D9F404C0809180008F7703C0809160
:1030200080008F7D8093800010C084B58F7702C0B0
:1030300084B58F7D84BD09C08091B0008F7703C0B7
:103040008091B0008F7D8093B000E32FF0E0EE0F11
:10305000FF1FE954FC4FA591B4912FB7F894662354
:1030600021F48C919095892302C08C91892B8C93AB
:103070002FBF0895682F70E0CB018D509C4FFC014D
:103080002491CB0181529C4FFC01449165537C4FAC
:10309000FB019491992319F420E030E03CC02223F5
:1030A00051F1233071F0243028F42130A1F0223086
:1030B00011F514C02630B1F02730C1F02430D9F416
:1030C00004C0809180008F7703C0809180008F7D45
:1030D0008093800010C084B58F7702C084B58F7D47
:1030E00084BD09C08091B0008F7703C08091B0008B
:1030F0008F7D8093B000892F90E0880F991F8F53A8
:103100009C4FFC01A591B4918C9120E030E0842388
:1031100011F021E030E0C9010895DC015C968C914A
:103120005C97FD01E80FF11DE35AFF4F20815C968B
:103130008C915C9790E001968F7390705C968C9365
:103140005C975696ED91FC91579720835096ED91A0
:10315000FC9151978081806480835B969C915B9702
:103160005C968C915C97981739F45296ED91FC918E
:10317000539780818F7D80830895DF92EF92FF9235
:103180000F931F93CF93DF93EC017A018B01D22E23
:10319000E889F98982E08083403081EE580780E039
:1031A000680780E07807A1F060E079E08DE390E0C7
:1031B000A80197010E948220215030404040504099
:1031C000569547953795279580E12030380798F038
:1031D000E889F989108260E874E88EE190E0A8013E
:1031E00097010E9482202150304040405040569527
:1031F000479537952795EC85FD853083EE85FF85CE
:103200002083188EEC89FD89D082EA89FB89808130
:1032100080618083EA89FB89808188608083EA8974
:10322000FB89808180688083EA89FB8980818F7D2A
:103230008083DF91CF911F910F91FF90EF90DF90EE
:103240000895FC01218D828D30E0205C3F4F281BCA
:1032500031092F733070C9010895FC01918D828D61
:10326000981719F42FEF3FEF06C0828DE80FF11D7C
:10327000858D282F30E0C9010895DC0159969C9175
:1032800059975A968C915A97981719F42FEF3FEF48
:1032900010C05A968C915A97FD01E80FF11D958D3B
:1032A0005A968C915A978F5F8F735A968C93292FC9
:1032B00030E0C9010895CF93DF93EC01888D882316
:1032C00061F419C08C9185FF0AC0E889F989808171
:1032D00085FF05C0CE010E948D18AA89BB898C91FB
:1032E00085FD05C0E889F989808186FD04C00FB697
:1032F00007FEE8CFF4CFDF91CF9108950F931F938E
:10330000CF93DF93EC01062F9B8D8C8D981791F551
:10331000E889F989808185FF2DC0EE89FF89608366
:10332000E889F9898081806480831DC00FB607FC1D
:1033300008C0E889F989808185FF03C0CE010E9419
:103340008D188C8D181791F38B8DFE01E80FF11DF0
:10335000E35AFF4F00831B8FEA89FB8980818062DB
:10336000808381E0888F81E090E0DF91CF911F9191
:103370000F9108951B8D1F5F1F73E3CF86E49AE1C1
:10338000892B51F080E090E0892B31F00E94461AA1
:10339000882311F00E94000008951F920F920FB62B
:1033A0000F9211242F938F939F93EF93FF93E091AC
:1033B0006704F0916804808182FD16C0E0916D047D
:1033C000F0916E042081909170049F5F9F738091B3
:1033D0007104981771F0E0917004F0E0E95AFB4F26
:1033E000258F9093700405C0E0916D04F0916E04F8
:1033F000E081FF91EF919F918F912F910F900FBEE0
:103400000F901F90189510925A041092590488EE4C
:1034100093E0A0E0B0E080935B0490935C04A09301
:103420005D04B0935E0485E092E09093580480932D
:10343000570485EC90E0909364048093630484ECDB
:1034400090E0909366048093650480EC90E0909304
:1034500068048093670481EC90E090936A04809301
:10346000690482EC90E090936C0480936B0486EC8A
:1034700090E090936E0480936D041092700410920B
:1034800071041092720410927304089587E594E019
:103490000E94211920E0892B09F021E0822F089554
:1034A0001F920F920FB60F9211242F933F934F93B9
:1034B0005F936F937F938F939F93AF93BF93EF939C
:1034C000FF9387E594E00E948D18FF91EF91BF91E3
:1034D000AF919F918F917F916F915F914F913F91AC
:1034E0002F910F900FBE0F901F901895CF93DF93E1
:1034F0000E94E2160E947F06CEEBD9E10E947A0676
:103500002097E1F30E94BE19F9CFCF92DF92EF929C
:10351000FF920F931F93CF93DF937C016B018A017E
:10352000C0E0D0E00FC0D6016D916D01D701ED91E3
:10353000FC910190F081E02DC7010995C80FD91FBA
:10354000015010400115110571F7CE01DF91CF91A7
:103550001F910F91FF90EF90DF90CF900895DC01C5
:10356000ED91FC910190F081E02D09950895EF9285
:10357000FF920F931F938C01DC01ED91FC91019060
:10358000F081E02D6DE009957C01D801ED91FC9171
:103590000190F081E02DC8016AE009959C012E0D93
:1035A0003F1DC9011F910F91FF90EF900895CF9398
:1035B000DF93EC016115710519F420E030E00FC0D4
:1035C000DB010D900020E9F71197A61BB70BE881EE
:1035D000F9810280F381E02DAD0109959C01C901BB
:1035E000DF91CF9108954F925F927F928F929F9239
:1035F000AF92BF92CF92DF92EF92FF920F931F9301
:10360000DF93CF93CDB7DEB7A1970FB6F894DEBFA7
:103610000FBECDBF2C01742ECB01223008F42AE05E
:1036200019A231E2C32ED12CCC0EDD1E822E99249C
:10363000AA24BB24672D752FA50194010E94822026
:1036400079018A01C801B701A50194010E94632094
:10365000472D461B0894C108D1084A3014F4405D38
:1036600001C0495CF6014083E114F1040105110534
:1036700021F07E2C5F2DC801DDCFC201B6010E9472
:10368000D71AA1960FB6F894DEBF0FBECDBFCF916B
:10369000DF911F910F91FF90EF90DF90CF90BF903F
:1036A000AF909F908F907F905F904F900895DC0136
:1036B0002115310541F4ED91FC910190F081E02D4F
:1036C000642F099508950E94F31A0895CF92DF920E
:1036D000EF92FF920F931F93CF93DF93EC016A0158
:1036E0007B012115310541F4E881F9810190F081D8
:1036F000E02D642F09951FC02A303105D1F477FFE2
:1037000017C0E881F9810190F081E02D6DE2099503
:103710008C0144275527BA014C195D096E097F09B0
:10372000CE012AE00E94F31A9801280F391F04C025
:103730002AE00E94F31A9C01C901DF91CF911F91E9
:103740000F91FF90EF90DF90CF900895EF92FF924E
:103750000F931F937B019A010027F7FC0095102F10
:10376000B801A7010E94661B1F910F91FF90EF9077
:103770000895CF92DF92EF92FF920F931F936C0107
:103780007B019A010027F7FC0095102FB801A701D3
:103790000E94661B8C01C6010E94B71A080F191FF0
:1037A000C8011F910F91FF90EF90DF90CF90089587
:1037B0000E94D71A08957F928F929F92AF92BF92E4
:1037C000CF92DF92EF92FF920F931F93CF93DF93ED
:1037D0004C017A018B01722ECB01BA01A80197012D
:1037E0000E94441F882321F0C40162EE71E021C0D1
:1037F000C0E0D0E057016801E894D7F8C601B501F0
:103800002FEF3FEF4FE75FE70E94441F882351F4FB
:10381000C601B5012FEF3FEF4FE75FE70E94421D62
:10382000181614F0C1E0D0E0219739F0C40166EE1B
:1038300071E00E94D71AEC0193C0C801B7012FEFC5
:103840003FEF4FE75FE40E94911E181654F0C80145
:10385000B7012FEF3FEF4FE75FEC0E94421D882337
:1038600024F4C4016AEE71E0E4CFC801B70120E09E
:1038700030E040E050E00E94421D87FD03C0C0E000
:10388000D0E00EC0D401ED91FC910190F081E02DCB
:10389000C4016DE20995EC0117FB109517F910951D
:1038A00020E030E040E05FE3DD240BC0CA01B90155
:1038B00020E030E040E251E40E94461D9B01AC0153
:1038C000D394D71498F3C801B7010E94DE1C5B01A2
:1038D0006C010E94B31D7B018C01C401B801A701DA
:1038E0002AE030E00E94571BC80FD91F772039F01B
:1038F000C4016EEE71E00E94D71AC80FD91FC8012B
:10390000B7010E94DF1D9B01AC01C601B5010E94F9
:10391000DD1C24C020E030E040E251E40E94951E0E
:103920007B018C010E94AE1D5B016C01CC24B7FCB5
:10393000C094DC2CC401B601A5012AE030E00E944D
:10394000661BC80FD91FC601B5010E94E11D9B016E
:10395000AC01C801B7010E94DD1C7A947720D1F632
:10396000CE01DF91CF911F910F91FF90EF90DF90EB
:10397000CF90BF90AF909F908F907F9008950E94BE
:10398000DB1B0895EF92FF920F931F937C010E941F
:10399000D71A8C01C7010E94B71A080F191FC80156
:1039A0001F910F91FF90EF90089570E0382F20E065
:1039B000622B732BCB01089508955058BB27AA277B
:1039C0000ED075C166D130F06BD120F031F49F3F3D
:1039D00011F41EF45BC10EF4E095E7FB51C1E92F31
:1039E00077D180F3BA17620773078407950718F039
:1039F00071F49EF58FC10EF4E0950B2EBA2FA02D19
:103A00000B01B90190010C01CA01A0011124FF278B
:103A1000591B99F0593F50F4503E68F11A16F04086
:103A2000A22F232F342F4427585FF3CF4695379585
:103A30002795A795F0405395C9F77EF41F16BA0B4A
:103A4000620B730B840BBAF09150A1F0FF0FBB1FF8
:103A5000661F771F881FC2F70EC0BA0F621F731F41
:103A6000841F48F4879577956795B795F7959E3F9E
:103A700008F0B3CF9395880F08F09927EE0F97952C
:103A800087950895D9D008F481E008950CD00FC12E
:103A900007D140F0FED030F021F45F3F19F0F0C0C4
:103AA000511139C1F3C014D198F39923C9F35523A7
:103AB000B1F3951B550BBB27AA2762177307840721
:103AC00038F09F5F5F4F220F331F441FAA1FA9F3D7
:103AD00033D00E2E3AF0E0E830D091505040E695C9
:103AE000001CCAF729D0FE2F27D0660F771F881F2A
:103AF000BB1F261737074807AB07B0E809F0BB0B19
:103B0000802DBF01FF2793585F4F2AF09E3F51053C
:103B100068F0B6C000C15F3FECF3983EDCF38695D9
:103B200077956795B795F7959F5FC9F7880F911DB2
:103B30009695879597F90895E1E0660F771F881F9E
:103B4000BB1F621773078407BA0720F0621B730B51
:103B5000840BBA0BEE1F88F7E095089504D06894A3
:103B6000B111D9C00895BCD088F09F5790F0B92FFB
:103B70009927B751A0F0D1F0660F771F881F991FC2
:103B80001AF0BA95C9F712C0B13081F0C3D0B1E0D4
:103B90000895C0C0672F782F8827B85F39F0B93FE4
:103BA000CCF3869577956795B395D9F73EF49095C4
:103BB0008095709561957F4F8F4F9F4F0895E89442
:103BC00009C097FB3EF490958095709561957F4F65
:103BD0008F4F9F4F9923A9F0F92F96E9BB27939513
:103BE000F695879577956795B795F111F8CFFAF423
:103BF000BB0F11F460FF1BC06F5F7F4F8F4F9F4F54
:103C000016C0882311F096E911C0772321F09EE8B1
:103C1000872F762F05C0662371F096E8862F70E017
:103C200060E02AF09A95660F771F881FDAF7880FF1
:103C30009695879597F90895990F0008550FAA0B47
:103C4000E0E8FEEF16161706E807F907C0F01216AF
:103C50001306E407F50798F0621B730B840B950BB2
:103C600039F40A2661F0232B242B252B21F4089507
:103C70000A2609F4A140A6958FEF811D811D0895A4
:103C800097F99F6780E870E060E008959FEF80EC0F
:103C9000089500240A9416161706180609060895B2
:103CA00000240A9412161306140605060895092E18
:103CB0000394000C11F4882352F0BB0F40F4BF2B87
:103CC00011F460FF04C06F5F7F4F8F4F9F4F0895C7
:103CD00057FD9058440F551F59F05F3F71F04795BD
:103CE000880F97FB991F61F09F3F79F087950895A2
:103CF000121613061406551FF2CF4695F1DF08C0C1
:103D0000161617061806991FF1CF869571056105DD
:103D100008940895E894BB2766277727CB0197F985
:103D200008958ADF08F48FEF08950BD0C0CFB1DF7C
:103D300028F0B6DF18F0952309F0A2CFA7CF112401
:103D4000EACFC6DFA0F3959FD1F3950F50E0551F42
:103D5000629FF001729FBB27F00DB11D639FAA27E0
:103D6000F00DB11DAA1F649F6627B00DA11D661F2F
:103D7000829F2227B00DA11D621F739FB00DA11D50
:103D8000621F839FA00D611D221F749F3327A00D0A
:103D9000611D231F849F600D211D822F762F6A2FA6
:103DA00011249F5750408AF0E1F088234AF0EE0F2B
:103DB000FF1FBB1F661F771F881F91505040A9F738
:103DC0009E3F510570F05CCFA6CF5F3FECF3983E6D
:103DD000DCF3869577956795B795F795E7959F5F9F
:103DE000C1F7FE2B880F911D9695879597F9089539
:103DF000FA01EE0FFF1F30962105310599F161158B
:103E0000710561F48038BFE39B0749F168949038ED
:103E1000810561F08038BFEF9B0741F0992342F59F
:103E2000FF3FE1053105210511F1E8940894E7957C
:103E3000D901AA2329F4AB2FBE2FF85FD0F310C00D
:103E4000FF5F70F4A695E0F7F73950F019F0FF3AEC
:103E500038F49F779F930CD00F9007FC90580895EB
:103E60003EF014CF60E070E080E89FE308954FE7F4
:103E70009F775F934F933F932F93A2D02F913F91C2
:103E80004F915F9152DF09C0D7DE880B990B0895DF
:103E900019F40EF0F5CE3ECFF9CE22DFC8F39638F6
:103EA000C0F707F80F92E8942BE33AEA48EB5FE794
:103EB0004ADF0F920F920F924DB75EB70F92C0D0AC
:103EC000E8E6F0E016D04F915F91EF91FF91E59514
:103ED000EE1FFF1F49F0FE57E0684427EE0F441F16
:103EE000FA95E1F74195550B32D00F9007FE26C0A9
:103EF0000895DF93CF931F930F93FF92EF92DF927A
:103F00007B018C01689405C0DA2EEF011ADFFE01F7
:103F1000E894A5912591359145915591AEF3EF0126
:103F20005EDDFE019701A801DA9479F7DF90EF904A
:103F3000FF900F911F91CF91DF9108959B01AC01EC
:103F400060E070E080E89FE3A1CD9ACEACC0C8DE0F
:103F5000E8F39923D9F3940F511DBBF391505040CE
:103F600094F059F0882332F0660F771F881F915024
:103F70005040C1F79E3F510544F7880F911D96951B
:103F8000879597F908955F3FACF0983E9CF0BB276A
:103F9000869577956795B79508F4B1609395C1F7C5
:103FA000BB0F58F711F460FFE8CF6F5F7F4F8F4F63
:103FB0009F4FE3CFB0CE0EF076C068CE689460CE4F
:103FC0008FDEC8F39923D1F3C6F3DF93CF931F930A
:103FD0000F93FF92C92FDD2788232AF02197660FC0
:103FE000771F881FDAF720E030E040E85FEB9FE3BF
:103FF000883920F0803E30F021968F77DFDCE0E9D1
:10400000F0E003C0DBDCEDEBF0E073DF8B01BE0121
:10401000EC01FB2E6F5771097595771F880B990B73
:10402000D0DD28E132E741E35FE38BDEAF2D98017D
:10403000AE01FF900F911F91CF91DF91D0DC37CE71
:10404000FA01DC01AA0FBB1F9B01AC01BF5728F48A
:1040500022273327442750781FC0B75188F4AB2F4D
:104060000024469537952795011CA395D2F300208F
:1040700069F0220F331F441FB395DAF30DD09DCCA6
:1040800061307105A0E88A07B94630F49B01AC01A4
:104090006627772788279078309621F02083318310
:1040A0004283538308959F3F49F0915028F48695A9
:1040B00077956795B7959F5F80389F4F880F969546
:1040C000879597F90895629FD001739FF001829FB1
:1040D000E00DF11D649FE00DF11D929FF00D839F97
:1040E000F00D749FF00D659FF00D9927729FB00D34
:1040F000E11DF91F639FB00DE11DF91FBD01CF0147
:1041000011240895A1E21A2EAA1BBB1BFD010DC0AC
:10411000AA1FBB1FEE1FFF1FA217B307E407F50777
:1041200020F0A21BB30BE40BF50B661F771F881F53
:10413000991F1A9469F760957095809590959B01E9
:10414000AC01BD01CF01089597FB092E05260ED0C5
:1041500057FD04D0D7DF0AD0001C38F450954095A5
:10416000309521953F4F4F4F5F4F0895F6F790954B
:104170008095709561957F4F8F4F9F4F0895EE0FFB
:0E418000FF1F0590F491E02D0994F894FFCFF5
:10418E002E2E2E000A3D3D3D3D3D2053656E736F34
:10419E00722044617461203D3D3D3D3D000A5465F1
:1041AE006D70657261747572653A090020430A4834
:1041BE00756D69646974793A090020250A4C69673E
:1041CE0068743A090900206C75780A536F756E642D
:1041DE00204C6576656C3A090020636F756E740A23
:1041EE000A00646F6E652E2053656E736F722063C6
:1041FE00616C696272617465642E0043616C696200
:10420E00726174696E67206D6F74696F6E2073656D
:10421E006E736F722E20506C6561736520776169C5
:10422E0074003D3D3D3D204C75726B6572204E61B4
:10423E006E6F202D20436F6F7264696E61746F72A2
:10424E00203D3D3D3D004D65737361676520726590
:10425E006365697665640A0052656164206661690A
:10426E006C006E616E00696E66006F7666002E00E1
:10427E000100000000F507C4077D0786079B07AC09
:10428E0007000000007E19851A21193D192D195BB2
:02429E00190005
:00000001FF
