:100000000C9408020C9430020C9430020C943002D0
:100010000C9430020C9430020C9430020C94320692
:100020000C9430020C9430020C9430020C94300288
:100030000C9430020C9430020C9430020C94300278
:100040000C9405150C9430020C9450180C94D31891
:100050000C9430020C9430020C9430020C94300258
:100060000C94B2080C94300207634236B79BD8A7B1
:100070001A39685618AEBAAB558C1D3CB7CC5763CD
:10008000BD6DEDFD753EF6177231BF000000803F7B
:1000900008000000BE922449123EABAAAA2ABECD97
:1000A000CCCC4C3E00000080BEABAAAAAA3E000009
:1000B0000000BF000000803F000000000008417801
:1000C000D3BB4387D1133D190E3CC3BD4282AD2B38
:1000D0003E68EC8276BED98FE1A93E4C80EFFFBE30
:1000E00001C4FF7F3F00000000000001020304057F
:1000F0000A0B0C0D0E0F1112131415165102570294
:100100005D0265026E027802810288029002970207
:100110009E02A602504120506F77657209203D2053
:1001200025530D0A00435243204C656E67746809DD
:10013000203D2025530D0A004D6F64656C09092090
:100140003D2025530D0A004461746120526174659D
:1001500009203D2025530D0A0044594E50442F4696
:1001600045415455524500434F4E4649470052467B
:100170005F53455455500052465F434800454E5F1B
:1001800052584144445200454E5F41410052585F2D
:1001900050575F50302D360054585F414444520050
:1001A00052585F414444525F50322D350052585FDF
:1001B000414444525F50302D31000D0A0025303249
:1001C0007800203078002553092563203D000D0A72
:1001D0000020307825303278002553092563203DF2
:1001E000004F4253455256455F54583D25303278B2
:1001F0003A20504F4C535F434E543D257820415296
:10020000435F434E543D25780D0A005354415455E5
:10021000530909203D203078253032782052585F2C
:1002200044523D25782054585F44533D2578204D55
:1002300041585F52543D25782052585F505F4E4FD1
:100240003D25782054585F46554C4C3D25780D0A85
:1002500000314D42505300324D4250530032353040
:100260004B425053006E524632344C3031006E5285
:100270004632344C30312B0044697361626C6564E2
:10028000003820626974730031362062697473002B
:1002900050415F4D494E0050415F4C4F5700504117
:1002A0005F484947480050415F4D415800005EBCDF
:1002B000E2613FDD83C29C7E20A3FD1F419DC321DF
:1002C0007FFCA2401E5F01E3BD3E6082DC237D9F78
:1002D000C1421CFEA0E1BF5D0380DE3C62BEE002C5
:1002E0005CDF81633D7C22C09E1D43A1FF4618FA5E
:1002F000A427799BC584DA3866E5BB5907DB856797
:1003000039BAE406581947A5FB7826C49A653BD943
:1003100087045AB8E6A7F91B45C6987A24F8A6447C
:100320001A99C7257B3A6486D85B05E7B98CD23029
:100330006EEDB3510F4E10F2AC2F7193CD114FAD46
:10034000F3702ECC92D38D6F31B2EC0E50AFF1130F
:100350004DCE90722C6D33D18F0C52B0EE326C8E2C
:10036000D0530DEFB1F0AE4C1291CF2D73CA9476ED
:1003700028ABF517490856B4EA6937D58B5709EB0E
:10038000B536688AD495CB2977F4AA4816E9B755CB
:100390000B88D6346A2B7597C94A14F6A8742AC8F4
:1003A00096154BA9F7B6E80A54D7896B35000000BB
:1003B00000240027002A0000000000250028002B50
:1003C00000000000002300260029000404040404A7
:1003D00004040402020202020203030303030301F2
:1003E00002040810204080010204081020010204C9
:1003F00008102000000007000201000003040600AE
:100400000000000000000000E3024E078618DC0236
:1004100011241FBECFEFD8E0DEBFCDBF12E0A0E0B9
:10042000B1E0E6E4F5E402C005900D92A431B10715
:10043000D9F714E0A4E1B2E001C01D92A33EB107D8
:10044000E1F714E0CEE0D4E004C02297FE010E9460
:100450009222C830D107C9F70E94F9180C9496224D
:100460000C940000FB01DC0102C001900D92415090
:100470005040D8F70895FB01DC018D91019080195F
:100480000110D9F3990B0895FB01DC0101900D9245
:100490000020E1F70895FB019F01E8944230C4F089
:1004A0004532B4F44A3029F497FB1EF490958195B7
:1004B0009F4F642F77270E947C22805D8A330CF047
:1004C000895D8193CB010097A1F716F45DE251930A
:1004D0001082C9010C946C02DC01FC01672F719140
:1004E0007723E1F7329704C07C916D93708362911A
:1004F000AE17BF07C8F308950F931F93DF93CF93F1
:1005000000D000D000D0CDB7DEB781309105E1F545
:100510006F5F7F4F09F045C084E192E060E071E0D9
:100520000E94331C8E010F5F1F4FC80164E172E00F
:100530000E946D1CC80160E070E00E94011CBC01BB
:100540008AE192E00E94631CC8010E947D1C80E247
:1005500092E069E04AE00E94900D81E492E067E059
:100560000E94D6128FE492E061E472E00E94610A78
:1005700082E692E068E04BE026E00E94B91380E753
:1005800092E00E940C130DC0892B59F46F5F7F4FCE
:1005900041F48AE192E00E94771C84E192E00E949B
:1005A000771C26960FB6F894DEBF0FBECDBFCF9155
:1005B000DF911F910F91089580E090E06FEF7FEF42
:1005C0000E947C02089581E090E06FEF7FEF0E942F
:1005D0007C0208956F927F928F929F92AF92BF920A
:1005E000CF92DF92EF92FF920F931F93CF93DF93FF
:1005F000EC010E944D15662477244301AA24BB24F4
:1006000065017E010027F7FC0095102FE60EF71E0E
:10061000081F191F0E944D156E157F058007910751
:10062000A0F41C161D068CF48EE00E940816AA2762
:1006300097FDA095BA2F680E791E8A1E9B1E0894FE
:10064000A11CB11CC11CD11CE5CFC401B301A60182
:1006500095010E946122C901DF91CF911F910F91F5
:10066000FF90EF90DF90CF90BF90AF909F908F90D2
:100670007F906F90089580E792E00E9423139093FB
:1006800077028093760208958EE060E00E942A1639
:1006900008950F931F9300E712E0C8010E94A3136F
:1006A000C80163E20E948A13C80160E10E947713C7
:1006B0001F910F910895AF92BF92CF92DF92EF9268
:1006C000FF920F931F93DF93CF93CDB7DEB7689759
:1006D0000FB6F894DEBF0FBECDBF7C01CE010996E8
:1006E0009C838B8382E090E09E838D8318861F829B
:1006F0008BEE91E09A8389836E010894C11CD11C12
:10070000C60167E071E00E94CC14FC018DE9A82EBF
:1007100084E1B82EB582A4820027F7FC0095102F43
:10072000E082F18202831383C6016AE071E00E94D5
:10073000CC14FC01B582A48281E090E0A0E0B0E09E
:1007400080839183A283B38302E414E0C80163E24F
:100750000E944419C801B6010E944C19C80164E204
:100760000E94771968960FB6F894DEBF0FBECDBF12
:10077000CF91DF911F910F91FF90EF90DF90CF907D
:10078000BF90AF90089580E090E00E945B030895D1
:100790000E944D1520917C0230917D0240917E0295
:1007A00050917F02621B730B840B950B6151774252
:1007B00080409040B8F082E00E94BD16019781F41D
:1007C00081E080937B020E944D1560937C027093C0
:1007D0007D0280937E0290937F020E94C30308955E
:1007E00010927B020895AF92BF92CF92DF92EF9268
:1007F000FF920F931F93DF93CF93CDB7DEB7E097B0
:100800000FB6F894DEBF0FBECDBFCE0109969C8314
:100810008B8385E090E09E838D8318861F8281EF15
:1008200091E09A83898332E4C32E34E0D32EC6014B
:100830006AE172E00E9432197E010894E11CF11C09
:10084000C70167E071E00E94CC14FC0120911A02FC
:1008500030911B0282E294E195838483318320836B
:10086000C70161E171E00E94CC148C0160917202B9
:1008700070917302882777FD8095982F0E949E1FA4
:1008800020E030E048EC52E40E94031F25EBA22E4A
:1008900024E0B22EF801B582A482AC01CB01DA01CA
:1008A00080839183A283B383C7016DE171E00E94CD
:1008B000CC148C01609174027091750280E090E01C
:1008C0000E949C1F20E030E048EC52E40E94031F8D
:1008D000F801B582A482AC01CB01DA018083918357
:1008E000A283B383C70166E271E00E94CC14FC01CD
:1008F0008091760290917702A0E0B0E00DE914E1DA
:100900001583048380839183A283B383C70162E349
:1009100071E00E94CC14FC018091780290917902E0
:10092000A0E0B0E01583048380839183A283B38326
:10093000C60163E20E944419C601B7010E944C1926
:10094000C60164E20E947719E0960FB6F894DEBF04
:100950000FBECDBFCF91DF911F910F91FF90EF9010
:10096000DF90CF90BF90AF900895FC01CB01408104
:1009700051816281738122E030E00E94451B08951D
:1009800082E494E068E371E00E94481B089582E4E9
:1009900094E061E571E00E94481B089582E494E0D0
:1009A00068E771E00E94481B089582E494E06CE9D6
:1009B00071E00E945E1A089582E060E00E942A16AB
:1009C0000E94C7040E94D50468EE73E080E090E0C6
:1009D0000E94A0150E94D50468EE73E080E090E0CC
:1009E0000E94A0150E94C00462E370E080E090E0E5
:1009F0000E94A01508958FE492E00E94270D0E94A6
:100A000049030E94DC040E94440310927302109276
:100A10007202109275021092740210927702109274
:100A20007602109279021092780210927A02109255
:100A30007B02089580E292E00E941810882331F032
:100A400082E494E060EA71E00E945E1A0895EF92F9
:100A5000FF920F931F9310924002ECE2F2E011928A
:100A600082E0E034F807D9F780E292E00E94381083
:100A700080E292E00FEF10E920E930E940E950E030
:100A800060E070E00E94A90E88E58093800281E01A
:100A90008093A00200E010E080E292E060E872E063
:100AA0004091A0020E94720E64EF71E080E090E03D
:100AB0000E94A0150F5F1F4F0330110569F780E2F8
:100AC00092E061E0EE2440E9F42E00E910E920E92B
:100AD00030E040E050E00E947D0F80E292E00E9412
:100AE0006C101F910F91FF90EF900895CF92DF92BD
:100AF000EF92FF920F931F9360E2C62E62E0D62E14
:100B0000C6010E949A10C6016FE045E00E944A0E9D
:100B1000C60163E00E94460FC60161E0EE2450E981
:100B2000F52E00E910E92FEF3FEF4FEF5FEF0E9446
:100B30007D0FC6010E946C101F910F91FF90EF90E6
:100B4000DF90CF900895EF92FF920F931F937B0158
:100B50008C01CA010197049728F061E070E080E001
:100B600090E015C0BA01882777FD8095982F0E94E4
:100B70009E1F9B01AC0160E070E080E291E40E9466
:100B8000B5209B01AC01CA01B9010E946B1F0E94F4
:100B90009E1F9B01AC01C801B7010E9452200E9418
:100BA0006B1FCB011F910F91FF90EF9008950F9352
:100BB0001F930FE412E0C8010E94260CC80160E0F8
:100BC0000E94000D42E050E00E94A3059093730242
:100BD000809372021F910F9108950E944D152091EC
:100BE000A1023091A2024091A3025091A402621B83
:100BF000730B840B950B615D774080409040C0F093
:100C00000E94D7050E943B0388EC90E00E94EA0214
:100C100090937902809378020E944D156093A1020F
:100C20007093A2028093A3029093A4020E94F30304
:100C30000E94C80308950E941A050E94ED050895B8
:100C400082E494E040E051EE60E070E026E00E9433
:100C500040170E94CE040E9476050E94FB040E9469
:100C6000270508951F920F920FB60F9211242F930C
:100C70003F934F935F936F937F938F939F93AF9324
:100C8000BF93EF93FF938091A5020E94BD16482F5A
:100C90008091A8029091A90201969093A902809355
:100CA000A80280917203843618F085E08093A60232
:100CB0008091A6028330D1F0843020F4823009F094
:100CC00059C006C0843071F1853009F053C04CC062
:100CD000442309F04FC08091A8029091A902843664
:100CE000910508F443C0109272031EC0413009F010
:100CF00041C080917203E82FF0E02091A80230916A
:100D0000A902EE0FFF1FEB55FD4F368325838F5F42
:100D1000809372031092A9021092A80284E080933B
:100D2000A60228C04423B9F480917203E82FF0E0B2
:100D30002091A8023091A902EE0FFF1FEB55FD4F45
:100D4000368325838F5F809372031092A9021092DD
:100D5000A80283E0E4CF8091A8029091A902853691
:100D6000910540F085E0DBCF442321F41092A902E5
:100D70001092A8028091A702882329F0442311F43D
:100D80002D9A01C02D98FF91EF91BF91AF919F9146
:100D90008F917F916F915F914F913F912F910F9024
:100DA0000FBE0F901F901895882319F48CB58062A0
:100DB00002C08CB58F7D8CBD08959CB5937F982B18
:100DC0009CBD08952CB5382F33702C7F322B3CBD41
:100DD0002DB590E0959587959595879581702E7F97
:100DE000822B8DBD08958AE061E00E9469168AE039
:100DF00061E00E942A168CB580618CBD8CB5806440
:100E00008CBD8DE061E00E942A168BE061E00E94BB
:100E10002A16089581E08093B80360939503109299
:100E2000B6031092B703089581E08093B8036093EE
:100E300095031092B6031092B7030895209194037E
:100E400030E080919303281B3109C9010895409136
:100E5000930380919403481718F02FEF3FEF0AC0D7
:100E6000E42FF0E0ED58FC4F8081282F30E04F5FF9
:100E700040939303C9010895E091930380919403F3
:100E8000E81718F0EFEFFFEF06C0F0E0ED58FC4F69
:100E90008081E82FF0E0CF01089508951092BC03FF
:100EA0001092BB0388EE93E0A0E0B0E08093BD0316
:100EB0009093BE03A093BF03B093C00387EF91E06C
:100EC0009093BA038093B9030895CF92DF92EF9283
:100ED000FF920F931F93CF93DF937C016B018A01E5
:100EE0008091B8038823A1F0C0E0D0E00DC0D70105
:100EF000ED91FC91D601AC0FBD1F0190F081E02D6A
:100F0000C7016C9109952196C017D10780F304C0E1
:100F1000CB01642F0E949708C801DF91CF911F91E8
:100F20000F91FF90EF90DF90CF900895DF93CF93D4
:100F30000F92CDB7DEB7FC0169838091B803882397
:100F4000C9F08091B703803238F081E090E093835C
:100F5000828320E030E015C08091B603E82FF0E0F6
:100F6000EA56FC4F998190838F5F8093B6038093FC
:100F7000B70305C0CE01019661E00E94970821E009
:100F800030E0C9010F90CF91DF9108950F93062FA4
:100F90008091950366E973E04091B70321E00E94D8
:100FA00042081092B6031092B7031092B8030F9143
:100FB000089561E00E94C6070895413208F040E2BA
:100FC000862F63E773E00E94F907109293038093E2
:100FD0009403089521E00E94DD0708951092930381
:100FE000109294031092B6031092B7030E94430A22
:100FF0000895382F413210F040E042C08091C5037F
:101000008823E1F791E09093C5032093C7038FEF06
:10101000809332041092ED0341504093EE034F5FF2
:101020009093C6038091C603330F832B8093C6032E
:101030008091C803813041F41092C8038091C603A7
:101040008093BB0085EC01C085EE8093BC0080914D
:10105000C5038130E1F38091ED03841710F44091D2
:10106000ED0320E030E00AC0FB01E20FF31FD901DD
:10107000A353BC4F8C9180832F5F3F4F2417A0F365
:10108000842F08950F931F93582F122F413210F081
:1010900081E04AC08091C5038823E1F782E0809314
:1010A000C5030093C7038FEF809332041092ED03C2
:1010B0004093EE03ADECB3E0FB0102C081918D9350
:1010C0008E2F861B8417D0F31092C6038091C6031F
:1010D000550F852B8093C6038091C803813041F45E
:1010E0001092C8038091C6038093BB0085EC01C0B9
:1010F00085EE8093BC00112321F08091C5038230DE
:10110000E1F3809132048F3F11F480E00DC08091B3
:101110003204803211F482E007C0809132048033BF
:1011200011F084E001C083E01F910F910895482FD2
:10113000613210F081E008958091C503843011F090
:1011400082E0089560931004AFEEB3E0842F9C0119
:10115000F90102C081918D938E2F841B8617D0F3E5
:1011600080E008951F920F920FB60F9211242F93D3
:101170003F934F935F936F937F938F939F93AF931F
:10118000BF93EF93FF938091B90090E0887F9070B8
:101190008036910509F4F2C081369105CCF588328C
:1011A000910509F47BC089329105B4F48031910531
:1011B00009F46FC0813191053CF4009709F447C1EF
:1011C000089709F04FC165C08831910509F466C0E0
:1011D000809709F047C182C08034910509F4A4C00A
:1011E0008134910544F48033910509F482C0C89795
:1011F00009F038C189C08035910509F489C0883566
:10120000910509F496C08834910509F02BC1AEC050
:101210008839910509F413C189399105ECF48837AF
:10122000910509F4ABC0893791054CF488369105D6
:1012300009F4A4C08037910509F014C19FC0883813
:10124000910509F4FCC08039910509F49DC08038EE
:10125000910509F007C198C0803B910509F4C6C00B
:10126000813B91054CF4803A910509F49FC0883A7E
:10127000910509F0F7C0BAC0803C910509F4E3C0BC
:10128000883C910509F4DFC0883B910509F0EAC06C
:10129000C2C08091C6038093BB00CFC09091ED0384
:1012A0008091EE03981768F49091ED03E92FF0E038
:1012B000E353FC4F80818093BB009F5F9093ED03CD
:1012C000BCC08091C703882309F44BC085ED80938F
:1012D000BC008091BC0084FDFCCFC2C080E2809342
:1012E000320485ED8093BC008091BC0084FDFCCF6E
:1012F000B7C080E38093320485ED8093BC00809179
:10130000BC0084FDFCCFACC088E3809332049BC05A
:101310008091ED039091BB00E82FF0E0E353FC4F88
:1013200090838F5F8093ED039091ED038091EE03A6
:1013300082C08091ED039091BB00E82FF0E0E35371
:10134000FC4F90838F5F8093ED038091C7038823C8
:1013500041F085ED8093BC008091BC0084FDFCCF02
:101360007FC081E08093C80384EA6EC085ED8093DE
:10137000BC008091BC0084FDFCCF72C083E08093F0
:10138000C5031092310459C080913104803208F0B5
:1013900056C0809131049091BB00E82FF0E0EF5EE1
:1013A000FB4F90838F5F8093310447C0809131045D
:1013B000803230F4E0913104F0E0EF5EFB4F1082B8
:1013C00085ED8093BC008091BC0084FDFCCF109221
:1013D000C50360913104E091CB03F091CC0381E12E
:1013E00094E070E00995109231042DC084E0809360
:1013F000C50310920F0410921004E091C903F091FC
:10140000CA03099580911004882329F481E0809310
:1014100010041092EF0390910F04E92FF0E0E151D6
:10142000FC4F80818093BB009F5F90930F0490914D
:101430000F0480911004981710F485EC01C085E822
:101440008093BC000FC085EC8093BC0009C0109253
:10145000320485ED8093BC008091BC0084FDFCCFFC
:101460001092C503FF91EF91BF91AF919F918F9122
:101470007F916F915F914F913F912F910F900FBE90
:101480000F901F9018951092C50381E08093C703B9
:101490001092C80382E161E00E94691683E161E075
:1014A0000E946916E9EBF0E080818E7F8083808165
:1014B0008D7F808388E48093B80085E48093BC00AE
:1014C0000895FC0187E29BE0928B818B7683658394
:1014D0001482108289E0818381E08283838308956E
:1014E0006F927F928F929F92AF92BF92CF92DF9234
:1014F000EF92FF920F931F93CF93DF93FB01EA01CB
:10150000998180E0288130E0282B392BE081E2327C
:1015100031F0E83221F0E03109F084C04BC04C8159
:101520004F3329F1403420F44F3109F07BC02FC0F4
:101530004F3579F04F3709F075C0B901882777FD2D
:101540008095982F0E949E1F20E030E040E85DE3E8
:101550002EC035952795B901882777FD8095982F5E
:101560000E949E1F20E030E040E05EE320C0359501
:10157000279535952795B901882777FD8095982F70
:101580000E949E1F20E030E040E85EE310C093E040
:10159000359527959A95E1F7B901882777FD8095CC
:1015A000982F0E949E1F20E030E040E05FE30E9401
:1015B000522032C0EF8035952795B901882777FDF5
:1015C0008095982F0E949E1F20E030E040E85EE367
:1015D0000E949A1E3B014C016E2D70E02E81621B11
:1015E0007109882777FD8095982F0E949E1F5B01C7
:1015F0006C01FF2400E010E0C801B7010E949C1FAD
:101600009B01AC01C601B5010E94031F9B01AC0107
:10161000C401B3010E949B1E9B01AC01832F942F38
:10162000752F00C0262F382F492F572FB901CA0117
:10163000DF91CF911F910F91FF90EF90DF90CF90AE
:10164000BF90AF909F908F907F906F900895089576
:10165000EF92FF920F931F938C017B01FC01858118
:1016600096810E94F511F80185819681B7010E944B
:10167000D411F8018581968164EB40E00E948F11BE
:10168000F801858196810E940A11F82EF801858162
:1016900096810E94F51180E0FF2009F481E01F91FE
:1016A0000F91FF90EF900895CF92DF92EF92FF920B
:1016B0000F931F938C016B017A01FC018581968148
:1016C0000E94F511F80185819681B6010E94D4111E
:1016D000F801858196816EEB40E00E948F11F80140
:1016E000858196810E943E11F7018083F8018581F2
:1016F00096810E943E11F7018183F80185819681D0
:101700000E943E11F7018283F801858196810E9433
:101710003E11F7018383F801858196810E943E1175
:10172000F7018483F801858196810E943E11F701BB
:101730008583F801858196810E943E11F701868399
:10174000F801858196810E943E11F7018783F80197
:10175000858196810E943E11F7018087F80185817D
:1017600096810E94F5111F910F91FF90EF90DF90ED
:10177000CF900895DF93CF93CDB7DEB729970FB6FB
:10178000F894DEBF0FBECDBFAE014F5F5F4F0E942A
:10179000540B8981811181E029960FB6F894DEBF40
:1017A0000FBECDBFCF91DF910895CF92DF92EF9220
:1017B000FF920F931F93CF93DF93EC016B01452BA7
:1017C000E1F08B818823C9F088818823B1F40E94DD
:1017D0004D157B018C01CE0160E070E00E94BA0BD8
:1017E000882359F40E944D156E197F09800B910BC7
:1017F0006E5E72408040904070F3F6016081693007
:1018000039F06930A0F06A3041F06B3081F40AC0E1
:101810006EE570E080E090E00EC06CEB70E080E080
:1018200090E009C067E771E080E090E004C06EEEF0
:1018300072E080E090E00E94A015DF91CF911F91AF
:101840000F91FF90EF90DF90CF900895CF93DF93AB
:10185000EC018D819E810E94F5118D819E810E94F7
:10186000CF118D819E8164E448810E948F118A810D
:10187000882339F0CE012196BE0140E050E00E945D
:10188000D50BDF91CF9108950F931F938A010E948A
:10189000540BC80168E00E94F91020E0F80190851F
:1018A000891709F421E0822F1F910F910895CF929B
:1018B000DF92EF92FF920F931F93DF93CF93CDB7F9
:1018C000DEB729970FB6F894DEBF0FBECDBF8C01EF
:1018D0007B016E010894C11CD11CA6010E94440C1E
:1018E000882329F460E070E08EEF92EC05C0C80117
:1018F000B701A6010E94700A29960FB6F894DEBFC0
:101900000FBECDBFCF91DF911F910F91FF90EF9050
:10191000DF90CF900895DF93CF93CDB7DEB72997AF
:101920000FB6F894DEBF0FBECDBF9C01FB018081D6
:101930008031D9F0C901AE014F5F5F4F0E94440C66
:101940008823A9F08D818F3371F0803418F48F31A2
:1019500071F40BC08F3519F08F3749F402C08BE05A
:1019600007C08CE005C08AE003C089E001C080E0C8
:1019700029960FB6F894DEBF0FBECDBFCF91DF9191
:1019800008950F931F938B01CB0167E00E94F9101C
:1019900020E0F8019781891709F421E0822F1F9137
:1019A0000F910895EF92FF920F931F93CF93DF93C0
:1019B000EC017B01042F8D819E810E94EC1010E0D0
:1019C00007C0CE01B7010E94C10C8823A9F00AC04C
:1019D0008D819E81B7010E944012882329F0101743
:1019E00059F4EFCF81E001C080E0DF91CF911F91EA
:1019F0000F91FF90EF9008951F5F0117A8F3E8CFB4
:101A0000EF92FF920F931F93DF93CF93CDB7DEB783
:101A100028970FB6F894DEBF0FBECDBF7C01462FCE
:101A20008E010F5F1F4FB8010E94D20CC701B80191
:101A30000E94570C28960FB6F894DEBF0FBECDBF9C
:101A4000CF91DF911F910F91FF90EF900895AF928A
:101A5000BF92CF92DF92EF92FF920F931F93DF938B
:101A6000CF93CDB7DEB761970FB6F894DEBF0FBE48
:101A7000CDBF7C01FC01858196810E94EC10F701AD
:101A800014826E010894C11CD11C79E0A72EB12CE0
:101A9000AC0EBD1E01E02BC0C701B6010E94C10CF7
:101AA000882329F1F7018081882341F4C701B60119
:101AB0000E94280B882311F0F7010083C701B601AB
:101AC000A5010E94540BF7011181C701B6010E94C4
:101AD0008B0C811718F4F701818104C0C701B6018E
:101AE0000E948B0CF701818384818F5F8483F701CF
:101AF00085819681B6010E944012882369F661961D
:101B00000FB6F894DEBF0FBECDBFCF91DF911F910E
:101B10000F91FF90EF90DF90CF90BF90AF9008951E
:101B2000FC0160834183128280E28383148285E01A
:101B300082870895FF920F931F938C01F62E81E008
:101B40000E94D40680E00E94DD0684E00E94E20646
:101B5000F80181816F2D0E9469161F910F91FF90EE
:101B600008951F93CF93DF93EC01162F60E00E943E
:101B70009A0D1EBD0DB407FEFDCF1EB5CE0161E06E
:101B80000E949A0D812FDF91CF911F9108956FEFE1
:101B90000E94B10D089561EE0E94B10D089562EEAC
:101BA0000E94B10D0895DF92EF92FF920F931F9361
:101BB000CF93DF93EC01E62ED72EF22E9B81142FCC
:101BC000941708F4192F8C81882311F000E002C0CB
:101BD000092F011BCE0160E00E949A0DFEBC0DB4DE
:101BE00007FEFDCF8E2D9D2D9C01F901FEB408C08E
:101BF00080818EBD0DB407FEFDCF31968EB511509C
:101C00001123B1F706C01EBC0DB407FEFDCF8EB583
:101C100001500023C1F7CE0161E00E949A0D8F2D83
:101C2000DF91CF911F910F91FF90EF90DF9008957A
:101C3000CF93DF93EC01222311F420EA01C020EBC3
:101C4000CE010E94D30D888161E00E946916DF9168
:101C5000CF9108950F931F93CF93DF93EC01162F2D
:101C6000042F60E00E949A0D1F7110621EBD0DB41A
:101C700007FEFDCF1EB50EBD0DB407FEFDCF8EB520
:101C8000CE0161E00E949A0D812FDF91CF911F91CB
:101C90000F910895262F4F702295207F242B64E00A
:101CA000422F0E942A0E0895CF93DF93EC010E94E9
:101CB000180ECE010E94C70D8073D9F3888160E0B1
:101CC0000E946916CE0167E040E70E942A0E84FD5B
:101CD00002C081E004C0CE010E94CB0D80E0DF9104
:101CE000CF91089520E00E94540E0895462F603849
:101CF00008F04FE765E00E942A0E0895EF92FF92E8
:101D00000F931F93CF93DF937C01162FEA01022FCD
:101D100060E00E949A0D1F7110621EBD0DB407FE97
:101D2000FDCF1EB508C088818EBD0DB407FEFDCF66
:101D300021968EB501500023B1F7C70161E00E94E2
:101D40009A0D812FDF91CF911F910F91FF90EF900E
:101D50000895EF92FF920F931F93DF93CF93CDB728
:101D6000DEB728970FB6F894DEBF0FBECDBF7C015B
:101D700009831A832B833C834D835E836F8378872B
:101D80008E010F5F1F4F6AE0A801F70122850E94B4
:101D90007E0EC70160E1A801F70122850E947E0E38
:101DA000C70161E1F70143810E942A0E28960FB610
:101DB000F894DEBF0FBECDBFCF91DF911F910F9181
:101DC000FF90EF9008951F93CF93DF93EC01162FB0
:101DD00060E00E949A0D1F711EBD0DB407FEFDCF7D
:101DE0008EB58FEF8EBD0DB407FEFDCF1EB5CE01B3
:101DF00061E00E949A0D812FDF91CF911F9108958C
:101E00000F931F93CF93DF938C01EB0160E00E944F
:101E1000E30E482F437F209729F0219711F4486063
:101E200001C04C60C80160E00E942A0EDF91CF9192
:101E30001F910F910895FF920F931F93CF93DF93FC
:101E4000EC018B0166E00E94E30EF7EDFF2EF82215
:101E50000230110511F480E204C00130110511F4C3
:101E600088E0F82ACE0166E04F2D0E942A0ECE01AE
:101E700066E00E94E30E90E08F1509F491E0892F4F
:101E8000DF91CF911F910F91FF9008951F93CF93F2
:101E9000DF93EC01162F66E00E94E30E143010F081
:101EA00047E003C0412F440F4F5F887F482BCE018E
:101EB00066E00E942A0EDF91CF911F910895FF9254
:101EC0000F931F938C01F62E62E00E94E30EEAEE60
:101ED000F0E0EF0DF11DE49141E050E002C0440F4D
:101EE000551FEA95E2F740954823C80162E00E9439
:101EF0002A0E1F910F91FF900895BF92CF92DF920B
:101F0000EF92FF920F931F93DF93CF93CDB7DEB77E
:101F100028970FB6F894DEBF0FBECDBF6C01B62E6A
:101F2000E982FA820B831C832D833E834F8358877B
:101F3000662369F49C012B5F3F4FFC014285C90178
:101F4000BE016F5F7F4F50E00E94320207C0F6E093
:101F5000F61708F43EC081E0681769F4EB2DF0E055
:101F6000E051FF4FE491C6016E2FAE014F5F5F4F0E
:101F7000F60122850BC0E62FF0E0E051FF4FE4911F
:101F8000C6016E2FAE014F5F5F4F21E00E947E0EB3
:101F90000B2D10E0F801EA50FF4FE491C6016E2FBF
:101FA000F60143810E942A0EC60162E00E94E30E00
:101FB00006511F4FF801649121E030E002C0220F6A
:101FC000331F6A95E2F7482F422BC60162E00E9458
:101FD0002A0E28960FB6F894DEBF0FBECDBFCF9164
:101FE000DF911F910F91FF90EF90DF90CF90BF9006
:101FF00008950F931F93CF93DF93EC018B0167E15B
:102000000E94E30E80FF02C080E00DC001151105A3
:1020100049F0CE010E94C70D90E095958795877095
:10202000F801808381E0DF91CF911F910F91089596
:1020300060E070E00E94F90F0895CF93DF93EC0108
:1020400060E00E94E30E81FD10C0CE0160E00E94BE
:10205000E30E482F4260CE0160E00E942A0E65E048
:1020600070E080E090E00E94A015DF91CF9108958C
:102070000F931F938C01FC01808160E00E94691620
:1020800082E890E00E945B15C8010E94CB0DC80158
:1020900060E00E94E30E482F4E7FC80160E00E947E
:1020A0002A0EC80162E00E94E30EEAEEF0E0E4913D
:1020B00021E030E002C0220F331FEA95E2F7482FFB
:1020C000422BC80162E00E942A0E84E690E00E9442
:1020D0005B151F910F910895CF93DF93EC010E9440
:1020E0001D10CE0160E00E94E30E482F4160CE013A
:1020F00060E00E942A0ECE0167E040E70E942A0EAF
:102100008D81882349F0AE014B5F5F4FCE016AE0BD
:102110002A850E947E0E04C0CE0160E00E945F0FFF
:10212000CE010E94CB0D888161E00E946916DF918B
:10213000CF910895CF93DF93EC01888161E00E94F5
:102140002A16898161E00E942A160E94F30688817E
:1021500060E00E946916CE0161E00E949A0D65E080
:1021600070E080E090E00E94A015CE0165E04FE0B5
:102170000E944A0ECE0162E070E00E941B0F88238D
:1021800011F081E08A83CE0160E070E00E941B0FB5
:10219000CE0162E070E00E94000FCE0167E040E7F0
:1021A0000E942A0ECE016CE40E94760ECE010E949F
:1021B000CF0DCE010E94CB0DCE010E941D10CE018D
:1021C00060E00E94E30E482F4E7FCE0160E00E9447
:1021D0002A0EDF91CF910895FC011386158614868F
:1021E00087E090E012863197009711F00197FACFBF
:1021F0000895DC0180E00BC0E82FF0E08D9190E0C5
:10220000E827F927E355FD4FE49161508E2F6623AF
:1022100099F70895DF92EF92FF920F931F93FC01BD
:10222000E08001811281F894F80181818E298183F7
:102230008281DE2CD0948D21828383E090E00E9405
:102240005B15F80181818D2181838AE090E00E94F5
:102250005B15F8010081789485E390E00E945B159E
:1022600080E010E0FF240E211F21012B09F081E006
:102270001F910F91FF90EF90DF900895EF92FF92E2
:102280000F931F93CF93DF937C0101E010E0C0E038
:10229000D0E0C7010E940A118111102B000F219676
:1022A000C830D105B1F7812FDF91CF911F910F91E8
:1022B000FF90EF9008951F93CF93DF93FC0110815F
:1022C000C181D281912F909560FF12C0F8948A81CC
:1022D00089238A838981812B89838AE090E00E9407
:1022E0005B158A81812B8A83789487E390E011C003
:1022F000F8948A8189238A838981812B898381E467
:1023000090E00E945B158A81812B8A83789485E016
:1023100090E00E945B15DF91CF911F910895CF92BD
:10232000DF92EF92FF920F931F93CF93DF938C0175
:10233000E42EFF24F394C0E0D0E0C62EDD2460E05C
:102340008F2D90E08C219D21892B09F061E0C8013F
:102350000E945B11FF0C2196C830D10581F7EE2059
:10236000A9F4F894D8011196ED91FC9112979181FE
:102370008C918095982391831196ED91FC91129701
:1023800092818C918095982392837894DF91CF915C
:102390001F910F91FF90EF90DF90CF9008956CEC1C
:1023A00040E00E948F110895EF92FF920F931F93C8
:1023B000CF93DF938C017B0165E540E00E948F1194
:1023C000C0E0D0E0F701EC0FFD1FC801608140E0E4
:1023D0000E948F112196C830D105A1F7DF91CF91CE
:1023E0001F910F91FF90EF900895DF92EF92FF926F
:1023F0000F931F93CF93DF93FC010081C181D281A2
:10240000F8948981D02ED0948D21898378941DE70A
:10241000E02EFF24115059F182E090E00E945B15FC
:10242000888190E08E219F21892BA1F3F8948A81E5
:102430008D218A838981802B8983789480EE91E035
:102440000E945B15F89489818D21898386E490E050
:102450000E945B15888110E090E0E822F922EF28C5
:1024600009F411E078948AE991E00E945B15812FCC
:10247000DF91CF911F910F91FF90EF90DF90089522
:10248000AF92BF92DF92EF92FF920F931F93CF9381
:10249000DF93EC015B018D85882309F061C0CE01DB
:1024A0000E94F511882329F41B861D861C8690E066
:1024B0006BC0CE0160EF40E00E948F1101E0DD248F
:1024C000EE24FF24F394CE010E940A11182FCE01AE
:1024D0000E940A11113019F48130E1F439C0181743
:1024E00009F58B85081770F460E0FE01EE0DF11D13
:1024F000838190E02F2D30E0822393231816190654
:102500004CF003C060E0081729F0093008F04CC017
:102510000C874AC0FE01EE0DF11D83818F29838354
:1025200061E009C0612FFE01EE0DF11D9F2D909518
:10253000838189238383CE010E945B110F5FFF0C8F
:1025400019F4E394FF24F39487E08E1508F0BBCFD1
:10255000013430F0DB86DD2011F581E08D871FC06E
:102560001B861D861C8690E0DE0120E030E0F50130
:10257000E20FF31F13968C91139780832F5F3F4FC9
:1025800011962830310599F7892FDF91CF911F914E
:102590000F91FF90EF90DF90BF90AF9008958B81E7
:1025A0008823F1F291E0E0CFD02EBDCFFF920F93C0
:1025B0001F938C01F62E862F60E00E942A168F2D25
:1025C00090E0FC01E152FC4FE491D801EC9385537B
:1025D0009C4FFC016491E62FF0E0EE0FFF1FEF53DC
:1025E000FC4F8591949112969C938E9311971B9614
:1025F0001C921B971D961C921D971C961C92F8010D
:1026000087E090E012863197009711F00197FACF9A
:102610001F910F91FF9008950895FF920F931F93BC
:10262000FC01F62E09EB13E0C80160810E940A0745
:10263000C8016F2D0E949607C8010E94D9071F91FB
:102640000F91FF900895CF92DF92EF92FF920F9338
:102650001F93CF93DF93EC018981813071F489EB73
:1026600093E06CE570E00E94140789EB93E06CE561
:1026700070E042E050E00E94EA078981882371F40B
:1026800089EB93E063E270E00E94140789EB93E02A
:1026900063E270E042E050E00E94EA0789EB93E0D9
:1026A0000E942707F82EEE2489EB93E00E9427076B
:1026B0006C0189EB93E00E94D907EC28FD2800E02B
:1026C00010E0C801B7010E949C1F2AE939E949E9D5
:1026D0005FE30E94031F0E94701FCB01DF91CF9127
:1026E0001F910F91FF90EF90DF90CF900895FF9290
:1026F0000F931F938C01F62E6AE070E080E090E06B
:102700000E94A015C8016F2D0E940D131F910F91FB
:10271000FF900895CF93DF93EC01633219F06C358D
:1027200079F407C0688381E160E00E94691619822C
:1027300007C0688381E161E00E94691681E08983B6
:10274000DF91CF9108950F931F938C0189EB93E054
:102750000E94EE07C80161E00E940D1381E161E073
:102760000E942A1681E161E00E9469161F910F9173
:102770000895FC0166834783208781E0858708955B
:10278000BF92CF92DF92EF92FF920F931F93CF935E
:10279000DF937C01EB01009739F4CB0162EB71E030
:1027A0000E945E1A9C0143C0E881F9810190F0818A
:1027B000E02DCB0162E209956C0127C03296808141
:1027C000882311F08617D1F7B180E881F981BB2009
:1027D00091F00190F081E02DCE016CE509958C011E
:1027E000E881F9810190F081E02DCE016B2D0995F2
:1027F000800F911F05C00190F081E02DCE01099559
:102800000894E11CF11CC80ED91EF70160816623F3
:1028100019F0E2ECF1E0D3CFE881F9810190F08189
:10282000E02DCE0162E209959601280F391FC901FA
:10283000DF91CF911F910F91FF90EF90DF90CF909C
:10284000BF900895FC01808191810E94C01308957A
:102850006F927F928F929F92AF92BF92CF92DF92B0
:10286000EF92FF920F931F93CF93DF938C01EB01B5
:10287000E881F9810190F081E02DCB016BE70995AA
:102880005C01D80112966D907C90139716968D90EE
:102890009C90179734C0F301819191918F01BE01F3
:1028A0000E94C0137C01E881F9810190F081E02D44
:1028B000CE016AE309956C01D3011696ED91FC9166
:1028C0001797C801BE010995EC0CFD1CAE0CBF1C8E
:1028D000A80EB91EB1E08B16910451F0E881F98180
:1028E0000190F081E02DCE016CE20995A80EB91E91
:1028F000E8E0F0E06E0E7F1E08948108910818143D
:1029000019044CF2E881F9810190F081E02DCE01AB
:102910006DE709959501280F391FC901DF91CF9106
:102920001F910F91FF90EF90DF90CF90BF90AF90ED
:102930009F908F907F906F900895FC01CB01408114
:102940005181628173812AE030E00E941E1A08954D
:10295000EF92FF920F931F93CF93DF93FC017B01C4
:10296000C281D381068117810AC088819981B7010C
:102970000E943B02009741F028960150104010162B
:1029800011069CF3C0E0D0E0CE01DF91CF911F9102
:102990000F91FF90EF9008950F931F93CF93DF93C4
:1029A000EC018B010E94A814009719F0FC013296EB
:1029B00026C02E813F818C819D81281739071CF00C
:1029C000E3E3F4E010C0C90153E0880F991F5A9562
:1029D000E1F7EA81FB81E80FF91F019311932F5F63
:1029E0003F4F3F832E8380E090E0A0E0B0E0808303
:1029F0009183A283B38382E294E195838483CF01A0
:102A0000DF91CF911F910F9108951F920F920FB6F2
:102A10000F9211242F933F938F939F93AF93BF9364
:102A200080913D0490913E04A0913F04B0914004F8
:102A3000309141040196A11DB11D232F2D5F2D372B
:102A400020F02D570196A11DB11D209341048093C4
:102A50003D0490933E04A0933F04B09340048091C2
:102A6000390490913A04A0913B04B0913C04019642
:102A7000A11DB11D8093390490933A04A0933B04A7
:102A8000B0933C04BF91AF919F918F913F912F9153
:102A90000F900FBE0F901F9018958FB7F89420914C
:102AA0003D0430913E0440913F04509140048FBF5B
:102AB000B901CA010895019739F0880F991F880F4D
:102AC000991F02970197F1F70895789484B5826071
:102AD00084BD84B5816084BD85B5826085BD85B5C2
:102AE000816085BDEEE6F0E0808181608083E1E871
:102AF000F0E01082808182608083808181608083A9
:102B0000E0E8F0E0808181608083E1EBF0E08081AB
:102B100084608083E0EBF0E0808181608083EAE77D
:102B2000F0E0808184608083808182608083808106
:102B3000816080838081806880831092C1000895C5
:102B4000EF92FF920F931F93CF93DF937B018C0142
:102B50003FB7F8948091390490913A04A0913B04D6
:102B6000B0913C0426B5A89B05C02F3F19F00196F3
:102B7000A11DB11D3FBFBA2FA92F982F8827820F03
:102B8000911DA11DB11D52E0880F991FAA1FBB1FE7
:102B90005A95D1F7EC0130C00E94831C3FB7F894DE
:102BA0008091390490913A04A0913B04B0913C0487
:102BB00026B5A89B05C02F3F19F00196A11DB11D98
:102BC0003FBFBA2FA92F982F8827820F911DA11DD3
:102BD000B11D32E0880F991FAA1FBB1F3A95D1F78C
:102BE0008C1B9D0B885E9340B8F20894E108F108B5
:102BF00001091109C851DC4FE114F1040105110567
:102C000059F6DF91CF911F910F91FF90EF900895AA
:102C1000982F8E3008F09E5097708091E001829539
:102C2000880F880F807C892B80937C0080917A00AC
:102C3000806480937A0080917A0086FDFCCF209199
:102C4000780040917900942F80E030E0282B392BD8
:102C5000C9010895CF93DF93482F50E0CA018152F4
:102C60009C4FFC01349145535C4FFA0184918823B9
:102C700069F190E0880F991FFC01E355FC4FA59185
:102C8000B491FC01E954FC4FC591D491662351F4F1
:102C90002FB7F8948C91932F909589238C938881EA
:102CA00089230BC0623061F42FB7F8948C91932F75
:102CB000909589238C938881832B88832FBF06C0AE
:102CC0009FB7F8948C91832B8C939FBFDF91CF910A
:102CD0000895482F50E0CA018D509C4FFC0124916B
:102CE000CA0181529C4FFC01949145535C4FFA01FB
:102CF0003491332309F440C0222351F1233071F081
:102D0000243028F42130A1F0223011F514C02630EF
:102D1000B1F02730C1F02430D9F404C08091800094
:102D20008F7703C0809180008F7D8093800010C0DA
:102D300084B58F7702C084B58F7D84BD09C0809132
:102D4000B0008F7703C08091B0008F7D8093B0007A
:102D5000E32FF0E0EE0FFF1FE954FC4FA591B49173
:102D60002FB7F894662321F48C919095892302C0A3
:102D70008C91892B8C932FBF0895682F70E0CB0125
:102D80008D509C4FFC012491CB0181529C4FFC0142
:102D9000449165537C4FFB019491992319F420E0F1
:102DA00030E03CC0222351F1233071F0243028F46C
:102DB0002130A1F0223011F514C02630B1F02730B7
:102DC000C1F02430D9F404C0809180008F7703C013
:102DD000809180008F7D8093800010C084B58F77B4
:102DE00002C084B58F7D84BD09C08091B0008F770B
:102DF00003C08091B0008F7D8093B000892F90E058
:102E0000880F991F8F539C4FFC01A591B4918C9111
:102E100020E030E0842311F021E030E0C901089582
:102E2000DC015C968C915C97FD01E80FF11DE35A83
:102E3000FF4F20815C968C915C9790E001968F7398
:102E400090705C968C935C975696ED91FC91579799
:102E500020835096ED91FC9151978081806480830E
:102E60005B969C915B975C968C915C97981739F474
:102E70005296ED91FC91539780818F7D80830895C8
:102E8000DF92EF92FF920F931F93CF93DF93EC01AA
:102E90007A018B01D22EE889F98982E08083403063
:102EA00081EE580780E0680780E07807A1F060E0D5
:102EB00079E08DE390E0A80197010E943F22215024
:102EC000304040405040569547953795279580E1D2
:102ED0002030380798F0E889F989108260E874E8B2
:102EE0008EE190E0A80197010E943F2221503040DE
:102EF000404050405695479537952795EC85FD8580
:102F00003083EE85FF852083188EEC89FD89D08281
:102F1000EA89FB89808180618083EA89FB898081DD
:102F200088608083EA89FB89808180688083EA8960
:102F3000FB8980818F7D8083DF91CF911F910F91DD
:102F4000FF90EF90DF900895FC01218D828D30E09D
:102F5000205C3F4F281B31092F733070C901089541
:102F6000FC01918D828D981719F42FEF3FEF06C069
:102F7000828DE80FF11D858D282F30E0C90108955D
:102F8000DC0159969C9159975A968C915A979817AB
:102F900019F42FEF3FEF10C05A968C915A97FD010C
:102FA000E80FF11D958D5A968C915A978F5F8F730C
:102FB0005A968C93292F30E0C9010895CF93DF935F
:102FC000EC01888D882361F419C08C9185FF0AC0BB
:102FD000E889F989808185FF05C0CE010E9410171C
:102FE000AA89BB898C9185FD05C0E889F989808112
:102FF00086FD04C00FB607FEE8CFF4CFDF91CF9176
:1030000008950F931F93CF93DF93EC01062F9B8DB1
:103010008C8D981791F5E889F989808185FF2DC0FD
:10302000EE89FF896083E889F989808180648083E3
:103030001DC00FB607FC08C0E889F989808185FFAB
:1030400003C0CE010E9410178C8D181791F38B8D41
:10305000FE01E80FF11DE35AFF4F00831B8FEA8941
:10306000FB8980818062808381E0888F81E090E0AD
:10307000DF91CF911F910F9108951B8D1F5F1F73DB
:10308000E3CF89EC98E1892B51F080E090E0892B27
:1030900031F00E94C918882311F00E9400000895A1
:1030A0001F920F920FB60F9211242F938F939F931D
:1030B000EF93FF93E0915204F0915304808182FDDD
:1030C00016C0E0915804F0915904208190915B045E
:1030D0009F5F9F7380915C04981771F0E0915B048F
:1030E000F0E0EE5BFB4F258F90935B0405C0E09111
:1030F0005804F0915904E081FF91EF919F918F91D5
:103100002F910F900FBE0F901F90189510924504AD
:103110001092440488EE93E0A0E0B0E0809346046F
:1031200090934704A0934804B093490487E092E049
:10313000909343048093420485EC90E090934F0475
:1031400080934E0484EC90E090935104809350045B
:1031500080EC90E0909353048093520481EC90E0D3
:10316000909355048093540482EC90E0909357041C
:103170008093560486EC90E0909359048093580411
:1031800010925B0410925C0410925D0410925E0435
:10319000089582E494E00E94A41720E0892B09F0AE
:1031A00021E0822F08951F920F920FB60F921124E3
:1031B0002F933F934F935F936F937F938F939F933F
:1031C000AF93BF93EF93FF9382E494E00E941017B4
:1031D000FF91EF91BF91AF919F918F917F916F91EF
:1031E0005F914F913F912F910F900FBE0F901F90C5
:1031F0001895CF93DF930E9465150E942006C1E4C5
:10320000D8E10E941B062097E1F30E944118F9CFF4
:10321000CF92DF92EF92FF920F931F93CF93DF93A2
:103220007C016B018A01C0E0D0E00FC0D6016D9136
:103230006D01D701ED91FC910190F081E02DC70166
:103240000995C80FD91F015010400115110571F7DC
:10325000CE01DF91CF911F910F91FF90EF90DF9002
:10326000CF900895CF93DF93FB01EC01A881B98142
:1032700060817181448155811296ED91FC91139783
:103280000995DF91CF910895DC01ED91FC910190BA
:10329000F081E02D099508959C01DB01ED91FC91F1
:1032A0000190F081E02DCB01B90109950895EF92CD
:1032B000FF920F931F938C01DC01ED91FC91019023
:1032C000F081E02D6DE009957C01D801ED91FC9134
:1032D0000190F081E02DC8016AE009959C012E0D56
:1032E0003F1DC9011F910F91FF90EF900895EF923C
:1032F000FF920F931F937C01DC01ED91FC910190F3
:10330000F081E02D09958C01C7010E945719080F23
:10331000191FC8011F910F91FF90EF900895CF934F
:10332000DF93EC016115710519F420E030E00FC066
:10333000DB010D900020E9F71197A61BB70BE88180
:10334000F9810280F381E02DAD0109959C01C9014D
:10335000DF91CF9108954F925F927F928F929F92CB
:10336000AF92BF92CF92DF92EF92FF920F931F9393
:10337000DF93CF93CDB7DEB7A1970FB6F894DEBF3A
:103380000FBECDBF2C01742ECB01223008F42AE0F1
:1033900019A231E2C32ED12CCC0EDD1E822E99242F
:1033A000AA24BB24672D752FA50194010E943F22FA
:1033B00079018A01C801B701A50194010E94202268
:1033C000472D461B0894C108D1084A3014F4405DCB
:1033D00001C0495CF6014083E114F10401051105C7
:1033E00021F07E2C5F2DC801DDCFC201B6010E9405
:1033F0008F19A1960FB6F894DEBF0FBECDBFCF9147
:10340000DF911F910F91FF90EF90DF90CF90BF90D1
:10341000AF909F908F907F905F904F900895DC01C8
:103420002115310541F4ED91FC910190F081E02DE1
:10343000642F099508950E94AB190895CF92DF92E9
:10344000EF92FF920F931F93CF93DF93EC016A01EA
:103450007B012115310541F4E881F9810190F0816A
:10346000E02D642F09951FC02A303105D1F477FF74
:1034700017C0E881F9810190F081E02D6DE2099596
:103480008C0144275527BA014C195D096E097F0943
:10349000CE012AE00E94AB199801280F391F04C001
:1034A0002AE00E94AB199C01C901DF91CF911F91C5
:1034B0000F91FF90EF90DF90CF9008950E948F19A9
:1034C00008957F928F929F92AF92BF92CF92DF9298
:1034D000EF92FF920F931F93CF93DF934C017A01EA
:1034E0008B01722ECB01BA01A80197010E94012124
:1034F000882321F0C40162ED71E021C0C0E0D0E07A
:1035000057016801E894D7F8C601B5012FEF3FEFE6
:103510004FE75FE70E940121882351F4C601B501FE
:103520002FEF3FEF4FE75FE70E94FF1E181614F0E2
:10353000C1E0D0E0219739F0C40166ED71E00E944E
:103540008F19EC0193C0C801B7012FEF3FEF4FE790
:103550005FE40E944E20181654F0C801B7012FEF07
:103560003FEF4FE75FEC0E94FF1E882324F4C40165
:103570006AED71E0E4CFC801B70120E030E040E03F
:1035800050E00E94FF1E87FD03C0C0E0D0E00EC0E7
:10359000D401ED91FC910190F081E02DC4016DE228
:1035A0000995EC0117FB109517F9109520E030E014
:1035B00040E05FE3DD240BC0CA01B90120E030E048
:1035C00040E251E40E94031F9B01AC01D394D71445
:1035D00098F3C801B7010E949B1E5B016C010E9419
:1035E000701F7B018C01C401B801A7012AE030E003
:1035F0000E940F1AC80FD91F772039F0C4016EED51
:1036000071E00E948F19C80FD91FC801B7010E942D
:103610009C1F9B01AC01C601B5010E949A1E24C0EB
:1036200020E030E040E251E40E9452207B018C0116
:103630000E946B1F5B016C01CC24B7FCC094DC2C96
:10364000C401B601A5012AE030E00E941E1AC80F8D
:10365000D91FC601B5010E949E1F9B01AC01C80184
:10366000B7010E949A1E7A947720D1F6CE01DF919D
:10367000CF911F910F91FF90EF90DF90CF90BF906F
:10368000AF909F908F907F9008950E94611A089547
:10369000EF92FF920F931F937C010E948F198C0170
:1036A000C7010E945719080F191FC8011F910F91D8
:1036B000FF90EF9008950F931F93CF93DF93EC014A
:1036C0008B016F5F7F4F888199810E94B91D0097A0
:1036D00011F480E005C0998388831B830A8381E00D
:1036E000DF91CF911F910F910895CF93DF93EC015C
:1036F00088819981892B29F08A819B818617970778
:1037000060F4CE010E945B1B882341F08C819D8177
:10371000892B19F4E881F981108281E0DF91CF9142
:103720000895EF92FF920F931F93CF93DF93EC01D5
:103730007B016C817D81E114F104C1F041155105DB
:1037400099F08A01060F171FB8010E94751B882384
:1037500069F0888199812C813D81820F931FB70187
:103760000E9444021D830C8381E001C080E0DF9150
:10377000CF911F910F91FF90EF900895EF92FF92DC
:103780000F931F93DF93CF93CDB7DEB728970FB674
:10379000F894DEBF0FBECDBF7C01CB018E010F5F61
:1037A0001F4FB8014AE050E00E944B02F80101901F
:1037B0000020E9F73197E01BF10BC701B801AF0119
:1037C0000E94911B28960FB6F894DEBF0FBECDBFA6
:1037D000CF91DF911F910F91FF90EF900895CF93BC
:1037E000DF93EC0188819981009711F00E94211DDF
:1037F000198218821D821C821B821A82DF91CF914E
:1038000008950F931F93182F092F0E94BE1B882322
:1038100021F4812F902F0E94EF1B812F902F1F9159
:103820000F910895EF92FF920F931F93CF93DF9321
:10383000EC017B018A01BA010E94751B882321F4E7
:10384000CE010E94EF1B07C01D830C8388819981E4
:10385000B7010E944402CE01DF91CF911F910F91D9
:10386000FF90EF900895CF93DF93EC0119821882B7
:103870001B821A821D821C826115710551F0DB01C9
:103880000D900020E9F71197A61BB70BAD010E9420
:10389000121CDF91CF910895CF93DF93EC01FB01D0
:1038A0008617970761F0608171816115710529F0B4
:1038B000448155810E94121C02C00E94EF1BCE0160
:1038C000DF91CF910895FC01118210821382128240
:1038D000158214820E944C1C0895FC0111821082F2
:1038E00013821282158214820E944C1C0895FC01DE
:1038F000808191810E94211D0895FC018081918128
:103900000E94211D089508950F931F93CF93DF9375
:10391000BC018230910510F462E070E0E091E104B6
:10392000F091E20440E050E0A0E0B0E024C08081EB
:10393000918186179707D0F08617970771F48281D7
:103940009381109729F013969C938E9312972CC015
:103950009093E2048093E10427C04115510519F0CA
:103960008417950718F48D01AC01EF01DF01828106
:1039700093819C01F9013097D1F641155105F9F079
:10398000CA01861B970B8430910580F48A819B8144
:103990000115110521F0F8019383828304C09093EF
:1039A000E2048093E104FE01329645C0FE01E80F77
:1039B000F91F619371930297998388833CC080912A
:1039C000DF049091E004892B41F48091E301909110
:1039D000E4019093E0048093DF044091E50150916D
:1039E000E6014115510541F44DB75EB78091E10103
:1039F0009091E201481B590B2091DF043091E004C3
:103A000024173507B0F4CA01821B930B861797075A
:103A100080F0AB014E5F5F4F8417950750F0420F67
:103A2000531F5093E0044093DF04F90161937193B5
:103A300002C0E0E0F0E0CF01DF91CF911F910F9144
:103A40000895CF93DF939C01009709F48FC0EC0198
:103A500022971B821A826091E1047091E204611541
:103A6000710581F488819981820F931F2091DF0471
:103A70003091E0042817390739F5D093E004C0935A
:103A8000DF0474C0DB0140E050E0AC17BD0708F173
:103A9000BB83AA83FE0121913191E20FF31FAE1780
:103AA000BF0779F48D919C911197280F391F2E5FD4
:103AB0003F4F3983288312968D919C9113979B8356
:103AC0008A834115510571F4D093E204C093E10457
:103AD0004DC012968D919C911397AD01009711F0F6
:103AE000DC01D3CFDA011396DC93CE931297FA015F
:103AF00021913191E20FF31FCE17DF0769F488811E
:103B00009981280F391F2E5F3F4FFA01318320839F
:103B10008A819B8193838283E0E0F0E0DB0112964F
:103B20008D919C911397009719F0BC01FD01F6CF80
:103B3000AB014E5F5F4FDB018D919C91840F951F10
:103B40002091DF043091E0042817390779F4309789
:103B500029F41092E2041092E10402C0138212824E
:103B6000425050405093E0044093DF04DF91CF91E6
:103B700008956F927F928F929F92AF92BF92CF9251
:103B8000DF92EF92FF920F931F93CF93DF938C01FD
:103B9000009729F4CB010E94841C8C01BBC08EEFDE
:103BA000E82E8FEFF82EE00EF11E4801860E971ECC
:103BB0008E149F0408F4ACC0D7014D915C9111970D
:103BC00046175707B8F04530510508F4A3C0CA019D
:103BD00004978617970708F49DC042505040461B33
:103BE000570BF401419351936D937C93CF010E9445
:103BF000211D90C05B01A41AB50A3801640E751E20
:103C0000A091E104B091E204E0E0F0E0CC24DD24F6
:103C100047C0A615B705A9F5CD91DC911197CE0146
:103C200002968A159B0568F1CE018A199B090296B6
:103C300012962C91129713963C91059758F0F40127
:103C400022833383CA19DB09D183C083D7016D93E3
:103C50007C9309C04E5F5F4F4C0F5D1FF70151838E
:103C60004083C901FC01C114D10431F0D60113967F
:103C7000FC93EE9312974EC0F093E204E093E104BC
:103C800049C08D919C911197E817F90708F4FC0140
:103C90006D0112968C91129713969C919C01D901FB
:103CA000109709F0B6CF8091DF049091E00486155B
:103CB0009705E9F4E617F707D0F42091E501309174
:103CC000E6012115310541F42DB73EB78091E101A0
:103CD0009091E201281B390B82169306C8F490924A
:103CE000E0048092DF04F7017183608313C0CB018D
:103CF0000E94841CEC01009759F0D7014D915C9112
:103D0000B8010E943202C8010E94211D8E0102C02A
:103D100000E010E0C801DF91CF911F910F91FF905B
:103D2000EF90DF90CF90BF90AF909F908F907F905B
:103D30006F9008955058BB27AA270ED075C166D141
:103D400030F06BD120F031F49F3F11F41EF45BC1D1
:103D50000EF4E095E7FB51C1E92F77D180F3BA1754
:103D6000620773078407950718F071F49EF58FC1F9
:103D70000EF4E0950B2EBA2FA02D0B01B901900186
:103D80000C01CA01A0011124FF27591B99F0593FCA
:103D900050F4503E68F11A16F040A22F232F342F12
:103DA0004427585FF3CF469537952795A795F04060
:103DB0005395C9F77EF41F16BA0B620B730B840B75
:103DC000BAF09150A1F0FF0FBB1F661F771F881F2D
:103DD000C2F70EC0BA0F621F731F841F48F4879585
:103DE00077956795B795F7959E3F08F0B3CF939574
:103DF000880F08F09927EE0F979587950895D9D0E9
:103E000008F481E008950CD00FC107D140F0FED036
:103E100030F021F45F3F19F0F0C0511139C1F3C007
:103E200014D198F39923C9F35523B1F3951B550B7E
:103E3000BB27AA2762177307840738F09F5F5F4F7D
:103E4000220F331F441FAA1FA9F333D00E2E3AF0BE
:103E5000E0E830D091505040E695001CCAF729D0D8
:103E6000FE2F27D0660F771F881FBB1F2617370727
:103E70004807AB07B0E809F0BB0B802DBF01FF2757
:103E800093585F4F2AF09E3F510568F0B6C000C1BD
:103E90005F3FECF3983EDCF3869577956795B79591
:103EA000F7959F5FC9F7880F911D9695879597F9AC
:103EB0000895E1E0660F771F881FBB1F6217730725
:103EC0008407BA0720F0621B730B840BBA0BEE1F3A
:103ED00088F7E095089504D06894B111D9C0089589
:103EE000BCD088F09F5790F0B92F9927B751A0F018
:103EF000D1F0660F771F881F991F1AF0BA95C9F77E
:103F000012C0B13081F0C3D0B1E00895C0C0672FB6
:103F1000782F8827B85F39F0B93FCCF3869577952D
:103F20006795B395D9F73EF4909580957095619516
:103F30007F4F8F4F9F4F0895E89409C097FB3EF441
:103F400090958095709561957F4F8F4F9F4F9923E6
:103F5000A9F0F92F96E9BB279395F6958795779564
:103F60006795B795F111F8CFFAF4BB0F11F460FF24
:103F70001BC06F5F7F4F8F4F9F4F16C0882311F07C
:103F800096E911C0772321F09EE8872F762F05C090
:103F9000662371F096E8862F70E060E02AF09A952B
:103FA000660F771F881FDAF7880F9695879597F920
:103FB0000895990F0008550FAA0BE0E8FEEF1616BA
:103FC0001706E807F907C0F012161306E407F5070D
:103FD00098F0621B730B840B950B39F40A2661F081
:103FE000232B242B252B21F408950A2609F4A14024
:103FF000A6958FEF811D811D089597F99F6780E831
:1040000070E060E008959FEF80EC089500240A942A
:104010001616170618060906089500240A941216A3
:104020001306140605060895092E0394000C11F4D6
:10403000882352F0BB0F40F4BF2B11F460FF04C083
:104040006F5F7F4F8F4F9F4F089557FD9058440FDC
:10405000551F59F05F3F71F04795880F97FB991FE7
:1040600061F09F3F79F087950895121613061406A4
:10407000551FF2CF4695F1DF08C016161706180631
:10408000991FF1CF86957105610508940895E8940C
:10409000BB2766277727CB0197F908958ADF08F4B5
:1040A0008FEF08950BD0C0CFB1DF28F0B6DF18F046
:1040B000952309F0A2CFA7CF1124EACFC6DFA0F342
:1040C000959FD1F3950F50E0551F629FF001729FAD
:1040D000BB27F00DB11D639FAA27F00DB11DAA1FCC
:1040E000649F6627B00DA11D661F829F2227B00D19
:1040F000A11D621F739FB00DA11D621F839FA00DA4
:10410000611D221F749F3327A00D611D231F849FF3
:10411000600D211D822F762F6A2F11249F5750404A
:104120008AF0E1F088234AF0EE0FFF1FBB1F661FE5
:10413000771F881F91505040A9F79E3F510570F09E
:104140005CCFA6CF5F3FECF3983EDCF38695779586
:104150006795B795F795E7959F5FC1F7FE2B880F99
:10416000911D9695879597F90895FA01EE0FFF1F17
:1041700030962105310599F16115710561F480389A
:10418000BFE39B0749F168949038810561F080385E
:10419000BFEF9B0741F0992342F5FF3FE105310551
:1041A000210511F1E8940894E795D901AA2329F48F
:1041B000AB2FBE2FF85FD0F310C0FF5F70F4A69551
:1041C000E0F7F73950F019F0FF3A38F49F779F93F2
:1041D0000CD00F9007FC905808953EF014CF60E08B
:1041E00070E080E89FE308954FE79F775F934F93D8
:1041F0003F932F93A2D02F913F914F915F9152DF28
:1042000009C0D7DE880B990B089519F40EF0F5CE8E
:104210003ECFF9CE22DFC8F39638C0F707F80F92E9
:10422000E8942BE33AEA48EB5FE74ADF0F920F92FC
:104230000F924DB75EB70F92C0D0E8E6F0E016D00F
:104240004F915F91EF91FF91E595EE1FFF1F49F0B0
:10425000FE57E0684427EE0F441FFA95E1F74195B9
:10426000550B32D00F9007FE26C00895DF93CF93F1
:104270001F930F93FF92EF92DF927B018C01689462
:1042800005C0DA2EEF011ADFFE01E894A591259111
:10429000359145915591AEF3EF015EDDFE01970139
:1042A000A801DA9479F7DF90EF90FF900F911F91BA
:1042B000CF91DF9108959B01AC0160E070E080E850
:1042C0009FE3A1CD9ACEACC0C8DEE8F39923D9F321
:1042D000940F511DBBF39150504094F059F0882336
:1042E00032F0660F771F881F91505040C1F79E3FF4
:1042F000510544F7880F911D9695879597F9089574
:104300005F3FACF0983E9CF0BB278695779567950C
:10431000B79508F4B1609395C1F7BB0F58F711F446
:1043200060FFE8CF6F5F7F4F8F4F9F4FE3CFB0CEDF
:104330000EF076C068CE689460CE8FDEC8F3992305
:10434000D1F3C6F3DF93CF931F930F93FF92C92F3F
:10435000DD2788232AF02197660F771F881FDAF759
:1043600020E030E040E85FEB9FE3883920F0803EBA
:1043700030F021968F77DFDCE0E9F0E003C0DBDC92
:10438000EDEBF0E073DF8B01BE01EC01FB2E6F570C
:1043900071097595771F880B990BD0DD28E132E7FD
:1043A00041E35FE38BDEAF2D9801AE01FF900F91EB
:1043B0001F91CF91DF91D0DC37CEFA01DC01AA0F3B
:1043C000BB1F9B01AC01BF5728F42227332744278A
:1043D00050781FC0B75188F4AB2F0024469537950D
:1043E0002795011CA395D2F3002069F0220F331FFB
:1043F000441FB395DAF30DD09DCC61307105A0E870
:104400008A07B94630F49B01AC01662777278827D5
:104410009078309621F0208331834283538308952E
:104420009F3F49F0915028F4869577956795B79509
:104430009F5F80389F4F880F9695879597F90895CD
:10444000629FD001739FF001829FE00DF11D649F78
:10445000E00DF11D929FF00D839FF00D749FF00D04
:10446000659FF00D9927729FB00DE11DF91F639FA5
:10447000B00DE11DF91FBD01CF0111240895A1E286
:104480001A2EAA1BBB1BFD010DC0AA1FBB1FEE1FCE
:10449000FF1FA217B307E407F50720F0A21BB30B19
:1044A000E40BF50B661F771F881F991F1A9469F795
:1044B00060957095809590959B01AC01BD01CF01F1
:1044C000089597FB092E05260ED057FD04D0D7DF9F
:1044D0000AD0001C38F450954095309521953F4FF7
:1044E0004F4F5F4F0895F6F79095809570956195C1
:1044F0007F4F8F4F9F4F0895AA1BBB1B51E107C0F1
:10450000AA1FBB1FA617B70710F0A61BB70B881F63
:10451000991F5A95A9F780959095BC01CD010895F2
:10452000EE0FFF1F0590F491E02D099414E0CEE00A
:10453000D4E004C0FE010E9492222296C031D1072D
:06454000C9F7F894FFCF5B
:104546006C75726B6572006964006D6F74696F6E6D
:104556000074656D70657261747572650068756D5D
:10456600696469747900696C6C756D696E616E63F6
:1045760065006E6F69736500646F6E652E20536506
:104586006E736F722063616C696272617465642E0A
:104596000043616C6962726174696E67206D6F7445
:1045A600696F6E2073656E736F722E20506C656135
:1045B60073652077616974003D3D3D3D204C757201
:1045C6006B6572204E616E6F202D20436F6F726493
:1045D600696E61746F72203D3D3D3D002E2E2E00AA
:1045E6004D65737361676520726563656976656499
:1045F6000A006E756C6C0066616C7365007472758A
:10460600650022225C5C08620C660A6E0D720974F3
:1046160000006E616E00696E66006F7666002E00A1
:10462600018000E3040000000000002814000000E0
:1046360000281400000000960765071E0727073CA0
:10464600074D070000000001180819A417C017B08D
:0446560017DE170054
:00000001FF
